{"abi":[{"type":"constructor","inputs":[{"name":"uri_","type":"string","internalType":"string"}],"stateMutability":"nonpayable"},{"type":"function","name":"balanceOf","inputs":[{"name":"account","type":"address","internalType":"address"},{"name":"id","type":"uint256","internalType":"uint256"}],"outputs":[{"name":"","type":"uint256","internalType":"uint256"}],"stateMutability":"view"},{"type":"function","name":"balanceOfBatch","inputs":[{"name":"accounts","type":"address[]","internalType":"address[]"},{"name":"ids","type":"uint256[]","internalType":"uint256[]"}],"outputs":[{"name":"","type":"uint256[]","internalType":"uint256[]"}],"stateMutability":"view"},{"type":"function","name":"getCollectionId","inputs":[{"name":"parentCollectionId","type":"bytes32","internalType":"bytes32"},{"name":"conditionId","type":"bytes32","internalType":"bytes32"},{"name":"indexSet","type":"uint256","internalType":"uint256"}],"outputs":[{"name":"","type":"bytes32","internalType":"bytes32"}],"stateMutability":"view"},{"type":"function","name":"getConditionId","inputs":[{"name":"oracle","type":"address","internalType":"address"},{"name":"questionId","type":"bytes32","internalType":"bytes32"},{"name":"outcomeSlotCount","type":"uint256","internalType":"uint256"}],"outputs":[{"name":"","type":"bytes32","internalType":"bytes32"}],"stateMutability":"pure"},{"type":"function","name":"getOutcomeSlotCount","inputs":[{"name":"conditionId","type":"bytes32","internalType":"bytes32"}],"outputs":[{"name":"","type":"uint256","internalType":"uint256"}],"stateMutability":"view"},{"type":"function","name":"getPositionId","inputs":[{"name":"collateralToken","type":"address","internalType":"contract IERC20"},{"name":"collectionId","type":"bytes32","internalType":"bytes32"}],"outputs":[{"name":"","type":"uint256","internalType":"uint256"}],"stateMutability":"pure"},{"type":"function","name":"isApprovedForAll","inputs":[{"name":"account","type":"address","internalType":"address"},{"name":"operator","type":"address","internalType":"address"}],"outputs":[{"name":"","type":"bool","internalType":"bool"}],"stateMutability":"view"},{"type":"function","name":"mergePositions","inputs":[{"name":"collateralToken","type":"address","internalType":"contract IERC20"},{"name":"parentCollectionId","type":"bytes32","internalType":"bytes32"},{"name":"conditionId","type":"bytes32","internalType":"bytes32"},{"name":"partition","type":"uint256[]","internalType":"uint256[]"},{"name":"amount","type":"uint256","internalType":"uint256"}],"outputs":[],"stateMutability":"nonpayable"},{"type":"function","name":"payoutDenominator","inputs":[{"name":"","type":"bytes32","internalType":"bytes32"}],"outputs":[{"name":"","type":"uint256","internalType":"uint256"}],"stateMutability":"view"},{"type":"function","name":"payoutNumerators","inputs":[{"name":"","type":"bytes32","internalType":"bytes32"},{"name":"","type":"uint256","internalType":"uint256"}],"outputs":[{"name":"","type":"uint256","internalType":"uint256"}],"stateMutability":"view"},{"type":"function","name":"prepareCondition","inputs":[{"name":"oracle","type":"address","internalType":"address"},{"name":"questionId","type":"bytes32","internalType":"bytes32"},{"name":"outcomeSlotCount","type":"uint256","internalType":"uint256"}],"outputs":[],"stateMutability":"nonpayable"},{"type":"function","name":"redeemPositions","inputs":[{"name":"collateralToken","type":"address","internalType":"contract IERC20"},{"name":"parentCollectionId","type":"bytes32","internalType":"bytes32"},{"name":"conditionId","type":"bytes32","internalType":"bytes32"},{"name":"indexSets","type":"uint256[]","internalType":"uint256[]"}],"outputs":[],"stateMutability":"nonpayable"},{"type":"function","name":"reportPayouts","inputs":[{"name":"questionId","type":"bytes32","internalType":"bytes32"},{"name":"payouts","type":"uint256[]","internalType":"uint256[]"}],"outputs":[],"stateMutability":"nonpayable"},{"type":"function","name":"safeBatchTransferFrom","inputs":[{"name":"from","type":"address","internalType":"address"},{"name":"to","type":"address","internalType":"address"},{"name":"ids","type":"uint256[]","internalType":"uint256[]"},{"name":"values","type":"uint256[]","internalType":"uint256[]"},{"name":"data","type":"bytes","internalType":"bytes"}],"outputs":[],"stateMutability":"nonpayable"},{"type":"function","name":"safeTransferFrom","inputs":[{"name":"from","type":"address","internalType":"address"},{"name":"to","type":"address","internalType":"address"},{"name":"id","type":"uint256","internalType":"uint256"},{"name":"value","type":"uint256","internalType":"uint256"},{"name":"data","type":"bytes","internalType":"bytes"}],"outputs":[],"stateMutability":"nonpayable"},{"type":"function","name":"setApprovalForAll","inputs":[{"name":"operator","type":"address","internalType":"address"},{"name":"approved","type":"bool","internalType":"bool"}],"outputs":[],"stateMutability":"nonpayable"},{"type":"function","name":"splitPosition","inputs":[{"name":"collateralToken","type":"address","internalType":"contract IERC20"},{"name":"parentCollectionId","type":"bytes32","internalType":"bytes32"},{"name":"conditionId","type":"bytes32","internalType":"bytes32"},{"name":"partition","type":"uint256[]","internalType":"uint256[]"},{"name":"amount","type":"uint256","internalType":"uint256"}],"outputs":[],"stateMutability":"nonpayable"},{"type":"function","name":"supportsInterface","inputs":[{"name":"interfaceId","type":"bytes4","internalType":"bytes4"}],"outputs":[{"name":"","type":"bool","internalType":"bool"}],"stateMutability":"view"},{"type":"function","name":"uri","inputs":[{"name":"","type":"uint256","internalType":"uint256"}],"outputs":[{"name":"","type":"string","internalType":"string"}],"stateMutability":"view"},{"type":"event","name":"ApprovalForAll","inputs":[{"name":"account","type":"address","indexed":true,"internalType":"address"},{"name":"operator","type":"address","indexed":true,"internalType":"address"},{"name":"approved","type":"bool","indexed":false,"internalType":"bool"}],"anonymous":false},{"type":"event","name":"ConditionPreparation","inputs":[{"name":"conditionId","type":"bytes32","indexed":true,"internalType":"bytes32"},{"name":"oracle","type":"address","indexed":true,"internalType":"address"},{"name":"questionId","type":"bytes32","indexed":true,"internalType":"bytes32"},{"name":"outcomeSlotCount","type":"uint256","indexed":false,"internalType":"uint256"}],"anonymous":false},{"type":"event","name":"ConditionResolution","inputs":[{"name":"conditionId","type":"bytes32","indexed":true,"internalType":"bytes32"},{"name":"oracle","type":"address","indexed":true,"internalType":"address"},{"name":"questionId","type":"bytes32","indexed":true,"internalType":"bytes32"},{"name":"outcomeSlotCount","type":"uint256","indexed":false,"internalType":"uint256"},{"name":"payoutNumerators","type":"uint256[]","indexed":false,"internalType":"uint256[]"}],"anonymous":false},{"type":"event","name":"Interaction","inputs":[{"name":"addr","type":"address","indexed":true,"internalType":"address"},{"name":"interactionType","type":"string","indexed":false,"internalType":"string"},{"name":"tags","type":"string[]","indexed":false,"internalType":"string[]"},{"name":"data","type":"bytes","indexed":false,"internalType":"bytes"}],"anonymous":false},{"type":"event","name":"PayoutRedemption","inputs":[{"name":"redeemer","type":"address","indexed":true,"internalType":"address"},{"name":"collateralToken","type":"address","indexed":true,"internalType":"contract IERC20"},{"name":"parentCollectionId","type":"bytes32","indexed":true,"internalType":"bytes32"},{"name":"conditionId","type":"bytes32","indexed":false,"internalType":"bytes32"},{"name":"indexSets","type":"uint256[]","indexed":false,"internalType":"uint256[]"},{"name":"payout","type":"uint256","indexed":false,"internalType":"uint256"}],"anonymous":false},{"type":"event","name":"PositionSplit","inputs":[{"name":"stakeholder","type":"address","indexed":true,"internalType":"address"},{"name":"collateralToken","type":"address","indexed":false,"internalType":"contract IERC20"},{"name":"parentCollectionId","type":"bytes32","indexed":true,"internalType":"bytes32"},{"name":"conditionId","type":"bytes32","indexed":true,"internalType":"bytes32"},{"name":"partition","type":"uint256[]","indexed":false,"internalType":"uint256[]"},{"name":"amount","type":"uint256","indexed":false,"internalType":"uint256"}],"anonymous":false},{"type":"event","name":"PositionsMerge","inputs":[{"name":"stakeholder","type":"address","indexed":true,"internalType":"address"},{"name":"collateralToken","type":"address","indexed":false,"internalType":"contract IERC20"},{"name":"parentCollectionId","type":"bytes32","indexed":true,"internalType":"bytes32"},{"name":"conditionId","type":"bytes32","indexed":true,"internalType":"bytes32"},{"name":"partition","type":"uint256[]","indexed":false,"internalType":"uint256[]"},{"name":"amount","type":"uint256","indexed":false,"internalType":"uint256"}],"anonymous":false},{"type":"event","name":"TransferBatch","inputs":[{"name":"operator","type":"address","indexed":true,"internalType":"address"},{"name":"from","type":"address","indexed":true,"internalType":"address"},{"name":"to","type":"address","indexed":true,"internalType":"address"},{"name":"ids","type":"uint256[]","indexed":false,"internalType":"uint256[]"},{"name":"values","type":"uint256[]","indexed":false,"internalType":"uint256[]"}],"anonymous":false},{"type":"event","name":"TransferSingle","inputs":[{"name":"operator","type":"address","indexed":true,"internalType":"address"},{"name":"from","type":"address","indexed":true,"internalType":"address"},{"name":"to","type":"address","indexed":true,"internalType":"address"},{"name":"id","type":"uint256","indexed":false,"internalType":"uint256"},{"name":"value","type":"uint256","indexed":false,"internalType":"uint256"}],"anonymous":false},{"type":"event","name":"URI","inputs":[{"name":"value","type":"string","indexed":false,"internalType":"string"},{"name":"id","type":"uint256","indexed":true,"internalType":"uint256"}],"anonymous":false},{"type":"error","name":"ERC1155InsufficientBalance","inputs":[{"name":"sender","type":"address","internalType":"address"},{"name":"balance","type":"uint256","internalType":"uint256"},{"name":"needed","type":"uint256","internalType":"uint256"},{"name":"tokenId","type":"uint256","internalType":"uint256"}]},{"type":"error","name":"ERC1155InvalidApprover","inputs":[{"name":"approver","type":"address","internalType":"address"}]},{"type":"error","name":"ERC1155InvalidArrayLength","inputs":[{"name":"idsLength","type":"uint256","internalType":"uint256"},{"name":"valuesLength","type":"uint256","internalType":"uint256"}]},{"type":"error","name":"ERC1155InvalidOperator","inputs":[{"name":"operator","type":"address","internalType":"address"}]},{"type":"error","name":"ERC1155InvalidReceiver","inputs":[{"name":"receiver","type":"address","internalType":"address"}]},{"type":"error","name":"ERC1155InvalidSender","inputs":[{"name":"sender","type":"address","internalType":"address"}]},{"type":"error","name":"ERC1155MissingApprovalForAll","inputs":[{"name":"operator","type":"address","internalType":"address"},{"name":"owner","type":"address","internalType":"address"}]},{"type":"error","name":"StringsInsufficientHexLength","inputs":[{"name":"value","type":"uint256","internalType":"uint256"},{"name":"length","type":"uint256","internalType":"uint256"}]}],"bytecode":{"object":"0x6080604052346101f95761425280380380610019816101fd565b9283398101906020818303126101f9578051906001600160401b0382116101f9570181601f820112156101f9578051906001600160401b0382116101e55761006a601f8301601f19166020016101fd565b92828452602083830101116101f957815f9260208093018386015e8301015280516001600160401b0381116101e557600254600181811c911680156101db575b60208210146101c757601f8111610164575b50602091601f8211600114610104579181925f926100f9575b50508160011b915f199060031b1c1916176002555b60405161402f90816102238239f35b015190505f806100d5565b601f1982169260025f52805f20915f5b85811061014c57508360019510610134575b505050811b016002556100ea565b01515f1960f88460031b161c191690555f8080610126565b91926020600181928685015181550194019201610114565b60025f527f405787fa12a823e0f2b7631cc41b3ba8828b3321ca811111fa75cd3aa3bb5ace601f830160051c810191602084106101bd575b601f0160051c01905b8181106101b257506100bc565b5f81556001016101a5565b909150819061019c565b634e487b7160e01b5f52602260045260245ffd5b90607f16906100aa565b634e487b7160e01b5f52604160045260245ffd5b5f80fd5b6040519190601f01601f191682016001600160401b038111838210176101e55760405256fe60806040526004361015610011575f80fd5b5f3560e01c8062fdd58e1461014357806301b7037c1461013e57806301ffc9a7146101395780630504c814146101345780630e89341c1461012f5780632eb2c2d61461012a57806339dd7530146101255780634e1273f41461012057806372ce42751461011b578063852c6ae214610116578063856296f7146101115780639e7212ad1461010c578063a22cb46514610107578063c49298ac14610102578063d42dc0c2146100fd578063d96ee754146100f8578063dd34de67146100f3578063e985e9c5146100ee5763f242432a146100e9575f80fd5b6112d4565b611270565b611246565b61115a565b611130565b610fc9565b610f0e565b610d30565b610d0c565b610cf3565b610ab3565b6109aa565b610933565b61089f565b61069c565b61061d565b610581565b6101d9565b61015d565b6001600160a01b0381160361015957565b5f80fd5b346101595760403660031901126101595760206101a060043561017f81610148565b6024355f525f835260405f209060018060a01b03165f5260205260405f2090565b54604051908152f35b9181601f84011215610159578235916001600160401b038311610159576020808501948460051b01011161015957565b34610159576080366003190112610159576004356101f681610148565b602435906044356064356001600160401b0381116101595761021c9036906004016101a9565b610231839492945f52600460205260405f2090565b549161023e8315156113e2565b610250845f52600360205260405f2090565b5461025c81151561143c565b5f9361026a6001831b61149c565b915f5b87868a8c82851061046857918a84918a826102c4575b6102bf7f2682012a4a4f1973119f1c9b90745d1bd91fa2bab387344f044cb3586864d18d9360405193849360018060a01b0316973397856117e4565b0390a4005b856104215760405163a9059cbb60e01b815233600482015260248101849052926001600160a01b038216906020856044815f865af191821561041c576103366102bf937f2682012a4a4f1973119f1c9b90745d1bd91fa2bab387344f044cb3586864d18d975f916103ed575b506115d4565b61034f61034a610344611634565b926120f7565b611680565b610358826116c1565b52610362816116c1565b5061037461036f886121b6565b6116f2565b61037d826116ce565b52610387816116ce565b507f17b25de1f7ac081e71892e23f73afb17b86207521c28158cf2f7798a97ae88c76103e16040516103d3816103c587602083019190602083019252565b03601f1981018352826107a4565b60405191829133958361171f565b0390a25b935050610283565b61040f915060203d602011610415575b61040781836107a4565b8101906115b4565b8b610330565b503d6103fd565b6115c9565b6102bf7f2682012a4a4f1973119f1c9b90745d1bd91fa2bab387344f044cb3586864d18d936104636104538985612027565b8261045c6115a0565b91336120b3565b6103e5565b6104798561049a94610494946114d5565b3593849182151580610566575b61048f906114e5565b611de3565b87612027565b905f905f5b8581106105195750506104d2336104bd845f525f60205260405f2090565b9060018060a01b03165f5260205260405f2090565b5490816104e5575b50505060010161026d565b9061050a600194939a610504886104ff610511968661156a565b611591565b90611545565b9933612060565b905f806104da565b8b6001821b831661052e575b5060010161049f565b819361050461055360019461054e61055d955f52600360205260405f2090565b610603565b90549060031b1c90565b9290508b610525565b50898310610486565b6001600160e01b031981160361015957565b346101595760203660031901126101595760206004356105a08161056f565b63ffffffff60e01b16636cdb3d1360e11b81149081156105de575b81156105cd575b506040519015158152f35b6301ffc9a760e01b1490505f6105c2565b6303a24d0760e21b811491506105bb565b634e487b7160e01b5f52603260045260245ffd5b8054821015610618575f5260205f2001905f90565b6105ef565b3461015957604036600319011261015957600435602435905f52600360205260405f2080548210156101595760209161065591610603565b90549060031b1c604051908152f35b805180835260209291819084018484015e5f828201840152601f01601f1916010190565b906020610699928181520190610664565b90565b34610159576020366003190112610159576040515f6002548060011c9060018116908115610786575b6020831082146107725782855260208501919081156107595750600114610707575b610703846106f7818603826107a4565b60405191829182610688565b0390f35b60025f9081529250907f405787fa12a823e0f2b7631cc41b3ba8828b3321ca811111fa75cd3aa3bb5ace5b818410610745575050016106f7826106e7565b805484840152602090930192600101610732565b60ff191682525090151560051b0190506106f7826106e7565b634e487b7160e01b5f52602260045260245ffd5b91607f16916106c5565b634e487b7160e01b5f52604160045260245ffd5b90601f801991011681019081106001600160401b038211176107c557604052565b610790565b6001600160401b0381116107c55760051b60200190565b9080601f830112156101595781356107f8816107ca565b9261080660405194856107a4565b81845260208085019260051b82010192831161015957602001905b82821061082e5750505090565b8135815260209182019101610821565b6001600160401b0381116107c557601f01601f191660200190565b81601f82011215610159578035906108708261083e565b9261087e60405194856107a4565b8284526020838301011161015957815f926020809301838601378301015290565b346101595760a0366003190112610159576004356108bc81610148565b602435906108c982610148565b6044356001600160401b038111610159576108e89036906004016107e1565b6064356001600160401b038111610159576109079036906004016107e1565b90608435936001600160401b0385116101595761092b610931953690600401610859565b93611807565b005b3461015957604036600319011261015957602061095e60043561095581610148565b60243590612027565b604051908152f35b90602080835192838152019201905f5b8181106109835750505090565b8251845260209384019390920191600101610976565b906020610699928181520190610966565b34610159576040366003190112610159576004356001600160401b0381116101595736602382011215610159578060040135906109e6826107ca565b916109f460405193846107a4565b8083526024602084019160051b8301019136831161015957602401905b828210610a5157836024356001600160401b0381116101595761070391610a3f610a459236906004016107e1565b90611895565b60405191829182610999565b602080918335610a6081610148565b815201910190610a11565b9060a060031983011261015957600435610a8481610148565b916024359160443591606435906001600160401b03821161015957610aab916004016101a9565b909160843590565b3461015957610ac136610a6b565b91610ad16001839795971161191f565b610afa6001610ae8885f52600360205260405f2090565b54610af481151561143c565b1b61149c565b80938688610b0786611863565b93610b1187611863565b975f5b888110610c5f575081610c1b57505050610bd9576040516323b872dd60e01b815233600482015230602482015260448101829052916020836064815f6001600160a01b038c165af190811561041c577f2e6bb91f8cbcda0c93623c54d0403a43514fabc40084ec96b6d5379a7478629896610b9d610bac936102bf965f91610bba575b506119af565b610ba56115a0565b91336122a0565b604051938493339785611a07565b610bd3915060203d6020116104155761040781836107a4565b5f610b97565b610bac6102bf927f2e6bb91f8cbcda0c93623c54d0403a43514fabc40084ec96b6d5379a7478629896610c1684610c108c8c612027565b33612060565b610b9d565b84610c10610c59610bac966102bf99967f2e6bb91f8cbcda0c93623c54d0403a43514fabc40084ec96b6d5379a747862989d96610c16961891611de3565b8c612027565b9092610c9f600193610ca592610c76858d8d6114d5565b35809281151580610cc7575b610c8b906114e5565b610c98828281161461196a565b1897611de3565b8b612027565b610caf82886116de565b5284610cbb828b6116de565b5201918a918a93610b14565b50888210610c82565b606090600319011261015957600435610ce881610148565b906024359060443590565b3461015957602061095e610d0636610cd0565b916122bb565b3461015957606036600319011261015957602061095e604435602435600435611de3565b3461015957610d3e36610a6b565b91610d4e6001839795971161191f565b610d656001610ae8885f52600360205260405f2090565b80610d6f84611863565b610d7885611863565b90885f5b8b888210610e9d5750505090610d9291336122f3565b81610e5f57505084610e285760405163a9059cbb60e01b815233600482015260248101849052926020846044815f6001600160a01b038a165af190811561041c57610bac6102bf927f6f13ca62553fcc2bcd2372180a43949c1e4cebba603901ede2f4e14f36b282ca965f91610e09575b50611a2d565b610e22915060203d6020116104155761040781836107a4565b5f610e03565b6102bf7f6f13ca62553fcc2bcd2372180a43949c1e4cebba603901ede2f4e14f36b282ca93610e5a6104538888612027565b610bac565b93610e5a610453610e976102bf947f6f13ca62553fcc2bcd2372180a43949c1e4cebba603901ede2f4e14f36b282ca98188b8b611de3565b88612027565b610c9f60019397610edc92610eb3858d8d6114d5565b35809281151580610efb575b610ec8906114e5565b610ed5828281161461196a565b1899611de3565b610ee682856116de565b5288610ef282866116de565b52018990610d7c565b508a8210610ebf565b8015150361015957565b3461015957604036600319011261015957600435610f2b81610148565b602435610f3781610f04565b6001600160a01b038216918215610fb757335f9081526001602090815260408083206001600160a01b0390941683529290522060ff1981541660ff831515161790557f17307eab39ab6107e8899845ad3d59bd9653f200f220920489ca2b5937696c3160405180610fb2339482919091602081019215159052565b0390a3005b62ced3e160e81b5f525f60045260245ffd5b34610159576040366003190112610159576004356024356001600160401b03811161015957610ffc9036906004016101a9565b9061100960018311611a78565b6110148284336122bb565b906110328361102b845f52600360205260405f2090565b5414611ad7565b61104e611047835f52600460205260405f2090565b5415611b23565b5f905f5b8481106110bd575050611066811515611bbb565b611078825f52600460205260405f2090565b557fb44d84d3289691f71497564b85d4233648d9dbae8cbdbb4329f301c3a01858946102bf6110af835f52600360205260405f2090565b604051918291339683611bfe565b8061112a6110d96110d160019489876114d5565b358096611545565b946110fc6110f66105538561054e8b5f52600360205260405f2090565b15611b6f565b6111128361054e895f52600360205260405f2090565b90919082549060031b91821b915f19901b1916179055565b01611052565b34610159576020366003190112610159576004355f526003602052602060405f2054604051908152f35b346101595761116836610cd0565b909161010082116112085761117f60018311611a78565b7fab3760c3bd2bb38b5bcf54dc79802ed67338b4cf29f3054ded67ed24661e41776102bf6111ae8486856122bb565b926111cb6111c4855f52600360205260405f2090565b5415611c42565b6111ee6111d786611863565b6111e9865f52600360205260405f2090565b611c8e565b6040519485526001600160a01b0316939081906020820190565b60405162461bcd60e51b8152602060048201526016602482015275746f6f206d616e79206f7574636f6d6520736c6f747360501b6044820152606490fd5b34610159576020366003190112610159576004355f526004602052602060405f2054604051908152f35b3461015957604036600319011261015957602060ff6112c860043561129481610148565b602435906112a182610148565b60018060a01b03165f526001845260405f209060018060a01b03165f5260205260405f2090565b54166040519015158152f35b346101595760a0366003190112610159576004356112f181610148565b6024356112fd81610148565b60443590606435926084356001600160401b03811161015957611324903690600401610859565b926001600160a01b03821633811415806113bf575b6113a9576001600160a01b038416156113965715611384576109319461137c60405192600184526020840152604083019160018352606084015260808301604052565b929091613b54565b626a0d4560e21b5f525f60045260245ffd5b632bfa23e760e11b5f525f60045260245ffd5b63711bec9160e11b5f523360045260245260445ffd5b505f81815260016020908152604080832033845290915290205460ff1615611339565b156113e957565b60405162461bcd60e51b815260206004820152602560248201527f726573756c7420666f7220636f6e646974696f6e206e6f74207265636569766560448201526419081e595d60da1b6064820152608490fd5b1561144357565b60405162461bcd60e51b815260206004820152601a60248201527f636f6e646974696f6e206e6f74207072657061726564207965740000000000006044820152606490fd5b634e487b7160e01b5f52601160045260245ffd5b5f198101919082116114aa57565b611488565b5f516020613fda5f395f51905f5203905f516020613fda5f395f51905f5282116114aa57565b91908110156106185760051b0190565b156114ec57565b60405162461bcd60e51b815260206004820152601560248201527419dbdd081a5b9d985b1a59081a5b99195e081cd95d605a1b6044820152606490fd5b90600282018092116114aa57565b90600182018092116114aa57565b919082018092116114aa57565b600181901b91906001600160ff1b038116036114aa57565b818102929181159184041417156114aa57565b634e487b7160e01b5f52601260045260245ffd5b811561159b570490565b61157d565b604051906115af6020836107a4565b5f8252565b90816020910312610159575161069981610f04565b6040513d5f823e3d90fd5b156115db57565b60405162461bcd60e51b815260206004820152602b60248201527f636f756c64206e6f74207472616e73666572207061796f757420746f206d657360448201526a39b0b3b29039b2b73232b960a91b6064820152608490fd5b6040516060919061164583826107a4565b6002815291601f1901825f5b82811061165d57505050565b806060602080938501015201611651565b805191908290602001825e015f815290565b906116bf6116b1926040519384916f31b7b63630ba32b930b62a37b5b2b71d60811b6020840152603083019061166e565b03601f1981018452836107a4565b565b8051156106185760200190565b8051600110156106185760400190565b80518210156106185760209160051b010190565b906116bf6116b1926040519384916b31b7b73234ba34b7b724b21d60a11b6020840152602c83019061166e565b929160608452601860608501527f70726564696374696f6e5f6d61726b65745f72656465656d0000000000000000608085015260a084019360a06020820152825180955260c0810194602060c08260051b8401019401905f5b818110611795575050506106999394506040818403910152610664565b9091946020806117b160019360bf19888203018c528951610664565b97019801910196919096611778565b81835290916001600160fb1b0383116101595760209260051b809284830137010190565b949392916040926118029287526060602088015260608701916117c0565b930152565b939291906001600160a01b0385163381141580611840575b6113a9576001600160a01b038216156113965715611384576116bf94613b54565b505f81815260016020908152604080832033845290915290205460ff161561181f565b9061186d826107ca565b61187a60405191826107a4565b828152809261188b601f19916107ca565b0190602036910137565b9190918051835180820361190a5750506118af8151611863565b905f5b815181101561190357806118f160019260051b602080828701015191890101515f525f60205260405f209060018060a01b03165f5260205260405f2090565b546118fc82866116de565b52016118b2565b5090925050565b635b05999160e01b5f5260045260245260445ffd5b1561192657565b606460405162461bcd60e51b815260206004820152602060248201527f676f7420656d707479206f722073696e676c65746f6e20706172746974696f6e6044820152fd5b1561197157565b60405162461bcd60e51b81526020600482015260166024820152751c185c9d1a5d1a5bdb881b9bdd08191a5cda9bda5b9d60521b6044820152606490fd5b156119b657565b60405162461bcd60e51b815260206004820152602360248201527f636f756c64206e6f74207265636569766520636f6c6c61746572616c20746f6b604482015262656e7360e81b6064820152608490fd5b949392916040926118029260018060a01b031687526060602088015260608701916117c0565b15611a3457565b606460405162461bcd60e51b815260206004820152602060248201527f636f756c64206e6f742073656e6420636f6c6c61746572616c20746f6b656e736044820152fd5b15611a7f57565b60405162461bcd60e51b815260206004820152602a60248201527f74686572652073686f756c64206265206d6f7265207468616e206f6e65206f756044820152691d18dbdb59481cdb1bdd60b21b6064820152608490fd5b15611ade57565b60405162461bcd60e51b815260206004820152601f60248201527f636f6e646974696f6e206e6f74207072657061726564206f7220666f756e64006044820152606490fd5b15611b2a57565b60405162461bcd60e51b815260206004820152601e60248201527f7061796f75742064656e6f6d696e61746f7220616c72656164792073657400006044820152606490fd5b15611b7657565b60405162461bcd60e51b815260206004820152601c60248201527f7061796f7574206e756d657261746f7220616c726561647920736574000000006044820152606490fd5b15611bc257565b60405162461bcd60e51b81526020600482015260146024820152737061796f757420697320616c6c207a65726f657360601b6044820152606490fd5b6060906040810192815260406020820152835480935201915f5260205f20905f5b818110611c2c5750505090565b8254845260209093019260019283019201611c1f565b15611c4957565b60405162461bcd60e51b815260206004820152601a60248201527f636f6e646974696f6e20616c72656164792070726570617265640000000000006044820152606490fd5b8151916001600160401b0383116107c5576801000000000000000083116107c5578154838355808410611cf1575b506020611cce9101915f5260205f2090565b5f5b838110611cdd5750505050565b600190602084519401938184015501611cd0565b825f528360205f2091820191015b818110611d0c5750611cbc565b5f8155600101611cff565b15611d1e57565b60405162461bcd60e51b815260206004820152601c60248201527f696e76616c696420706172656e7420636f6c6c656374696f6e204944000000006044820152606490fd5b3d15611d8d573d90611d748261083e565b91611d8260405193846107a4565b82523d5f602084013e565b606090565b15611d9957565b60405162461bcd60e51b815260206004820152600c60248201526b1958d859190819985a5b195960a21b6044820152606490fd5b9190826040910312610159576020825192015190565b6040805160208101938452908101939093529291611e0481606081016103c5565b51902090611e128260ff1c90565b1580159390925f919082808060015b15611e74575b5050505f9261159b5760015f516020613fda5f395f51905f529108945f945f516020613fda5f395f51905f52600381808a80098a090886611e6782612317565b9598939897959297611e21565b61159b575f516020613fda5f395f51905f5282800914611e95578084611e27565b939590948161201b575b8115612001575b50611ff1575b80611ed1575b5050611ec060019160011690565b14611ec85790565b600160fe1b1890565b9091611edd8260fe1c90565b1591611ef4611eee84159260021b90565b60021c90565b9361159b57611ec09484611f875f946103c5611fad9787965f516020613fda5f395f51905f52600381808960019f0989090890611f3082612317565b9281611fe5575b8115611fcb575b50611fb6575b611f5f905f516020613fda5f395f51905f5283800914611d17565b6040519485936020850197889094939260609260808301968352602083015260408201520152565b519060065afa611f9e611f98611d63565b91611d92565b60208082518301019101611dcd565b92909291611eb2565b90611fc3611f5f916114af565b919050611f44565b905080611fd9575b5f611f3e565b508a6001831614611fd3565b60018416159150611f37565b91611ffb906114af565b91611eac565b90508061200f575b5f611ea6565b50600183811614612009565b60018516159150611e9f565b906040519060208201926bffffffffffffffffffffffff199060601b16835260348201526034815261205a6054826107a4565b51902090565b906001600160a01b03821615611384576116bf9261209b60405192600184526020840152604083019160018352606084015260808301604052565b90604051926120ab6020856107a4565b5f84526138a8565b919291906001600160a01b03821615611396576116bf936120f160405192600184526020840152604083019160018352606084015260808301604052565b91613a0d565b6001600160a01b03168061211b6121166121116014611552565b611529565b613d2a565b916030612127846116c1565b53607861213384613d52565b536121466121416014611552565b611537565b6001811161216e5750612157575090565b63e22e27eb60e01b5f52600452601460245260445ffd5b90600f81166010811015610618576121b1916121ab916f181899199a1a9b1b9c1cb0b131b232b360811b901a6121a48588613d62565b5360041c90565b91613d73565b612146565b60016fffffffffffffffffffffffffffffffff821160071b6001600160401b0383821c1160061b1763ffffffff83821c1160051b1761ffff83821c1160041b1760ff838260031c921c1117018161221261211661211184611552565b92603061221e856116c1565b53607861222a85613d52565b5361223761214184611552565b6001811161225e575061224957505090565b63e22e27eb60e01b5f5260045260245260445ffd5b90600f81169060108210156106185761229b916f181899199a1a9b1b9c1cb0b131b232b360811b901a6122918488613d62565b5360041c91613d73565b612237565b9291906001600160a01b03841615611396576116bf93613a0d565b916040519160208301936bffffffffffffffffffffffff199060601b168452603483015260548201526054815261205a6074826107a4565b90916001600160a01b03821615611384576116bf92604051926120ab6020856107a4565b5f516020613fda5f395f51905f528180095f516020613fda5f395f51905f52818009805f516020613fda5f395f51905f5291095f516020613fda5f395f51905f52910990815f516020613fda5f395f51905f52910990815f516020613fda5f395f51905f529109905f516020613fda5f395f51905f528280095f516020613fda5f395f51905f528180095f516020613fda5f395f51905f52908209805f516020613fda5f395f51905f529109805f516020613fda5f395f51905f5291095f516020613fda5f395f51905f5291095f516020613fda5f395f51905f529109905f516020613fda5f395f51905f52828009805f516020613fda5f395f51905f5291095f516020613fda5f395f51905f529109905f516020613fda5f395f51905f52828009805f516020613fda5f395f51905f529109805f516020613fda5f395f51905f5291095f516020613fda5f395f51905f529083095f516020613fda5f395f51905f529109905f516020613fda5f395f51905f52828009805f516020613fda5f395f51905f529109805f516020613fda5f395f51905f5291095f516020613fda5f395f51905f529083095f516020613fda5f395f51905f52910990815f516020613fda5f395f51905f529109905f516020613fda5f395f51905f52828009805f516020613fda5f395f51905f5291095f516020613fda5f395f51905f529109905f516020613fda5f395f51905f528280095f516020613fda5f395f51905f52818009805f516020613fda5f395f51905f529109805f516020613fda5f395f51905f5291095f516020613fda5f395f51905f5291095f516020613fda5f395f51905f52910990815f516020613fda5f395f51905f529109905f516020613fda5f395f51905f52828009805f516020613fda5f395f51905f529109805f516020613fda5f395f51905f5291095f516020613fda5f395f51905f529109905f516020613fda5f395f51905f52828009805f516020613fda5f395f51905f5291095f516020613fda5f395f51905f52908309805f516020613fda5f395f51905f529109805f516020613fda5f395f51905f5291095f516020613fda5f395f51905f529083095f516020613fda5f395f51905f529109905f516020613fda5f395f51905f528280095f516020613fda5f395f51905f52818009805f516020613fda5f395f51905f5291095f516020613fda5f395f51905f529082095f516020613fda5f395f51905f52908409805f516020613fda5f395f51905f529109805f516020613fda5f395f51905f529109805f516020613fda5f395f51905f529109805f516020613fda5f395f51905f5291095f516020613fda5f395f51905f5291095f516020613fda5f395f51905f529109905f516020613fda5f395f51905f528280095f516020613fda5f395f51905f529083095f516020613fda5f395f51905f529109905f516020613fda5f395f51905f528280095f516020613fda5f395f51905f52908309805f516020613fda5f395f51905f5291095f516020613fda5f395f51905f528180095f516020613fda5f395f51905f529082095f516020613fda5f395f51905f52818009805f516020613fda5f395f51905f529109805f516020613fda5f395f51905f529109805f516020613fda5f395f51905f529109805f516020613fda5f395f51905f5291095f516020613fda5f395f51905f5291095f516020613fda5f395f51905f5291095f516020613fda5f395f51905f52910990815f516020613fda5f395f51905f529109905f516020613fda5f395f51905f528280095f516020613fda5f395f51905f52910990815f516020613fda5f395f51905f52910990815f516020613fda5f395f51905f52910990815f516020613fda5f395f51905f52910990815f516020613fda5f395f51905f529109905f516020613fda5f395f51905f528280095f516020613fda5f395f51905f52908309805f516020613fda5f395f51905f5291095f516020613fda5f395f51905f529109905f516020613fda5f395f51905f52828009805f516020613fda5f395f51905f5291095f516020613fda5f395f51905f52910990815f516020613fda5f395f51905f529109905f516020613fda5f395f51905f528280095f516020613fda5f395f51905f529083095f516020613fda5f395f51905f52910990815f516020613fda5f395f51905f52910990815f516020613fda5f395f51905f52910990815f516020613fda5f395f51905f529109905f516020613fda5f395f51905f52828009805f516020613fda5f395f51905f5291095f516020613fda5f395f51905f529083095f516020613fda5f395f51905f529109905f516020613fda5f395f51905f528280095f516020613fda5f395f51905f529083095f516020613fda5f395f51905f52910990815f516020613fda5f395f51905f52910990815f516020613fda5f395f51905f52910990815f516020613fda5f395f51905f52910990815f516020613fda5f395f51905f529109905f516020613fda5f395f51905f528280095f516020613fda5f395f51905f52908309805f516020613fda5f395f51905f5291095f516020613fda5f395f51905f52910990815f516020613fda5f395f51905f529109905f516020613fda5f395f51905f528280095f516020613fda5f395f51905f52908309805f516020613fda5f395f51905f5291095f516020613fda5f395f51905f529109905f516020613fda5f395f51905f528280095f516020613fda5f395f51905f52818009805f516020613fda5f395f51905f5291095f516020613fda5f395f51905f529082095f516020613fda5f395f51905f52908409805f516020613fda5f395f51905f529109805f516020613fda5f395f51905f529109805f516020613fda5f395f51905f529109805f516020613fda5f395f51905f5291095f516020613fda5f395f51905f5291095f516020613fda5f395f51905f52910990815f516020613fda5f395f51905f52910990815f516020613fda5f395f51905f52910990815f516020613fda5f395f51905f529109905f516020613fda5f395f51905f528280095f516020613fda5f395f51905f52908309805f516020613fda5f395f51905f529109805f516020613fda5f395f51905f529109805f516020613fda5f395f51905f5291095f516020613fda5f395f51905f529083095f516020613fda5f395f51905f529109905f516020613fda5f395f51905f528280095f516020613fda5f395f51905f52908309805f516020613fda5f395f51905f5291095f516020613fda5f395f51905f529109905f516020613fda5f395f51905f528280095f516020613fda5f395f51905f529083095f516020613fda5f395f51905f52910990815f516020613fda5f395f51905f529109905f516020613fda5f395f51905f52828009805f516020613fda5f395f51905f5291095f516020613fda5f395f51905f52910990815f516020613fda5f395f51905f529109905f516020613fda5f395f51905f528280095f516020613fda5f395f51905f52910990815f516020613fda5f395f51905f52910990815f516020613fda5f395f51905f529109905f516020613fda5f395f51905f528280095f516020613fda5f395f51905f529083095f516020613fda5f395f51905f52910990815f516020613fda5f395f51905f529109905f516020613fda5f395f51905f528280095f516020613fda5f395f51905f52908309805f516020613fda5f395f51905f529109805f516020613fda5f395f51905f5291095f516020613fda5f395f51905f529109905f516020613fda5f395f51905f52828009805f516020613fda5f395f51905f529109805f516020613fda5f395f51905f5291095f516020613fda5f395f51905f529083095f516020613fda5f395f51905f52910990815f516020613fda5f395f51905f529109905f516020613fda5f395f51905f528280095f516020613fda5f395f51905f52818409805f516020613fda5f395f51905f529109805f516020613fda5f395f51905f5291095f516020613fda5f395f51905f5291095f516020613fda5f395f51905f529109905f516020613fda5f395f51905f528280095f516020613fda5f395f51905f52910990815f516020613fda5f395f51905f52910990815f516020613fda5f395f51905f52910990815f516020613fda5f395f51905f52910990815f516020613fda5f395f51905f52910990815f516020613fda5f395f51905f529109905f516020613fda5f395f51905f528280095f516020613fda5f395f51905f529083095f516020613fda5f395f51905f52818409805f516020613fda5f395f51905f529109805f516020613fda5f395f51905f5291095f516020613fda5f395f51905f5291095f516020613fda5f395f51905f52910990815f516020613fda5f395f51905f52910990815f516020613fda5f395f51905f52910990815f516020613fda5f395f51905f52910990815f516020613fda5f395f51905f529109905f516020613fda5f395f51905f528280095f516020613fda5f395f51905f529083095f516020613fda5f395f51905f52910990815f516020613fda5f395f51905f529109805f516020613fda5f395f51905f529109805f516020613fda5f395f51905f529109805f516020613fda5f395f51905f529109805f516020613fda5f395f51905f529109805f516020613fda5f395f51905f529109805f516020613fda5f395f51905f529109805f516020613fda5f395f51905f529109805f516020613fda5f395f51905f529109805f516020613fda5f395f51905f529109805f516020613fda5f395f51905f529109805f516020613fda5f395f51905f529109805f516020613fda5f395f51905f529109805f516020613fda5f395f51905f529109805f516020613fda5f395f51905f529109805f516020613fda5f395f51905f529109805f516020613fda5f395f51905f529109805f516020613fda5f395f51905f529109805f516020613fda5f395f51905f529109805f516020613fda5f395f51905f529109805f516020613fda5f395f51905f529109805f516020613fda5f395f51905f529109805f516020613fda5f395f51905f529109805f516020613fda5f395f51905f529109805f516020613fda5f395f51905f529109805f516020613fda5f395f51905f529109805f516020613fda5f395f51905f529109805f516020613fda5f395f51905f529109805f516020613fda5f395f51905f529109805f516020613fda5f395f51905f529109805f516020613fda5f395f51905f529109805f516020613fda5f395f51905f529109805f516020613fda5f395f51905f529109805f516020613fda5f395f51905f529109805f516020613fda5f395f51905f529109805f516020613fda5f395f51905f529109805f516020613fda5f395f51905f529109805f516020613fda5f395f51905f529109805f516020613fda5f395f51905f529109805f516020613fda5f395f51905f529109805f516020613fda5f395f51905f529109805f516020613fda5f395f51905f529109805f516020613fda5f395f51905f529109805f516020613fda5f395f51905f529109805f516020613fda5f395f51905f529109805f516020613fda5f395f51905f529109805f516020613fda5f395f51905f529109805f516020613fda5f395f51905f529109805f516020613fda5f395f51905f529109805f516020613fda5f395f51905f529109805f516020613fda5f395f51905f529109805f516020613fda5f395f51905f529109805f516020613fda5f395f51905f529109805f516020613fda5f395f51905f529109805f516020613fda5f395f51905f529109805f516020613fda5f395f51905f529109805f516020613fda5f395f51905f529109805f516020613fda5f395f51905f529109805f516020613fda5f395f51905f529109805f516020613fda5f395f51905f529109805f516020613fda5f395f51905f529109805f516020613fda5f395f51905f529109805f516020613fda5f395f51905f529109805f516020613fda5f395f51905f529109805f516020613fda5f395f51905f529109805f516020613fda5f395f51905f529109805f516020613fda5f395f51905f529109805f516020613fda5f395f51905f529109805f516020613fda5f395f51905f529109805f516020613fda5f395f51905f529109805f516020613fda5f395f51905f529109805f516020613fda5f395f51905f529109805f516020613fda5f395f51905f529109805f516020613fda5f395f51905f529109805f516020613fda5f395f51905f529109805f516020613fda5f395f51905f529109805f516020613fda5f395f51905f529109805f516020613fda5f395f51905f529109805f516020613fda5f395f51905f529109805f516020613fda5f395f51905f529109805f516020613fda5f395f51905f529109805f516020613fda5f395f51905f529109805f516020613fda5f395f51905f529109805f516020613fda5f395f51905f529109805f516020613fda5f395f51905f529109805f516020613fda5f395f51905f529109805f516020613fda5f395f51905f529109805f516020613fda5f395f51905f529109805f516020613fda5f395f51905f529109805f516020613fda5f395f51905f529109805f516020613fda5f395f51905f529109805f516020613fda5f395f51905f529109805f516020613fda5f395f51905f529109805f516020613fda5f395f51905f529109805f516020613fda5f395f51905f529109805f516020613fda5f395f51905f529109805f516020613fda5f395f51905f529109805f516020613fda5f395f51905f529109805f516020613fda5f395f51905f529109805f516020613fda5f395f51905f529109805f516020613fda5f395f51905f529109805f516020613fda5f395f51905f529109805f516020613fda5f395f51905f529109805f516020613fda5f395f51905f529109805f516020613fda5f395f51905f529109805f516020613fda5f395f51905f529109805f516020613fda5f395f51905f529109805f516020613fda5f395f51905f529109805f516020613fda5f395f51905f529109805f516020613fda5f395f51905f529109805f516020613fda5f395f51905f529109805f516020613fda5f395f51905f529109805f516020613fda5f395f51905f529109805f516020613fda5f395f51905f529109805f516020613fda5f395f51905f529109805f516020613fda5f395f51905f529109805f516020613fda5f395f51905f529109805f516020613fda5f395f51905f529109805f516020613fda5f395f51905f529109805f516020613fda5f395f51905f529109805f516020613fda5f395f51905f529109805f516020613fda5f395f51905f529109805f516020613fda5f395f51905f529109805f516020613fda5f395f51905f529109805f516020613fda5f395f51905f529109805f516020613fda5f395f51905f529109805f516020613fda5f395f51905f5291095f516020613fda5f395f51905f52910990565b90925082518251908181036139f85750506001600160a01b038116801515949093905f5b825181101561396f578060051b8760208083870101519288010151906138f7575b50506001016138cc565b61390c866104bd845f525f60205260405f2090565b5481811061393857866104bd60019594936139309303935f525f60205260405f2090565b55905f6138ed565b6040516303dee4c560e01b81526001600160a01b038816600482015260248101919091526044810182905260648101839052608490fd5b5094505f93929150600181511484146139c55760209081015191810151604080519384529183015233917fc3d58168c5ae7397731d063d5bbf3d657854427343f4c083240f7aacaa2d0f6291819081015b0390a4565b60405133927f4a39dc06d4c0dbc64b70af90fd698a233a518aa5d07e595d983b8c0526c8f7fb9282916139c09183613d7f565b635b05999160e01b5f5260045260245260445ffd5b9392919080518251908181036139f85750506001600160a01b03851693841515935f5b8351811015613a885780868960019360051b602080828a010151918a01015192613a5e575b50505001613a30565b613a7e916104bd613a76925f525f60205260405f2090565b918254611545565b90555f8981613a55565b509390959460018351145f14613b19576020838101518582015160408051928352928201525f9133917fc3d58168c5ae7397731d063d5bbf3d657854427343f4c083240f7aacaa2d0f629190a45b613ae1575b50505050565b8051600103613b095790602080613b0095930151910151915f33613f3b565b5f808080613adb565b613b14935f33613e0c565b613b00565b5f6040517f4a39dc06d4c0dbc64b70af90fd698a233a518aa5d07e595d983b8c0526c8f7fb339180613b4c898983613d7f565b0390a4613ad6565b94939290919384518251908181036139f85750506001600160a01b038681169586151595918516801515939192905f5b8451811015613c5d578060051b90898988602080868b010151958c01015192613bdc575b93600194613bba575b50505001613b84565b613bd2916104bd613a76925f525f60205260405f2090565b90555f8981613bb1565b50509091613bf58d6104bd835f525f60205260405f2090565b54828110613c26578291898f613c1d600197968f9503916104bd855f525f60205260405f2090565b55909450613ba8565b6040516303dee4c560e01b81526001600160a01b038f16600482015260248101919091526044810183905260648101829052608490fd5b5091989593929790965060018851145f14613cf05760208881015186820151604080519283529282015233917fc3d58168c5ae7397731d063d5bbf3d657854427343f4c083240f7aacaa2d0f6291a45b613cb9575b5050505050565b8451600103613cdf57602080613cd59601519201519233613f3b565b5f80808080613cb2565b613ceb94919233613e0c565b613cd5565b6040517f4a39dc06d4c0dbc64b70af90fd698a233a518aa5d07e595d983b8c0526c8f7fb339180613d22898d83613d7f565b0390a4613cad565b90613d348261083e565b613d4160405191826107a4565b828152809261188b601f199161083e565b8051600110156106185760210190565b908151811015610618570160200190565b80156114aa575f190190565b9091613d9661069993604084526040840190610966565b916020818403910152610966565b9081602091031261015957516106998161056f565b6001600160a01b0391821681529116602082015260a0604082018190526106999491939192613dfe9291613df09190860190610966565b908482036060860152610966565b916080818403910152610664565b9091949293853b613e20575b505050505050565b602093613e4291604051968795869563bc197c8160e01b875260048701613db9565b03815f6001600160a01b0387165af15f9181613ed1575b50613e935750613e67611d63565b8051919082613e8c57632bfa23e760e11b5f526001600160a01b03821660045260245ffd5b6020915001fd5b6001600160e01b0319166343e6837f60e01b01613eb657505f8080808080613e18565b632bfa23e760e11b5f526001600160a01b031660045260245ffd5b613ef491925060203d602011613efb575b613eec81836107a4565b810190613da4565b905f613e59565b503d613ee2565b6001600160a01b039182168152911660208201526040810191909152606081019190915260a06080820181905261069992910190610664565b9091949293853b613f4e57505050505050565b602093613f7091604051968795869563f23a6e6160e01b875260048701613f02565b03815f6001600160a01b0387165af15f9181613fb8575b50613f955750613e67611d63565b6001600160e01b031916630dc5919f60e01b01613eb657505f8080808080613e18565b613fd291925060203d602011613efb57613eec81836107a4565b905f613f8756fe30644e72e131a029b85045b68181585d97816a916871ca8d3c208c16d87cfd47a264697066735822122067f3f6b41d5d022508c5a15f944b1150bc0629c1d4024445d9b0facd13d8dfe064736f6c634300081b0033","linkReferences":{}},"methodIdentifiers":{"balanceOf(address,uint256)":"00fdd58e","balanceOfBatch(address[],uint256[])":"4e1273f4","getCollectionId(bytes32,bytes32,uint256)":"856296f7","getConditionId(address,bytes32,uint256)":"852c6ae2","getOutcomeSlotCount(bytes32)":"d42dc0c2","getPositionId(address,bytes32)":"39dd7530","isApprovedForAll(address,address)":"e985e9c5","mergePositions(address,bytes32,bytes32,uint256[],uint256)":"9e7212ad","payoutDenominator(bytes32)":"dd34de67","payoutNumerators(bytes32,uint256)":"0504c814","prepareCondition(address,bytes32,uint256)":"d96ee754","redeemPositions(address,bytes32,bytes32,uint256[])":"01b7037c","reportPayouts(bytes32,uint256[])":"c49298ac","safeBatchTransferFrom(address,address,uint256[],uint256[],bytes)":"2eb2c2d6","safeTransferFrom(address,address,uint256,uint256,bytes)":"f242432a","setApprovalForAll(address,bool)":"a22cb465","splitPosition(address,bytes32,bytes32,uint256[],uint256)":"72ce4275","supportsInterface(bytes4)":"01ffc9a7","uri(uint256)":"0e89341c"},"id":33}