{"abi":[{"type":"function","name":"addAgentTrigger","inputs":[{"name":"data","type":"string","internalType":"string"}],"outputs":[],"stateMutability":"nonpayable"},{"type":"function","name":"triggerRequestAttestation","inputs":[{"name":"schema","type":"bytes32","internalType":"bytes32"},{"name":"recipient","type":"address","internalType":"address"},{"name":"data","type":"string","internalType":"string"}],"outputs":[],"stateMutability":"nonpayable"},{"type":"function","name":"triggerRequestRawAttestation","inputs":[{"name":"schema","type":"bytes32","internalType":"bytes32"},{"name":"recipient","type":"address","internalType":"address"},{"name":"data","type":"bytes","internalType":"bytes"}],"outputs":[],"stateMutability":"nonpayable"},{"type":"event","name":"AttestationRequested","inputs":[{"name":"creator","type":"address","indexed":true,"internalType":"address"},{"name":"schema","type":"bytes32","indexed":true,"internalType":"bytes32"},{"name":"recipient","type":"address","indexed":true,"internalType":"address"},{"name":"data","type":"bytes","indexed":false,"internalType":"bytes"}],"anonymous":false},{"type":"event","name":"AttestedEvent","inputs":[{"name":"recipient","type":"address","indexed":true,"internalType":"address"},{"name":"attester","type":"address","indexed":true,"internalType":"address"},{"name":"uid","type":"bytes32","indexed":false,"internalType":"bytes32"},{"name":"schema_uid","type":"bytes32","indexed":true,"internalType":"bytes32"}],"anonymous":false},{"type":"event","name":"NewTrigger","inputs":[{"name":"data","type":"bytes","indexed":false,"internalType":"bytes"}],"anonymous":false}],"bytecode":{"object":"0x608080604052346015576101cb908161001a8239f35b5f80fdfe6080806040526004361015610012575f80fd5b5f3560e01c9081630edc58b114610096575080635e05153c1461003d5763a74a482f1461003d575f80fd5b34610092577fe78f5f2148eb9d3b0d5eca1c6babc65797c90fe099e3638697aa19c98acd80c961008d61006f36610127565b6040516001600160a01b03909316959394339493928392908361016e565b0390a4005b5f80fd5b34610092576020366003190112610092576004359067ffffffffffffffff821161009257806100f46100ed7f86eacd23610d81706516de1ed0476c87772fdf939c7c771fbbd7f0230d619e689436906004016100f9565b908361016e565b0390a1005b9181601f840112156100925782359167ffffffffffffffff8311610092576020838186019501011161009257565b606060031982011261009257600435916024356001600160a01b038116810361009257916044359067ffffffffffffffff82116100925761016a916004016100f9565b9091565b90918060409360208452816020850152848401375f828201840152601f01601f191601019056fea26469706673582212209c84ef3fc4c467b55bc8bd11fa8f9d37125948f64f9a75c9b3c3fe5033efd05564736f6c634300081b0033","linkReferences":{}},"methodIdentifiers":{"addAgentTrigger(string)":"0edc58b1","triggerRequestAttestation(bytes32,address,string)":"a74a482f","triggerRequestRawAttestation(bytes32,address,bytes)":"5e05153c"},"id":127}