{"abi":[{"type":"constructor","inputs":[{"name":"eas","type":"address","internalType":"contract IEAS"}],"stateMutability":"nonpayable"},{"type":"receive","stateMutability":"payable"},{"type":"function","name":"attest","inputs":[{"name":"attestation","type":"tuple","internalType":"struct Attestation","components":[{"name":"uid","type":"bytes32","internalType":"bytes32"},{"name":"schema","type":"bytes32","internalType":"bytes32"},{"name":"time","type":"uint64","internalType":"uint64"},{"name":"expirationTime","type":"uint64","internalType":"uint64"},{"name":"revocationTime","type":"uint64","internalType":"uint64"},{"name":"refUID","type":"bytes32","internalType":"bytes32"},{"name":"recipient","type":"address","internalType":"address"},{"name":"attester","type":"address","internalType":"address"},{"name":"revocable","type":"bool","internalType":"bool"},{"name":"data","type":"bytes","internalType":"bytes"}]}],"outputs":[{"name":"","type":"bool","internalType":"bool"}],"stateMutability":"payable"},{"type":"function","name":"isPayable","inputs":[],"outputs":[{"name":"","type":"bool","internalType":"bool"}],"stateMutability":"pure"},{"type":"function","name":"multiAttest","inputs":[{"name":"attestations","type":"tuple[]","internalType":"struct Attestation[]","components":[{"name":"uid","type":"bytes32","internalType":"bytes32"},{"name":"schema","type":"bytes32","internalType":"bytes32"},{"name":"time","type":"uint64","internalType":"uint64"},{"name":"expirationTime","type":"uint64","internalType":"uint64"},{"name":"revocationTime","type":"uint64","internalType":"uint64"},{"name":"refUID","type":"bytes32","internalType":"bytes32"},{"name":"recipient","type":"address","internalType":"address"},{"name":"attester","type":"address","internalType":"address"},{"name":"revocable","type":"bool","internalType":"bool"},{"name":"data","type":"bytes","internalType":"bytes"}]},{"name":"values","type":"uint256[]","internalType":"uint256[]"}],"outputs":[{"name":"","type":"bool","internalType":"bool"}],"stateMutability":"payable"},{"type":"function","name":"multiRevoke","inputs":[{"name":"attestations","type":"tuple[]","internalType":"struct Attestation[]","components":[{"name":"uid","type":"bytes32","internalType":"bytes32"},{"name":"schema","type":"bytes32","internalType":"bytes32"},{"name":"time","type":"uint64","internalType":"uint64"},{"name":"expirationTime","type":"uint64","internalType":"uint64"},{"name":"revocationTime","type":"uint64","internalType":"uint64"},{"name":"refUID","type":"bytes32","internalType":"bytes32"},{"name":"recipient","type":"address","internalType":"address"},{"name":"attester","type":"address","internalType":"address"},{"name":"revocable","type":"bool","internalType":"bool"},{"name":"data","type":"bytes","internalType":"bytes"}]},{"name":"values","type":"uint256[]","internalType":"uint256[]"}],"outputs":[{"name":"","type":"bool","internalType":"bool"}],"stateMutability":"payable"},{"type":"function","name":"revoke","inputs":[{"name":"attestation","type":"tuple","internalType":"struct Attestation","components":[{"name":"uid","type":"bytes32","internalType":"bytes32"},{"name":"schema","type":"bytes32","internalType":"bytes32"},{"name":"time","type":"uint64","internalType":"uint64"},{"name":"expirationTime","type":"uint64","internalType":"uint64"},{"name":"revocationTime","type":"uint64","internalType":"uint64"},{"name":"refUID","type":"bytes32","internalType":"bytes32"},{"name":"recipient","type":"address","internalType":"address"},{"name":"attester","type":"address","internalType":"address"},{"name":"revocable","type":"bool","internalType":"bool"},{"name":"data","type":"bytes","internalType":"bytes"}]}],"outputs":[{"name":"","type":"bool","internalType":"bool"}],"stateMutability":"payable"},{"type":"function","name":"version","inputs":[],"outputs":[{"name":"","type":"string","internalType":"string"}],"stateMutability":"view"},{"type":"event","name":"AttestationAttested","inputs":[{"name":"eas","type":"address","indexed":true,"internalType":"address"},{"name":"uid","type":"bytes32","indexed":true,"internalType":"bytes32"}],"anonymous":false},{"type":"event","name":"AttestationRevoked","inputs":[{"name":"eas","type":"address","indexed":true,"internalType":"address"},{"name":"uid","type":"bytes32","indexed":true,"internalType":"bytes32"}],"anonymous":false},{"type":"event","name":"Attested","inputs":[{"name":"recipient","type":"address","indexed":true,"internalType":"address"},{"name":"attester","type":"address","indexed":true,"internalType":"address"},{"name":"uid","type":"bytes32","indexed":false,"internalType":"bytes32"},{"name":"schemaUID","type":"bytes32","indexed":true,"internalType":"bytes32"}],"anonymous":false},{"type":"error","name":"AccessDenied","inputs":[]},{"type":"error","name":"InsufficientValue","inputs":[]},{"type":"error","name":"InvalidEAS","inputs":[]},{"type":"error","name":"InvalidLength","inputs":[]},{"type":"error","name":"NotPayable","inputs":[]}],"bytecode":{"object":"0x610100346100b757601f61080b38819003918201601f19168301916001600160401b038311848410176100bb578084926020946040528339810103126100b757516001600160a01b0381168082036100b7576001608052600360a0525f60c052156100a85760e05260405161073b90816100d082396080518161011e015260a05181610150015260c0518161017b015260e0518181816105b1015281816105f301526106b40152f35b6341bc07ff60e11b5f5260045ffd5b5f80fd5b634e487b7160e01b5f52604160045260245ffdfe60806040526004361015610027575b3615610018575f80fd5b631574f9f360e01b5f5260045ffd5b5f3560e01c806354fd4d501461010957806388e5b2d9146100ea57806391db0b7e146100cb578063ce46e046146100ad578063e49617e1146100925763e60c35050361000e57602061008861007b366102a5565b6100836105af565b610658565b6040519015158152f35b60206100886100a0366102a5565b6100a86105af565b6105f0565b346100c7575f3660031901126100c75760206040515f8152f35b5f80fd5b60206100886100d936610253565b926100e59291926105af565b6103d3565b60206100886100f836610253565b926101049291926105af565b610357565b346100c7575f3660031901126100c7576101427f0000000000000000000000000000000000000000000000000000000000000000610442565b604060206101f760016101747f0000000000000000000000000000000000000000000000000000000000000000610442565b818461019f7f0000000000000000000000000000000000000000000000000000000000000000610442565b818851978895818088019c8d815192839201905e870190601760f91b83830152805192839101602183015e010190601760f91b84830152805192839101600283015e01015f838201520301601f1981018352826102da565b8151928391602083525180918160208501528484015e5f828201840152601f01601f19168101030190f35b9181601f840112156100c75782359167ffffffffffffffff83116100c7576020808501948460051b0101116100c757565b60406003198201126100c75760043567ffffffffffffffff81116100c7578161027e91600401610222565b929092916024359067ffffffffffffffff82116100c7576102a191600401610222565b9091565b60206003198201126100c7576004359067ffffffffffffffff82116100c7576101409082900360031901126100c75760040190565b90601f8019910116810190811067ffffffffffffffff8211176102fc57604052565b634e487b7160e01b5f52604160045260245ffd5b91908110156103205760051b0190565b634e487b7160e01b5f52603260045260245ffd5b91908110156103205760051b8101359061013e19813603018212156100c7570190565b929091928183036103c4575f91345b84841061037857505050505050600190565b610383848388610310565b358181116103b5576103996100a8868887610334565b156103aa5760019103930192610366565b505050505050505f90565b63044044a560e21b5f5260045ffd5b63251f56a160e21b5f5260045ffd5b929091928183036103c4575f91345b8484106103f457505050505050600190565b6103ff848388610310565b358181116103b557610415610083868887610334565b156103aa57600191039301926103e2565b67ffffffffffffffff81116102fc57601f01601f191660200190565b805f9172184f03e93ff9f4daa797ed6e38ed64bf6a1f0160401b82101561058c575b806d04ee2d6d415b85acef8100000000600a921015610571575b662386f26fc1000081101561055d575b6305f5e10081101561054c575b61271081101561053d575b606481101561052f575b1015610524575b600a602160018401936104c985610426565b946104d760405196876102da565b8086526104e6601f1991610426565b013660208701378401015b5f1901916f181899199a1a9b1b9c1cb0b131b232b360811b8282061a835304801561051f57600a90916104f1565b505090565b6001909101906104b7565b6064600291049301926104b0565b612710600491049301926104a6565b6305f5e1006008910493019261049b565b662386f26fc100006010910493019261048e565b6d04ee2d6d415b85acef81000000006020910493019261047e565b506040915072184f03e93ff9f4daa797ed6e38ed64bf6a1f0160401b8104610464565b7f00000000000000000000000000000000000000000000000000000000000000006001600160a01b031633036105e157565b634ca8886760e01b5f5260045ffd5b357f00000000000000000000000000000000000000000000000000000000000000006001600160a01b03167f75704b363e47b899933f7e712423ef31995da77a16c4c133d2246f3551612a245f80a3600190565b356001600160a01b03811681036100c75790565b61066460c08201610644565b61067060e08301610644565b604051833580825293602090810135936001600160a01b039384169316917f8bf46bf4cfd674fa735a3d63ec1c9ad4153f033c290341f3a588b75685141b359190a47f00000000000000000000000000000000000000000000000000000000000000006001600160a01b03167fc77a88cf6d59852e2e863edef5571c5b57b0667f97ad8389efb84510394105f05f80a360019056fea26469706673582212200f343e09ad3cd2ccfe8bc64369700753f10154438b2741d7ce3f5cbdd908b1ec64736f6c634300081b0033","linkReferences":{}},"methodIdentifiers":{"attest((bytes32,bytes32,uint64,uint64,uint64,bytes32,address,address,bool,bytes))":"e60c3505","isPayable()":"ce46e046","multiAttest((bytes32,bytes32,uint64,uint64,uint64,bytes32,address,address,bool,bytes)[],uint256[])":"91db0b7e","multiRevoke((bytes32,bytes32,uint64,uint64,uint64,bytes32,address,address,bool,bytes)[],uint256[])":"88e5b2d9","revoke((bytes32,bytes32,uint64,uint64,uint64,bytes32,address,address,bool,bytes))":"e49617e1","version()":"54fd4d50"},"id":132}