{"abi":[{"type":"constructor","inputs":[{"name":"defaultAdmin","type":"address","internalType":"address"},{"name":"tokenBridge","type":"address","internalType":"address"},{"name":"pauser","type":"address","internalType":"address"},{"name":"minter","type":"address","internalType":"address"}],"stateMutability":"nonpayable"},{"type":"function","name":"CLOCK_MODE","inputs":[],"outputs":[{"name":"","type":"string","internalType":"string"}],"stateMutability":"view"},{"type":"function","name":"DEFAULT_ADMIN_ROLE","inputs":[],"outputs":[{"name":"","type":"bytes32","internalType":"bytes32"}],"stateMutability":"view"},{"type":"function","name":"DOMAIN_SEPARATOR","inputs":[],"outputs":[{"name":"","type":"bytes32","internalType":"bytes32"}],"stateMutability":"view"},{"type":"function","name":"MINTER_ROLE","inputs":[],"outputs":[{"name":"","type":"bytes32","internalType":"bytes32"}],"stateMutability":"view"},{"type":"function","name":"PAUSER_ROLE","inputs":[],"outputs":[{"name":"","type":"bytes32","internalType":"bytes32"}],"stateMutability":"view"},{"type":"function","name":"TOKEN_BRIDGE_ROLE","inputs":[],"outputs":[{"name":"","type":"bytes32","internalType":"bytes32"}],"stateMutability":"view"},{"type":"function","name":"allowance","inputs":[{"name":"owner","type":"address","internalType":"address"},{"name":"spender","type":"address","internalType":"address"}],"outputs":[{"name":"","type":"uint256","internalType":"uint256"}],"stateMutability":"view"},{"type":"function","name":"approve","inputs":[{"name":"spender","type":"address","internalType":"address"},{"name":"value","type":"uint256","internalType":"uint256"}],"outputs":[{"name":"","type":"bool","internalType":"bool"}],"stateMutability":"nonpayable"},{"type":"function","name":"approveAndCall","inputs":[{"name":"spender","type":"address","internalType":"address"},{"name":"value","type":"uint256","internalType":"uint256"}],"outputs":[{"name":"","type":"bool","internalType":"bool"}],"stateMutability":"nonpayable"},{"type":"function","name":"approveAndCall","inputs":[{"name":"spender","type":"address","internalType":"address"},{"name":"value","type":"uint256","internalType":"uint256"},{"name":"data","type":"bytes","internalType":"bytes"}],"outputs":[{"name":"","type":"bool","internalType":"bool"}],"stateMutability":"nonpayable"},{"type":"function","name":"balanceOf","inputs":[{"name":"account","type":"address","internalType":"address"}],"outputs":[{"name":"","type":"uint256","internalType":"uint256"}],"stateMutability":"view"},{"type":"function","name":"burn","inputs":[{"name":"value","type":"uint256","internalType":"uint256"}],"outputs":[],"stateMutability":"nonpayable"},{"type":"function","name":"burnFrom","inputs":[{"name":"account","type":"address","internalType":"address"},{"name":"value","type":"uint256","internalType":"uint256"}],"outputs":[],"stateMutability":"nonpayable"},{"type":"function","name":"checkpoints","inputs":[{"name":"account","type":"address","internalType":"address"},{"name":"pos","type":"uint32","internalType":"uint32"}],"outputs":[{"name":"","type":"tuple","internalType":"struct Checkpoints.Checkpoint208","components":[{"name":"_key","type":"uint48","internalType":"uint48"},{"name":"_value","type":"uint208","internalType":"uint208"}]}],"stateMutability":"view"},{"type":"function","name":"clock","inputs":[],"outputs":[{"name":"","type":"uint48","internalType":"uint48"}],"stateMutability":"view"},{"type":"function","name":"decimals","inputs":[],"outputs":[{"name":"","type":"uint8","internalType":"uint8"}],"stateMutability":"view"},{"type":"function","name":"delegate","inputs":[{"name":"delegatee","type":"address","internalType":"address"}],"outputs":[],"stateMutability":"nonpayable"},{"type":"function","name":"delegateBySig","inputs":[{"name":"delegatee","type":"address","internalType":"address"},{"name":"nonce","type":"uint256","internalType":"uint256"},{"name":"expiry","type":"uint256","internalType":"uint256"},{"name":"v","type":"uint8","internalType":"uint8"},{"name":"r","type":"bytes32","internalType":"bytes32"},{"name":"s","type":"bytes32","internalType":"bytes32"}],"outputs":[],"stateMutability":"nonpayable"},{"type":"function","name":"delegates","inputs":[{"name":"account","type":"address","internalType":"address"}],"outputs":[{"name":"","type":"address","internalType":"address"}],"stateMutability":"view"},{"type":"function","name":"eip712Domain","inputs":[],"outputs":[{"name":"fields","type":"bytes1","internalType":"bytes1"},{"name":"name","type":"string","internalType":"string"},{"name":"version","type":"string","internalType":"string"},{"name":"chainId","type":"uint256","internalType":"uint256"},{"name":"verifyingContract","type":"address","internalType":"address"},{"name":"salt","type":"bytes32","internalType":"bytes32"},{"name":"extensions","type":"uint256[]","internalType":"uint256[]"}],"stateMutability":"view"},{"type":"function","name":"getPastTotalSupply","inputs":[{"name":"timepoint","type":"uint256","internalType":"uint256"}],"outputs":[{"name":"","type":"uint256","internalType":"uint256"}],"stateMutability":"view"},{"type":"function","name":"getPastVotes","inputs":[{"name":"account","type":"address","internalType":"address"},{"name":"timepoint","type":"uint256","internalType":"uint256"}],"outputs":[{"name":"","type":"uint256","internalType":"uint256"}],"stateMutability":"view"},{"type":"function","name":"getRoleAdmin","inputs":[{"name":"role","type":"bytes32","internalType":"bytes32"}],"outputs":[{"name":"","type":"bytes32","internalType":"bytes32"}],"stateMutability":"view"},{"type":"function","name":"getVotes","inputs":[{"name":"account","type":"address","internalType":"address"}],"outputs":[{"name":"","type":"uint256","internalType":"uint256"}],"stateMutability":"view"},{"type":"function","name":"grantRole","inputs":[{"name":"role","type":"bytes32","internalType":"bytes32"},{"name":"account","type":"address","internalType":"address"}],"outputs":[],"stateMutability":"nonpayable"},{"type":"function","name":"hasRole","inputs":[{"name":"role","type":"bytes32","internalType":"bytes32"},{"name":"account","type":"address","internalType":"address"}],"outputs":[{"name":"","type":"bool","internalType":"bool"}],"stateMutability":"view"},{"type":"function","name":"mint","inputs":[{"name":"to","type":"address","internalType":"address"},{"name":"amount","type":"uint256","internalType":"uint256"}],"outputs":[],"stateMutability":"nonpayable"},{"type":"function","name":"name","inputs":[],"outputs":[{"name":"","type":"string","internalType":"string"}],"stateMutability":"view"},{"type":"function","name":"nonces","inputs":[{"name":"owner","type":"address","internalType":"address"}],"outputs":[{"name":"","type":"uint256","internalType":"uint256"}],"stateMutability":"view"},{"type":"function","name":"numCheckpoints","inputs":[{"name":"account","type":"address","internalType":"address"}],"outputs":[{"name":"","type":"uint32","internalType":"uint32"}],"stateMutability":"view"},{"type":"function","name":"pause","inputs":[],"outputs":[],"stateMutability":"nonpayable"},{"type":"function","name":"paused","inputs":[],"outputs":[{"name":"","type":"bool","internalType":"bool"}],"stateMutability":"view"},{"type":"function","name":"permit","inputs":[{"name":"owner","type":"address","internalType":"address"},{"name":"spender","type":"address","internalType":"address"},{"name":"value","type":"uint256","internalType":"uint256"},{"name":"deadline","type":"uint256","internalType":"uint256"},{"name":"v","type":"uint8","internalType":"uint8"},{"name":"r","type":"bytes32","internalType":"bytes32"},{"name":"s","type":"bytes32","internalType":"bytes32"}],"outputs":[],"stateMutability":"nonpayable"},{"type":"function","name":"renounceRole","inputs":[{"name":"role","type":"bytes32","internalType":"bytes32"},{"name":"callerConfirmation","type":"address","internalType":"address"}],"outputs":[],"stateMutability":"nonpayable"},{"type":"function","name":"revokeRole","inputs":[{"name":"role","type":"bytes32","internalType":"bytes32"},{"name":"account","type":"address","internalType":"address"}],"outputs":[],"stateMutability":"nonpayable"},{"type":"function","name":"supportsInterface","inputs":[{"name":"interfaceId","type":"bytes4","internalType":"bytes4"}],"outputs":[{"name":"","type":"bool","internalType":"bool"}],"stateMutability":"view"},{"type":"function","name":"symbol","inputs":[],"outputs":[{"name":"","type":"string","internalType":"string"}],"stateMutability":"view"},{"type":"function","name":"totalSupply","inputs":[],"outputs":[{"name":"","type":"uint256","internalType":"uint256"}],"stateMutability":"view"},{"type":"function","name":"transfer","inputs":[{"name":"to","type":"address","internalType":"address"},{"name":"value","type":"uint256","internalType":"uint256"}],"outputs":[{"name":"","type":"bool","internalType":"bool"}],"stateMutability":"nonpayable"},{"type":"function","name":"transferAndCall","inputs":[{"name":"to","type":"address","internalType":"address"},{"name":"value","type":"uint256","internalType":"uint256"}],"outputs":[{"name":"","type":"bool","internalType":"bool"}],"stateMutability":"nonpayable"},{"type":"function","name":"transferAndCall","inputs":[{"name":"to","type":"address","internalType":"address"},{"name":"value","type":"uint256","internalType":"uint256"},{"name":"data","type":"bytes","internalType":"bytes"}],"outputs":[{"name":"","type":"bool","internalType":"bool"}],"stateMutability":"nonpayable"},{"type":"function","name":"transferFrom","inputs":[{"name":"from","type":"address","internalType":"address"},{"name":"to","type":"address","internalType":"address"},{"name":"value","type":"uint256","internalType":"uint256"}],"outputs":[{"name":"","type":"bool","internalType":"bool"}],"stateMutability":"nonpayable"},{"type":"function","name":"transferFromAndCall","inputs":[{"name":"from","type":"address","internalType":"address"},{"name":"to","type":"address","internalType":"address"},{"name":"value","type":"uint256","internalType":"uint256"},{"name":"data","type":"bytes","internalType":"bytes"}],"outputs":[{"name":"","type":"bool","internalType":"bool"}],"stateMutability":"nonpayable"},{"type":"function","name":"transferFromAndCall","inputs":[{"name":"from","type":"address","internalType":"address"},{"name":"to","type":"address","internalType":"address"},{"name":"value","type":"uint256","internalType":"uint256"}],"outputs":[{"name":"","type":"bool","internalType":"bool"}],"stateMutability":"nonpayable"},{"type":"function","name":"unpause","inputs":[],"outputs":[],"stateMutability":"nonpayable"},{"type":"event","name":"Approval","inputs":[{"name":"owner","type":"address","indexed":true,"internalType":"address"},{"name":"spender","type":"address","indexed":true,"internalType":"address"},{"name":"value","type":"uint256","indexed":false,"internalType":"uint256"}],"anonymous":false},{"type":"event","name":"DelegateChanged","inputs":[{"name":"delegator","type":"address","indexed":true,"internalType":"address"},{"name":"fromDelegate","type":"address","indexed":true,"internalType":"address"},{"name":"toDelegate","type":"address","indexed":true,"internalType":"address"}],"anonymous":false},{"type":"event","name":"DelegateVotesChanged","inputs":[{"name":"delegate","type":"address","indexed":true,"internalType":"address"},{"name":"previousVotes","type":"uint256","indexed":false,"internalType":"uint256"},{"name":"newVotes","type":"uint256","indexed":false,"internalType":"uint256"}],"anonymous":false},{"type":"event","name":"EIP712DomainChanged","inputs":[],"anonymous":false},{"type":"event","name":"Paused","inputs":[{"name":"account","type":"address","indexed":false,"internalType":"address"}],"anonymous":false},{"type":"event","name":"RoleAdminChanged","inputs":[{"name":"role","type":"bytes32","indexed":true,"internalType":"bytes32"},{"name":"previousAdminRole","type":"bytes32","indexed":true,"internalType":"bytes32"},{"name":"newAdminRole","type":"bytes32","indexed":true,"internalType":"bytes32"}],"anonymous":false},{"type":"event","name":"RoleGranted","inputs":[{"name":"role","type":"bytes32","indexed":true,"internalType":"bytes32"},{"name":"account","type":"address","indexed":true,"internalType":"address"},{"name":"sender","type":"address","indexed":true,"internalType":"address"}],"anonymous":false},{"type":"event","name":"RoleRevoked","inputs":[{"name":"role","type":"bytes32","indexed":true,"internalType":"bytes32"},{"name":"account","type":"address","indexed":true,"internalType":"address"},{"name":"sender","type":"address","indexed":true,"internalType":"address"}],"anonymous":false},{"type":"event","name":"Transfer","inputs":[{"name":"from","type":"address","indexed":true,"internalType":"address"},{"name":"to","type":"address","indexed":true,"internalType":"address"},{"name":"value","type":"uint256","indexed":false,"internalType":"uint256"}],"anonymous":false},{"type":"event","name":"Unpaused","inputs":[{"name":"account","type":"address","indexed":false,"internalType":"address"}],"anonymous":false},{"type":"error","name":"AccessControlBadConfirmation","inputs":[]},{"type":"error","name":"AccessControlUnauthorizedAccount","inputs":[{"name":"account","type":"address","internalType":"address"},{"name":"neededRole","type":"bytes32","internalType":"bytes32"}]},{"type":"error","name":"CheckpointUnorderedInsertion","inputs":[]},{"type":"error","name":"ECDSAInvalidSignature","inputs":[]},{"type":"error","name":"ECDSAInvalidSignatureLength","inputs":[{"name":"length","type":"uint256","internalType":"uint256"}]},{"type":"error","name":"ECDSAInvalidSignatureS","inputs":[{"name":"s","type":"bytes32","internalType":"bytes32"}]},{"type":"error","name":"ERC1363ApproveFailed","inputs":[{"name":"spender","type":"address","internalType":"address"},{"name":"value","type":"uint256","internalType":"uint256"}]},{"type":"error","name":"ERC1363InvalidReceiver","inputs":[{"name":"receiver","type":"address","internalType":"address"}]},{"type":"error","name":"ERC1363InvalidSpender","inputs":[{"name":"spender","type":"address","internalType":"address"}]},{"type":"error","name":"ERC1363TransferFailed","inputs":[{"name":"receiver","type":"address","internalType":"address"},{"name":"value","type":"uint256","internalType":"uint256"}]},{"type":"error","name":"ERC1363TransferFromFailed","inputs":[{"name":"sender","type":"address","internalType":"address"},{"name":"receiver","type":"address","internalType":"address"},{"name":"value","type":"uint256","internalType":"uint256"}]},{"type":"error","name":"ERC20ExceededSafeSupply","inputs":[{"name":"increasedSupply","type":"uint256","internalType":"uint256"},{"name":"cap","type":"uint256","internalType":"uint256"}]},{"type":"error","name":"ERC20InsufficientAllowance","inputs":[{"name":"spender","type":"address","internalType":"address"},{"name":"allowance","type":"uint256","internalType":"uint256"},{"name":"needed","type":"uint256","internalType":"uint256"}]},{"type":"error","name":"ERC20InsufficientBalance","inputs":[{"name":"sender","type":"address","internalType":"address"},{"name":"balance","type":"uint256","internalType":"uint256"},{"name":"needed","type":"uint256","internalType":"uint256"}]},{"type":"error","name":"ERC20InvalidApprover","inputs":[{"name":"approver","type":"address","internalType":"address"}]},{"type":"error","name":"ERC20InvalidReceiver","inputs":[{"name":"receiver","type":"address","internalType":"address"}]},{"type":"error","name":"ERC20InvalidSender","inputs":[{"name":"sender","type":"address","internalType":"address"}]},{"type":"error","name":"ERC20InvalidSpender","inputs":[{"name":"spender","type":"address","internalType":"address"}]},{"type":"error","name":"ERC2612ExpiredSignature","inputs":[{"name":"deadline","type":"uint256","internalType":"uint256"}]},{"type":"error","name":"ERC2612InvalidSigner","inputs":[{"name":"signer","type":"address","internalType":"address"},{"name":"owner","type":"address","internalType":"address"}]},{"type":"error","name":"ERC5805FutureLookup","inputs":[{"name":"timepoint","type":"uint256","internalType":"uint256"},{"name":"clock","type":"uint48","internalType":"uint48"}]},{"type":"error","name":"ERC6372InconsistentClock","inputs":[]},{"type":"error","name":"EnforcedPause","inputs":[]},{"type":"error","name":"ExpectedPause","inputs":[]},{"type":"error","name":"InvalidAccountNonce","inputs":[{"name":"account","type":"address","internalType":"address"},{"name":"currentNonce","type":"uint256","internalType":"uint256"}]},{"type":"error","name":"InvalidShortString","inputs":[]},{"type":"error","name":"SafeCastOverflowedUintDowncast","inputs":[{"name":"bits","type":"uint8","internalType":"uint8"},{"name":"value","type":"uint256","internalType":"uint256"}]},{"type":"error","name":"StringTooLong","inputs":[{"name":"str","type":"string","internalType":"string"}]},{"type":"error","name":"Unauthorized","inputs":[]},{"type":"error","name":"VotesExpiredSignature","inputs":[{"name":"expiry","type":"uint256","internalType":"uint256"}]}],"bytecode":{"object":"0x61016080604052346104a657608081613377803803809161002082856104aa565b8339810103126104a657610033816104cd565b90610040602082016104cd565b906100596060610052604084016104cd565b92016104cd565b91604051936100696040866104aa565b6007855260208501946626bcaa37b5b2b760c91b865260405161008d6040826104aa565b6005815264454e30564160d81b6020820152604051966100ae6040896104aa565b6003885262454e4f60e81b6020890152604051926100cd6040856104aa565b60018452603160f81b60208501908152835190936001600160401b0382116103a95760035490600182811c9216801561049c575b602083101461038b5781601f84931161042e575b50602090601f83116001146103c8575f926103bd575b50508160011b915f199060031b1c1916176003555b88516001600160401b0381116103a957600454600181811c9116801561039f575b602082101461038b57601f8111610328575b506020601f82116001146102b1579261024e9897959282610242969361024899966102549e5f926102a6575b50508160011b915f199060031b1c1916176004555b6101bd81610710565b610120526101ca84610897565b61014052519020918260e05251902080610100524660a0526040519060208201927f8b73c3c69bb8fe3d512ecc4cf759cc79239f7b179b0ffacaa9a75d522b39400f8452604083015260608201524660808201523060a082015260a0815261023360c0826104aa565b5190206080523060c0526104e1565b50610557565b506105ea565b5061067d565b5060405161290790816109d0823960805181611a8f015260a05181611b4c015260c05181611a59015260e05181611ade01526101005181611b0401526101205181610cce01526101405181610cf70152f35b015190505f8061019f565b601f1982169a60045f52815f209b5f5b8181106103105750836102549d6102489a979461024e9d9c9a97946102429a97600195106102f8575b505050811b016004556101b4565b01515f1960f88460031b161c191690555f80806102ea565b838301518e556001909d019c602093840193016102c1565b60045f527f8a35acfbc15ff81a39ae7d344fd709f28e8600b4aa8c65c6b64bfe7fe36bd19b601f830160051c81019160208410610381575b601f0160051c01905b8181106103765750610173565b5f8155600101610369565b9091508190610360565b634e487b7160e01b5f52602260045260245ffd5b90607f1690610161565b634e487b7160e01b5f52604160045260245ffd5b015190505f8061012b565b60035f9081528281209350601f198516905b81811061041657509084600195949392106103fe575b505050811b01600355610140565b01515f1960f88460031b161c191690555f80806103f0565b929360206001819287860151815501950193016103da565b60035f529091507fc2575a0e9e593c00f959f8c92f12db2869c3395a3b0502d05e2516446f71f85b601f840160051c81019160208510610492575b90601f859493920160051c01905b8181106104845750610115565b5f8155849350600101610477565b9091508190610469565b91607f1691610101565b5f80fd5b601f909101601f19168101906001600160401b038211908210176103a957604052565b51906001600160a01b03821682036104a657565b6001600160a01b0381165f9081525f5160206133175f395f51905f52602052604090205460ff16610552576001600160a01b03165f8181525f5160206133175f395f51905f5260205260408120805460ff191660011790553391905f5160206132d75f395f51905f528180a4600190565b505f90565b6001600160a01b0381165f9081525f5160206133575f395f51905f52602052604090205460ff16610552576001600160a01b03165f8181525f5160206133575f395f51905f5260205260408120805460ff191660011790553391907fd7c4527c99f13bf6a80d3bc15ebce76f7f8256ab4fbf63363b10858db314c978905f5160206132d75f395f51905f529080a4600190565b6001600160a01b0381165f9081525f5160206133375f395f51905f52602052604090205460ff16610552576001600160a01b03165f8181525f5160206133375f395f51905f5260205260408120805460ff191660011790553391907f65d7a28e3265b37a6474929f336521b332c1681b933f6cb9f3376673440d862a905f5160206132d75f395f51905f529080a4600190565b6001600160a01b0381165f9081525f5160206132f75f395f51905f52602052604090205460ff16610552576001600160a01b03165f8181525f5160206132f75f395f51905f5260205260408120805460ff191660011790553391907f9f2df0fed2c77648de5860a4cc508cd0818c85b8b8a1ab4ceeef8d981c8956a6905f5160206132d75f395f51905f529080a4600190565b908151602081105f1461078a575090601f81511161074a57602081519101516020821061073b571790565b5f198260200360031b1b161790565b604460209160405192839163305a27a960e01b83528160048401528051918291826024860152018484015e5f828201840152601f01601f19168101030190fd5b6001600160401b0381116103a957600754600181811c9116801561088d575b602082101461038b57601f811161085a575b50602092601f82116001146107f957928192935f926107ee575b50508160011b915f199060031b1c19161760075560ff90565b015190505f806107d5565b601f1982169360075f52805f20915f5b868110610842575083600195961061082a575b505050811b0160075560ff90565b01515f1960f88460031b161c191690555f808061081c565b91926020600181928685015181550194019201610809565b60075f52601f60205f20910160051c810190601f830160051c015b81811061088257506107bb565b5f8155600101610875565b90607f16906107a9565b908151602081105f146108c2575090601f81511161074a57602081519101516020821061073b571790565b6001600160401b0381116103a957600854600181811c911680156109c5575b602082101461038b57601f8111610992575b50602092601f821160011461093157928192935f92610926575b50508160011b915f199060031b1c19161760085560ff90565b015190505f8061090d565b601f1982169360085f52805f20915f5b86811061097a5750836001959610610962575b505050811b0160085560ff90565b01515f1960f88460031b161c191690555f8080610954565b91926020600181928685015181550194019201610941565b60085f52601f60205f20910160051c810190601f830160051c015b8181106109ba57506108f3565b5f81556001016109ad565b90607f16906108e156fe60806040526004361015610011575f80fd5b5f3560e01c806301ffc9a7146102e457806306fdde03146102df578063095ea7b3146102da5780631296ee62146102d557806318160ddd146102d057806323b872dd146102cb578063248a9ca3146102c65780632f2ff15d146102c1578063313ce567146102bc5780633177029f146102b75780633644e515146102b257806336568abe146102ad5780633a46b1a8146102a85780633f4ba83a146102a35780634000aea01461029e57806340c10f191461029957806342966c68146102945780634bf5d7e91461028f578063587cde1e1461028a5780635c19a95c146102855780635c975abb146102805780636fcfff451461027b57806370a082311461027657806379cc6790146102715780637ecebe001461026c5780638456cb591461026757806384b0196e146102625780638e539e8c1461025d57806391d148541461025857806391ddadf41461025357806395d89b411461024e5780639ab24eb014610249578063a217fddf14610244578063a9059cbb1461023f578063a94ea30c1461023a578063c1d34b8914610235578063c3cda52014610230578063cae9ca511461022b578063d505accf14610226578063d539139314610221578063d547741f1461021c578063d8fbe99414610217578063dd62ed3e14610212578063e63ab1e91461020d5763f1127ed814610208575f80fd5b61145c565b611422565b6113cb565b61139c565b61135e565b611324565b611200565b6111e7565b6110d8565b611052565b611018565b610ff2565b610fd8565b610f91565b610eec565b610ec1565b610e72565b610db3565b610cb6565b610c5d565b610c25565b610bf5565b610bbd565b610b5b565b610b39565b610b17565b610ad7565b610a47565b610a2a565b61094d565b610930565b6107bd565b6106d8565b610694565b61067a565b610639565b61061e565b6105d9565b6105a6565b610584565b61052d565b6104de565b6104ad565b6103a7565b6102ff565b6001600160e01b03198116036102fb57565b5f80fd5b346102fb5760203660031901126102fb57602060043561031e816102e9565b63ffffffff60e01b1663b0202a1160e01b8114908115610344575b506040519015158152f35b637965db0b60e01b81149150811561035e575b505f610339565b6301ffc9a760e01b1490505f610357565b805180835260209291819084018484015e5f828201840152601f01601f1916010190565b9060206103a492818152019061036f565b90565b346102fb575f3660031901126102fb576040515f6003546103c78161150e565b808452906001811690811561045d57506001146103ff575b6103fb836103ef81850382610858565b60405191829182610393565b0390f35b60035f9081527fc2575a0e9e593c00f959f8c92f12db2869c3395a3b0502d05e2516446f71f85b939250905b808210610443575090915081016020016103ef6103df565b91926001816020925483858801015201910190929161042b565b60ff191660208086019190915291151560051b840190910191506103ef90506103df565b600435906001600160a01b03821682036102fb57565b602435906001600160a01b03821682036102fb57565b346102fb5760403660031901126102fb576104d36104c9610481565b6024359033612002565b602060405160018152f35b346102fb5760403660031901126102fb576105216104fa610481565b6024356040519161050c602084610858565b5f835261051a8282336117bb565b3333611ce5565b60405160018152602090f35b346102fb575f3660031901126102fb576020600254604051908152f35b60609060031901126102fb576004356001600160a01b03811681036102fb57906024356001600160a01b03811681036102fb579060443590565b346102fb576104d36105953661054a565b916105a18333836116ed565b6117bb565b346102fb5760203660031901126102fb5760206105d16004355f526005602052600160405f20015490565b604051908152f35b346102fb5760403660031901126102fb5761061c6004356105f8610497565b90610617610612825f526005602052600160405f20015490565b61198c565b6119c6565b005b346102fb575f3660031901126102fb57602060405160128152f35b346102fb5760403660031901126102fb576020610670610657610481565b602435604051916106688584610858565b5f83526115c7565b6040519015158152f35b346102fb575f3660031901126102fb5760206105d1611a56565b346102fb5760403660031901126102fb576004356106b0610497565b336001600160a01b038216036106c95761061c91611b72565b63334bd91960e11b5f5260045ffd5b346102fb5760403660031901126102fb576106f1610481565b6001600160a01b03165f908152600b60205260409020610712602435611bfa565b8154905f829160058411610765575b61072c935084612222565b908161074a57505060205f5b6040516001600160d01b039091168152f35b610755602092611c47565b905f52815f20015460301c610738565b9192610770816120c4565b81039081116107b85761072c93855f5265ffffffffffff8260205f2001541665ffffffffffff8516105f146107a6575091610721565b9291506107b290611c55565b90610721565b611c33565b346102fb575f3660031901126102fb576107d56118ae565b60065460ff8116156108145760ff19166006557f5db9ee0a495bf2e6ff9c91a7834c1ba4fdd244a5e8aa4e537bd38aeae4b073aa6020604051338152a1005b638dfc202b60e01b5f5260045ffd5b634e487b7160e01b5f52604160045260245ffd5b6040810190811067ffffffffffffffff82111761085357604052565b610823565b90601f8019910116810190811067ffffffffffffffff82111761085357604052565b60405190610889604083610858565b565b67ffffffffffffffff811161085357601f01601f191660200190565b81601f820112156102fb578035906108be8261088b565b926108cc6040519485610858565b828452602083830101116102fb57815f926020809301838601378301015290565b60606003198201126102fb576004356001600160a01b03811681036102fb5791602435916044359067ffffffffffffffff82116102fb576103a4916004016108a7565b346102fb57610521610941366108ed565b9161051a8282336117bb565b346102fb5760403660031901126102fb57610966610481565b60243561097161191d565b6001600160a01b0382168015610a17576109896123a8565b61099d61099883600254611c63565b600255565b6001600160a01b0383165f90815260208181526040808320805486019055518481527fddf252ad1be2c89b69c2b068fc378daa952ba7f163c4a11628f55a4df523b3ef9190a3600254916001600160d01b03808411610a005761061c83836126b1565b630e58ae9360e11b5f52600484905260245260445ffd5b63ec442f0560e01b5f525f60045260245ffd5b346102fb5760203660031901126102fb5761061c60043533611dce565b346102fb575f3660031901126102fb57610a6043612077565b65ffffffffffff80610a7143612077565b16911603610ac8576103fb604051610a8a604082610858565b601d81527f6d6f64653d626c6f636b6e756d6265722666726f6d3d64656661756c74000000602082015260405191829160208352602083019061036f565b6301bfc1c560e61b5f5260045ffd5b346102fb5760203660031901126102fb576001600160a01b03610af8610481565b165f52600a602052602060018060a01b0360405f205416604051908152f35b346102fb5760203660031901126102fb5761061c610b33610481565b33611efe565b346102fb575f3660031901126102fb57602060ff600654166040519015158152f35b346102fb5760203660031901126102fb576001600160a01b03610b7c610481565b165f52600b60205260405f205463ffffffff8111610ba65760405163ffffffff9091168152602090f35b6306dfcc6560e41b5f52602060045260245260445ffd5b346102fb5760203660031901126102fb5760206105d1610bdb610481565b6001600160a01b03165f9081526020819052604090205490565b346102fb5760403660031901126102fb5761061c610c11610481565b60243590610c208233836116ed565b611dce565b346102fb5760203660031901126102fb576001600160a01b03610c46610481565b165f526009602052602060405f2054604051908152f35b346102fb575f3660031901126102fb57610c756118ae565b610c7d6123a8565b600160ff1960065416176006557f62e78cea01bee320cd4e420270b5ea74000d11b0c9f74754ebdbfc544b05a2586020604051338152a1005b346102fb575f3660031901126102fb57610d5a610cf27f00000000000000000000000000000000000000000000000000000000000000006123c3565b610d1b7f0000000000000000000000000000000000000000000000000000000000000000612423565b6020604051610d2a8282610858565b5f815281610d6881830194601f198301368737604051978897600f60f81b895260e0858a015260e089019061036f565b90878203604089015261036f565b914660608701523060808701525f60a087015285830360c087015251918281520192915f5b828110610d9c57505050500390f35b835185528695509381019392810192600101610d8d565b346102fb5760203660031901126102fb57610dcf600435611bfa565b600c54905f829160058411610e1e575b610deb9350600c612222565b80610dfc57506040515f8152602090f35b610e19610e0a602092611c47565b600c5f52825f20015460301c90565b610738565b9192610e29816120c4565b81039081116107b857610deb93600c5f5265ffffffffffff8260205f2001541665ffffffffffff8516105f14610e60575091610ddf565b929150610e6c90611c55565b90610ddf565b346102fb5760403660031901126102fb57602060ff610eb5600435610e95610497565b905f526005845260405f209060018060a01b03165f5260205260405f2090565b54166040519015158152f35b346102fb575f3660031901126102fb576020610edc43612077565b65ffffffffffff60405191168152f35b346102fb575f3660031901126102fb576040515f600454610f0c8161150e565b808452906001811690811561045d5750600114610f33576103fb836103ef81850382610858565b60045f9081527f8a35acfbc15ff81a39ae7d344fd709f28e8600b4aa8c65c6b64bfe7fe36bd19b939250905b808210610f77575090915081016020016103ef6103df565b919260018160209254838588010152019101909291610f5f565b346102fb5760203660031901126102fb576001600160a01b03610fb2610481565b165f52600b602052602060018060d01b03610fcf60405f20611f7f565b16604051908152f35b346102fb575f3660031901126102fb5760206040515f8152f35b346102fb5760403660031901126102fb576104d361100e610481565b60243590336117bb565b346102fb575f3660031901126102fb5760206040517fd7c4527c99f13bf6a80d3bc15ebce76f7f8256ab4fbf63363b10858db314c9788152f35b346102fb5760803660031901126102fb5761106b610481565b611073610497565b906044356064359267ffffffffffffffff84116102fb5761109b6105219436906004016108a7565b926110a78333836116ed565b6110b28383836117bb565b33611ce5565b6064359060ff821682036102fb57565b6084359060ff821682036102fb57565b346102fb5760c03660031901126102fb576110f1610481565b602435906044356111006110b8565b6084359060a435928042116111d55791611185939161117761117c9460405160208101917fe48329057bfd03d55e49b547132e39cffd9c1820ad7b9d4c5307691425d15adf835260018060a01b038a1660408301528a606083015260808201526080815261116f60a082610858565b519020611fa9565b61245a565b90929192612505565b6001600160a01b0381165f9081526009602052604090208054600181019091558093036111b65761061c9250611efe565b90506301d4b62360e61b5f5260018060a01b031660045260245260445ffd5b632341d78760e11b5f5260045260245ffd5b346102fb5760206106706111fa366108ed565b916115c7565b346102fb5760e03660031901126102fb57611219610481565b611221610497565b60443590606435926112316110c8565b60a43560c43590864211611311576001600160a01b0384165f9081526009602052604090208054600181019091556112d693906112d1909860405160208101917f6e71edae12b1b97f4d1f60370fef10105fa2faae0126114a169c64845d6126c9835260018060a01b0389169b8c604084015260018060a01b038b1660608401528b608084015260a083015260c082015260c0815261116f60e082610858565b611fcf565b936001600160a01b038516036112f05761061c9350612002565b6325c0072360e11b5f526001600160a01b038085166004521660245260445ffd5b8663313c898160e11b5f5260045260245ffd5b346102fb575f3660031901126102fb5760206040517f9f2df0fed2c77648de5860a4cc508cd0818c85b8b8a1ab4ceeef8d981c8956a68152f35b346102fb5760403660031901126102fb5761061c60043561137d610497565b90611397610612825f526005602052600160405f20015490565b611b72565b346102fb576105216113ad3661054a565b90604051926113bd602085610858565b5f84526110a78333836116ed565b346102fb5760403660031901126102fb5760206114196113e9610481565b6113f1610497565b6001600160a01b039182165f9081526001855260408082209290931681526020919091522090565b54604051908152f35b346102fb575f3660031901126102fb5760206040517f65d7a28e3265b37a6474929f336521b332c1681b933f6cb9f3376673440d862a8152f35b346102fb5760403660031901126102fb57611475610481565b6024359063ffffffff821682036102fb576103fb916114c4916114966116d5565b5061149f6116d5565b506001600160a01b03165f908152600b602052604090206114be6116d5565b50612581565b50604051906114d282610837565b5465ffffffffffff811680835260309190911c60209283019081526040805192835290516001600160d01b031692820192909252918291820190565b90600182811c9216801561153c575b602083101461152857565b634e487b7160e01b5f52602260045260245ffd5b91607f169161151d565b5f92918154916115558361150e565b80835292600181169081156115aa575060011461157157505050565b5f9081526020812093945091925b838310611590575060209250010190565b60018160209294939454838587010152019101919061157f565b915050602093945060ff929192191683830152151560051b010190565b91906115d4818433612002565b823b156116b9576040516307b04a2d60e41b815291602091839182916115ff91903360048501611fde565b03815f6001600160a01b0387165af15f9181611688575b506116505750611624611cb6565b80519190826116495763deb6d3ed60e01b5f526001600160a01b03821660045260245ffd5b6020915001fd5b6001600160e01b03191663084fb5d360e41b0161166d5750600190565b63deb6d3ed60e01b5f526001600160a01b031660045260245ffd5b6116ab91925060203d6020116116b2575b6116a38183610858565b810190611c70565b905f611616565b503d611699565b63deb6d3ed60e01b5f526001600160a01b03831660045260245ffd5b604051906116e282610837565b5f6020838281520152565b6001600160a01b039081165f81815260016020908152604080832094861683529390529190912091929091545f198110611728575b50505050565b81811061179a578215611787576001600160a01b038416156117745761176a925f526001602052039160405f209060018060a01b03165f5260205260405f2090565b555f808080611722565b634a1406b160e11b5f525f60045260245ffd5b63e602df0560e01b5f525f60045260245ffd5b83637dc7a0d960e11b5f5260018060a01b031660045260245260445260645ffd5b6001600160a01b03811693929190841561189b576001600160a01b0382168015610a17576117e76123a8565b6001600160a01b0382165f908152602081905260409020549584871061187557846108899697036118278460018060a01b03165f525f60205260405f2090565b556001600160a01b0384165f908152602081815260409182902080548801905590518681527fddf252ad1be2c89b69c2b068fc378daa952ba7f163c4a11628f55a4df523b3ef9190a361272a565b63391434e360e21b5f526001600160a01b0383166004526024879052604485905260645ffd5b634b637e8f60e11b5f525f60045260245ffd5b335f9081527f99f2891db7a8db76249871a02b43b68c0bb8f22ef8a3bc1034ae9375ef6b7c3c602052604090205460ff16156118e657565b63e2517d3f60e01b5f52336004527f65d7a28e3265b37a6474929f336521b332c1681b933f6cb9f3376673440d862a60245260445ffd5b335f9081527f15a28d26fa1bf736cf7edc9922607171ccb09c3c73b808e7772a3013e068a522602052604090205460ff161561195557565b63e2517d3f60e01b5f52336004527f9f2df0fed2c77648de5860a4cc508cd0818c85b8b8a1ab4ceeef8d981c8956a660245260445ffd5b5f81815260056020908152604080832033845290915290205460ff16156119b05750565b63e2517d3f60e01b5f523360045260245260445ffd5b5f8181526005602090815260408083206001600160a01b038616845290915290205460ff16611a50575f8181526005602090815260408083206001600160a01b03861684529091529020805460ff1916600117905533916001600160a01b0316907f2f8788117e7eff1d82e926ec794901d17c78024a50270940304540a733656f0d5f80a4600190565b50505f90565b307f00000000000000000000000000000000000000000000000000000000000000006001600160a01b03161480611b49575b15611ab1577f000000000000000000000000000000000000000000000000000000000000000090565b60405160208101907f8b73c3c69bb8fe3d512ecc4cf759cc79239f7b179b0ffacaa9a75d522b39400f82527f000000000000000000000000000000000000000000000000000000000000000060408201527f000000000000000000000000000000000000000000000000000000000000000060608201524660808201523060a082015260a08152611b4360c082610858565b51902090565b507f00000000000000000000000000000000000000000000000000000000000000004614611a88565b5f8181526005602090815260408083206001600160a01b038616845290915290205460ff1615611a50575f8181526005602090815260408083206001600160a01b03861684529091529020805460ff1916905533916001600160a01b0316907ff6391f5c32d9c69d2a47ea670b442974b53935d1edc7fd64eb21e047a839171b5f80a4600190565b65ffffffffffff611c0a43612077565b1680821015611c1d57506103a490612077565b90637669fc0f60e11b5f5260045260245260445ffd5b634e487b7160e01b5f52601160045260245ffd5b5f198101919082116107b857565b90600182018092116107b857565b919082018092116107b857565b908160209103126102fb57516103a4816102e9565b6001600160a01b0391821681529116602082015260408101919091526080606082018190526103a49291019061036f565b3d15611ce0573d90611cc78261088b565b91611cd56040519384610858565b82523d5f602084013e565b606090565b909193843b15611db25790611d12602093926040519586948594632229f29760e21b865260048601611c85565b03815f6001600160a01b0387165af15f9181611d91575b50611d5c5750611d37611cb6565b8051919082611649576322a5b36760e21b5f526001600160a01b03821660045260245ffd5b6001600160e01b031916631dd60d6960e21b01611d765750565b6322a5b36760e21b5f526001600160a01b031660045260245ffd5b611dab91925060203d6020116116b2576116a38183610858565b905f611d29565b6322a5b36760e21b5f526001600160a01b03851660045260245ffd5b6001600160a01b03811690811561189b57611de76123a8565b6001600160a01b0381165f90815260208190526040902054838110611ed95790611e2884610889959493039160018060a01b03165f525f60205260405f2090565b5581600254036002555f817fddf252ad1be2c89b69c2b068fc378daa952ba7f163c4a11628f55a4df523b3ef60405180602081018782520390a38015611ec1575b611e7a611e75836125aa565b61267c565b50505f908152600a60205260408120549080527f13da86008ba1c6922daee3e07db95305ef49ebced9f5467a0b8613fcc6b343e3546001600160a01b039081169116612286565b611ed2611ecd836125aa565b612647565b5050611e69565b63391434e360e21b5f526001600160a01b03909116600452602452604482905260645ffd5b6001600160a01b038181165f818152600a6020526040812080548685166001600160a01b03198216811790925561088996941694611f799390928691907f3134e8a2e6d97e929a7e54011ea5485d7d196dd5f0ba4d4ef95803e8e3fc257f9080a46001600160a01b03165f9081526020819052604090205490565b91612286565b80549081611f8d5750505f90565b815f198101116107b8575f525f199060205f2001015460301c90565b604290611fb4611a56565b906040519161190160f01b8352600283015260228201522090565b916103a4939161117c9361245a565b6103a4939260609260018060a01b031682526020820152816040820152019061036f565b6001600160a01b0316908115611787576001600160a01b038116928315611774578061206a7f8c5be1e5ebec7d5bd14f71427d1e84f3dd0314c0f7b2291e5b200ac8c7c3b92593855f52600160205260405f209060018060a01b03165f5260205260405f2090565b55604051908152602090a3565b65ffffffffffff811161208f5765ffffffffffff1690565b6306dfcc6560e41b5f52603060045260245260445ffd5b81156120b0570490565b634e487b7160e01b5f52601260045260245ffd5b60018111156103a457806001600160801b8210156121e5575b61218b61218161217761216d6121636121596121486121929760048a600160401b6121979c10156121d8575b6401000000008110156121cb575b620100008110156121be575b6101008110156121b1575b60108110156121a4575b101561219c575b60030260011c90565b612152818b6120a6565b0160011c90565b612152818a6120a6565b61215281896120a6565b61215281886120a6565b61215281876120a6565b61215281866120a6565b80936120a6565b821190565b900390565b60011b61213f565b60041c9160021b91612138565b60081c9160041b9161212e565b60101c9160081b91612123565b60201c9160101b91612117565b60401c9160201b91612109565b505061219761219261218b61218161217761216d61216361215961214861220c8a60801c90565b9850600160401b97506120dd9650505050505050565b91905b8382106122325750505090565b9091928083169080841860011c82018092116107b857845f5265ffffffffffff8260205f2001541665ffffffffffff8416105f146122745750925b9190612225565b93925061228090611c55565b9161226d565b6001600160a01b0380831693929190811690818514158061239f575b6122ae575b5050505050565b81612332575b5050826122c3575b80806122a7565b6001600160a01b03165f908152600b602052604090207fdec2bacdd2f05b59de34da9b523dff8be42e5e38e818c82fdb0bae774387a7249161230f9161230990916125aa565b90612613565b604080516001600160d01b039384168152919092166020820152a25f80806122bc565b6001600160a01b03165f908152600b602052604090207fdec2bacdd2f05b59de34da9b523dff8be42e5e38e818c82fdb0bae774387a7249061237d90612377866125aa565b906125db565b604080516001600160d01b039384168152919092166020820152a25f806122b4565b508315156122a2565b60ff600654166123b457565b63d93c066560e01b5f5260045ffd5b60ff81146124095760ff811690601f82116123fa57604051916123e7604084610858565b6020808452838101919036833783525290565b632cd44ac360e21b5f5260045ffd5b506040516103a48161241c816007611546565b0382610858565b60ff81146124475760ff811690601f82116123fa57604051916123e7604084610858565b506040516103a48161241c816008611546565b91907f7fffffffffffffffffffffffffffffff5d576e7357a4501ddfe92f46681b20a084116124dc579160209360809260ff5f9560405194855216868401526040830152606082015282805260015afa156124d1575f516001600160a01b038116156124c757905f905f90565b505f906001905f90565b6040513d5f823e3d90fd5b5050505f9160039190565b600411156124f157565b634e487b7160e01b5f52602160045260245ffd5b61250e816124e7565b80612517575050565b612520816124e7565b600181036125375763f645eedf60e01b5f5260045ffd5b612540816124e7565b6002810361255b575063fce698f760e01b5f5260045260245ffd5b806125676003926124e7565b1461256f5750565b6335e2f38360e21b5f5260045260245ffd5b8054821015612596575f5260205f2001905f90565b634e487b7160e01b5f52603260045260245ffd5b6001600160d01b0381116125c4576001600160d01b031690565b6306dfcc6560e41b5f5260d060045260245260445ffd5b906125e543612077565b906125ef83611f7f565b6001600160d01b0391821690821603919082116107b85761260f926127fb565b9091565b9061261d43612077565b9061262783611f7f565b6001600160d01b0391821690821601919082116107b85761260f926127fb565b61265043612077565b9061265b600c611f7f565b6001600160d01b03918216908216019081116107b85761260f91600c6127fb565b61268543612077565b90612690600c611f7f565b6001600160d01b03918216908216039081116107b85761260f91600c6127fb565b90610889916126c2611ecd836125aa565b50506001600160a01b03168015612717575b600a6020527f13da86008ba1c6922daee3e07db95305ef49ebced9f5467a0b8613fcc6b343e3545f9182526040909120546001600160a01b039081169116612286565b612723611e75836125aa565b50506126d4565b61088992916001600160a01b0390911690811561278d575b6001600160a01b031690811561277a575b5f908152600a6020526040808220549282529020546001600160a01b039081169116612286565b612786611e75846125aa565b5050612753565b612799611ecd846125aa565b5050612742565b8054600160401b811015610853576127bd91600182018155612581565b6127e857815160209092015160301b65ffffffffffff191665ffffffffffff92909216919091179055565b634e487b7160e01b5f525f60045260245ffd5b805492939280156128a75761281261281d91611c47565b825f5260205f200190565b8054603081901c9365ffffffffffff9182169291811680841161289857879303612864575061286092509065ffffffffffff82549181199060301b169116179055565b9190565b9150506128609161288461287661087a565b65ffffffffffff9093168352565b6001600160d01b03861660208301526127a0565b632520601d60e01b5f5260045ffd5b50906128cc916128b861287661087a565b6001600160d01b03851660208301526127a0565b5f919056fea2646970667358221220461f3b6bdc64e965ec60ab05b970969a81a6d243f0893c4da6ce1b281320151864736f6c634300081b00332f8788117e7eff1d82e926ec794901d17c78024a50270940304540a733656f0d15a28d26fa1bf736cf7edc9922607171ccb09c3c73b808e7772a3013e068a52205b8ccbb9d4d8fb16ea74ce3c29a41f1b461fbdaff4714a0d9a8eb05499746bc99f2891db7a8db76249871a02b43b68c0bb8f22ef8a3bc1034ae9375ef6b7c3cbfd62e9785388095b3de0b81cfde5218bb12c9978f0eca781154eb16d0f98814","linkReferences":{}},"methodIdentifiers":{"CLOCK_MODE()":"4bf5d7e9","DEFAULT_ADMIN_ROLE()":"a217fddf","DOMAIN_SEPARATOR()":"3644e515","MINTER_ROLE()":"d5391393","PAUSER_ROLE()":"e63ab1e9","TOKEN_BRIDGE_ROLE()":"a94ea30c","allowance(address,address)":"dd62ed3e","approve(address,uint256)":"095ea7b3","approveAndCall(address,uint256)":"3177029f","approveAndCall(address,uint256,bytes)":"cae9ca51","balanceOf(address)":"70a08231","burn(uint256)":"42966c68","burnFrom(address,uint256)":"79cc6790","checkpoints(address,uint32)":"f1127ed8","clock()":"91ddadf4","decimals()":"313ce567","delegate(address)":"5c19a95c","delegateBySig(address,uint256,uint256,uint8,bytes32,bytes32)":"c3cda520","delegates(address)":"587cde1e","eip712Domain()":"84b0196e","getPastTotalSupply(uint256)":"8e539e8c","getPastVotes(address,uint256)":"3a46b1a8","getRoleAdmin(bytes32)":"248a9ca3","getVotes(address)":"9ab24eb0","grantRole(bytes32,address)":"2f2ff15d","hasRole(bytes32,address)":"91d14854","mint(address,uint256)":"40c10f19","name()":"06fdde03","nonces(address)":"7ecebe00","numCheckpoints(address)":"6fcfff45","pause()":"8456cb59","paused()":"5c975abb","permit(address,address,uint256,uint256,uint8,bytes32,bytes32)":"d505accf","renounceRole(bytes32,address)":"36568abe","revokeRole(bytes32,address)":"d547741f","supportsInterface(bytes4)":"01ffc9a7","symbol()":"95d89b41","totalSupply()":"18160ddd","transfer(address,uint256)":"a9059cbb","transferAndCall(address,uint256)":"1296ee62","transferAndCall(address,uint256,bytes)":"4000aea0","transferFrom(address,address,uint256)":"23b872dd","transferFromAndCall(address,address,uint256)":"d8fbe994","transferFromAndCall(address,address,uint256,bytes)":"c1d34b89","unpause()":"3f4ba83a"},"id":203}