{"abi":[{"type":"constructor","inputs":[{"name":"initialOwner","type":"address","internalType":"address"}],"stateMutability":"nonpayable"},{"type":"function","name":"FEE_RANGE","inputs":[],"outputs":[{"name":"","type":"uint64","internalType":"uint64"}],"stateMutability":"view"},{"type":"function","name":"atomicOutcomeSlotCount","inputs":[],"outputs":[{"name":"","type":"uint256","internalType":"uint256"}],"stateMutability":"view"},{"type":"function","name":"calcMarginalPrice","inputs":[{"name":"outcomeTokenIndex","type":"uint8","internalType":"uint8"}],"outputs":[{"name":"price","type":"uint256","internalType":"uint256"}],"stateMutability":"view"},{"type":"function","name":"calcMarketFee","inputs":[{"name":"outcomeTokenCost","type":"uint256","internalType":"uint256"}],"outputs":[{"name":"","type":"uint256","internalType":"uint256"}],"stateMutability":"view"},{"type":"function","name":"calcNetCost","inputs":[{"name":"outcomeTokenAmounts","type":"int256[]","internalType":"int256[]"}],"outputs":[{"name":"netCost","type":"int256","internalType":"int256"}],"stateMutability":"view"},{"type":"function","name":"changeFee","inputs":[{"name":"_fee","type":"uint64","internalType":"uint64"}],"outputs":[],"stateMutability":"nonpayable"},{"type":"function","name":"changeFunding","inputs":[{"name":"fundingChange","type":"int256","internalType":"int256"}],"outputs":[],"stateMutability":"nonpayable"},{"type":"function","name":"close","inputs":[],"outputs":[],"stateMutability":"nonpayable"},{"type":"function","name":"collateralToken","inputs":[],"outputs":[{"name":"","type":"address","internalType":"contract IERC20"}],"stateMutability":"view"},{"type":"function","name":"conditionIds","inputs":[{"name":"","type":"uint256","internalType":"uint256"}],"outputs":[{"name":"","type":"bytes32","internalType":"bytes32"}],"stateMutability":"view"},{"type":"function","name":"fee","inputs":[],"outputs":[{"name":"","type":"uint64","internalType":"uint64"}],"stateMutability":"view"},{"type":"function","name":"funding","inputs":[],"outputs":[{"name":"","type":"uint256","internalType":"uint256"}],"stateMutability":"view"},{"type":"function","name":"initialize","inputs":[{"name":"_pmSystem","type":"address","internalType":"contract ConditionalTokens"},{"name":"_collateralToken","type":"address","internalType":"contract IERC20"},{"name":"_conditionIds","type":"bytes32[]","internalType":"bytes32[]"},{"name":"_fee","type":"uint64","internalType":"uint64"},{"name":"_whitelist","type":"address","internalType":"contract Whitelist"}],"outputs":[],"stateMutability":"nonpayable"},{"type":"function","name":"onERC1155BatchReceived","inputs":[{"name":"_operator","type":"address","internalType":"address"},{"name":"","type":"address","internalType":"address"},{"name":"","type":"uint256[]","internalType":"uint256[]"},{"name":"","type":"uint256[]","internalType":"uint256[]"},{"name":"","type":"bytes","internalType":"bytes"}],"outputs":[{"name":"","type":"bytes4","internalType":"bytes4"}],"stateMutability":"view"},{"type":"function","name":"onERC1155Received","inputs":[{"name":"operator","type":"address","internalType":"address"},{"name":"","type":"address","internalType":"address"},{"name":"","type":"uint256","internalType":"uint256"},{"name":"","type":"uint256","internalType":"uint256"},{"name":"","type":"bytes","internalType":"bytes"}],"outputs":[{"name":"","type":"bytes4","internalType":"bytes4"}],"stateMutability":"view"},{"type":"function","name":"owner","inputs":[],"outputs":[{"name":"","type":"address","internalType":"address"}],"stateMutability":"view"},{"type":"function","name":"pause","inputs":[],"outputs":[],"stateMutability":"nonpayable"},{"type":"function","name":"pmSystem","inputs":[],"outputs":[{"name":"","type":"address","internalType":"contract ConditionalTokens"}],"stateMutability":"view"},{"type":"function","name":"renounceOwnership","inputs":[],"outputs":[],"stateMutability":"nonpayable"},{"type":"function","name":"resume","inputs":[],"outputs":[],"stateMutability":"nonpayable"},{"type":"function","name":"stage","inputs":[],"outputs":[{"name":"","type":"uint8","internalType":"enum MarketMaker.Stage"}],"stateMutability":"view"},{"type":"function","name":"supportsInterface","inputs":[{"name":"interfaceId","type":"bytes4","internalType":"bytes4"}],"outputs":[{"name":"","type":"bool","internalType":"bool"}],"stateMutability":"pure"},{"type":"function","name":"trade","inputs":[{"name":"outcomeTokenAmounts","type":"int256[]","internalType":"int256[]"},{"name":"collateralLimit","type":"int256","internalType":"int256"}],"outputs":[{"name":"netCost","type":"int256","internalType":"int256"}],"stateMutability":"nonpayable"},{"type":"function","name":"transferOwnership","inputs":[{"name":"newOwner","type":"address","internalType":"address"}],"outputs":[],"stateMutability":"nonpayable"},{"type":"function","name":"whitelist","inputs":[],"outputs":[{"name":"","type":"address","internalType":"contract Whitelist"}],"stateMutability":"view"},{"type":"function","name":"withdrawFees","inputs":[],"outputs":[{"name":"fees","type":"uint256","internalType":"uint256"}],"stateMutability":"nonpayable"},{"type":"event","name":"AMMClosed","inputs":[],"anonymous":false},{"type":"event","name":"AMMCreated","inputs":[{"name":"initialFunding","type":"uint256","indexed":false,"internalType":"uint256"}],"anonymous":false},{"type":"event","name":"AMMFeeChanged","inputs":[{"name":"newFee","type":"uint64","indexed":false,"internalType":"uint64"}],"anonymous":false},{"type":"event","name":"AMMFeeWithdrawal","inputs":[{"name":"fees","type":"uint256","indexed":false,"internalType":"uint256"}],"anonymous":false},{"type":"event","name":"AMMFundingChanged","inputs":[{"name":"fundingChange","type":"int256","indexed":false,"internalType":"int256"}],"anonymous":false},{"type":"event","name":"AMMOutcomeTokenTrade","inputs":[{"name":"transactor","type":"address","indexed":true,"internalType":"address"},{"name":"outcomeTokenAmounts","type":"int256[]","indexed":false,"internalType":"int256[]"},{"name":"outcomeTokenNetCost","type":"int256","indexed":false,"internalType":"int256"},{"name":"marketFees","type":"uint256","indexed":false,"internalType":"uint256"}],"anonymous":false},{"type":"event","name":"AMMPaused","inputs":[],"anonymous":false},{"type":"event","name":"AMMResumed","inputs":[],"anonymous":false},{"type":"event","name":"Initialized","inputs":[{"name":"version","type":"uint64","indexed":false,"internalType":"uint64"}],"anonymous":false},{"type":"event","name":"Interaction","inputs":[{"name":"addr","type":"address","indexed":true,"internalType":"address"},{"name":"interactionType","type":"string","indexed":false,"internalType":"string"},{"name":"tags","type":"string[]","indexed":false,"internalType":"string[]"},{"name":"data","type":"bytes","indexed":false,"internalType":"bytes"}],"anonymous":false},{"type":"event","name":"OwnershipTransferred","inputs":[{"name":"previousOwner","type":"address","indexed":true,"internalType":"address"},{"name":"newOwner","type":"address","indexed":true,"internalType":"address"}],"anonymous":false},{"type":"error","name":"InvalidInitialization","inputs":[]},{"type":"error","name":"NotInitializing","inputs":[]},{"type":"error","name":"OwnableInvalidOwner","inputs":[{"name":"owner","type":"address","internalType":"address"}]},{"type":"error","name":"OwnableUnauthorizedAccount","inputs":[{"name":"account","type":"address","internalType":"address"}]},{"type":"error","name":"StringsInsufficientHexLength","inputs":[{"name":"value","type":"uint256","internalType":"uint256"},{"name":"length","type":"uint256","internalType":"uint256"}]}],"bytecode":{"object":"0x60803460b857601f6145a138819003918201601f19168301916001600160401b0383118484101760bc5780849260209460405283398101031260b857516001600160a01b0381169081900360b857801560a5575f80546001600160a01b031981168317825560405192916001600160a01b03909116907f8be0079c531659141344cd1fd0a4f28419497f9722a3daafe3b4186f6b6457e09080a36144d090816100d18239f35b631e4fbdf760e01b5f525f60045260245ffd5b5f80fd5b634e487b7160e01b5f52604160045260245ffdfe6080806040526004361015610012575f80fd5b5f905f3560e01c90816301ffc9a714611f4657508063046f7da214611eea57806305be8b2c14611ec257806315bd7611146116ba57806343d726d6146114cf578063476343ee146113ad578063715018a614611353578063782d085b146113105780638456cb59146112b257806387f39a5c14610fe45780638da5cb5b14610fbd57806393e59dc114610f905780639df039fc1461082c578063b0011509146107ef578063b2016bd4146107c6578063b20f8e7f146103f6578063bc197c8114610364578063c040e6b81461033a578063cb4c86b71461031c578063d8c55af7146102e2578063dd83bad2146102c4578063ddca3f431461029d578063e7f3378914610215578063f23a6e61146101b2578063f2fde38b146101615763fbde47f61461013c575f80fd5b3461015e578060031936011261015e576020604051670de0b6b3a76400008152f35b80fd5b503461015e57602036600319011261015e5761017b612025565b610183612830565b6001600160a01b0381161561019e5761019b90612a4e565b80f35b631e4fbdf760e01b82526004829052602482fd5b503461015e5760a036600319011261015e576101cc612025565b906101d561203b565b50608435906001600160401b03821161015e576020610202846101fb3660048701612081565b5050612812565b6040516001600160e01b03199091168152f35b503461015e57602036600319011261015e576004356001600160401b03811680910361029957610243612830565b600160ff60075416610254816120ae565b03610299576020817f43acfe4f4a14c012959016586aee3b318a0a30e17bb8edae05a58d46c80b4199926001600160401b03196005541617600555604051908152a180f35b5080fd5b503461015e578060031936011261015e5760206001600160401b0360055416604051908152f35b503461015e578060031936011261015e576020600454604051908152f35b503461015e57602036600319011261015e576004359060035482101561015e57602061030d836120e4565b90549060031b1c604051908152f35b503461015e578060031936011261015e576020600654604051908152f35b503461015e578060031936011261015e57602060ff6007541660405190610360816120ae565b8152f35b503461015e5760a036600319011261015e5761037e612025565b9061038761203b565b506044356001600160401b038111610299576103a7903690600401612051565b50506064356001600160401b038111610299576103c8903690600401612051565b5050608435906001600160401b03821161015e576020610202846103ef3660048701612081565b50506127f4565b503461015e57602036600319011261015e5760043560ff81168091036102995760045461042281612198565b6001549091906001600160a01b0316845b8281106107165750505073__$04535272edbb5de4db92ca79bf8f00960a$__908051918260401b92808404600160401b1490151715610702576040519263026f7ef360e31b8452600484015260026024840152602083604481845af49283156106f75785936106c3575b508490859086851215806106b7575b156106b3576040516333304e0560e21b81528060248101602060048301528651809152604482019060208801908b5b81811061069a5750505090806020920381855af4801561068f5786918991610658575b506105136105219261051c92989697986123b3565b600654906123d5565b612355565b5f948894905b87519060ff87169182101561062b57610556846105516105138661054b878f6121e7565b516123b3565b61236f565b8860405191631d58012360e01b835260048301526106175760026024820152602081604481895af492831561060c578b918d946105d2575b50146105c8575b60ff916105a1916127e7565b951660ff81146105b45760010194610527565b634e487b7160e01b8a52601160045260248afd5b9094508490610595565b915092506020813d8211610604575b816105ee60209383611f7c565b81010312610600578a9051925f61058e565b5f80fd5b3d91506105e1565b6040513d8e823e3d90fd5b634e487b7160e01b5f52602160045260245ffd5b8a9060401c868115610644576020925004604051908152f35b634e487b7160e01b83526012600452602483fd5b9150506020813d602011610687575b8161067460209383611f7c565b81010312610600575185906105136104fe565b3d9150610667565b6040513d8a823e3d90fd5b82518452859450602093840193909201916001016104db565b8680fd5b508660065412156104ac565b9092506020813d6020116106ef575b816106df60209383611f7c565b810103126106005751915f61049d565b3d91506106d2565b6040513d87823e3d90fd5b634e487b7160e01b85526011600452602485fd5b6107506020610724836120b8565b9054604051627eeac760e11b815230600482015260039290921b1c602482015291829081906044820190565b0381865afa80156107bb578790610788575b61076c9150612159565b908682136106b35760019161078182876121e7565b5201610433565b506020813d82116107b3575b816107a160209383611f7c565b810103126106005761076c9051610762565b3d9150610794565b6040513d89823e3d90fd5b503461015e578060031936011261015e576002546040516001600160a01b039091168152602090f35b503461015e57602036600319011261015e576020670de0b6b3a76400006108236001600160401b0360055416600435612387565b04604051908152f35b503461015e5760a036600319011261015e576004356001600160a01b03811690819003610299576024356001600160a01b03811690819003610f8c576044356001600160401b038111610f885736602382011215610f8857806004013561089281611fb1565b916108a06040519384611f7c565b818352602083016024819360051b83010191368311610f0557602401905b828210610f7857505050606435916001600160401b038316809303610f7457608435936001600160a01b03851685036106b3575f51602061447b5f395f51905f5254956001600160401b0360ff8860401c1615971680159081610f6c575b6001149081610f62575b159081610f59575b50610f4a578660016001600160401b03195f51602061447b5f395f51905f525416175f51602061447b5f395f51905f5255610f1a575b61096d33612a4e565b80151580610f09575b15610f05576001600160601b0360a01b60015416176001556001600160601b0360a01b600254161760025551906001600160401b038211610ef157600160401b8211610ef15760035482600355808310610ead575b5060038652855b828110610e79575050506001600160401b0319600554161760055560075490610100600160a81b039060081b1690610100600160a81b031916176007556001600455610a1f600354612198565b8051906001600160401b038211610d8e57600160401b8211610d8e5760085482600855808310610e1b575b5060200160088452835b828110610de757505050815b600354811015610b2a576001546001600160a01b0316906020610a82826120e4565b90549060031b1c602460405180958193636a16e06160e11b835260048301525afa8015610b1f578490610aed575b60019250610ac081600454612387565b600455610ae5610acf836120fc565b819391549060031b91821b915f19901b19161790565b905501610a60565b506020823d8211610b17575b81610b0660209383611f7c565b810103126106005760019151610ab0565b3d9150610af9565b6040513d86823e3d90fd5b5060016004541115610da257600354610b5b610b4582611fb1565b91610b536040519384611f7c565b808352611fb1565b90610b6e6020820192601f190183612315565b5190600160401b8211610d8e5760095482600955808310610cff575b50600984527f6e1540171b6c0c960b71a7020d9f60077f6af931a8bbf590da0223dacf75c7af84915b838310610c5c578585610bc882600354612aea565b600160ff1960075416176007557f631ac92e0a879a687b1bd27a7dcbf3ec0be307aa0a1046c0df4109be02c493076020600654604051908152a1610c095780f35b60ff60401b195f51602061447b5f395f51905f5254165f51602061447b5f395f51905f52557fc7f505b2f371ae2175ee4913f4499e1f2633a7b5936321eed1cdaeb6115181d2602060405160018152a180f35b80518051906001600160401b038211610ceb57600160401b8211610ceb578354828555808310610cc5575b5060200183885260208820885b838110610cb1575050505060016020819201920192019190610bb3565b600190602084519401938184015501610c94565b8489528260208a2091820191015b818110610ce05750610c87565b898155600101610cd3565b634e487b7160e01b88526041600452602488fd5b600985527f6e1540171b6c0c960b71a7020d9f60077f6af931a8bbf590da0223dacf75c7af01827f6e1540171b6c0c960b71a7020d9f60077f6af931a8bbf590da0223dacf75c7af015b818110610d565750610b8a565b805486825580610d6a575b50600101610d49565b81875260208720908101905b818110610d835750610d61565b878155600101610d76565b634e487b7160e01b84526041600452602484fd5b60405162461bcd60e51b815260206004820152601860248201527f636f6e646974696f6e73206d7573742062652076616c696400000000000000006044820152606490fd5b60019060208351930192817ff3f7a9fe364faab93b216da50a3214154f22a0a2b415b23a84c8169e8b636ee3015501610a54565b7ff3f7a9fe364faab93b216da50a3214154f22a0a2b415b23a84c8169e8b636ee301827ff3f7a9fe364faab93b216da50a3214154f22a0a2b415b23a84c8169e8b636ee3015b818110610e6e5750610a4a565b858155600101610e61565b60019060208351930192817fc2575a0e9e593c00f959f8c92f12db2869c3395a3b0502d05e2516446f71f85b0155016109d2565b600387527fc2575a0e9e593c00f959f8c92f12db2869c3395a3b0502d05e2516446f71f85b9081019083015b818110610ee657506109cb565b878155600101610ed9565b634e487b7160e01b86526041600452602486fd5b8780fd5b50670de0b6b3a76400008510610976565b600160401b60ff60401b195f51602061447b5f395f51905f525416175f51602061447b5f395f51905f5255610964565b63f92ee8a960e01b8852600488fd5b9050155f61092e565b303b159150610926565b88915061091c565b8580fd5b81358152602091820191016108be565b8380fd5b8280fd5b503461015e578060031936011261015e5760075460405160089190911c6001600160a01b03168152602090f35b503461015e578060031936011261015e57546040516001600160a01b039091168152602090f35b503461015e57602036600319011261015e57600435611001612830565b600160ff60075416611012816120ae565b0361029957801561126d57818113611144575b818112611030575080f35b61104161103c82612159565b612981565b61104a81612159565b6006549081039081116111305760065560025482546110b0916020916001600160a01b03908116911661107c85612159565b60405163a9059cbb60e01b81526001600160a01b039093166004840152602483015290928391908290879082906044820190565b03925af19081156111255783916110f6575b50156102995760207fc55e9a33fb8b1de5318b5c7b96a32937e54006c82000b2c468ed1fb9f73f679991604051908152a180f35b611118915060203d60201161111e575b6111108183611f7c565b810190612141565b5f6110c2565b503d611106565b6040513d85823e3d90fd5b634e487b7160e01b83526011600452602483fd5b6002546040516323b872dd60e01b815233600482015230602482015260448101839052906020908290606490829087906001600160a01b03165af190811561112557839161124e575b50806111e0575b15610299576111a28161288c565b6111ae816006546127e7565b6006557fc55e9a33fb8b1de5318b5c7b96a32937e54006c82000b2c468ed1fb9f73f67996020604051838152a1611025565b5060025460015460405163095ea7b360e01b81526001600160a01b0391821660048201526024810184905291602091839160449183918891165af190811561112557839161122f575b50611194565b611248915060203d60201161111e576111108183611f7c565b5f611229565b611267915060203d60201161111e576111108183611f7c565b5f61118d565b60405162461bcd60e51b815260206004820152601f60248201527f66756e64696e67206368616e6765206d757374206265206e6f6e2d7a65726f006044820152606490fd5b503461015e578060031936011261015e576112cb612830565b60075460ff81166112db816120ae565b6102995760ff19166001176007557fbb11914e7a395f00cf0920fe85f50088bd8d7681529fb0bd3c27ccb45a8bcd8f8180a180f35b503461015e57602036600319011261015e57600435906001600160401b03821161015e57602061134b6113463660048601611fc8565b612403565b604051908152f35b503461015e578060031936011261015e5761136c612830565b80546001600160a01b03198116825581906001600160a01b03167f8be0079c531659141344cd1fd0a4f28419497f9722a3daafe3b4186f6b6457e08280a380f35b503461015e578060031936011261015e576113c6612830565b6002546040516370a0823160e01b8152306004820152906001600160a01b0316602082602481845afa91821561112557839261149a575b50825460405163a9059cbb60e01b81526001600160a01b03909116600482015260248101839052906020908290604490829087905af190811561112557839161147b575b5015610299576020907fce1d35d26fbf6b3cc5cd924de10b5a52b08e484129ea7d93abc48d739fffe5b982604051838152a1604051908152f35b611494915060203d60201161111e576111108183611f7c565b5f611441565b9091506020813d6020116114c7575b816114b660209383611f7c565b8101031261060057519060206113fd565b3d91506114a9565b503461015e578060031936011261015e576114e8612830565b60ff600754166114f7816120ae565b80159081156116a6575b501561165557805b600454811015611620578161151d826120b8565b90546001548354604051627eeac760e11b815230600482015260039490941b9290921c602484018190526001600160a01b0392831692909116602084604481845afa9384156106f75785946115ea575b50803b156115e65784928360c4926040519687958694637921219560e11b865230600487015260248601526044850152606484015260a060848401528160a48401525af180156115db576115c6575b5050600101611509565b816115d091611f7c565b61029957815f6115bc565b6040513d84823e3d90fd5b8480fd5b945092506020843d8211611618575b8161160660209383611f7c565b8101031261060057859351925f61156d565b3d91506115f9565b50600260ff1960075416176007557f6e18b1b14477b5922c6efa82206ed0e3b73c2500e8d1528c9a6e17554ea125548180a180f35b60405162461bcd60e51b815260206004820152602360248201527f54686973204d61726b65742068617320616c7265616479206265656e20636c6f6044820152621cd95960ea1b6064820152608490fd5b600191506116b3816120ae565b145f611501565b5034610600576040366003190112610600576004356001600160401b038111610600576116eb903690600401611fc8565b906024359060075460ff8116611700816120ae565b6106005760081c6001600160a01b03168015908115611e6d575b5015611e12578251600454036106005761173383612403565b905f8212908115611dce57670de0b6b3a764000061176561175385612159565b6001600160401b036005541690612387565b0490604051611775604082611f7c565b60048152631cd95b1b60e21b6020820152925b5f831261060057611799838661217d565b95801580159182611dc3575b508115611dbb575b5015610600575f8513611ccb575b600454905f6117c983612198565b925f5b818110611c83575050611c19575b611c08575b6040517fda7ff5556ce7ecfcf06296f03426e8c02a7305b85cfd88816a32f7f496905177339180611812878a8d846122ca565b0390a281826004545b808210611bbc575050611b56575b50808512611ad5575b606095604051926118438885611f7c565b600284526020611898602a82870197611860601f198d018a612315565b604051938491693a3930b232aa3cb8329d60b11b828401528051918291018484015e810187838201520301601f198101835282611f7c565b6118a1856121ca565b526118ab846121ca565b506002546040516001600160a01b0390911690816118c98b83611f7c565b602a82526020820192601f198c01368537825115611ac15760308453825160011015611ac1576078602184015360295b60018111611a665750611a4f57509161197891611955603061198696956040999899519384916f31b7b63630ba32b930b62a37b5b2b71d60811b60208401525180918484015e81018a838201520301601f198101835282611f7c565b61195e866121d7565b52611968856121d7565b50604051978893602085016122ca565b03601f198101865285611f7c565b6017604051968088528701527f70726564696374696f6e5f6d61726b65745f7472616465000000000000000000608087015260a086019060a060208801525180915260c0860160c08260051b8801019392905b828210611a24578785036040890152602087337f17b25de1f7ac081e71892e23f73afb17b86207521c28158cf2f7798a97ae88c78b80611a198b8d612331565b0390a2604051908152f35b90919293602080611a4160019360bf198c82030186528851612331565b9601920192019092916119d9565b63e22e27eb60e01b86526004526014602452604485fd5b90600f81166010811015611aad578451831015611aad57611aa891906f181899199a1a9b1b9c1cb0b131b232b360811b901a8584016020015360041c91612abc565b6118f9565b634e487b7160e01b89526032600452602489fd5b634e487b7160e01b87526032600452602487fd5b6002548190602090611b1d906001600160a01b0316611af389612159565b60405163a9059cbb60e01b8152336004820152602481019190915293849283919082906044820190565b03925af19081156115db578291611b37575b506118325780fd5b611b50915060203d60201161111e576111108183611f7c565b5f611b2f565b6001546001600160a01b031690813b15610f8c57611b8f83928392604051948580948193631759616b60e11b835233306004850161222e565b03925af180156115db57908291611ba7575b50611829565b81611bb191611f7c565b61015e57805f611ba1565b909184611bc9848c6121e7565b511315611bf3575060018092611bdf818c6121e7565b51611bea82876121e7565b525b019061181b565b918085611c02600193876121e7565b52611bec565b611c1461103c86612159565b6117df565b6001546001600160a01b0316803b15610600575f6040518092631759616b60e11b8252818381611c4e8930336004850161222e565b03925af18015611c7857611c63575b506117da565b611c709193505f90611f7c565b5f915f611c5d565b6040513d5f823e3d90fd5b8a5f611c8f83836121e7565b5112611c9f575b506001016117cc565b925080611cb8611cb260019384966121e7565b51612159565b611cc282886121e7565b5290508a611c96565b6002546040516323b872dd60e01b81523360048201523060248201526044810188905290602090829060649082905f906001600160a01b03165af1908115611c78575f91611d9c575b5080611d2e575b1561060057611d298561288c565b6117bb565b5060025460015460405163095ea7b360e01b81526001600160a01b0391821660048201526024810188905291602091839160449183915f91165af1908115611c78575f91611d7d575b50611d1b565b611d96915060203d60201161111e576111108183611f7c565b5f611d77565b611db5915060203d60201161111e576111108183611f7c565b5f611d14565b90505f6117ad565b88131591505f6117a5565b670de0b6b3a7640000611dec6001600160401b036005541685612387565b0490604051611dfc604082611f7c565b600381526262757960e81b602082015292611788565b60405162461bcd60e51b815260206004820152602d60248201527f6f6e6c792077686974656c6973746564207573657273206d61792063616c6c2060448201526c3a3434b990333ab731ba34b7b760991b6064820152608490fd5b604051633af32abf60e01b81523360048201529150602090829060249082905afa908115611c78575f91611ea3575b505f61171a565b611ebc915060203d60201161111e576111108183611f7c565b5f611e9c565b34610600575f366003190112610600576001546040516001600160a01b039091168152602090f35b34610600575f36600319011261060057611f02612830565b600754600160ff8216611f14816120ae565b036106005760ff19166007557fb0cf596e1402e50b88a6d1097918e48922e4a2878ece11d7bb51b5d81cf6c1785f80a1005b34610600576020366003190112610600576004359063ffffffff60e01b821680920361060057602091630271189760e51b148152f35b90601f801991011681019081106001600160401b03821117611f9d57604052565b634e487b7160e01b5f52604160045260245ffd5b6001600160401b038111611f9d5760051b60200190565b9080601f83011215610600578135611fdf81611fb1565b92611fed6040519485611f7c565b81845260208085019260051b82010192831161060057602001905b8282106120155750505090565b8135815260209182019101612008565b600435906001600160a01b038216820361060057565b602435906001600160a01b038216820361060057565b9181601f84011215610600578235916001600160401b038311610600576020808501948460051b01011161060057565b9181601f84011215610600578235916001600160401b038311610600576020838186019501011161060057565b6003111561061757565b600a548110156120d057600a5f5260205f2001905f90565b634e487b7160e01b5f52603260045260245ffd5b6003548110156120d05760035f5260205f2001905f90565b6008548110156120d05760085f5260205f2001905f90565b6009548110156120d05760095f5260205f2001905f90565b80548210156120d0575f5260205f2001905f90565b90816020910312610600575180151581036106005790565b600160ff1b8114612169575f0390565b634e487b7160e01b5f52601160045260245ffd5b9190915f838201938412911290801582169115161761216957565b906121a282611fb1565b6121af6040519182611f7c565b82815280926121c0601f1991611fb1565b0190602036910137565b8051156120d05760200190565b8051600110156120d05760400190565b80518210156120d05760209160051b010190565b90602080835192838152019201905f5b8181106122185750505090565b825184526020938401939092019160010161220b565b6001600160a01b0391821681529116602082015260a060408201819052600a80549183018290525f908152919260c084019290917fc65a7bb8d6351c1cf70c95a316cc6a92839c986682d98bc35f958f4883f9d2a8915b8181106122b457505050816122a49184602095940360608501526121fb565b9060808183039101525f81520190565b8254855260209094019360019283019201612285565b9093929193606082016060835281518091526020608084019201905f5b8181106122ff57505050906040919460208201520152565b82518452602093840193909201916001016122e7565b5f5b82811061232357505050565b606082820152602001612317565b805180835260209291819084018484015e5f828201840152601f01601f1916010190565b9068b7ffffffffffffffff19820191821360011661216957565b81810392915f13801582851316918412161761216957565b8181029291811591840414171561216957565b908160401b91808305600160401b149015171561216957565b81810292915f8212600160ff1b82141661216957818405149015171561216957565b81156123ef57600160ff1b81145f19831416612169570590565b634e487b7160e01b5f52601260045260245ffd5b8051906004548092036106005761241982612198565b60015490916001600160a01b03909116905f5b8481106127375750505073__$04535272edbb5de4db92ca79bf8f00960a$__928260401b92808404600160401b1490151715612169576040519263026f7ef360e31b8452600484015260016024840152602083604481875af4928315611c78575f93612703575b505f935f841215806126f7575b15610600576040516333304e0560e21b81528060248101602060048301528551809152604482019060208701905f5b8181106126de5750505090806020920381855af48015611c785785915f916126a7575b506105136125079261051c92989697986123b3565b5f9586945b865160ff8916908110156125c55761252f846105516105138661054b868e6121e7565b908760405192631d58012360e01b845260048401526106175760016024830152602082604481895af4918215611c78575f92612591575b509060ff92612579921561258c576127e7565b971660ff8114612169576001019661250c565b6127e7565b91506020823d82116125bd575b816125ab60209383611f7c565b810103126106005790519060ff612566565b3d915061259e565b50919450945060209192955060446040518094819363026f7ef360e31b83526004830152600160248301525af4908115611c78575f91612671575b50600160401b9261261f61261a61262d946126249461217d565b61239a565b6123d5565b600654906123b3565b5f811380159061265e575b15612641570590565b0560018101905f6001831291129080158216911516176121695790565b508061266b83820561239a565b14612638565b90506020813d60201161269f575b8161268c60209383611f7c565b810103126106005751600160401b612600565b3d915061267f565b9150506020813d6020116126d6575b816126c360209383611f7c565b81010312610600575184906105136124f2565b3d91506126b6565b82518452859450602093840193909201916001016124cf565b505f60065412156124a0565b9092506020813d60201161272f575b8161271f60209383611f7c565b810103126106005751915f612493565b3d9150612712565b806020612746612772936120b8565b9054604051627eeac760e11b815230600482015260039290921b1c602482015292839081906044820190565b0381875afa918215611c78575f926127b4575b505f8212610600576127a360019261279d83866121e7565b5161236f565b6127ad82876121e7565b520161242c565b9091506020813d82116127df575b816127cf60209383611f7c565b810103126106005751905f612785565b3d91506127c2565b9190820180921161216957565b6001600160a01b03163014612807575f90565b63bc197c8160e01b90565b6001600160a01b03163014612825575f90565b63f23a6e6160e01b90565b5f546001600160a01b0316330361284357565b63118cdaa760e01b5f523360045260245ffd5b95949390926128879260809460018060a01b031688526020880152604087015260a0606087015260a08601906121fb565b930152565b6003545f198101908111612169575b5f8112156128a7575050565b6128bf6128b3826120fc565b90549060031b1c612b9d565b925f5b6128cb83612114565b505481101561296b576001546002546001600160a01b039182169291166128fb826128f587612114565b5061212c565b90549060031b1c9261290c866120e4565b90549060031b1c90803b156106005788945f80946129418b604051998a97889687956372ce427560e01b875260048701612856565b03925af1918215611c785760019261295b575b50016128c2565b5f61296591611f7c565b5f612954565b509250600160ff1b8114612169575f190161289b565b5f5b600354811015612a4a576129996128b3826120fc565b925f5b6129a583612114565b5054811015612a3f576001546002546001600160a01b039182169291166129cf826128f587612114565b90549060031b1c926129e0866120e4565b90549060031b1c90803b156106005788945f8094612a158b604051998a9788968795639e7212ad60e01b875260048701612856565b03925af1918215611c7857600192612a2f575b500161299c565b5f612a3991611f7c565b5f612a28565b509250600101612983565b5050565b5f80546001600160a01b039283166001600160a01b03198216811783559216907f8be0079c531659141344cd1fd0a4f28419497f9722a3daafe3b4186f6b6457e09080a3565b600a54600160401b811015611f9d57610acf816001612ab89301600a55600a61212c565b9055565b8015612169575f190190565b805490600160401b821015611f9d5781610acf916001612ab89401815561212c565b8015612b5d57612af990612abc565b612b0f612b05826120fc565b90549060031b1c90565b91612b2381612b1d84612114565b50612ac8565b5f5b838110612b325750505050565b612b55612b4f612b44612b05866120e4565b6001841b9085612bcc565b84612aea565b600101612b25565b50612b9b90600254906040519060208201926001600160601b03199060601b168352603482015260348152612b93605482611f7c565b519020612a94565b565b90612ba782612198565b915f5b818110612bb5575050565b80600180921b612bc582876121e7565b5201612baa565b92916040519060208201928352604082015260408152612bed606082611f7c565b519020908160ff1c15918215935f915f926001935f80955b15612c58575b5050505f926123ef5760015f51602061445b5f395f51905f529108945f945f51602061445b5f395f51905f52600381808a80098a090886612c4b82612ec9565b9598939897959297612c05565b6123ef575f51602061445b5f395f51905f5282800914612c79578084612c0b565b9395909492919281612ebd575b8115612ea3575b50612e79575b81612cb1575b5050600180911614612ca85790565b600160fe1b1890565b60fe82901c15936001600160fe1b0390921692908415906123ef575f51602061445b5f395f51905f526003818087800987090890612cee82612ec9565b9581612e6d575b8115612e53575b50612e29575b5f51602061445b5f395f51905f5285800903612de4575f938493604051926020840194855260408401526060830152608082015260808152612d4560a082611f7c565b519060065afa3d15612ddc573d906001600160401b038211611f9d5760405191612d79601f8201601f191660200184611f7c565b82523d5f602084013e5b15612da857604081805181010312610600576001806040602084015193015191612c99565b60405162461bcd60e51b815260206004820152600c60248201526b1958d859190819985a5b195960a21b6044820152606490fd5b606090612d83565b60405162461bcd60e51b815260206004820152601c60248201527f696e76616c696420706172656e7420636f6c6c656374696f6e204944000000006044820152606490fd5b935f51602061445b5f395f51905f52035f51602061445b5f395f51905f5281116121695793612d02565b905080612e61575b5f612cfc565b50600180861614612e5b565b60018716159150612cf5565b915f51602061445b5f395f51905f52035f51602061445b5f395f51905f5281116121695791612c93565b905080612eb1575b5f612c8d565b50600180841614612eab565b60018516159150612c86565b5f51602061445b5f395f51905f528180095f51602061445b5f395f51905f52818009805f51602061445b5f395f51905f5291095f51602061445b5f395f51905f52910990815f51602061445b5f395f51905f52910990815f51602061445b5f395f51905f529109905f51602061445b5f395f51905f528280095f51602061445b5f395f51905f528180095f51602061445b5f395f51905f52908209805f51602061445b5f395f51905f529109805f51602061445b5f395f51905f5291095f51602061445b5f395f51905f5291095f51602061445b5f395f51905f529109905f51602061445b5f395f51905f52828009805f51602061445b5f395f51905f5291095f51602061445b5f395f51905f529109905f51602061445b5f395f51905f52828009805f51602061445b5f395f51905f529109805f51602061445b5f395f51905f5291095f51602061445b5f395f51905f529083095f51602061445b5f395f51905f529109905f51602061445b5f395f51905f52828009805f51602061445b5f395f51905f529109805f51602061445b5f395f51905f5291095f51602061445b5f395f51905f529083095f51602061445b5f395f51905f52910990815f51602061445b5f395f51905f529109905f51602061445b5f395f51905f52828009805f51602061445b5f395f51905f5291095f51602061445b5f395f51905f529109905f51602061445b5f395f51905f528280095f51602061445b5f395f51905f52818009805f51602061445b5f395f51905f529109805f51602061445b5f395f51905f5291095f51602061445b5f395f51905f5291095f51602061445b5f395f51905f52910990815f51602061445b5f395f51905f529109905f51602061445b5f395f51905f52828009805f51602061445b5f395f51905f529109805f51602061445b5f395f51905f5291095f51602061445b5f395f51905f529109905f51602061445b5f395f51905f52828009805f51602061445b5f395f51905f5291095f51602061445b5f395f51905f52908309805f51602061445b5f395f51905f529109805f51602061445b5f395f51905f5291095f51602061445b5f395f51905f529083095f51602061445b5f395f51905f529109905f51602061445b5f395f51905f528280095f51602061445b5f395f51905f52818009805f51602061445b5f395f51905f5291095f51602061445b5f395f51905f529082095f51602061445b5f395f51905f52908409805f51602061445b5f395f51905f529109805f51602061445b5f395f51905f529109805f51602061445b5f395f51905f529109805f51602061445b5f395f51905f5291095f51602061445b5f395f51905f5291095f51602061445b5f395f51905f529109905f51602061445b5f395f51905f528280095f51602061445b5f395f51905f529083095f51602061445b5f395f51905f529109905f51602061445b5f395f51905f528280095f51602061445b5f395f51905f52908309805f51602061445b5f395f51905f5291095f51602061445b5f395f51905f528180095f51602061445b5f395f51905f529082095f51602061445b5f395f51905f52818009805f51602061445b5f395f51905f529109805f51602061445b5f395f51905f529109805f51602061445b5f395f51905f529109805f51602061445b5f395f51905f5291095f51602061445b5f395f51905f5291095f51602061445b5f395f51905f5291095f51602061445b5f395f51905f52910990815f51602061445b5f395f51905f529109905f51602061445b5f395f51905f528280095f51602061445b5f395f51905f52910990815f51602061445b5f395f51905f52910990815f51602061445b5f395f51905f52910990815f51602061445b5f395f51905f52910990815f51602061445b5f395f51905f529109905f51602061445b5f395f51905f528280095f51602061445b5f395f51905f52908309805f51602061445b5f395f51905f5291095f51602061445b5f395f51905f529109905f51602061445b5f395f51905f52828009805f51602061445b5f395f51905f5291095f51602061445b5f395f51905f52910990815f51602061445b5f395f51905f529109905f51602061445b5f395f51905f528280095f51602061445b5f395f51905f529083095f51602061445b5f395f51905f52910990815f51602061445b5f395f51905f52910990815f51602061445b5f395f51905f52910990815f51602061445b5f395f51905f529109905f51602061445b5f395f51905f52828009805f51602061445b5f395f51905f5291095f51602061445b5f395f51905f529083095f51602061445b5f395f51905f529109905f51602061445b5f395f51905f528280095f51602061445b5f395f51905f529083095f51602061445b5f395f51905f52910990815f51602061445b5f395f51905f52910990815f51602061445b5f395f51905f52910990815f51602061445b5f395f51905f52910990815f51602061445b5f395f51905f529109905f51602061445b5f395f51905f528280095f51602061445b5f395f51905f52908309805f51602061445b5f395f51905f5291095f51602061445b5f395f51905f52910990815f51602061445b5f395f51905f529109905f51602061445b5f395f51905f528280095f51602061445b5f395f51905f52908309805f51602061445b5f395f51905f5291095f51602061445b5f395f51905f529109905f51602061445b5f395f51905f528280095f51602061445b5f395f51905f52818009805f51602061445b5f395f51905f5291095f51602061445b5f395f51905f529082095f51602061445b5f395f51905f52908409805f51602061445b5f395f51905f529109805f51602061445b5f395f51905f529109805f51602061445b5f395f51905f529109805f51602061445b5f395f51905f5291095f51602061445b5f395f51905f5291095f51602061445b5f395f51905f52910990815f51602061445b5f395f51905f52910990815f51602061445b5f395f51905f52910990815f51602061445b5f395f51905f529109905f51602061445b5f395f51905f528280095f51602061445b5f395f51905f52908309805f51602061445b5f395f51905f529109805f51602061445b5f395f51905f529109805f51602061445b5f395f51905f5291095f51602061445b5f395f51905f529083095f51602061445b5f395f51905f529109905f51602061445b5f395f51905f528280095f51602061445b5f395f51905f52908309805f51602061445b5f395f51905f5291095f51602061445b5f395f51905f529109905f51602061445b5f395f51905f528280095f51602061445b5f395f51905f529083095f51602061445b5f395f51905f52910990815f51602061445b5f395f51905f529109905f51602061445b5f395f51905f52828009805f51602061445b5f395f51905f5291095f51602061445b5f395f51905f52910990815f51602061445b5f395f51905f529109905f51602061445b5f395f51905f528280095f51602061445b5f395f51905f52910990815f51602061445b5f395f51905f52910990815f51602061445b5f395f51905f529109905f51602061445b5f395f51905f528280095f51602061445b5f395f51905f529083095f51602061445b5f395f51905f52910990815f51602061445b5f395f51905f529109905f51602061445b5f395f51905f528280095f51602061445b5f395f51905f52908309805f51602061445b5f395f51905f529109805f51602061445b5f395f51905f5291095f51602061445b5f395f51905f529109905f51602061445b5f395f51905f52828009805f51602061445b5f395f51905f529109805f51602061445b5f395f51905f5291095f51602061445b5f395f51905f529083095f51602061445b5f395f51905f52910990815f51602061445b5f395f51905f529109905f51602061445b5f395f51905f528280095f51602061445b5f395f51905f52818409805f51602061445b5f395f51905f529109805f51602061445b5f395f51905f5291095f51602061445b5f395f51905f5291095f51602061445b5f395f51905f529109905f51602061445b5f395f51905f528280095f51602061445b5f395f51905f52910990815f51602061445b5f395f51905f52910990815f51602061445b5f395f51905f52910990815f51602061445b5f395f51905f52910990815f51602061445b5f395f51905f52910990815f51602061445b5f395f51905f529109905f51602061445b5f395f51905f528280095f51602061445b5f395f51905f529083095f51602061445b5f395f51905f52818409805f51602061445b5f395f51905f529109805f51602061445b5f395f51905f5291095f51602061445b5f395f51905f5291095f51602061445b5f395f51905f52910990815f51602061445b5f395f51905f52910990815f51602061445b5f395f51905f52910990815f51602061445b5f395f51905f52910990815f51602061445b5f395f51905f529109905f51602061445b5f395f51905f528280095f51602061445b5f395f51905f529083095f51602061445b5f395f51905f52910990815f51602061445b5f395f51905f529109805f51602061445b5f395f51905f529109805f51602061445b5f395f51905f529109805f51602061445b5f395f51905f529109805f51602061445b5f395f51905f529109805f51602061445b5f395f51905f529109805f51602061445b5f395f51905f529109805f51602061445b5f395f51905f529109805f51602061445b5f395f51905f529109805f51602061445b5f395f51905f529109805f51602061445b5f395f51905f529109805f51602061445b5f395f51905f529109805f51602061445b5f395f51905f529109805f51602061445b5f395f51905f529109805f51602061445b5f395f51905f529109805f51602061445b5f395f51905f529109805f51602061445b5f395f51905f529109805f51602061445b5f395f51905f529109805f51602061445b5f395f51905f529109805f51602061445b5f395f51905f529109805f51602061445b5f395f51905f529109805f51602061445b5f395f51905f529109805f51602061445b5f395f51905f529109805f51602061445b5f395f51905f529109805f51602061445b5f395f51905f529109805f51602061445b5f395f51905f529109805f51602061445b5f395f51905f529109805f51602061445b5f395f51905f529109805f51602061445b5f395f51905f529109805f51602061445b5f395f51905f529109805f51602061445b5f395f51905f529109805f51602061445b5f395f51905f529109805f51602061445b5f395f51905f529109805f51602061445b5f395f51905f529109805f51602061445b5f395f51905f529109805f51602061445b5f395f51905f529109805f51602061445b5f395f51905f529109805f51602061445b5f395f51905f529109805f51602061445b5f395f51905f529109805f51602061445b5f395f51905f529109805f51602061445b5f395f51905f529109805f51602061445b5f395f51905f529109805f51602061445b5f395f51905f529109805f51602061445b5f395f51905f529109805f51602061445b5f395f51905f529109805f51602061445b5f395f51905f529109805f51602061445b5f395f51905f529109805f51602061445b5f395f51905f529109805f51602061445b5f395f51905f529109805f51602061445b5f395f51905f529109805f51602061445b5f395f51905f529109805f51602061445b5f395f51905f529109805f51602061445b5f395f51905f529109805f51602061445b5f395f51905f529109805f51602061445b5f395f51905f529109805f51602061445b5f395f51905f529109805f51602061445b5f395f51905f529109805f51602061445b5f395f51905f529109805f51602061445b5f395f51905f529109805f51602061445b5f395f51905f529109805f51602061445b5f395f51905f529109805f51602061445b5f395f51905f529109805f51602061445b5f395f51905f529109805f51602061445b5f395f51905f529109805f51602061445b5f395f51905f529109805f51602061445b5f395f51905f529109805f51602061445b5f395f51905f529109805f51602061445b5f395f51905f529109805f51602061445b5f395f51905f529109805f51602061445b5f395f51905f529109805f51602061445b5f395f51905f529109805f51602061445b5f395f51905f529109805f51602061445b5f395f51905f529109805f51602061445b5f395f51905f529109805f51602061445b5f395f51905f529109805f51602061445b5f395f51905f529109805f51602061445b5f395f51905f529109805f51602061445b5f395f51905f529109805f51602061445b5f395f51905f529109805f51602061445b5f395f51905f529109805f51602061445b5f395f51905f529109805f51602061445b5f395f51905f529109805f51602061445b5f395f51905f529109805f51602061445b5f395f51905f529109805f51602061445b5f395f51905f529109805f51602061445b5f395f51905f529109805f51602061445b5f395f51905f529109805f51602061445b5f395f51905f529109805f51602061445b5f395f51905f529109805f51602061445b5f395f51905f529109805f51602061445b5f395f51905f529109805f51602061445b5f395f51905f529109805f51602061445b5f395f51905f529109805f51602061445b5f395f51905f529109805f51602061445b5f395f51905f529109805f51602061445b5f395f51905f529109805f51602061445b5f395f51905f529109805f51602061445b5f395f51905f529109805f51602061445b5f395f51905f529109805f51602061445b5f395f51905f529109805f51602061445b5f395f51905f529109805f51602061445b5f395f51905f529109805f51602061445b5f395f51905f529109805f51602061445b5f395f51905f529109805f51602061445b5f395f51905f529109805f51602061445b5f395f51905f529109805f51602061445b5f395f51905f529109805f51602061445b5f395f51905f529109805f51602061445b5f395f51905f529109805f51602061445b5f395f51905f529109805f51602061445b5f395f51905f529109805f51602061445b5f395f51905f529109805f51602061445b5f395f51905f529109805f51602061445b5f395f51905f529109805f51602061445b5f395f51905f529109805f51602061445b5f395f51905f529109805f51602061445b5f395f51905f529109805f51602061445b5f395f51905f529109805f51602061445b5f395f51905f529109805f51602061445b5f395f51905f529109805f51602061445b5f395f51905f529109805f51602061445b5f395f51905f529109805f51602061445b5f395f51905f529109805f51602061445b5f395f51905f529109805f51602061445b5f395f51905f529109805f51602061445b5f395f51905f529109805f51602061445b5f395f51905f5291095f51602061445b5f395f51905f5291099056fe30644e72e131a029b85045b68181585d97816a916871ca8d3c208c16d87cfd47f0c57e16840df040f15088dc2f81fe391c3923bec73e23a9662efc9c229c6a00a2646970667358221220740e029c78616dcbad998d4abe98703e5c9e3b00b188d8f768295dad3dca89ad64736f6c634300081b0033","linkReferences":{"node_modules/@lay3rlabs/conditional-tokens-market-makers/contracts/Fixed192x64Math.sol":{"Fixed192x64Math":[{"start":1296,"length":20},{"start":9481,"length":20}]}}},"methodIdentifiers":{"FEE_RANGE()":"fbde47f6","atomicOutcomeSlotCount()":"dd83bad2","calcMarginalPrice(uint8)":"b20f8e7f","calcMarketFee(uint256)":"b0011509","calcNetCost(int256[])":"782d085b","changeFee(uint64)":"e7f33789","changeFunding(int256)":"87f39a5c","close()":"43d726d6","collateralToken()":"b2016bd4","conditionIds(uint256)":"d8c55af7","fee()":"ddca3f43","funding()":"cb4c86b7","initialize(address,address,bytes32[],uint64,address)":"9df039fc","onERC1155BatchReceived(address,address,uint256[],uint256[],bytes)":"bc197c81","onERC1155Received(address,address,uint256,uint256,bytes)":"f23a6e61","owner()":"8da5cb5b","pause()":"8456cb59","pmSystem()":"05be8b2c","renounceOwnership()":"715018a6","resume()":"046f7da2","stage()":"c040e6b8","supportsInterface(bytes4)":"01ffc9a7","trade(int256[],int256)":"15bd7611","transferOwnership(address)":"f2fde38b","whitelist()":"93e59dc1","withdrawFees()":"476343ee"},"id":37}