{"abi":[{"type":"constructor","inputs":[{"name":"serviceManager","type":"address","internalType":"contract IWavsServiceManager"}],"stateMutability":"nonpayable"},{"type":"function","name":"ENVELOPE_EXPIRATION_TIME","inputs":[],"outputs":[{"name":"","type":"uint256","internalType":"uint256"}],"stateMutability":"view"},{"type":"function","name":"addHook","inputs":[{"name":"hook","type":"address","internalType":"contract IMerkleSnapshotHook"}],"outputs":[],"stateMutability":"nonpayable"},{"type":"function","name":"blockToStateIndex","inputs":[{"name":"blockNumber","type":"uint256","internalType":"uint256"}],"outputs":[{"name":"stateIndex","type":"uint256","internalType":"uint256"}],"stateMutability":"view"},{"type":"function","name":"envelopeExpirationQueue","inputs":[{"name":"index","type":"uint256","internalType":"uint256"}],"outputs":[{"name":"eventId","type":"bytes20","internalType":"bytes20"}],"stateMutability":"view"},{"type":"function","name":"envelopeExpirationQueueEnd","inputs":[],"outputs":[{"name":"","type":"uint256","internalType":"uint256"}],"stateMutability":"view"},{"type":"function","name":"envelopeExpirationQueueSize","inputs":[],"outputs":[{"name":"","type":"uint256","internalType":"uint256"}],"stateMutability":"view"},{"type":"function","name":"envelopeExpirationQueueStart","inputs":[],"outputs":[{"name":"","type":"uint256","internalType":"uint256"}],"stateMutability":"view"},{"type":"function","name":"envelopesSeen","inputs":[{"name":"eventId","type":"bytes20","internalType":"bytes20"}],"outputs":[{"name":"expiresAt","type":"uint256","internalType":"uint256"}],"stateMutability":"view"},{"type":"function","name":"getHooks","inputs":[],"outputs":[{"name":"","type":"address[]","internalType":"contract IMerkleSnapshotHook[]"}],"stateMutability":"view"},{"type":"function","name":"getLatestState","inputs":[],"outputs":[{"name":"","type":"tuple","internalType":"struct IMerkleSnapshot.MerkleState","components":[{"name":"blockNumber","type":"uint256","internalType":"uint256"},{"name":"root","type":"bytes32","internalType":"bytes32"},{"name":"ipfsHash","type":"bytes32","internalType":"bytes32"},{"name":"ipfsHashCid","type":"string","internalType":"string"}]}],"stateMutability":"view"},{"type":"function","name":"getServiceManager","inputs":[],"outputs":[{"name":"","type":"address","internalType":"address"}],"stateMutability":"view"},{"type":"function","name":"getStateAtBlock","inputs":[{"name":"blockNumber","type":"uint256","internalType":"uint256"}],"outputs":[{"name":"state","type":"tuple","internalType":"struct IMerkleSnapshot.MerkleState","components":[{"name":"blockNumber","type":"uint256","internalType":"uint256"},{"name":"root","type":"bytes32","internalType":"bytes32"},{"name":"ipfsHash","type":"bytes32","internalType":"bytes32"},{"name":"ipfsHashCid","type":"string","internalType":"string"}]}],"stateMutability":"view"},{"type":"function","name":"getStateAtIndex","inputs":[{"name":"index","type":"uint256","internalType":"uint256"}],"outputs":[{"name":"state","type":"tuple","internalType":"struct IMerkleSnapshot.MerkleState","components":[{"name":"blockNumber","type":"uint256","internalType":"uint256"},{"name":"root","type":"bytes32","internalType":"bytes32"},{"name":"ipfsHash","type":"bytes32","internalType":"bytes32"},{"name":"ipfsHashCid","type":"string","internalType":"string"}]}],"stateMutability":"view"},{"type":"function","name":"getStateBlocks","inputs":[{"name":"offset","type":"uint256","internalType":"uint256"},{"name":"limit","type":"uint256","internalType":"uint256"}],"outputs":[{"name":"result_","type":"uint256[]","internalType":"uint256[]"}],"stateMutability":"view"},{"type":"function","name":"getStateCount","inputs":[],"outputs":[{"name":"count","type":"uint256","internalType":"uint256"}],"stateMutability":"view"},{"type":"function","name":"getStates","inputs":[{"name":"offset","type":"uint256","internalType":"uint256"},{"name":"limit","type":"uint256","internalType":"uint256"}],"outputs":[{"name":"result_","type":"tuple[]","internalType":"struct IMerkleSnapshot.MerkleState[]","components":[{"name":"blockNumber","type":"uint256","internalType":"uint256"},{"name":"root","type":"bytes32","internalType":"bytes32"},{"name":"ipfsHash","type":"bytes32","internalType":"bytes32"},{"name":"ipfsHashCid","type":"string","internalType":"string"}]}],"stateMutability":"view"},{"type":"function","name":"handleSignedEnvelope","inputs":[{"name":"envelope","type":"tuple","internalType":"struct IWavsServiceHandler.Envelope","components":[{"name":"eventId","type":"bytes20","internalType":"bytes20"},{"name":"ordering","type":"bytes12","internalType":"bytes12"},{"name":"payload","type":"bytes","internalType":"bytes"}]},{"name":"signatureData","type":"tuple","internalType":"struct IWavsServiceHandler.SignatureData","components":[{"name":"signers","type":"address[]","internalType":"address[]"},{"name":"signatures","type":"bytes[]","internalType":"bytes[]"},{"name":"referenceBlock","type":"uint32","internalType":"uint32"}]}],"outputs":[],"stateMutability":"nonpayable"},{"type":"function","name":"hookCount","inputs":[],"outputs":[{"name":"","type":"uint64","internalType":"uint64"}],"stateMutability":"view"},{"type":"function","name":"hookIndex","inputs":[{"name":"hook","type":"address","internalType":"contract IMerkleSnapshotHook"}],"outputs":[{"name":"hookIndex","type":"uint256","internalType":"uint256"}],"stateMutability":"view"},{"type":"function","name":"hooks","inputs":[{"name":"hookIndex","type":"uint256","internalType":"uint256"}],"outputs":[{"name":"hook","type":"address","internalType":"contract IMerkleSnapshotHook"}],"stateMutability":"view"},{"type":"function","name":"lastCronTimestampSeen","inputs":[],"outputs":[{"name":"","type":"uint64","internalType":"uint64"}],"stateMutability":"view"},{"type":"function","name":"nextHookIndex","inputs":[],"outputs":[{"name":"","type":"uint64","internalType":"uint64"}],"stateMutability":"view"},{"type":"function","name":"nextTriggerId","inputs":[],"outputs":[{"name":"","type":"uint64","internalType":"uint64"}],"stateMutability":"view"},{"type":"function","name":"removeHook","inputs":[{"name":"hook","type":"address","internalType":"contract IMerkleSnapshotHook"}],"outputs":[],"stateMutability":"nonpayable"},{"type":"function","name":"stateBlocks","inputs":[{"name":"","type":"uint256","internalType":"uint256"}],"outputs":[{"name":"","type":"uint256","internalType":"uint256"}],"stateMutability":"view"},{"type":"function","name":"states","inputs":[{"name":"stateIndex","type":"uint256","internalType":"uint256"}],"outputs":[{"name":"blockNumber","type":"uint256","internalType":"uint256"},{"name":"root","type":"bytes32","internalType":"bytes32"},{"name":"ipfsHash","type":"bytes32","internalType":"bytes32"},{"name":"ipfsHashCid","type":"string","internalType":"string"}],"stateMutability":"view"},{"type":"function","name":"trigger","inputs":[],"outputs":[{"name":"triggerId","type":"uint64","internalType":"uint64"}],"stateMutability":"nonpayable"},{"type":"function","name":"verifyMyProof","inputs":[{"name":"value","type":"uint256","internalType":"uint256"},{"name":"proof","type":"bytes32[]","internalType":"bytes32[]"}],"outputs":[{"name":"","type":"bool","internalType":"bool"}],"stateMutability":"view"},{"type":"function","name":"verifyMyProofAtBlock","inputs":[{"name":"value","type":"uint256","internalType":"uint256"},{"name":"proof","type":"bytes32[]","internalType":"bytes32[]"},{"name":"blockNumber","type":"uint256","internalType":"uint256"}],"outputs":[{"name":"","type":"bool","internalType":"bool"}],"stateMutability":"view"},{"type":"function","name":"verifyMyProofAtStateIndex","inputs":[{"name":"value","type":"uint256","internalType":"uint256"},{"name":"proof","type":"bytes32[]","internalType":"bytes32[]"},{"name":"stateIndex","type":"uint256","internalType":"uint256"}],"outputs":[{"name":"","type":"bool","internalType":"bool"}],"stateMutability":"view"},{"type":"function","name":"verifyProof","inputs":[{"name":"account","type":"address","internalType":"address"},{"name":"value","type":"uint256","internalType":"uint256"},{"name":"proof","type":"bytes32[]","internalType":"bytes32[]"}],"outputs":[{"name":"","type":"bool","internalType":"bool"}],"stateMutability":"view"},{"type":"function","name":"verifyProofAtBlock","inputs":[{"name":"account","type":"address","internalType":"address"},{"name":"value","type":"uint256","internalType":"uint256"},{"name":"proof","type":"bytes32[]","internalType":"bytes32[]"},{"name":"blockNumber","type":"uint256","internalType":"uint256"}],"outputs":[{"name":"","type":"bool","internalType":"bool"}],"stateMutability":"view"},{"type":"function","name":"verifyProofAtStateIndex","inputs":[{"name":"account","type":"address","internalType":"address"},{"name":"value","type":"uint256","internalType":"uint256"},{"name":"proof","type":"bytes32[]","internalType":"bytes32[]"},{"name":"stateIndex","type":"uint256","internalType":"uint256"}],"outputs":[{"name":"","type":"bool","internalType":"bool"}],"stateMutability":"view"},{"type":"event","name":"MerkleRootUpdated","inputs":[{"name":"root","type":"bytes32","indexed":true,"internalType":"bytes32"},{"name":"ipfsHash","type":"bytes32","indexed":false,"internalType":"bytes32"},{"name":"ipfsHashCid","type":"string","indexed":false,"internalType":"string"}],"anonymous":false},{"type":"event","name":"MerklerTrigger","inputs":[{"name":"triggerId","type":"uint64","indexed":false,"internalType":"uint64"}],"anonymous":false},{"type":"event","name":"NewTrigger","inputs":[{"name":"_triggerInfo","type":"bytes","indexed":false,"internalType":"bytes"}],"anonymous":false},{"type":"event","name":"PrunedExpiredEnvelopes","inputs":[{"name":"count","type":"uint256","indexed":false,"internalType":"uint256"}],"anonymous":false},{"type":"error","name":"EnvelopeAlreadySeen","inputs":[]},{"type":"error","name":"EnvelopeExpired","inputs":[]},{"type":"error","name":"HookAlreadyAdded","inputs":[]},{"type":"error","name":"HookNotAdded","inputs":[]},{"type":"error","name":"NoMerkleStateAtBlock","inputs":[{"name":"requested","type":"uint256","internalType":"uint256"},{"name":"firstBlock","type":"uint256","internalType":"uint256"}]},{"type":"error","name":"NoMerkleStateAtIndex","inputs":[{"name":"requested","type":"uint256","internalType":"uint256"},{"name":"total","type":"uint256","internalType":"uint256"}]},{"type":"error","name":"NoMerkleStates","inputs":[]}],"bytecode":{"object":"0x608034609157601f611ba738819003918201601f19168301916001600160401b03831184841017609557808492602094604052833981010312609157516001600160a01b038116908190036091575f600281905560035560048054600b80546001600160401b03191660011790556001600160e01b031916909117600160a01b179055604051611afd90816100aa8239f35b5f80fd5b634e487b7160e01b5f52604160045260245ffdfe6080806040526004361015610012575f80fd5b5f3560e01c908163017a910514610b8e57508063025d26be14610b5357806307971de714610b2d5780630d98919214610a5357806329b9fbf914610a1c5780632d904eb814610a0157806335951f7f146109e557806342227fa4146109bc57806344cb266f146109985780634dda0b4314610970578063550004e51461094c5780635cd2525e1461083f5780635e0f9e3714610816578063658f09c5146107f55780636c819c4d146107b957806376886d841461068b5780637b4e04e81461059d5780637fec8d381461051f578063864c17d7146104ed57806396ee965b146104c3578063a52e9526146104a2578063a828a40a14610479578063b2fd74c91461045c578063b42bc9fe1461043d578063c267d5b514610417578063c8411d1a146103e0578063c97b7f80146103c3578063daa05015146103a6578063df92c1371461036e578063e5adf3ab14610298578063f3af613414610255578063f616ec85146101ed5763f969ff3314610187575f80fd5b346101e95760403660031901126101e9576004356001600160401b0381116101e957606060031982360301126101e957602435906001600160401b0382116101e957606060031983360301126101e9576101e79160040190600401611153565b005b5f80fd5b346101e95760603660031901126101e9576004356001600160a01b03811681036101e9576044356001600160401b0381116101e95760209161023661024b923690600401610d8b565b916024359085610244610f1a565b0151611929565b6040519015158152f35b346101e95760403660031901126101e9576024356001600160401b0381116101e95761024b61028a6020923690600401610d8b565b906004353385610244610f1a565b346101e95760203660031901126101e9576004356001600160a01b038116908190036101e957805f52600a60205260405f20541561035f57805f52600a60205260405f20545f52600960205260405f2080546001600160601b0360a01b1690555f52600a6020525f6040812055600b546001600160401b038160401c16801561034b576fffffffffffffffff0000000000000000199091165f1990910160401b67ffffffffffffffff60401b1617600b55005b634e487b7160e01b5f52601160045260245ffd5b633cea835f60e11b5f5260045ffd5b346101e95760203660031901126101e9576004356007548110156101e957610397602091610e3c565b90549060031b1c604051908152f35b346101e9575f3660031901126101e9576020600754604051908152f35b346101e9575f3660031901126101e9576020600254604051908152f35b346101e95760203660031901126101e9576104136103ff600435611036565b604051918291602083526020830190610d57565b0390f35b346101e9575f3660031901126101e95760206001600160401b0360055416604051908152f35b346101e95760203660031901126101e9576104136103ff600435610f84565b346101e9575f3660031901126101e9576020600354604051908152f35b346101e9575f3660031901126101e957602061049a60035460025490610e75565b604051908152f35b346101e957602061024b6104b536610e05565b856102449492943392611036565b346101e95760203660031901126101e9576004355f526008602052602060405f2054604051908152f35b346101e95760203660031901126101e9576004355f526009602052602060018060a01b0360405f205416604051908152f35b346101e9575f3660031901126101e95760206004546001600160401b038160a01c16906001600160401b0360a01b61055683610f67565b60a01b16906001600160401b0360a01b1916176004557f26c7819cd977f19b3fcfc03aa705e25e2aefa99133ba83b6eaf04841b669297c82604051838152a1604051908152f35b346101e95760203660031901126101e9576004356001600160a01b038116908190036101e957805f52600a60205260405f205461067c576001600160401b03600b54165f52600960205260405f20816001600160601b0360a01b8254161790556001600160401b03600b5416905f52600a60205260405f2055600b546001600160401b0361062c818316610f67565b1667ffffffffffffffff60401b61065b67ffffffffffffffff198416831760401c6001600160401b0316610f67565b60401b16916fffffffffffffffffffffffffffffffff19161717600b555f80f35b6323f8ed6f60e11b5f5260045ffd5b346101e9576106a461069c36610d41565b819291610e68565b6007548082116107b1575b506106ba8282610e75565b916106c483610e82565b926106d26040519485610ce2565b8084526106e1601f1991610e82565b015f5b81811061079a575050805b82811061075d57836040518091602082016020835281518091526040830190602060408260051b8601019301915f905b82821061072e57505050500390f35b9193600191939550602061074d8192603f198a82030186528851610d57565b960192019201859493919261071f565b806001915f52600660205261079360405f2061078261077c8685610e75565b91610ed1565b61078c8289610e99565b5286610e99565b50016106ef565b6020906107a5610ead565b828288010152016106e4565b9050826106af565b346101e95760203660031901126101e9576004356001600160a01b038116908190036101e9575f52600a602052602060405f2054604051908152f35b346101e957602061024b61080836610e05565b856102449492943392610f84565b346101e9575f3660031901126101e95760206001600160401b03600b5460401c16604051908152f35b346101e9575f3660031901126101e957600b546001600160401b038160401c169061088261086c83610e82565b9261087a6040519485610ce2565b808452610e82565b602083019190601f19013683376001600160401b031660015f5b8282106108f0578385604051918291602083019060208452518091526040830191905f5b8181106108ce575050500390f35b82516001600160a01b03168452859450602093840193909201916001016108c0565b5f828152600960205260409020546001600160a01b031615610943575f8281526009602052604090205460019161093a916001600160a01b03166109348289610e99565b52610f59565b915b019061089c565b9060019061093c565b346101e957602061024b8161024461096336610dbb565b9591949095939293610f84565b346101e9575f3660031901126101e9576004546040516001600160a01b039091168152602090f35b346101e957602061024b816102446109af36610dbb565b9591949095939293611036565b346101e9575f3660031901126101e95760206001600160401b0360045460a01c16604051908152f35b346101e9575f3660031901126101e957602060405161012c8152f35b346101e9575f3660031901126101e9576104136103ff610f1a565b346101e95760203660031901126101e9576004355f526001602052602060405f205460601b604051906001600160601b0319168152f35b346101e957610a6461069c36610d41565b90600754808311610b25575b50610a7b8183610e75565b91610a9e610a8884610e82565b93610a966040519586610ce2565b808552610e82565b602084019290601f1901368437805b828110610af8578385604051918291602083019060208452518091526040830191905f5b818110610adf575050500390f35b8251845285945060209384019390920191600101610ad1565b80610b04600192610e3c565b90549060031b1c610b1e610b188584610e75565b88610e99565b5201610aad565b915082610a70565b346101e9575f3660031901126101e95760206001600160401b03600b5416604051908152f35b346101e95760203660031901126101e9576004356001600160601b031981168091036101e9575f525f602052602060405f2054604051908152f35b346101e95760203660031901126101e9576004355f52600660205260405f2090610413825491600184015493610bd782610bd081600360028601549501610c32565b0383610ce2565b604051948594855260208501526040840152608060608401526080830190610d03565b90600182811c92168015610c28575b6020831014610c1457565b634e487b7160e01b5f52602260045260245ffd5b91607f1691610c09565b5f9291815491610c4183610bfa565b8083529260018116908115610c965750600114610c5d57505050565b5f9081526020812093945091925b838310610c7c575060209250010190565b600181602092949394548385870101520191019190610c6b565b915050602093945060ff929192191683830152151560051b010190565b608081019081106001600160401b03821117610cce57604052565b634e487b7160e01b5f52604160045260245ffd5b90601f801991011681019081106001600160401b03821117610cce57604052565b805180835260209291819084018484015e5f828201840152601f01601f1916010190565b35906bffffffffffffffffffffffff19821682036101e957565b60409060031901126101e9576004359060243590565b9060806060610d88938051845260208101516020850152604081015160408501520151918160608201520190610d03565b90565b9181601f840112156101e9578235916001600160401b0383116101e9576020808501948460051b0101116101e957565b60806003198201126101e9576004356001600160a01b03811681036101e9579160243591604435906001600160401b0382116101e957610dfd91600401610d8b565b909160643590565b9060606003198301126101e95760043591602435906001600160401b0382116101e957610e3491600401610d8b565b909160443590565b600754811015610e545760075f5260205f2001905f90565b634e487b7160e01b5f52603260045260245ffd5b9190820180921161034b57565b9190820391821161034b57565b6001600160401b038111610cce5760051b60200190565b8051821015610e545760209160051b010190565b60405190610eba82610cb3565b606080835f81525f60208201525f60408201520152565b9060036060604051610ee281610cb3565b610f168195805483526001810154602084015260028101546040840152610f0f6040518096819301610c32565b0384610ce2565b0152565b610f22610ead565b506007548015610f4a575f19810190811161034b575f526006602052610d8860405f20610ed1565b633b02b60f60e11b5f5260045ffd5b5f19811461034b5760010190565b6001600160401b03166001600160401b03811461034b5760010190565b610f8c610ead565b5060075415610f4a57805f52600860205260405f205481610fac82610e3c565b90549060031b1c146110215750610fc2816119bb565b919015610fdd57505f526006602052610d8860405f20610ed1565b60075415610e54577fa66cc928b5edb82af9bd49922954155ab7b0942694bea4ce44661d9a8736c688546347329a5b60e01b5f908152600492909252602452604490fd5b90505f526006602052610d8860405f20610ed1565b61103e610ead565b506007548082101561105e57505f526006602052610d8860405f20610ed1565b9063254df73b60e11b5f5260045260245260445ffd5b35906001600160a01b0319821682036101e957565b9035601e19823603018112156101e95701602081359101916001600160401b0382116101e95781360383136101e957565b908060209392818452848401375f828201840152601f01601f1916010190565b9035601e19823603018112156101e95701602081359101916001600160401b0382116101e9578160051b360383136101e957565b9291926001600160401b038211610cce5760405191611137601f8201601f191660200184610ce2565b8294818452818301116101e9578281602093845f960137010152565b6004545f936001600160a01b0390911692833b156101e9576040516366b8ac4f60e11b8152604060048201526001600160601b031961119185610d27565b16604482015260208401946001600160a01b03196111ae87611074565b16606483015260408501926111d76111c68588611089565b6060608487015260a48601916110ba565b8381036003190160248501529160608301916111f381806110da565b606086529384905260808501935f905b8082106118f35750505061121a60208201826110da565b8585036020870152808552602085019460208260051b82010195835f925b8484106118bb575050505050506040013563ffffffff81168091036101e957848093819260405f97015203915afa80156118b05761189b575b50359180360393601e19850184121561189757838201948535926001600160401b038411611893576020870193803603851361188f57602088820181810199909691818803126118535781356001600160401b03811161188b5781019660a09088900312611853576040519860a08a018a81106001600160401b038211176118775760405260208801358a5260208a01966040890135885260408b019b60608a01358d5260608c019960808101358b5260a08101356001600160401b03811161187357602091010181601f8201121561186f576060918160206113569335910161110e565b9b608081019c8d5251971261186b5760405195606087018781106001600160401b0382111761185757916113996113a0926001600160401b039594604052610d27565b8852611074565b60208701521161185357601f369101121561184f576113c091369161110e565b604082015242821115611840576001600160601b031981511688528760205260408820546118315751906001600160601b03198216885287602052604088205560035487526001602052604087209060601c6001600160601b0360a01b82541617905561142e600354610f59565b908160035551806117b05750508351928151938151906007549586158015611778575b156117605786438a5260086020528060408b20556801000000000000000081101561174c579061148a8260016003959401600755610e3c565b81545f1991861b91821b19164390911b1790555b604051916114ab83610cb3565b438352602083019081526040830191825260608301948552888b52600660205260408b20925183555160018301555160028201550190518051906001600160401b0382116117385781906114ff8454610bfa565b601f81116116e8575b50602090601f8311600114611686578a9261167b575b50508160011b915f199060031b1c19161790555b60015b6001600160401b03600b541681101561162c57808752600960205260408720546001600160a01b0316156116245780875260096020908152604080892054878a526006909252882088916001600160a01b0316803b156116205760405163184cf0d560e11b8152602060048201528254602482015260018301546044820152600283015460648201526080608482015291839183918290849082906115e19060a4830190600301610c32565b03925af18015611615576115fc575b50506001905b01611535565b8161160691610ce2565b61161157865f6115f0565b8680fd5b6040513d84823e3d90fd5b8280fd5b6001906115f6565b50919450927f9958b12204332a9f4a785b96fb90aed175c88d27250e7b036e3661a50e1cc20492505192519051906116766040519283928352604060208401526040830190610d03565b0390a2565b015190505f8061151e565b848b52818b209250601f1984168b5b8181106116d057509084600195949392106116b8575b505050811b019055611532565b01515f1960f88460031b161c191690555f80806116ab565b92936020600181928786015181550195019301611695565b909150838a5260208a20601f840160051c8101916020851061172e575b90601f859493920160051c01905b8181106117205750611508565b8b8155849350600101611713565b9091508190611705565b634e487b7160e01b89526041600452602489fd5b634e487b7160e01b8a52604160045260248afd5b9550600390438952600860205260408920549661149e565b505f19870187811161179c5761178d90610e3c565b4391549060031b1c1415611451565b634e487b7160e01b8a52601160045260248afd5b929593509350506117c5819360025490610e75565b809111611829575b50905b808210611806575b5060207f9ab3d70475df098666ddecfedc7d84969049ae8e9f088b5657bf0db3900324c291604051908152a1565b9061180f611a57565b156118235761181d90610f59565b906117d0565b906117d8565b91505f6117cd565b633a181deb60e11b8852600488fd5b63fd427c0960e01b8852600488fd5b8980fd5b8a80fd5b634e487b7160e01b8f52604160045260248ffd5b8c80fd5b8e80fd5b8f80fd5b634e487b7160e01b8d52604160045260248dfd5b8b80fd5b8880fd5b8780fd5b8580fd5b6118a89195505f90610ce2565b5f935f611271565b6040513d5f823e3d90fd5b9091929394976020806118e3600193601f198682030188526118dd8d88611089565b906110ba565b9a01940194019294939190611238565b91949091908535906001600160a01b03821682036101e9576001600160a01b039091168152602090810195019160010190611203565b929160405190602082019260018060a01b03168352604082015260408152611952606082610ce2565b519020604051602081019182526020815261196e604082610ce2565b519020915f925b848410156119b3578360051b830135908181105f146119a2575f52602052600160405f205b930192611975565b905f52602052600160405f2061199a565b149392505050565b6007545f9291839182915b8183106119d4575050509190565b90929193946119e38486610e68565b60011c926119f084610e3c565b90549060031b1c958387145f14611a1a575050505050505f52600860205260405f20549060019190565b83879495969897105f14611a4c575050505f52600860205260405f20549360019283810180911161034b575b916119c6565b919650939150611a46565b6002545f5260016020526001600160601b031960405f205460601b16805f525f60205260405f20544210611ac2575f525f6020525f60408120556002545f52600160205260405f2080546001600160601b0360a01b169055611aba600254610f59565b600255600190565b505f9056fea26469706673582212201aaa26df18a02b9c02e344542f421cc2c89aeb79c12b8e6bdc344940f37d799e64736f6c634300081b0033","linkReferences":{}},"methodIdentifiers":{"ENVELOPE_EXPIRATION_TIME()":"35951f7f","addHook(address)":"7b4e04e8","blockToStateIndex(uint256)":"96ee965b","envelopeExpirationQueue(uint256)":"29b9fbf9","envelopeExpirationQueueEnd()":"b2fd74c9","envelopeExpirationQueueSize()":"a828a40a","envelopeExpirationQueueStart()":"c97b7f80","envelopesSeen(bytes20)":"025d26be","getHooks()":"5cd2525e","getLatestState()":"2d904eb8","getServiceManager()":"4dda0b43","getStateAtBlock(uint256)":"b42bc9fe","getStateAtIndex(uint256)":"c8411d1a","getStateBlocks(uint256,uint256)":"0d989192","getStateCount()":"daa05015","getStates(uint256,uint256)":"76886d84","handleSignedEnvelope((bytes20,bytes12,bytes),(address[],bytes[],uint32))":"f969ff33","hookCount()":"5e0f9e37","hookIndex(address)":"6c819c4d","hooks(uint256)":"864c17d7","lastCronTimestampSeen()":"c267d5b5","nextHookIndex()":"07971de7","nextTriggerId()":"42227fa4","removeHook(address)":"e5adf3ab","stateBlocks(uint256)":"df92c137","states(uint256)":"017a9105","trigger()":"7fec8d38","verifyMyProof(uint256,bytes32[])":"f3af6134","verifyMyProofAtBlock(uint256,bytes32[],uint256)":"658f09c5","verifyMyProofAtStateIndex(uint256,bytes32[],uint256)":"a52e9526","verifyProof(address,uint256,bytes32[])":"f616ec85","verifyProofAtBlock(address,uint256,bytes32[],uint256)":"550004e5","verifyProofAtStateIndex(address,uint256,bytes32[],uint256)":"44cb266f"},"id":29}