{"abi":[{"type":"constructor","inputs":[{"name":"_owner","type":"address","internalType":"address"},{"name":"_avatar","type":"address","internalType":"address"},{"name":"_target","type":"address","internalType":"address"},{"name":"_merkleSnapshot","type":"address","internalType":"address"}],"stateMutability":"nonpayable"},{"type":"function","name":"avatar","inputs":[],"outputs":[{"name":"","type":"address","internalType":"address"}],"stateMutability":"view"},{"type":"function","name":"cancel","inputs":[{"name":"proposalId","type":"uint256","internalType":"uint256"}],"outputs":[],"stateMutability":"nonpayable"},{"type":"function","name":"castVote","inputs":[{"name":"proposalId","type":"uint256","internalType":"uint256"},{"name":"voteType","type":"uint8","internalType":"enum MerkleGovModule.VoteType"},{"name":"votingPower","type":"uint256","internalType":"uint256"},{"name":"proof","type":"bytes32[]","internalType":"bytes32[]"}],"outputs":[],"stateMutability":"nonpayable"},{"type":"function","name":"currentMerkleRoot","inputs":[],"outputs":[{"name":"","type":"bytes32","internalType":"bytes32"}],"stateMutability":"view"},{"type":"function","name":"execute","inputs":[{"name":"proposalId","type":"uint256","internalType":"uint256"}],"outputs":[],"stateMutability":"nonpayable"},{"type":"function","name":"getActions","inputs":[{"name":"proposalId","type":"uint256","internalType":"uint256"}],"outputs":[{"name":"","type":"tuple[]","internalType":"struct MerkleGovModule.ProposalAction[]","components":[{"name":"target","type":"address","internalType":"address"},{"name":"value","type":"uint256","internalType":"uint256"},{"name":"data","type":"bytes","internalType":"bytes"},{"name":"operation","type":"uint8","internalType":"enum Operation"}]}],"stateMutability":"view"},{"type":"function","name":"hasVoted","inputs":[{"name":"proposalId","type":"uint256","internalType":"uint256"},{"name":"account","type":"address","internalType":"address"}],"outputs":[{"name":"","type":"bool","internalType":"bool"}],"stateMutability":"view"},{"type":"function","name":"ipfsHash","inputs":[],"outputs":[{"name":"","type":"bytes32","internalType":"bytes32"}],"stateMutability":"view"},{"type":"function","name":"ipfsHashCid","inputs":[],"outputs":[{"name":"","type":"string","internalType":"string"}],"stateMutability":"view"},{"type":"function","name":"merkleSnapshotContract","inputs":[],"outputs":[{"name":"","type":"address","internalType":"address"}],"stateMutability":"view"},{"type":"function","name":"onMerkleUpdate","inputs":[{"name":"state_","type":"tuple","internalType":"struct IMerkleSnapshot.MerkleState","components":[{"name":"blockNumber","type":"uint256","internalType":"uint256"},{"name":"timestamp","type":"uint256","internalType":"uint256"},{"name":"root","type":"bytes32","internalType":"bytes32"},{"name":"ipfsHash","type":"bytes32","internalType":"bytes32"},{"name":"ipfsHashCid","type":"string","internalType":"string"},{"name":"totalValue","type":"uint256","internalType":"uint256"}]}],"outputs":[],"stateMutability":"nonpayable"},{"type":"function","name":"owner","inputs":[],"outputs":[{"name":"","type":"address","internalType":"address"}],"stateMutability":"view"},{"type":"function","name":"proposalActions","inputs":[{"name":"","type":"uint256","internalType":"uint256"},{"name":"","type":"uint256","internalType":"uint256"}],"outputs":[{"name":"target","type":"address","internalType":"address"},{"name":"value","type":"uint256","internalType":"uint256"},{"name":"data","type":"bytes","internalType":"bytes"},{"name":"operation","type":"uint8","internalType":"enum Operation"}],"stateMutability":"view"},{"type":"function","name":"proposalCount","inputs":[],"outputs":[{"name":"","type":"uint256","internalType":"uint256"}],"stateMutability":"view"},{"type":"function","name":"proposals","inputs":[{"name":"","type":"uint256","internalType":"uint256"}],"outputs":[{"name":"id","type":"uint256","internalType":"uint256"},{"name":"proposer","type":"address","internalType":"address"},{"name":"startBlock","type":"uint256","internalType":"uint256"},{"name":"endBlock","type":"uint256","internalType":"uint256"},{"name":"forVotes","type":"uint256","internalType":"uint256"},{"name":"againstVotes","type":"uint256","internalType":"uint256"},{"name":"abstainVotes","type":"uint256","internalType":"uint256"},{"name":"executed","type":"bool","internalType":"bool"},{"name":"cancelled","type":"bool","internalType":"bool"},{"name":"merkleRoot","type":"bytes32","internalType":"bytes32"}],"stateMutability":"view"},{"type":"function","name":"propose","inputs":[{"name":"targets","type":"address[]","internalType":"address[]"},{"name":"values","type":"uint256[]","internalType":"uint256[]"},{"name":"calldatas","type":"bytes[]","internalType":"bytes[]"},{"name":"operations","type":"uint8[]","internalType":"enum Operation[]"},{"name":"","type":"string","internalType":"string"}],"outputs":[{"name":"proposalId","type":"uint256","internalType":"uint256"}],"stateMutability":"nonpayable"},{"type":"function","name":"quorum","inputs":[],"outputs":[{"name":"","type":"uint256","internalType":"uint256"}],"stateMutability":"view"},{"type":"function","name":"renounceOwnership","inputs":[],"outputs":[],"stateMutability":"nonpayable"},{"type":"function","name":"setAvatar","inputs":[{"name":"_avatar","type":"address","internalType":"address"}],"outputs":[],"stateMutability":"nonpayable"},{"type":"function","name":"setMerkleSnapshotContract","inputs":[{"name":"newContract","type":"address","internalType":"address"}],"outputs":[],"stateMutability":"nonpayable"},{"type":"function","name":"setQuorum","inputs":[{"name":"newQuorum","type":"uint256","internalType":"uint256"}],"outputs":[],"stateMutability":"nonpayable"},{"type":"function","name":"setTarget","inputs":[{"name":"_target","type":"address","internalType":"address"}],"outputs":[],"stateMutability":"nonpayable"},{"type":"function","name":"setUp","inputs":[{"name":"initializeParams","type":"bytes","internalType":"bytes"}],"outputs":[],"stateMutability":"nonpayable"},{"type":"function","name":"setVotingDelay","inputs":[{"name":"newDelay","type":"uint256","internalType":"uint256"}],"outputs":[],"stateMutability":"nonpayable"},{"type":"function","name":"setVotingPeriod","inputs":[{"name":"newPeriod","type":"uint256","internalType":"uint256"}],"outputs":[],"stateMutability":"nonpayable"},{"type":"function","name":"state","inputs":[{"name":"proposalId","type":"uint256","internalType":"uint256"}],"outputs":[{"name":"","type":"uint8","internalType":"enum MerkleGovModule.ProposalState"}],"stateMutability":"view"},{"type":"function","name":"target","inputs":[],"outputs":[{"name":"","type":"address","internalType":"address"}],"stateMutability":"view"},{"type":"function","name":"totalVotingPower","inputs":[],"outputs":[{"name":"","type":"uint256","internalType":"uint256"}],"stateMutability":"view"},{"type":"function","name":"transferOwnership","inputs":[{"name":"newOwner","type":"address","internalType":"address"}],"outputs":[],"stateMutability":"nonpayable"},{"type":"function","name":"votingDelay","inputs":[],"outputs":[{"name":"","type":"uint256","internalType":"uint256"}],"stateMutability":"view"},{"type":"function","name":"votingPeriod","inputs":[],"outputs":[{"name":"","type":"uint256","internalType":"uint256"}],"stateMutability":"view"},{"type":"event","name":"AvatarSet","inputs":[{"name":"previousAvatar","type":"address","indexed":true,"internalType":"address"},{"name":"newAvatar","type":"address","indexed":true,"internalType":"address"}],"anonymous":false},{"type":"event","name":"Initialized","inputs":[{"name":"version","type":"uint64","indexed":false,"internalType":"uint64"}],"anonymous":false},{"type":"event","name":"MerkleRootUpdated","inputs":[{"name":"root","type":"bytes32","indexed":true,"internalType":"bytes32"},{"name":"ipfsHash","type":"bytes32","indexed":false,"internalType":"bytes32"},{"name":"ipfsHashCid","type":"string","indexed":false,"internalType":"string"},{"name":"totalValue","type":"uint256","indexed":false,"internalType":"uint256"}],"anonymous":false},{"type":"event","name":"MerkleSnapshotContractUpdated","inputs":[{"name":"previousContract","type":"address","indexed":true,"internalType":"address"},{"name":"newContract","type":"address","indexed":true,"internalType":"address"}],"anonymous":false},{"type":"event","name":"OwnershipTransferred","inputs":[{"name":"previousOwner","type":"address","indexed":true,"internalType":"address"},{"name":"newOwner","type":"address","indexed":true,"internalType":"address"}],"anonymous":false},{"type":"event","name":"ProposalCancelled","inputs":[{"name":"proposalId","type":"uint256","indexed":true,"internalType":"uint256"}],"anonymous":false},{"type":"event","name":"ProposalCreated","inputs":[{"name":"proposalId","type":"uint256","indexed":true,"internalType":"uint256"},{"name":"proposer","type":"address","indexed":true,"internalType":"address"},{"name":"startBlock","type":"uint256","indexed":false,"internalType":"uint256"},{"name":"endBlock","type":"uint256","indexed":false,"internalType":"uint256"},{"name":"merkleRoot","type":"bytes32","indexed":false,"internalType":"bytes32"}],"anonymous":false},{"type":"event","name":"ProposalExecuted","inputs":[{"name":"proposalId","type":"uint256","indexed":true,"internalType":"uint256"}],"anonymous":false},{"type":"event","name":"QuorumUpdated","inputs":[{"name":"newQuorum","type":"uint256","indexed":false,"internalType":"uint256"}],"anonymous":false},{"type":"event","name":"TargetSet","inputs":[{"name":"previousTarget","type":"address","indexed":true,"internalType":"address"},{"name":"newTarget","type":"address","indexed":true,"internalType":"address"}],"anonymous":false},{"type":"event","name":"VoteCast","inputs":[{"name":"voter","type":"address","indexed":true,"internalType":"address"},{"name":"proposalId","type":"uint256","indexed":true,"internalType":"uint256"},{"name":"voteType","type":"uint8","indexed":false,"internalType":"enum MerkleGovModule.VoteType"},{"name":"votingPower","type":"uint256","indexed":false,"internalType":"uint256"}],"anonymous":false},{"type":"event","name":"VotingDelayUpdated","inputs":[{"name":"newDelay","type":"uint256","indexed":false,"internalType":"uint256"}],"anonymous":false},{"type":"event","name":"VotingPeriodUpdated","inputs":[{"name":"newPeriod","type":"uint256","indexed":false,"internalType":"uint256"}],"anonymous":false},{"type":"error","name":"InvalidInitialization","inputs":[]},{"type":"error","name":"NotInitializing","inputs":[]},{"type":"error","name":"OwnableInvalidOwner","inputs":[{"name":"owner","type":"address","internalType":"address"}]},{"type":"error","name":"OwnableUnauthorizedAccount","inputs":[{"name":"account","type":"address","internalType":"address"}]}],"bytecode":{"object":"0x60803461018f57601f611fe538819003918201601f19168301916001600160401b038311848410176101935780849260809460405283398101031261018f57610047816101a7565b90610054602082016101a7565b9061006d6060610066604084016101a7565b92016101a7565b916001600a5561c4e0600b55668e1bc9bf040000600c55600d5460ff811661014a5760ff1916600117600d557f9016d09d72d40fdae2fd8ceac6b6234c7706214fd39c1cd1e609a0528c19930080546001600160a01b031981166001600160a01b0396871690811790925560405195167f8be0079c531659141344cd1fd0a4f28419497f9722a3daafe3b4186f6b6457e05f80a35f80546001600160a01b03199081166001600160a01b039384161790915560018054821693831693909317909255600280549092169216919091179055611e2990816101bc8239f35b60405162461bcd60e51b815260206004820152601360248201527f416c726561647920696e697469616c697a6564000000000000000000000000006044820152606490fd5b5f80fd5b634e487b7160e01b5f52604160045260245ffd5b51906001600160a01b038216820361018f5756fe6080806040526004361015610012575f80fd5b5f3560e01c908163013cf08b146119895750806302a251a31461196c578063086cfca8146119055780631703a018146118e85780631acc1ab01461183e578063328dd982146116ef5780633932abb1146116d25780633e4f49e6146116a357806340e58ee51461159c578063438596321461154557806356b9e4c5146114cc5780635aef7de6146114a5578063671b37931461148857806370b0f6601461143c578063715018a6146113d5578063776d1a011461136c5780638da5cb5b146113385780639cb5bd9e146112565780639ea9719014611239578063a01ff54e14610fac578063a4f9edbf14610e9c578063a96ab06d14610e74578063bbdce96914610b97578063c1ba4e5914610af4578063c623674f14610ad7578063d4b8399214610aaf578063da35c66414610a92578063dfb9c74614610492578063ea0217cf14610409578063f2fde38b146103bb5763fe0d94c114610171575f80fd5b346102cc5760203660031901126102cc5760043561018e81611c47565b60068110156103a75760030361037257805f526008602052600760405f2001600160ff19825416179055805f52600960205260405f2080546101cf81611c17565b916101dd6040519384611b6b565b81835260208301905f5260205f205f915b83831061030a5785855f5b81518110156102e3576001600160a01b036102148284611d2b565b5151166020806102248486611d2b565b5101519160406102348587611d2b565b5101519061024e60606102478789611d2b565b5101611d3f565b60015460405163468721a760e01b81529586946001600160a01b039092169385935f9385936102809360048601611b8c565b03925af180156102d857610298575b506001016101f9565b6020813d82116102d0575b816102b060209383611b6b565b810103126102cc57519081151582036102cc579050600161028f565b5f80fd5b3d91506102a3565b6040513d5f823e3d90fd5b827f712ae1383f79ac853f8d882153778e0260ef8f03b504e2866e0593e04d2b291f5f80a2005b6004602060019260405161031d81611b50565b848060a01b038654168152848601548382015260405161034b816103448160028b01611acf565b0382611b6b565b604082015261036460ff60038801541660608301611c2e565b8152019201920191906101ee565b60405162461bcd60e51b815260206004820152600d60248201526c139bdd081cdd58d8d959591959609a1b6044820152606490fd5b634e487b7160e01b5f52602160045260245ffd5b346102cc5760203660031901126102cc576103d4611a23565b6103dc611d4c565b6001600160a01b038116156103f6576103f490611d7f565b005b631e4fbdf760e01b5f525f60045260245ffd5b346102cc5760203660031901126102cc57600435610425611d4c565b801561045c576020817f651c77f42613a075437aa794c44471e3abc3a661956a67aaee165bb7396974aa92600b55604051908152a1005b60405162461bcd60e51b815260206004820152600e60248201526d125b9d985b1a59081c195c9a5bd960921b6044820152606490fd5b346102cc5760a03660031901126102cc576004356001600160401b0381116102cc57366023820112156102cc5780600401356104cd81611c17565b916104db6040519384611b6b565b8183526024602084019260051b820101903682116102cc57602401915b818310610a7257836024356001600160401b0381116102cc57366023820112156102cc5780600401359061052b82611c17565b916105396040519384611b6b565b8083526024602084019160051b830101913683116102cc57602401905b828210610a6257505050604435906001600160401b0382116102cc57366023830112156102cc57816004013561058b81611c17565b926105996040519485611b6b565b8184526024602085019260051b820101903682116102cc5760248101925b828410610a3357505050506064356001600160401b0381116102cc57366023820112156102cc5780600401356105ec81611c17565b916105fa6040519384611b6b565b8183526024602084019260051b820101903682116102cc57602401915b818310610a1a575050506084356001600160401b0381116102cc57610640903690600401611bc4565b50600354156109e05783518251811490816109d5575b816109ca575b501561098d57835115610957576007545f19811461094357600190810160078190555f81815260086020526040902081815591820180546001600160a01b03191633179055600a549194916106b19043611c3a565b946106c66002820196808855600b5490611c3a565b906003810191825560086003549101555f5b87518110156108f9575f838152600960205260409020906001600160a01b03610701828b611d2b565b511661070d8289611d2b565b516107188388611d2b565b519061072c610727858b611d2b565b611d3f565b946040519361073a85611b50565b84526020840191825260408401928352610758606085019687611c2e565b8054680100000000000000008110156108d25761077a91600182018155611a6a565b9390936108e6575183546001600160a01b0319166001600160a01b039190911617835551600183015551805160028301916001600160401b0382116108d2576107c38354611a97565b601f8111610897575b50602090601f83116001146108315791806108019260039695945f92610826575b50508160011b915f199060031b1c19161790565b90555b0191519160028310156103a75760019260ff80198354169116179055016106d8565b015190508f806107ed565b90601f19831691845f52815f20925f5b81811061087f575091600193918560039897969410610868575b505050811b019055610804565b01515f1983881b60f8161c191690558e808061085b565b92936020600181928786015181550195019301610841565b6108c290845f5260205f20601f850160051c810191602086106108c8575b601f0160051c0190611d15565b8d6107cc565b90915081906108b5565b634e487b7160e01b5f52604160045260245ffd5b634e487b7160e01b5f525f60045260245ffd5b602083838954905460035490604051928352848301526040820152817ff32960f4970092125cfbabeeef775222d0db96a4a77fbf9f776a816331fa92d160603393a3604051908152f35b634e487b7160e01b5f52601160045260245ffd5b60405162461bcd60e51b815260206004820152600e60248201526d115b5c1d1e481c1c9bdc1bdcd85b60921b6044820152606490fd5b60405162461bcd60e51b8152602060048201526015602482015274496e76616c69642070726f706f73616c206461746160581b6044820152606490fd5b90508151148561065c565b845181149150610656565b60405162461bcd60e51b8152602060048201526012602482015271139bc81b595c9adb19481c9bdbdd081cd95d60721b6044820152606490fd5b823560028110156102cc57815260209283019201610617565b83356001600160401b0381116102cc57602091610a57839260243691870101611bc4565b8152019301926105b7565b8135815260209182019101610556565b82356001600160a01b03811681036102cc578152602092830192016104f8565b346102cc575f3660031901126102cc576020600754604051908152f35b346102cc575f3660031901126102cc576001546040516001600160a01b039091168152602090f35b346102cc575f3660031901126102cc576020600454604051908152f35b346102cc5760203660031901126102cc57600435610b10611d4c565b80151580610b85575b15610b4f576020817ff18f88786aae85a652aadb99a82462616489a33370c9bcc7b245906812ef7cd192600c55604051908152a1005b60405162461bcd60e51b815260206004820152600e60248201526d496e76616c69642071756f72756d60901b6044820152606490fd5b50670de0b6b3a7640000811115610b19565b346102cc5760203660031901126102cc576004356001600160401b0381116102cc5760c060031982360301126102cc5760405160c081018181106001600160401b038211176108d2576040528160040135815260248201356020820152604081016044830135815260608201916064840135835260848401356001600160401b0381116102cc5760a0610c3260a49260043691890101611bc4565b926080810193845201940135845260018060a01b03600254163303610e3957835115610df457815160035582516004558051938451946001600160401b0386116108d257610c81600554611a97565b601f8111610dc3575b50602090601f8711600114610d1e579580610cdc927f60469a1323c9c22c5b6bde126cfa19042e701ef43149c572808ee3969da7aa7697985f92610d135750508160011b915f199060031b1c19161790565b6005555b519182600655519351905191610d086040519384938452606060208501526060840190611a39565b9060408301520390a2005b0151905088806107ed565b90601f1987169160055f527f036b6384b5eca791c62761152d0c79bb0604c104a5fb6f4eb0703f3154bb3db0925f5b818110610dab57509160019391897f60469a1323c9c22c5b6bde126cfa19042e701ef43149c572808ee3969da7aa76999a9410610d93575b505050811b01600555610ce0565b01515f1960f88460031b161c19169055878080610d85565b92936020600181928786015181550195019301610d4d565b610dee9060055f5260205f20601f890160051c81019160208a106108c857601f0160051c0190611d15565b86610c8a565b60405162461bcd60e51b815260206004820152601a60248201527f496e76616c696420746f74616c20766f74696e6720706f7765720000000000006044820152606490fd5b60405162461bcd60e51b815260206004820152601360248201527213db9b1e4813595c9adb1954db985c1cda1bdd606a1b6044820152606490fd5b346102cc575f3660031901126102cc576002546040516001600160a01b039091168152602090f35b346102cc5760203660031901126102cc576004356001600160401b0381116102cc57610ecc903690600401611bc4565b600d5460ff8116610f715760019060ff191617600d556080818051810103126102cc57610efb60208201611d01565b90610f0860408201611d01565b610f32610f236080610f1c60608601611d01565b9401611d01565b936001600160a01b0316611d7f565b5f80546001600160a01b03199081166001600160a01b039384161790915560018054821693831693909317909255600280549092169216919091179055005b60405162461bcd60e51b8152602060048201526013602482015272105b1c9958591e481a5b9a5d1a585b1a5e9959606a1b6044820152606490fd5b346102cc5760803660031901126102cc5760243560043560038210156102cc5760443590606435906001600160401b0382116102cc57366023830112156102cc578160040135926001600160401b0384116102cc573660248560051b850101116102cc57815f52600860205260405f209061102683611c47565b60068110156103a75760010361120457600982019560018060a01b0333165f528660205260ff60405f2054166111cf57604051602081019033825283604082015260408152611076606082611b6b565b5190206040516020810191825260208152611092604082611b6b565b5190209660088401545f985b888a10156110df5760248a60051b89010135908181105f146110ce575f52602052600160405f205b99019861109e565b905f52602052600160405f206110c6565b0361119357335f908152602091825260408082208054600160ff1991821617909155600a87019093528120805490921660ff841617909155925f1982016111685760040161112e838254611c3a565b90555b604051926103a757825260208201527f2c9deb38f462962eadbd85a9d3a4120503ee091f1582eaaa10aa8c6797651d2960403392a3005b5f9350816111855760050161117e838254611c3a565b9055611131565b60060161117e838254611c3a565b60405162461bcd60e51b815260206004820152601460248201527324b73b30b634b2103b37ba34b73390383937b7b360611b6044820152606490fd5b60405162461bcd60e51b815260206004820152600d60248201526c105b1c9958591e481d9bdd1959609a1b6044820152606490fd5b60405162461bcd60e51b815260206004820152600d60248201526c159bdd1a5b99c818db1bdcd959609a1b6044820152606490fd5b346102cc575f3660031901126102cc576020600354604051908152f35b346102cc575f3660031901126102cc576040515f60055461127681611a97565b808452906001811690811561131457506001146112b6575b6112b28361129e81850382611b6b565b604051918291602083526020830190611a39565b0390f35b60055f9081527f036b6384b5eca791c62761152d0c79bb0604c104a5fb6f4eb0703f3154bb3db0939250905b8082106112fa5750909150810160200161129e61128e565b9192600181602092548385880101520191019092916112e2565b60ff191660208086019190915291151560051b8401909101915061129e905061128e565b346102cc575f3660031901126102cc575f516020611dd45f395f51905f52546040516001600160a01b039091168152602090f35b346102cc5760203660031901126102cc57611385611a23565b61138d611d4c565b600180546001600160a01b039283166001600160a01b0319821681179092559091167f90cc2f570a6eb594b1580ea3e41247d2d73a55281889e86bd4ec2fc29c7e62d65f80a3005b346102cc575f3660031901126102cc576113ed611d4c565b5f516020611dd45f395f51905f5280546001600160a01b031981169091555f906001600160a01b03167f8be0079c531659141344cd1fd0a4f28419497f9722a3daafe3b4186f6b6457e08280a3005b346102cc5760203660031901126102cc577fba76433d63148cc0d7df02d39ab5cddf8737df279d4af4c7bce819a2ef719e95602060043561147b611d4c565b80600a55604051908152a1005b346102cc575f3660031901126102cc576020600654604051908152f35b346102cc575f3660031901126102cc575f546040516001600160a01b039091168152602090f35b346102cc5760403660031901126102cc576024356004355f52600960205260405f209081548110156102cc5761150191611a6a565b5060018060a01b038154166112b260018301549260ff6003604051926115358461152e8160028501611acf565b0385611b6b565b0154169060405194859485611b8c565b346102cc5760403660031901126102cc576024356001600160a01b03811681036102cc576004355f526008602052600960405f20019060018060a01b03165f52602052602060ff60405f2054166040519015158152f35b346102cc5760203660031901126102cc57600435805f52600860205260405f2060018060a01b0360018201541633148015611683575b1561164d57600701805460ff81166116155761ff0019166101001790557f416e669c63d9a3a5e36ee7cc7e2104b8db28ccd286aa18966e98fa230c73b08c5f80a2005b60405162461bcd60e51b815260206004820152601060248201526f105b1c9958591e48195e1958dd5d195960821b6044820152606490fd5b60405162461bcd60e51b815260206004820152600e60248201526d139bdd08185d5d1a1bdc9a5e995960921b6044820152606490fd5b505f516020611dd45f395f51905f52546001600160a01b031633146115d2565b346102cc5760203660031901126102cc576116bf600435611c47565b60405160068210156103a7576020918152f35b346102cc575f3660031901126102cc576020600a54604051908152f35b346102cc5760203660031901126102cc576004355f52600960205260405f2080549061171a82611c17565b916117286040519384611b6b565b8083526020830180925f5260205f205f915b8383106117dd57848660405191829160208301906020845251809152604083019060408160051b85010192915f905b82821061177857505050500390f35b919360019193955060208091603f198982030185526117cd885191858060a01b03835116815283830151848201526060806117c26040860151608060408601526080850190611a39565b940151910190611a5d565b9601920192018594939192611769565b600460206001926040516117f081611b50565b848060a01b0386541681528486015483820152604051611817816103448160028b01611acf565b604082015261183060ff60038801541660608301611c2e565b81520192019201919061173a565b346102cc5760203660031901126102cc57611857611a23565b61185f611d4c565b6001600160a01b031680156118b157600280546001600160a01b0319811683179091556001600160a01b03167fb8ed9bab5ad5186bb6cda3bac43ff4b637c4494961d1ee2a6a0c6408de71211b5f80a3005b60405162461bcd60e51b815260206004820152600f60248201526e496e76616c6964206164647265737360881b6044820152606490fd5b346102cc575f3660031901126102cc576020600c54604051908152f35b346102cc5760203660031901126102cc5761191e611a23565b611926611d4c565b5f80546001600160a01b039283166001600160a01b03198216811783559216907f52ae88b092de36f87fb43fe794eb1381023b9c1bce563a871154022c63dce3429080a3005b346102cc575f3660031901126102cc576020600b54604051908152f35b346102cc5760203660031901126102cc57610140906004355f52600860205260405f2060ff81549160018060a01b036001820154166002820154600383015460048401549060058501549260068601549460086007880154970154988a5260208a015260408901526060880152608087015260a086015260c0850152818116151560e085015260081c161515610100830152610120820152f35b600435906001600160a01b03821682036102cc57565b805180835260209291819084018484015e5f828201840152601f01601f1916010190565b9060028210156103a75752565b8054821015611a83575f5260205f209060021b01905f90565b634e487b7160e01b5f52603260045260245ffd5b90600182811c92168015611ac5575b6020831014611ab157565b634e487b7160e01b5f52602260045260245ffd5b91607f1691611aa6565b5f9291815491611ade83611a97565b8083529260018116908115611b335750600114611afa57505050565b5f9081526020812093945091925b838310611b19575060209250010190565b600181602092949394548385870101520191019190611b08565b915050602093945060ff929192191683830152151560051b010190565b608081019081106001600160401b038211176108d257604052565b90601f801991011681019081106001600160401b038211176108d257604052565b949391611bc293611bba9160609360018060a01b031688526020880152608060408801526080870190611a39565b940190611a5d565b565b81601f820112156102cc576020813591016001600160401b0382116108d25760405192611bfb601f8401601f191660200185611b6b565b828452828201116102cc57815f92602092838601378301015290565b6001600160401b0381116108d25760051b60200190565b60028210156103a75752565b9190820180921161094357565b5f52600860205260405f20600781015460ff8160081c16611cfa5760ff16611cf45760028101544310611cef576003810154431115611ce957600481015490611ca46005820154916006611c9b8486611c3a565b91015490611c3a565b600654600c549081810291818304149015171561094357670de0b6b3a7640000900411159182611cdf575b5050611cda57600290565b600390565b1190505f80611ccf565b50600190565b505f90565b50600490565b5050600590565b51906001600160a01b03821682036102cc57565b818110611d20575050565b5f8155600101611d15565b8051821015611a835760209160051b010190565b5160028110156103a75790565b5f516020611dd45f395f51905f52546001600160a01b03163303611d6c57565b63118cdaa760e01b5f523360045260245ffd5b5f516020611dd45f395f51905f5280546001600160a01b039283166001600160a01b0319821681179092559091167f8be0079c531659141344cd1fd0a4f28419497f9722a3daafe3b4186f6b6457e05f80a356fe9016d09d72d40fdae2fd8ceac6b6234c7706214fd39c1cd1e609a0528c199300a264697066735822122054f02bbf98f0ed88289ccf9e77a7a5469793bf30476c6d2f54d71f8c2f40db3764736f6c634300081b0033","linkReferences":{}},"methodIdentifiers":{"avatar()":"5aef7de6","cancel(uint256)":"40e58ee5","castVote(uint256,uint8,uint256,bytes32[])":"a01ff54e","currentMerkleRoot()":"9ea97190","execute(uint256)":"fe0d94c1","getActions(uint256)":"328dd982","hasVoted(uint256,address)":"43859632","ipfsHash()":"c623674f","ipfsHashCid()":"9cb5bd9e","merkleSnapshotContract()":"a96ab06d","onMerkleUpdate((uint256,uint256,bytes32,bytes32,string,uint256))":"bbdce969","owner()":"8da5cb5b","proposalActions(uint256,uint256)":"56b9e4c5","proposalCount()":"da35c664","proposals(uint256)":"013cf08b","propose(address[],uint256[],bytes[],uint8[],string)":"dfb9c746","quorum()":"1703a018","renounceOwnership()":"715018a6","setAvatar(address)":"086cfca8","setMerkleSnapshotContract(address)":"1acc1ab0","setQuorum(uint256)":"c1ba4e59","setTarget(address)":"776d1a01","setUp(bytes)":"a4f9edbf","setVotingDelay(uint256)":"70b0f660","setVotingPeriod(uint256)":"ea0217cf","state(uint256)":"3e4f49e6","target()":"d4b83992","totalVotingPower()":"671b3793","transferOwnership(address)":"f2fde38b","votingDelay()":"3932abb1","votingPeriod()":"02a251a3"},"id":140}