{"abi":[{"type":"constructor","inputs":[{"name":"_owner","type":"address","internalType":"address"},{"name":"_avatar","type":"address","internalType":"address"},{"name":"_target","type":"address","internalType":"address"},{"name":"_merkleSnapshot","type":"address","internalType":"address"}],"stateMutability":"nonpayable"},{"type":"function","name":"QUORUM_RANGE","inputs":[],"outputs":[{"name":"","type":"uint256","internalType":"uint256"}],"stateMutability":"view"},{"type":"function","name":"avatar","inputs":[],"outputs":[{"name":"","type":"address","internalType":"address"}],"stateMutability":"view"},{"type":"function","name":"cancel","inputs":[{"name":"proposalId","type":"uint256","internalType":"uint256"}],"outputs":[],"stateMutability":"nonpayable"},{"type":"function","name":"castVote","inputs":[{"name":"proposalId","type":"uint256","internalType":"uint256"},{"name":"voteType","type":"uint8","internalType":"enum MerkleGovModule.VoteType"},{"name":"votingPower","type":"uint256","internalType":"uint256"},{"name":"proof","type":"bytes32[]","internalType":"bytes32[]"}],"outputs":[],"stateMutability":"nonpayable"},{"type":"function","name":"currentMerkleRoot","inputs":[],"outputs":[{"name":"","type":"bytes32","internalType":"bytes32"}],"stateMutability":"view"},{"type":"function","name":"execute","inputs":[{"name":"proposalId","type":"uint256","internalType":"uint256"}],"outputs":[],"stateMutability":"nonpayable"},{"type":"function","name":"getActions","inputs":[{"name":"proposalId","type":"uint256","internalType":"uint256"}],"outputs":[{"name":"","type":"tuple[]","internalType":"struct MerkleGovModule.ProposalAction[]","components":[{"name":"target","type":"address","internalType":"address"},{"name":"value","type":"uint256","internalType":"uint256"},{"name":"data","type":"bytes","internalType":"bytes"},{"name":"operation","type":"uint8","internalType":"enum Operation"}]}],"stateMutability":"view"},{"type":"function","name":"getProposal","inputs":[{"name":"proposalId","type":"uint256","internalType":"uint256"}],"outputs":[{"name":"proposal","type":"tuple","internalType":"struct MerkleGovModule.Proposal","components":[{"name":"id","type":"uint256","internalType":"uint256"},{"name":"proposer","type":"address","internalType":"address"},{"name":"startBlock","type":"uint256","internalType":"uint256"},{"name":"endBlock","type":"uint256","internalType":"uint256"},{"name":"yesVotes","type":"uint256","internalType":"uint256"},{"name":"noVotes","type":"uint256","internalType":"uint256"},{"name":"abstainVotes","type":"uint256","internalType":"uint256"},{"name":"executed","type":"bool","internalType":"bool"},{"name":"cancelled","type":"bool","internalType":"bool"},{"name":"merkleRoot","type":"bytes32","internalType":"bytes32"},{"name":"totalVotingPower","type":"uint256","internalType":"uint256"}]},{"name":"proposalState","type":"uint8","internalType":"enum MerkleGovModule.ProposalState"},{"name":"actions","type":"tuple[]","internalType":"struct MerkleGovModule.ProposalAction[]","components":[{"name":"target","type":"address","internalType":"address"},{"name":"value","type":"uint256","internalType":"uint256"},{"name":"data","type":"bytes","internalType":"bytes"},{"name":"operation","type":"uint8","internalType":"enum Operation"}]}],"stateMutability":"view"},{"type":"function","name":"hasVoted","inputs":[{"name":"proposalId","type":"uint256","internalType":"uint256"},{"name":"voter","type":"address","internalType":"address"}],"outputs":[{"name":"","type":"bool","internalType":"bool"}],"stateMutability":"view"},{"type":"function","name":"ipfsHash","inputs":[],"outputs":[{"name":"","type":"bytes32","internalType":"bytes32"}],"stateMutability":"view"},{"type":"function","name":"ipfsHashCid","inputs":[],"outputs":[{"name":"","type":"string","internalType":"string"}],"stateMutability":"view"},{"type":"function","name":"merkleSnapshotContract","inputs":[],"outputs":[{"name":"","type":"address","internalType":"address"}],"stateMutability":"view"},{"type":"function","name":"onMerkleUpdate","inputs":[{"name":"state_","type":"tuple","internalType":"struct IMerkleSnapshot.MerkleState","components":[{"name":"blockNumber","type":"uint256","internalType":"uint256"},{"name":"timestamp","type":"uint256","internalType":"uint256"},{"name":"root","type":"bytes32","internalType":"bytes32"},{"name":"ipfsHash","type":"bytes32","internalType":"bytes32"},{"name":"ipfsHashCid","type":"string","internalType":"string"},{"name":"totalValue","type":"uint256","internalType":"uint256"}]}],"outputs":[],"stateMutability":"nonpayable"},{"type":"function","name":"owner","inputs":[],"outputs":[{"name":"","type":"address","internalType":"address"}],"stateMutability":"view"},{"type":"function","name":"proposalActions","inputs":[{"name":"","type":"uint256","internalType":"uint256"},{"name":"","type":"uint256","internalType":"uint256"}],"outputs":[{"name":"target","type":"address","internalType":"address"},{"name":"value","type":"uint256","internalType":"uint256"},{"name":"data","type":"bytes","internalType":"bytes"},{"name":"operation","type":"uint8","internalType":"enum Operation"}],"stateMutability":"view"},{"type":"function","name":"proposalCount","inputs":[],"outputs":[{"name":"","type":"uint256","internalType":"uint256"}],"stateMutability":"view"},{"type":"function","name":"proposals","inputs":[{"name":"","type":"uint256","internalType":"uint256"}],"outputs":[{"name":"id","type":"uint256","internalType":"uint256"},{"name":"proposer","type":"address","internalType":"address"},{"name":"startBlock","type":"uint256","internalType":"uint256"},{"name":"endBlock","type":"uint256","internalType":"uint256"},{"name":"yesVotes","type":"uint256","internalType":"uint256"},{"name":"noVotes","type":"uint256","internalType":"uint256"},{"name":"abstainVotes","type":"uint256","internalType":"uint256"},{"name":"executed","type":"bool","internalType":"bool"},{"name":"cancelled","type":"bool","internalType":"bool"},{"name":"merkleRoot","type":"bytes32","internalType":"bytes32"},{"name":"totalVotingPower","type":"uint256","internalType":"uint256"}],"stateMutability":"view"},{"type":"function","name":"propose","inputs":[{"name":"targets","type":"address[]","internalType":"address[]"},{"name":"values","type":"uint256[]","internalType":"uint256[]"},{"name":"calldatas","type":"bytes[]","internalType":"bytes[]"},{"name":"operations","type":"uint8[]","internalType":"enum Operation[]"},{"name":"","type":"string","internalType":"string"},{"name":"votingPower","type":"uint256","internalType":"uint256"},{"name":"proof","type":"bytes32[]","internalType":"bytes32[]"}],"outputs":[{"name":"proposalId","type":"uint256","internalType":"uint256"}],"stateMutability":"nonpayable"},{"type":"function","name":"quorum","inputs":[],"outputs":[{"name":"","type":"uint256","internalType":"uint256"}],"stateMutability":"view"},{"type":"function","name":"renounceOwnership","inputs":[],"outputs":[],"stateMutability":"nonpayable"},{"type":"function","name":"setAvatar","inputs":[{"name":"_avatar","type":"address","internalType":"address"}],"outputs":[],"stateMutability":"nonpayable"},{"type":"function","name":"setMerkleSnapshotContract","inputs":[{"name":"newContract","type":"address","internalType":"address"}],"outputs":[],"stateMutability":"nonpayable"},{"type":"function","name":"setQuorum","inputs":[{"name":"newQuorum","type":"uint256","internalType":"uint256"}],"outputs":[],"stateMutability":"nonpayable"},{"type":"function","name":"setTarget","inputs":[{"name":"_target","type":"address","internalType":"address"}],"outputs":[],"stateMutability":"nonpayable"},{"type":"function","name":"setUp","inputs":[{"name":"initializeParams","type":"bytes","internalType":"bytes"}],"outputs":[],"stateMutability":"nonpayable"},{"type":"function","name":"setVotingDelay","inputs":[{"name":"newDelay","type":"uint256","internalType":"uint256"}],"outputs":[],"stateMutability":"nonpayable"},{"type":"function","name":"setVotingPeriod","inputs":[{"name":"newPeriod","type":"uint256","internalType":"uint256"}],"outputs":[],"stateMutability":"nonpayable"},{"type":"function","name":"state","inputs":[{"name":"proposalId","type":"uint256","internalType":"uint256"}],"outputs":[{"name":"","type":"uint8","internalType":"enum MerkleGovModule.ProposalState"}],"stateMutability":"view"},{"type":"function","name":"target","inputs":[],"outputs":[{"name":"","type":"address","internalType":"address"}],"stateMutability":"view"},{"type":"function","name":"totalVotingPower","inputs":[],"outputs":[{"name":"","type":"uint256","internalType":"uint256"}],"stateMutability":"view"},{"type":"function","name":"transferOwnership","inputs":[{"name":"newOwner","type":"address","internalType":"address"}],"outputs":[],"stateMutability":"nonpayable"},{"type":"function","name":"votes","inputs":[{"name":"proposalId","type":"uint256","internalType":"uint256"},{"name":"voter","type":"address","internalType":"address"}],"outputs":[{"name":"","type":"uint8","internalType":"enum MerkleGovModule.VoteType"}],"stateMutability":"view"},{"type":"function","name":"votingDelay","inputs":[],"outputs":[{"name":"","type":"uint256","internalType":"uint256"}],"stateMutability":"view"},{"type":"function","name":"votingPeriod","inputs":[],"outputs":[{"name":"","type":"uint256","internalType":"uint256"}],"stateMutability":"view"},{"type":"event","name":"AvatarSet","inputs":[{"name":"previousAvatar","type":"address","indexed":true,"internalType":"address"},{"name":"newAvatar","type":"address","indexed":true,"internalType":"address"}],"anonymous":false},{"type":"event","name":"Initialized","inputs":[{"name":"version","type":"uint64","indexed":false,"internalType":"uint64"}],"anonymous":false},{"type":"event","name":"MerkleRootUpdated","inputs":[{"name":"root","type":"bytes32","indexed":true,"internalType":"bytes32"},{"name":"ipfsHash","type":"bytes32","indexed":false,"internalType":"bytes32"},{"name":"ipfsHashCid","type":"string","indexed":false,"internalType":"string"},{"name":"totalValue","type":"uint256","indexed":false,"internalType":"uint256"}],"anonymous":false},{"type":"event","name":"MerkleSnapshotContractUpdated","inputs":[{"name":"previousContract","type":"address","indexed":true,"internalType":"address"},{"name":"newContract","type":"address","indexed":true,"internalType":"address"}],"anonymous":false},{"type":"event","name":"OwnershipTransferred","inputs":[{"name":"previousOwner","type":"address","indexed":true,"internalType":"address"},{"name":"newOwner","type":"address","indexed":true,"internalType":"address"}],"anonymous":false},{"type":"event","name":"ProposalCancelled","inputs":[{"name":"proposalId","type":"uint256","indexed":true,"internalType":"uint256"}],"anonymous":false},{"type":"event","name":"ProposalCreated","inputs":[{"name":"proposalId","type":"uint256","indexed":true,"internalType":"uint256"},{"name":"proposer","type":"address","indexed":true,"internalType":"address"},{"name":"startBlock","type":"uint256","indexed":false,"internalType":"uint256"},{"name":"endBlock","type":"uint256","indexed":false,"internalType":"uint256"},{"name":"merkleRoot","type":"bytes32","indexed":false,"internalType":"bytes32"}],"anonymous":false},{"type":"event","name":"ProposalExecuted","inputs":[{"name":"proposalId","type":"uint256","indexed":true,"internalType":"uint256"}],"anonymous":false},{"type":"event","name":"QuorumUpdated","inputs":[{"name":"newQuorum","type":"uint256","indexed":false,"internalType":"uint256"}],"anonymous":false},{"type":"event","name":"TargetSet","inputs":[{"name":"previousTarget","type":"address","indexed":true,"internalType":"address"},{"name":"newTarget","type":"address","indexed":true,"internalType":"address"}],"anonymous":false},{"type":"event","name":"VoteCast","inputs":[{"name":"voter","type":"address","indexed":true,"internalType":"address"},{"name":"proposalId","type":"uint256","indexed":true,"internalType":"uint256"},{"name":"voteType","type":"uint8","indexed":false,"internalType":"enum MerkleGovModule.VoteType"},{"name":"votingPower","type":"uint256","indexed":false,"internalType":"uint256"}],"anonymous":false},{"type":"event","name":"VotingDelayUpdated","inputs":[{"name":"newDelay","type":"uint256","indexed":false,"internalType":"uint256"}],"anonymous":false},{"type":"event","name":"VotingPeriodUpdated","inputs":[{"name":"newPeriod","type":"uint256","indexed":false,"internalType":"uint256"}],"anonymous":false},{"type":"error","name":"AlreadyInitialized","inputs":[]},{"type":"error","name":"AlreadyVoted","inputs":[]},{"type":"error","name":"EmptyProposal","inputs":[]},{"type":"error","name":"InvalidAddress","inputs":[]},{"type":"error","name":"InvalidInitialization","inputs":[]},{"type":"error","name":"InvalidMerkleProof","inputs":[]},{"type":"error","name":"InvalidProposalData","inputs":[]},{"type":"error","name":"InvalidQuorum","inputs":[]},{"type":"error","name":"InvalidTotalVotingPower","inputs":[]},{"type":"error","name":"InvalidVotingPeriod","inputs":[]},{"type":"error","name":"NoMerkleRootSet","inputs":[]},{"type":"error","name":"NotAuthorized","inputs":[]},{"type":"error","name":"NotInitializing","inputs":[]},{"type":"error","name":"OnlyMerkleSnapshot","inputs":[]},{"type":"error","name":"OwnableInvalidOwner","inputs":[{"name":"owner","type":"address","internalType":"address"}]},{"type":"error","name":"OwnableUnauthorizedAccount","inputs":[{"name":"account","type":"address","internalType":"address"}]},{"type":"error","name":"ProposalAlreadyCancelled","inputs":[]},{"type":"error","name":"ProposalAlreadyExecuted","inputs":[]},{"type":"error","name":"ProposalNotFound","inputs":[]},{"type":"error","name":"ProposalNotPassed","inputs":[]},{"type":"error","name":"VotingClosed","inputs":[]}],"bytecode":{"object":"0x60803461015857601f6121c738819003918201601f19168301916001600160401b0383118484101761015c578084926080946040528339810103126101585761004781610170565b9061005460208201610170565b9061006d606061006660408401610170565b9201610170565b916001600c5561c4e0600d55668e1bc9bf040000600e55600f5460ff811661014a5760ff1916600117600f557f9016d09d72d40fdae2fd8ceac6b6234c7706214fd39c1cd1e609a0528c19930080546001600160a01b031981166001600160a01b0396871690811790925560405195167f8be0079c531659141344cd1fd0a4f28419497f9722a3daafe3b4186f6b6457e05f80a35f80546001600160a01b03199081166001600160a01b03938416179091556001805482169383169390931790925560028054909216921691909117905561204290816101858239f35b62dc149f60e41b5f5260045ffd5b5f80fd5b634e487b7160e01b5f52604160045260245ffd5b51906001600160a01b03821682036101585756fe6080806040526004361015610012575f80fd5b5f3560e01c908163013cf08b146119475750806302a251a31461192a578063086cfca8146118c35780631703a018146118a65780631acc1ab014611824578063328dd9821461175d5780633932abb1146117405780633e4f49e61461171557806340e58ee51461162f57806343859632146115e657806356b9e4c51461156d5780635aef7de614611546578063671b37931461152957806370b0f660146114dd578063715018a614611476578063776d1a011461140d5780638da5cb5b146113d95780639cb5bd9e146112fb5780639ea97190146112de578063a01ff54e14611156578063a120455c14611134578063a4f9edbf14611051578063a96ab06d14611029578063bbdce96914610dae578063c1ba4e5914610d34578063c623674f14610d17578063c7f758a814610ab3578063d23254b414610a65578063d4b8399214610a3d578063da35c66414610a20578063e01d9c3214610466578063ea0217cf14610404578063f2fde38b146103b65763fe0d94c114610192575f80fd5b346102ed5760203660031901126102ed576004356101af81611d1a565b60068110156103a25760030361039357805f526008602052600760405f2001600160ff19825416179055805f52600960205260405f2080546101f081611cea565b916101fe6040519384611c01565b81835260208301905f5260205f205f915b83831061032b5785855f5b8151811015610304576001600160a01b036102358284611e05565b5151166020806102458486611e05565b5101519160406102558587611e05565b5101519061026f60606102688789611e05565b5101611e19565b60015460405163468721a760e01b81529586946001600160a01b039092169385935f9385936102a19360048601611c22565b03925af180156102f9576102b9575b5060010161021a565b6020813d82116102f1575b816102d160209383611c01565b810103126102ed57519081151582036102ed57905060016102b0565b5f80fd5b3d91506102c4565b6040513d5f823e3d90fd5b827f712ae1383f79ac853f8d882153778e0260ef8f03b504e2866e0593e04d2b291f5f80a2005b6004602060019260405161033e81611bca565b848060a01b038654168152848601548382015260405161036c816103658160028b01611b49565b0382611c01565b604082015261038560ff60038801541660608301611d01565b81520192019201919061020f565b63c8c93ba360e01b5f5260045ffd5b634e487b7160e01b5f52602160045260245ffd5b346102ed5760203660031901126102ed576103cf6119ec565b6103d7611e26565b6001600160a01b038116156103f1576103ef90611eef565b005b631e4fbdf760e01b5f525f60045260245ffd5b346102ed5760203660031901126102ed57600435610420611e26565b8015610457576020817f651c77f42613a075437aa794c44471e3abc3a661956a67aaee165bb7396974aa92600d55604051908152a1005b6305a612e360e01b5f5260045ffd5b346102ed5760e03660031901126102ed576004356001600160401b0381116102ed57366023820112156102ed5780600401356104a181611cea565b916104af6040519384611c01565b8183526024602084019260051b820101903682116102ed57602401915b818310610a0057836024356001600160401b0381116102ed57366023820112156102ed578060040135906104ff82611cea565b9161050d6040519384611c01565b8083526024602084019160051b830101913683116102ed57602401905b8282106109f057505050604435906001600160401b0382116102ed57366023830112156102ed57816004013561055f81611cea565b9261056d6040519485611c01565b8184526024602085019260051b820101903682116102ed5760248101925b8284106109c157505050506064356001600160401b0381116102ed57366023820112156102ed5780600401356105c081611cea565b916105ce6040519384611c01565b8183526024602084019260051b820101903682116102ed57602401915b8183106109a8575050506084356001600160401b0381116102ed57610614903690600401611c8a565b5060c4356001600160401b0381116102ed57610634903690600401611c5a565b600354918215610999578651855181149081159161098d575b8115610981575b50610972578651156109635761066d9260a43533611f43565b6007545f19811461094f57600190810160078190555f81815260086020526040902081815591820180546001600160a01b03191633179055600c549194916106b59043611d0d565b946106ca6002820196808855600d5490611d0d565b9060038101918255600354600882015560096006549101555f5b8751811015610905575f838152600960205260409020906001600160a01b0361070d828b611e05565b51166107198289611e05565b516107248388611e05565b5190610738610733858b611e05565b611e19565b946040519361074685611bca565b84526020840191825260408401928352610764606085019687611d01565b8054680100000000000000008110156108de5761078691600182018155611ae4565b9390936108f2575183546001600160a01b0319166001600160a01b039190911617835551600183015551805160028301916001600160401b0382116108de576107cf8354611b11565b601f81116108a3575b50602090601f831160011461083d57918061080d9260039695945f92610832575b50508160011b915f199060031b1c19161790565b90555b0191519160028310156103a25760019260ff80198354169116179055016106e4565b015190508f806107f9565b90601f19831691845f52815f20925f5b81811061088b575091600193918560039897969410610874575b505050811b019055610810565b01515f1983881b60f8161c191690558e8080610867565b9293602060018192878601518155019501930161084d565b6108ce90845f5260205f20601f850160051c810191602086106108d4575b601f0160051c0190611def565b8d6107d8565b90915081906108c1565b634e487b7160e01b5f52604160045260245ffd5b634e487b7160e01b5f525f60045260245ffd5b602083838954905460035490604051928352848301526040820152817ff32960f4970092125cfbabeeef775222d0db96a4a77fbf9f776a816331fa92d160603393a3604051908152f35b634e487b7160e01b5f52601160045260245ffd5b63294565bf60e01b5f5260045ffd5b632fc149b760e11b5f5260045ffd5b90508451141588610654565b8751811415915061064d565b63a34e98db60e01b5f5260045ffd5b823560028110156102ed578152602092830192016105eb565b83356001600160401b0381116102ed576020916109e5839260243691870101611c8a565b81520193019261058b565b813581526020918201910161052a565b82356001600160a01b03811681036102ed578152602092830192016104cc565b346102ed575f3660031901126102ed576020600754604051908152f35b346102ed575f3660031901126102ed576001546040516001600160a01b039091168152602090f35b346102ed5760403660031901126102ed57610a7e611a02565b6004355f52600b60205260405f209060018060a01b03165f52602052602060ff60405f205416610ab16040518092611cdd565bf35b346102ed5760203660031901126102ed576004355f610140604051610ad781611be5565b8281528260208201528260408201528260608201528260808201528260a08201528260c08201528260e08201528261010082015282610120820152015280158015610d0c575b610cfd57805f52600860205260405f2060405190610b3a82611be5565b8054825260018060a01b036001820154169260208301938452600282015491604084019283526003810154906060850191825260048101546080860190815260058201549060a08701918252600683015460c0880190815260078401549260e089019260ff85161515845260ff6101008b019560081c161515855260096008870154966101208c019788520154966101408b01978852610bd989611d1a565b985f52600960205260405f20998a54610bf181611cea565b9b610bff6040519d8e611c01565b818d5260208d01905f5260205f205f915b838310610c9c57505050506040519c8d9c518d52600160a01b6001900390511660208d01525160408c01525160608b01525160808a01525160a08901525160c088015251151560e087015251151561010086015251610120850152516101408401526101608301610c8091611ad7565b61018082016101a090526101a08201610c9891611a49565b0390f35b60046020600192604051610caf81611bca565b848060a01b0386541681528486015483820152604051610cd6816103658160028b01611b49565b6040820152610cef60ff60038801541660608301611d01565b815201920192019190610c10565b63635e873760e01b5f5260045ffd5b506007548111610b1d565b346102ed575f3660031901126102ed576020600454604051908152f35b346102ed5760203660031901126102ed57600435610d50611e26565b80158015610d9d575b610d8e576020817ff18f88786aae85a652aadb99a82462616489a33370c9bcc7b245906812ef7cd192600e55604051908152a1005b63d173577960e01b5f5260045ffd5b50670de0b6b3a76400008111610d59565b346102ed5760203660031901126102ed576004356001600160401b0381116102ed5760c060031982360301126102ed5760405160c081018181106001600160401b038211176108de576040528160040135815260248201356020820152604081016044830135815260608201916064840135835260848401356001600160401b0381116102ed5760a0610e4960a49260043691890101611c8a565b926080810193845201940135845260018060a01b0360025416330361101a5783511561100b57815160035582516004558051938451946001600160401b0386116108de57610e98600554611b11565b601f8111610fda575b50602090601f8711600114610f35579580610ef3927f60469a1323c9c22c5b6bde126cfa19042e701ef43149c572808ee3969da7aa7697985f92610f2a5750508160011b915f199060031b1c19161790565b6005555b519182600655519351905191610f1f6040519384938452606060208501526060840190611a18565b9060408301520390a2005b0151905088806107f9565b90601f1987169160055f527f036b6384b5eca791c62761152d0c79bb0604c104a5fb6f4eb0703f3154bb3db0925f5b818110610fc257509160019391897f60469a1323c9c22c5b6bde126cfa19042e701ef43149c572808ee3969da7aa76999a9410610faa575b505050811b01600555610ef7565b01515f1960f88460031b161c19169055878080610f9c565b92936020600181928786015181550195019301610f64565b6110059060055f5260205f20601f890160051c81019160208a106108d457601f0160051c0190611def565b86610ea1565b630558bb2560e21b5f5260045ffd5b63173d355360e11b5f5260045ffd5b346102ed575f3660031901126102ed576002546040516001600160a01b039091168152602090f35b346102ed5760203660031901126102ed576004356001600160401b0381116102ed57611081903690600401611c8a565b600f5460ff81166111265760019060ff191617600f556080818051810103126102ed576110b060208201611ddb565b906110bd60408201611ddb565b6110e76110d860806110d160608601611ddb565b9401611ddb565b936001600160a01b0316611eef565b5f80546001600160a01b03199081166001600160a01b039384161790915560018054821693831693909317909255600280549092169216919091179055005b62dc149f60e41b5f5260045ffd5b346102ed575f3660031901126102ed576020604051670de0b6b3a76400008152f35b346102ed5760803660031901126102ed5760043560243560038110156102ed576044356064356001600160401b0381116102ed57611198903690600401611c5a565b90845f52600860205260405f20916111af86611d1a565b60068110156103a2576001036112cf575f868152600a6020908152604080832033845290915290205460ff166112c0576111ef9160088401548533611f43565b835f52600a60205260405f2060018060a01b0333165f5260205260405f20600160ff19825416179055835f52600b60205260405f2060018060a01b0333165f5260205260405f2060ff1981541660ff8516179055600183145f146112985760040161125b828254611d0d565b90555b61126b6040518093611cdd565b60208201527f2c9deb38f462962eadbd85a9d3a4120503ee091f1582eaaa10aa8c6797651d2960403392a3005b826112b2576005016112ab828254611d0d565b905561125e565b6006016112ab828254611d0d565b637c9a1cf960e01b5f5260045ffd5b63335b65a560e11b5f5260045ffd5b346102ed575f3660031901126102ed576020600354604051908152f35b346102ed575f3660031901126102ed576040515f60055461131b81611b11565b80845290600181169081156113b55750600114611357575b610c988361134381850382611c01565b604051918291602083526020830190611a18565b60055f9081527f036b6384b5eca791c62761152d0c79bb0604c104a5fb6f4eb0703f3154bb3db0939250905b80821061139b57509091508101602001611343611333565b919260018160209254838588010152019101909291611383565b60ff191660208086019190915291151560051b840190910191506113439050611333565b346102ed575f3660031901126102ed575f516020611fed5f395f51905f52546040516001600160a01b039091168152602090f35b346102ed5760203660031901126102ed576114266119ec565b61142e611e26565b600180546001600160a01b039283166001600160a01b0319821681179092559091167f90cc2f570a6eb594b1580ea3e41247d2d73a55281889e86bd4ec2fc29c7e62d65f80a3005b346102ed575f3660031901126102ed5761148e611e26565b5f516020611fed5f395f51905f5280546001600160a01b031981169091555f906001600160a01b03167f8be0079c531659141344cd1fd0a4f28419497f9722a3daafe3b4186f6b6457e08280a3005b346102ed5760203660031901126102ed577fba76433d63148cc0d7df02d39ab5cddf8737df279d4af4c7bce819a2ef719e95602060043561151c611e26565b80600c55604051908152a1005b346102ed575f3660031901126102ed576020600654604051908152f35b346102ed575f3660031901126102ed575f546040516001600160a01b039091168152602090f35b346102ed5760403660031901126102ed576024356004355f52600960205260405f209081548110156102ed576115a291611ae4565b5060018060a01b03815416610c9860018301549260ff6003604051926115d6846115cf8160028501611b49565b0385611c01565b0154169060405194859485611c22565b346102ed5760403660031901126102ed576115ff611a02565b6004355f52600a60205260405f209060018060a01b03165f52602052602060ff60405f2054166040519015158152f35b346102ed5760203660031901126102ed576004358015801561170a575b610cfd57805f52600860205260405f2060018060a01b035f516020611fed5f395f51905f525416331415806116f6575b6116e757600701805460ff81166116d85760ff8160081c166116c95761ff0019166101001790557f416e669c63d9a3a5e36ee7cc7e2104b8db28ccd286aa18966e98fa230c73b08c5f80a2005b63029684ff60e61b5f5260045ffd5b6351618d5360e01b5f5260045ffd5b63ea8e4eb560e01b5f5260045ffd5b505f546001600160a01b031633141561167c565b50600754811161164c565b346102ed5760203660031901126102ed576020611733600435611d1a565b610ab16040518092611ad7565b346102ed575f3660031901126102ed576020600c54604051908152f35b346102ed5760203660031901126102ed576004355f52600960205260405f20805461178781611cea565b916117956040519384611c01565b81835260208301905f5260205f205f915b8383106117c35760405160208082528190610c9890820188611a49565b600460206001926040516117d681611bca565b848060a01b03865416815284860154838201526040516117fd816103658160028b01611b49565b604082015261181660ff60038801541660608301611d01565b8152019201920191906117a6565b346102ed5760203660031901126102ed5761183d6119ec565b611845611e26565b6001600160a01b0316801561189757600280546001600160a01b0319811683179091556001600160a01b03167fb8ed9bab5ad5186bb6cda3bac43ff4b637c4494961d1ee2a6a0c6408de71211b5f80a3005b63e6c4247b60e01b5f5260045ffd5b346102ed575f3660031901126102ed576020600e54604051908152f35b346102ed5760203660031901126102ed576118dc6119ec565b6118e4611e26565b5f80546001600160a01b039283166001600160a01b03198216811783559216907f52ae88b092de36f87fb43fe794eb1381023b9c1bce563a871154022c63dce3429080a3005b346102ed575f3660031901126102ed576020600d54604051908152f35b346102ed5760203660031901126102ed57610160906004355f52600860205260405f2080549060ff60018060a01b03600183015416600283015460038401546004850154600586015491600687015493600788015495600960088a0154990154998b5260208b015260408a01526060890152608088015260a087015260c0860152818116151560e086015260081c161515610100840152610120830152610140820152f35b600435906001600160a01b03821682036102ed57565b602435906001600160a01b03821682036102ed57565b805180835260209291819084018484015e5f828201840152601f01601f1916010190565b9060028210156103a25752565b9080602083519182815201916020808360051b8301019401925f915b838310611a7457505050505090565b9091929394602080600192601f19858203018652611ac8895191858060a01b0383511681528383015184820152606080611abd6040860151608060408601526080850190611a18565b940151910190611a3c565b97019301930191939290611a65565b9060068210156103a25752565b8054821015611afd575f5260205f209060021b01905f90565b634e487b7160e01b5f52603260045260245ffd5b90600182811c92168015611b3f575b6020831014611b2b57565b634e487b7160e01b5f52602260045260245ffd5b91607f1691611b20565b5f9291815491611b5883611b11565b8083529260018116908115611bad5750600114611b7457505050565b5f9081526020812093945091925b838310611b93575060209250010190565b600181602092949394548385870101520191019190611b82565b915050602093945060ff929192191683830152151560051b010190565b608081019081106001600160401b038211176108de57604052565b61016081019081106001600160401b038211176108de57604052565b90601f801991011681019081106001600160401b038211176108de57604052565b949391611c5893611c509160609360018060a01b031688526020880152608060408801526080870190611a18565b940190611a3c565b565b9181601f840112156102ed578235916001600160401b0383116102ed576020808501948460051b0101116102ed57565b81601f820112156102ed576020813591016001600160401b0382116108de5760405192611cc1601f8401601f191660200185611c01565b828452828201116102ed57815f92602092838601378301015290565b9060038210156103a25752565b6001600160401b0381116108de5760051b60200190565b60028210156103a25752565b9190820180921161094f57565b80158015611dd0575b610cfd575f52600860205260405f20600781015460ff8160081c16611dc95760ff16611dc35760028101544310611dbe576003810154431115611db857600481015490600581015490611d956009611d89611d7e8587611d0d565b600685015490611d0d565b920154600e5490611e59565b11159182611dae575b5050611da957600290565b600390565b1190505f80611d9e565b50600190565b505f90565b50600490565b5050600590565b506007548111611d23565b51906001600160a01b03821682036102ed57565b818110611dfa575050565b5f8155600101611def565b8051821015611afd5760209160051b010190565b5160028110156103a25790565b5f516020611fed5f395f51905f52546001600160a01b03163303611e4657565b63118cdaa760e01b5f523360045260245ffd5b9091905f905f198482099084810292838084109303928084039314611edc5782670de0b6b3a76400001115611eca57507faccb18165bd6fe31ae1cf318dc5b51eee0e1ba569b88cd74c1773b91fac106699394670de0b6b3a7640000910990828211900360ee1b910360121c170290565b634e487b71905260116020526024601cfd5b505050670de0b6b3a76400009192500490565b5f516020611fed5f395f51905f5280546001600160a01b039283166001600160a01b0319821681179092559091167f8be0079c531659141344cd1fd0a4f28419497f9722a3daafe3b4186f6b6457e05f80a3565b604080516001600160a01b0390921660208301908152828201939093528152919291611f70606082611c01565b5190206040516020810191825260208152611f8c604082611c01565b519020915f925b84841015611fd1578360051b830135908181105f14611fc0575f52602052600160405f205b930192611f93565b905f52602052600160405f20611fb8565b925092505003611fdd57565b63582f497d60e11b5f5260045ffdfe9016d09d72d40fdae2fd8ceac6b6234c7706214fd39c1cd1e609a0528c199300a2646970667358221220bc01deda63ae7d23f303ebd8129b44d707a9a4674871be53ddce26a94d546ad164736f6c634300081b0033","linkReferences":{}},"methodIdentifiers":{"QUORUM_RANGE()":"a120455c","avatar()":"5aef7de6","cancel(uint256)":"40e58ee5","castVote(uint256,uint8,uint256,bytes32[])":"a01ff54e","currentMerkleRoot()":"9ea97190","execute(uint256)":"fe0d94c1","getActions(uint256)":"328dd982","getProposal(uint256)":"c7f758a8","hasVoted(uint256,address)":"43859632","ipfsHash()":"c623674f","ipfsHashCid()":"9cb5bd9e","merkleSnapshotContract()":"a96ab06d","onMerkleUpdate((uint256,uint256,bytes32,bytes32,string,uint256))":"bbdce969","owner()":"8da5cb5b","proposalActions(uint256,uint256)":"56b9e4c5","proposalCount()":"da35c664","proposals(uint256)":"013cf08b","propose(address[],uint256[],bytes[],uint8[],string,uint256,bytes32[])":"e01d9c32","quorum()":"1703a018","renounceOwnership()":"715018a6","setAvatar(address)":"086cfca8","setMerkleSnapshotContract(address)":"1acc1ab0","setQuorum(uint256)":"c1ba4e59","setTarget(address)":"776d1a01","setUp(bytes)":"a4f9edbf","setVotingDelay(uint256)":"70b0f660","setVotingPeriod(uint256)":"ea0217cf","state(uint256)":"3e4f49e6","target()":"d4b83992","totalVotingPower()":"671b3793","transferOwnership(address)":"f2fde38b","votes(uint256,address)":"d23254b4","votingDelay()":"3932abb1","votingPeriod()":"02a251a3"},"id":77}