{"abi":[{"type":"constructor","inputs":[{"name":"owner_","type":"address","internalType":"address"},{"name":"merkleSnapshot_","type":"address","internalType":"address"},{"name":"feeRecipient_","type":"address","internalType":"address"},{"name":"feePercentage_","type":"uint256","internalType":"uint256"},{"name":"allowlistEnabled_","type":"bool","internalType":"bool"}],"stateMutability":"nonpayable"},{"type":"function","name":"FEE_RANGE","inputs":[],"outputs":[{"name":"","type":"uint64","internalType":"uint64"}],"stateMutability":"view"},{"type":"function","name":"acceptOwnership","inputs":[],"outputs":[],"stateMutability":"nonpayable"},{"type":"function","name":"allowlistEnabled","inputs":[],"outputs":[{"name":"","type":"bool","internalType":"bool"}],"stateMutability":"view"},{"type":"function","name":"claim","inputs":[{"name":"distributionIndex","type":"uint256","internalType":"uint256"},{"name":"account","type":"address","internalType":"address"},{"name":"value","type":"uint256","internalType":"uint256"},{"name":"proof","type":"bytes32[]","internalType":"bytes32[]"}],"outputs":[{"name":"claimedAmount","type":"uint256","internalType":"uint256"}],"stateMutability":"nonpayable"},{"type":"function","name":"claimed","inputs":[{"name":"distributionIndex","type":"uint256","internalType":"uint256"},{"name":"account","type":"address","internalType":"address"}],"outputs":[{"name":"amount","type":"uint256","internalType":"uint256"}],"stateMutability":"view"},{"type":"function","name":"distribute","inputs":[{"name":"token","type":"address","internalType":"address"},{"name":"amount","type":"uint256","internalType":"uint256"},{"name":"expectedRoot","type":"bytes32","internalType":"bytes32"}],"outputs":[{"name":"distributionIndex","type":"uint256","internalType":"uint256"}],"stateMutability":"payable"},{"type":"function","name":"distributions","inputs":[{"name":"","type":"uint256","internalType":"uint256"}],"outputs":[{"name":"blockNumber","type":"uint256","internalType":"uint256"},{"name":"timestamp","type":"uint256","internalType":"uint256"},{"name":"root","type":"bytes32","internalType":"bytes32"},{"name":"ipfsHash","type":"bytes32","internalType":"bytes32"},{"name":"ipfsHashCid","type":"string","internalType":"string"},{"name":"totalMerkleValue","type":"uint256","internalType":"uint256"},{"name":"distributor","type":"address","internalType":"address"},{"name":"token","type":"address","internalType":"address"},{"name":"amountFunded","type":"uint256","internalType":"uint256"},{"name":"amountDistributed","type":"uint256","internalType":"uint256"},{"name":"feeRecipient","type":"address","internalType":"address"},{"name":"feeAmount","type":"uint256","internalType":"uint256"}],"stateMutability":"view"},{"type":"function","name":"feePercentage","inputs":[],"outputs":[{"name":"","type":"uint256","internalType":"uint256"}],"stateMutability":"view"},{"type":"function","name":"feeRecipient","inputs":[],"outputs":[{"name":"","type":"address","internalType":"address"}],"stateMutability":"view"},{"type":"function","name":"getAllowlist","inputs":[],"outputs":[{"name":"","type":"address[]","internalType":"address[]"}],"stateMutability":"view"},{"type":"function","name":"getAllowlistAt","inputs":[{"name":"index","type":"uint256","internalType":"uint256"}],"outputs":[{"name":"","type":"address","internalType":"address"}],"stateMutability":"view"},{"type":"function","name":"getAllowlistLength","inputs":[],"outputs":[{"name":"","type":"uint256","internalType":"uint256"}],"stateMutability":"view"},{"type":"function","name":"getAllowlistPaginated","inputs":[{"name":"offset","type":"uint256","internalType":"uint256"},{"name":"limit","type":"uint256","internalType":"uint256"}],"outputs":[{"name":"","type":"address[]","internalType":"address[]"}],"stateMutability":"view"},{"type":"function","name":"getDistribution","inputs":[{"name":"distributionIndex","type":"uint256","internalType":"uint256"}],"outputs":[{"name":"","type":"tuple","internalType":"struct IMerkleFundDistributor.DistributionState","components":[{"name":"blockNumber","type":"uint256","internalType":"uint256"},{"name":"timestamp","type":"uint256","internalType":"uint256"},{"name":"root","type":"bytes32","internalType":"bytes32"},{"name":"ipfsHash","type":"bytes32","internalType":"bytes32"},{"name":"ipfsHashCid","type":"string","internalType":"string"},{"name":"totalMerkleValue","type":"uint256","internalType":"uint256"},{"name":"distributor","type":"address","internalType":"address"},{"name":"token","type":"address","internalType":"address"},{"name":"amountFunded","type":"uint256","internalType":"uint256"},{"name":"amountDistributed","type":"uint256","internalType":"uint256"},{"name":"feeRecipient","type":"address","internalType":"address"},{"name":"feeAmount","type":"uint256","internalType":"uint256"}]}],"stateMutability":"view"},{"type":"function","name":"getDistributionCount","inputs":[],"outputs":[{"name":"total","type":"uint256","internalType":"uint256"}],"stateMutability":"view"},{"type":"function","name":"getDistributions","inputs":[{"name":"offset","type":"uint256","internalType":"uint256"},{"name":"limit","type":"uint256","internalType":"uint256"}],"outputs":[{"name":"","type":"tuple[]","internalType":"struct IMerkleFundDistributor.DistributionState[]","components":[{"name":"blockNumber","type":"uint256","internalType":"uint256"},{"name":"timestamp","type":"uint256","internalType":"uint256"},{"name":"root","type":"bytes32","internalType":"bytes32"},{"name":"ipfsHash","type":"bytes32","internalType":"bytes32"},{"name":"ipfsHashCid","type":"string","internalType":"string"},{"name":"totalMerkleValue","type":"uint256","internalType":"uint256"},{"name":"distributor","type":"address","internalType":"address"},{"name":"token","type":"address","internalType":"address"},{"name":"amountFunded","type":"uint256","internalType":"uint256"},{"name":"amountDistributed","type":"uint256","internalType":"uint256"},{"name":"feeRecipient","type":"address","internalType":"address"},{"name":"feeAmount","type":"uint256","internalType":"uint256"}]}],"stateMutability":"view"},{"type":"function","name":"isAllowlisted","inputs":[{"name":"distributor","type":"address","internalType":"address"}],"outputs":[{"name":"","type":"bool","internalType":"bool"}],"stateMutability":"view"},{"type":"function","name":"merkleSnapshot","inputs":[],"outputs":[{"name":"","type":"address","internalType":"address"}],"stateMutability":"view"},{"type":"function","name":"owner","inputs":[],"outputs":[{"name":"","type":"address","internalType":"address"}],"stateMutability":"view"},{"type":"function","name":"pause","inputs":[],"outputs":[],"stateMutability":"nonpayable"},{"type":"function","name":"paused","inputs":[],"outputs":[{"name":"","type":"bool","internalType":"bool"}],"stateMutability":"view"},{"type":"function","name":"pendingOwner","inputs":[],"outputs":[{"name":"","type":"address","internalType":"address"}],"stateMutability":"view"},{"type":"function","name":"setAllowlistEnabled","inputs":[{"name":"allowlistEnabled_","type":"bool","internalType":"bool"}],"outputs":[],"stateMutability":"nonpayable"},{"type":"function","name":"setFeePercentage","inputs":[{"name":"newFeePercentage","type":"uint256","internalType":"uint256"}],"outputs":[],"stateMutability":"nonpayable"},{"type":"function","name":"setFeeRecipient","inputs":[{"name":"newFeeRecipient","type":"address","internalType":"address"}],"outputs":[],"stateMutability":"nonpayable"},{"type":"function","name":"setMerkleSnapshot","inputs":[{"name":"newMerkleSnapshot","type":"address","internalType":"address"}],"outputs":[],"stateMutability":"nonpayable"},{"type":"function","name":"transferOwnership","inputs":[{"name":"newOwner","type":"address","internalType":"address"}],"outputs":[],"stateMutability":"nonpayable"},{"type":"function","name":"unpause","inputs":[],"outputs":[],"stateMutability":"nonpayable"},{"type":"function","name":"updateDistributorAllowance","inputs":[{"name":"distributor","type":"address","internalType":"address"},{"name":"canDistribute_","type":"bool","internalType":"bool"}],"outputs":[],"stateMutability":"nonpayable"},{"type":"event","name":"Claimed","inputs":[{"name":"distributionIndex","type":"uint256","indexed":true,"internalType":"uint256"},{"name":"account","type":"address","indexed":true,"internalType":"address"},{"name":"token","type":"address","indexed":true,"internalType":"address"},{"name":"amount","type":"uint256","indexed":false,"internalType":"uint256"},{"name":"value","type":"uint256","indexed":false,"internalType":"uint256"},{"name":"newAmountDistributed","type":"uint256","indexed":false,"internalType":"uint256"}],"anonymous":false},{"type":"event","name":"Distributed","inputs":[{"name":"distributionIndex","type":"uint256","indexed":true,"internalType":"uint256"},{"name":"distributor","type":"address","indexed":true,"internalType":"address"},{"name":"token","type":"address","indexed":true,"internalType":"address"},{"name":"amountFunded","type":"uint256","indexed":false,"internalType":"uint256"},{"name":"feeAmount","type":"uint256","indexed":false,"internalType":"uint256"}],"anonymous":false},{"type":"event","name":"DistributorAllowanceUpdated","inputs":[{"name":"distributor","type":"address","indexed":true,"internalType":"address"},{"name":"canDistribute","type":"bool","indexed":true,"internalType":"bool"}],"anonymous":false},{"type":"event","name":"DistributorAllowlistUpdated","inputs":[{"name":"enabled","type":"bool","indexed":true,"internalType":"bool"}],"anonymous":false},{"type":"event","name":"FeePercentageSet","inputs":[{"name":"previousFeePercentage","type":"uint256","indexed":true,"internalType":"uint256"},{"name":"newFeePercentage","type":"uint256","indexed":true,"internalType":"uint256"}],"anonymous":false},{"type":"event","name":"FeeRecipientSet","inputs":[{"name":"previousFeeRecipient","type":"address","indexed":true,"internalType":"address"},{"name":"newFeeRecipient","type":"address","indexed":true,"internalType":"address"}],"anonymous":false},{"type":"event","name":"MerkleSnapshotUpdated","inputs":[{"name":"previousContract","type":"address","indexed":true,"internalType":"address"},{"name":"newContract","type":"address","indexed":true,"internalType":"address"}],"anonymous":false},{"type":"event","name":"OwnershipTransferStarted","inputs":[{"name":"pendingOwner","type":"address","indexed":true,"internalType":"address"}],"anonymous":false},{"type":"event","name":"OwnershipTransferred","inputs":[{"name":"previousOwner","type":"address","indexed":true,"internalType":"address"},{"name":"newOwner","type":"address","indexed":true,"internalType":"address"}],"anonymous":false},{"type":"event","name":"Paused","inputs":[{"name":"account","type":"address","indexed":false,"internalType":"address"}],"anonymous":false},{"type":"event","name":"Unpaused","inputs":[{"name":"account","type":"address","indexed":false,"internalType":"address"}],"anonymous":false},{"type":"error","name":"AlreadyClaimed","inputs":[]},{"type":"error","name":"CannotDistribute","inputs":[]},{"type":"error","name":"DistributionNotFound","inputs":[]},{"type":"error","name":"EnforcedPause","inputs":[]},{"type":"error","name":"ExpectedPause","inputs":[]},{"type":"error","name":"FailedToTransferFee","inputs":[{"name":"data","type":"bytes","internalType":"bytes"}]},{"type":"error","name":"FailedToTransferTokens","inputs":[{"name":"data","type":"bytes","internalType":"bytes"}]},{"type":"error","name":"FeePercentageTooHigh","inputs":[]},{"type":"error","name":"InvalidAddress","inputs":[]},{"type":"error","name":"InvalidMerkleProof","inputs":[]},{"type":"error","name":"InvalidMerkleState","inputs":[]},{"type":"error","name":"InvalidNativeTokenTransfer","inputs":[]},{"type":"error","name":"InvalidNativeTokenTransferAmount","inputs":[]},{"type":"error","name":"NoFundsToClaim","inputs":[]},{"type":"error","name":"NotOwner","inputs":[]},{"type":"error","name":"NotPendingOwner","inputs":[]},{"type":"error","name":"ReentrancyGuardReentrantCall","inputs":[]},{"type":"error","name":"SafeERC20FailedOperation","inputs":[{"name":"token","type":"address","internalType":"address"}]},{"type":"error","name":"UnexpectedMerkleRoot","inputs":[{"name":"expected","type":"bytes32","internalType":"bytes32"},{"name":"actual","type":"bytes32","internalType":"bytes32"}]}],"bytecode":{"object":"0x60803461023157601f611e4d38819003918201601f19168301916001600160401b038311848410176102355780849260a0946040528339810103126102315761004781610249565b61005360208301610249565b9161006060408201610249565b60806060830151920151928315158094036102315760015f55600280546001600160a01b031916339081179091556001600160a01b03919091169081036101ef575b506001600160a01b03841680156101e05760018054610100600160a81b03198116600897881b610100600160a81b031617909155604051951c6001600160a01b03167f290b5b697667cd09b02cb127b1373ddec2945c79dc93b89eb90ec95bbfd4a8205f80a36001600160a01b031680156101e057600480546001600160a01b0319811683179091556001600160a01b03167f15d80a013f22151bc7246e3bc132e12828cde19de98870475e3fa708401527215f80a3670de0b6b3a764000081116101d157600554816005557fa877b684a58e916e04f646f3112557d0e77a19efe4766f9438020e5821a131395f80a360ff196006541660ff8216176006557f8cfcfe73491d25685798989c7e3119522126c3438593e50e7d47bfd212b45e5f5f80a2611bef908161025e8239f35b635841c1b960e01b5f5260045ffd5b63e6c4247b60e01b5f5260045ffd5b80156101e057600380546001600160a01b031916821790557fd9be0e8e07417e00f2521db636cb53e316fd288f5051f16d2aa2bf0c3938a8765f80a25f6100a2565b5f80fd5b634e487b7160e01b5f52604160045260245ffd5b51906001600160a01b03821682036102315756fe60806040526004361015610011575f80fd5b5f3560e01c806305a3b80914611212578063120aa877146111ce578063147a7a5b1461115157806316166241146110b75780632e7ba6ef14610dfe5780633b345a8714610db95780633f4ba83a14610d4957806342c9160514610d2c5780634487d3df14610c4b5780634690484014610c2357806349891e9914610bec57806354dcb7b914610b5c5780635c975abb14610b3a57806364d042f014610b1d5780636cf9e2f214610af157806379ba509714610a735780638456cb5914610a115780638da5cb5b146109e957806394c8e4ff146109c7578063a001ecdd146109aa578063ae06c1b714610938578063c5eff3d0146108c4578063d7644ba21461085f578063e30c397814610837578063e39f06bd146102b5578063e74b981b14610238578063e7a96ca11461020e578063f2fde38b1461017e5763fbde47f614610158575f80fd5b3461017a575f36600319011261017a576020604051670de0b6b3a76400008152f35b5f80fd5b3461017a57602036600319011261017a57610197611254565b6002546001600160a01b031633036101ff576001600160a01b031680156101f057600380546001600160a01b031916821790557fd9be0e8e07417e00f2521db636cb53e316fd288f5051f16d2aa2bf0c3938a8765f80a2005b63e6c4247b60e01b5f5260045ffd5b6330cd747160e01b5f5260045ffd5b3461017a5761023461022861022236611280565b90611782565b604051918291826114a6565b0390f35b3461017a57602036600319011261017a57610251611254565b6002546001600160a01b031633036101ff576001600160a01b031680156101f057600480546001600160a01b0319811683179091556001600160a01b03167f15d80a013f22151bc7246e3bc132e12828cde19de98870475e3fa708401527215f80a3005b606036600319011261017a576102c9611254565b6024359060443560ff600654168061081b575b61080c576004926102eb611841565b6102f361185f565b6001546040516305b209d760e31b8152945f91869190829060081c6001600160a01b03165afa938415610801575f94610716575b506040840191825115801561070a575b6106fb57801515806106f0575b6106d857506103556005548261187a565b938460095494859451908460608501519160a060808701519601519360018060a01b03600454169460405197889561038c876113c7565b438752602087019342855260408801908152606088019182526080880192835260a0880193845260c0880194338652600160401b60e08a019760018060a01b03169e8f89526101008b01998a526101606101208c019b5f8d5261014081019d8e52019c8d5210156106b1576104078f6001810160095561135f565b9c909c6106c557518c555160018c01555160028b01555160038a015551805160048a019167ffffffffffffffff82116106b157610444835461138f565b601f811161066c575b50602090601f83116001146105ff57600b9a9998979695949392915f91836105f4575b50508160011b915f199060031b1c19161790555b516005890155516006880180546001600160a01b039283166001600160a01b031991821617909155915160078901805491831691841691909117905591516008880155915160098701559151600a86018054919093169116179055519101558161058757803403610578575f8080808760018060a01b03600454165af19361050a611753565b941561055257602094505b60405191825284820152827f6b4c9c70a653efa82eeee564c5938294bb39a053f240e8b1e9da72490424fcca60403393a460015f55604051908152f35b604051634322d6f760e01b815260206004820152806105746024820188611296565b0390fd5b63136a0a1960e01b5f5260045ffd5b346105e5576020936105c86040516323b872dd60e01b87820152336024820152306044820152836064820152606481526105c26084826113e4565b84611b61565b6004546105e09082906001600160a01b0316856119c3565b610515565b630390ad5760e21b5f5260045ffd5b015190505f80610470565b90601f19831691845f52815f20925f5b8181106106545750916001939185600b9e9d9c9b9a99989796941061063c575b505050811b019055610484565b01515f1960f88460031b161c191690555f808061062f565b9293602060018192878601518155019501930161060f565b835f5260205f20601f840160051c810191602085106106a7575b601f0160051c01905b81811061069c575061044d565b5f815560010161068f565b9091508190610686565b634e487b7160e01b5f52604160045260245ffd5b634e487b7160e01b5f525f60045260245ffd5b8251906305973d0b60e01b5f5260045260245260445ffd5b508083511415610344565b6352e8439560e11b5f5260045ffd5b5060a085015115610337565b9093503d805f833e61072881836113e4565b81019060208183031261017a5780519067ffffffffffffffff821161017a57019060c08282031261017a576040519160c0830183811067ffffffffffffffff8211176106b15760405280518352602081015160208401526040810151604084015260608101516060840152608081015167ffffffffffffffff811161017a5781019180601f8401121561017a5782516107c081611737565b916107ce60405193846113e4565b8183526020828601011161017a576020815f928260a097018386015e830101526080840152015160a08201529284610327565b6040513d5f823e3d90fd5b6351e624a760e01b5f5260045ffd5b50610831335f52600860205260405f2054151590565b156102dc565b3461017a575f36600319011261017a576003546040516001600160a01b039091168152602090f35b3461017a57602036600319011261017a5760043580151580910361017a576002546001600160a01b031633036101ff5760ff196006541660ff8216176006557f8cfcfe73491d25685798989c7e3119522126c3438593e50e7d47bfd212b45e5f5f80a2005b3461017a575f36600319011261017a5760405180602060075491828152019060075f527fa66cc928b5edb82af9bd49922954155ab7b0942694bea4ce44661d9a8736c688905f5b8181106109225761023485610228818703826113e4565b825484526020909301926001928301920161090b565b3461017a57602036600319011261017a57600254600435906001600160a01b031633036101ff57670de0b6b3a7640000811161099b57600554816005557fa877b684a58e916e04f646f3112557d0e77a19efe4766f9438020e5821a131395f80a3005b635841c1b960e01b5f5260045ffd5b3461017a575f36600319011261017a576020600554604051908152f35b3461017a575f36600319011261017a57602060ff600654166040519015158152f35b3461017a575f36600319011261017a576002546040516001600160a01b039091168152602090f35b3461017a575f36600319011261017a576002546001600160a01b031633036101ff57610a3b61185f565b600160ff19815416176001557f62e78cea01bee320cd4e420270b5ea74000d11b0c9f74754ebdbfc544b05a2586020604051338152a1005b3461017a575f36600319011261017a576003546001600160a01b0381163303610ae25760028054336001600160a01b03198083168217909355929091166003556001600160a01b03167f8be0079c531659141344cd1fd0a4f28419497f9722a3daafe3b4186f6b6457e05f80a3005b630614e5c760e21b5f5260045ffd5b3461017a575f36600319011261017a5760015460405160089190911c6001600160a01b03168152602090f35b3461017a575f36600319011261017a576020600754604051908152f35b3461017a575f36600319011261017a57602060ff600154166040519015158152f35b3461017a57602036600319011261017a57610b75611254565b6002546001600160a01b031633036101ff576001600160a01b0381169081156101f05760018054610100600160a81b03198116600893841b610100600160a81b031617909155901c6001600160a01b03167f290b5b697667cd09b02cb127b1373ddec2945c79dc93b89eb90ec95bbfd4a8205f80a3005b3461017a57602036600319011261017a576020610c0a600435611a04565b905460405160039290921b1c6001600160a01b03168152f35b3461017a575f36600319011261017a576004546040516001600160a01b039091168152602090f35b3461017a57602036600319011261017a5760043560095481101561017a57610c729061135f565b5080546001820154916002810154600382015491610c9260048201611406565b9260058201549360018060a01b0360068401541660018060a01b0360078501541690610d00600886015493600987015495600b60018060a01b03600a8a015416980154986040519c8d9c8d5260208d015260408c015260608b015261018060808b01526101808a0190611296565b9660a089015260c088015260e08701526101008601526101208501526101408401526101608301520390f35b3461017a575f36600319011261017a576020600954604051908152f35b3461017a575f36600319011261017a576002546001600160a01b031633036101ff5760015460ff811615610daa5760ff19166001557f5db9ee0a495bf2e6ff9c91a7834c1ba4fdd244a5e8aa4e537bd38aeae4b073aa6020604051338152a1005b638dfc202b60e01b5f5260045ffd5b3461017a57602036600319011261017a57610dd2611500565b50610234610dea610de460043561135f565b5061159b565b6040519182916020835260208301906112ba565b3461017a57608036600319011261017a57600435610e1a61126a565b60643560443567ffffffffffffffff821161017a573660238301121561017a5781600401359267ffffffffffffffff841161017a573660248560051b8501011161017a57610e66611841565b610e6e61185f565b6009548510156110a8576001600160a01b03811680156101f057610e918661135f565b509060028201549687156110a857805f52600a60205260405f20825f5260205260405f205461109957604080516001600160a01b03861660208201908152818301889052918152610ee36060826113e4565b5190206040516020810191825260208152610eff6040826113e4565b519020975f985b888a1015610f475760248a60051b89010135908181105f14610f36575f52602052600160405f205b990198610f06565b905f52602052600160405f20610f2e565b0361108a57610f6e610f626008850154600b8601549061157a565b86600586015491611910565b93841561107b57815f52600a60205260405f20835f526020528460405f205560076009850194610f9f878754611559565b86550180549091906001600160a01b0316806110445750505f80808088875af1610fc7611753565b901561101f575060606020967f6136a6298c86cc8d4fd3717b16d543676c6fb93443967e03ef4daf52a6beabd5925b60018060a01b03905416955460405191888352898301526040820152a460015f55604051908152f35b604051631fd027f560e21b815260206004820152908190610574906024830190611296565b967f6136a6298c86cc8d4fd3717b16d543676c6fb93443967e03ef4daf52a6beabd5926110768860609460209b6119c3565b610ff6565b63dff46e2b60e01b5f5260045ffd5b63582f497d60e11b5f5260045ffd5b630c8d9eab60e31b5f5260045ffd5b633a35c2f960e01b5f5260045ffd5b3461017a57604036600319011261017a576110d0611254565b602435908115159182810361017a576002546001600160a01b031633036101ff5715611139576111086001600160a01b038216611b0c565b505b6001600160a01b03167f16ff14c1e52259396616f29c1de4d47a156f71aad6c16d756f3475db37187a3a5f80a3005b61114b6001600160a01b038216611a31565b5061110a565b3461017a5761116861116236611280565b90611636565b6040518091602082016020835281518091526040830190602060408260051b8601019301915f905b82821061119f57505050500390f35b919360019193955060206111be8192603f198a820301865288516112ba565b9601920192018594939192611190565b3461017a57604036600319011261017a576111e761126a565b6004355f52600a60205260405f209060018060a01b03165f52602052602060405f2054604051908152f35b3461017a57602036600319011261017a57602061124a6001600160a01b03611238611254565b165f52600860205260405f2054151590565b6040519015158152f35b600435906001600160a01b038216820361017a57565b602435906001600160a01b038216820361017a57565b604090600319011261017a576004359060243590565b805180835260209291819084018484015e5f828201840152601f01601f1916010190565b9081518152602082015160208201526040820151604082015260608201516060820152610160806112fc60808501516101806080860152610180850190611296565b9360a081015160a085015260018060a01b0360c08201511660c085015260018060a01b0360e08201511660e085015261010081015161010085015261012081015161012085015260018060a01b0361014082015116610140850152015191015290565b60095481101561137b5760095f52600c60205f20910201905f90565b634e487b7160e01b5f52603260045260245ffd5b90600182811c921680156113bd575b60208310146113a957565b634e487b7160e01b5f52602260045260245ffd5b91607f169161139e565b610180810190811067ffffffffffffffff8211176106b157604052565b90601f8019910116810190811067ffffffffffffffff8211176106b157604052565b9060405191825f8254926114198461138f565b80845293600181169081156114845750600114611440575b5061143e925003836113e4565b565b90505f9291925260205f20905f915b81831061146857505090602061143e928201015f611431565b602091935080600191548385890101520191019091849261144f565b90506020925061143e94915060ff191682840152151560051b8201015f611431565b60206040818301928281528451809452019201905f5b8181106114c95750505090565b82516001600160a01b03168452602093840193909201916001016114bc565b67ffffffffffffffff81116106b15760051b60200190565b6040519061150d826113c7565b5f61016083828152826020820152826040820152826060820152606060808201528260a08201528260c08201528260e08201528261010082015282610120820152826101408201520152565b9190820180921161156657565b634e487b7160e01b5f52601160045260245ffd5b9190820391821161156657565b805182101561137b5760209160051b010190565b906040516115a8816113c7565b610160600b8294805484526001810154602085015260028101546040850152600381015460608501526115dd60048201611406565b6080850152600581015460a085015260068101546001600160a01b0390811660c08601526007820154811660e086015260088201546101008601526009820154610120860152600a820154166101408501520154910152565b9060095490818310156116fd5761164d9083611559565b908082116116f5575b50611661828261157a565b9161166b836114e8565b9261167960405194856113e4565b808452611688601f19916114e8565b015f5b8181106116de575050805b8281106116a35750505090565b806116d76116b260019361135f565b506116c66116c0868561157a565b9161159b565b6116d08289611587565b5286611587565b5001611696565b6020906116e9611500565b8282880101520161168b565b90505f611656565b50505060405161170e6020826113e4565b5f81525f805b81811061172057505090565b60209061172b611500565b82828601015201611714565b67ffffffffffffffff81116106b157601f01601f191660200190565b3d1561177d573d9061176482611737565b9161177260405193846113e4565b82523d5f602084013e565b606090565b906007549081831015611826576117999083611559565b9080821161181e575b506117ad828261157a565b916117b7836114e8565b926117c560405194856113e4565b8084526117d4601f19916114e8565b01366020850137805b8281106117ea5750505090565b806117f6600192611a04565b838060a01b0391549060031b1c16611817611811858461157a565b87611587565b52016117dd565b90505f6117a2565b5050506040516118376020826113e4565b5f81525f36813790565b60025f54146118505760025f55565b633ee5aeb560e01b5f5260045ffd5b60ff6001541661186b57565b63d93c066560e01b5f5260045ffd5b9091905f905f1984820990848102928380841093039280840393146118fd5782670de0b6b3a764000011156118eb57507faccb18165bd6fe31ae1cf318dc5b51eee0e1ba569b88cd74c1773b91fac106699394670de0b6b3a7640000910990828211900360ee1b910360121c170290565b634e487b71905260116020526024601cfd5b505050670de0b6b3a76400009192500490565b90915f1983830992808302928380861095039480860395146119a157848311156119895790829109815f0382168092046002816003021880820260020302808202600203028082026002030280820260020302808202600203028091026002030293600183805f03040190848311900302920304170290565b82634e487b715f52156003026011186020526024601cfd5b5050809250156119af570490565b634e487b7160e01b5f52601260045260245ffd5b60405163a9059cbb60e01b60208201526001600160a01b0392909216602483015260448083019390935291815261143e916119ff6064836113e4565b611b61565b60075481101561137b5760075f5260205f2001905f90565b805482101561137b575f5260205f2001905f90565b5f818152600860205260409020548015611b06575f198101818111611566576007545f1981019190821161156657818103611ab8575b5050506007548015611aa4575f1901611a81816007611a1c565b8154905f199060031b1b191690556007555f5260086020525f6040812055600190565b634e487b7160e01b5f52603160045260245ffd5b611af0611ac9611ada936007611a1c565b90549060031b1c9283926007611a1c565b819391549060031b91821b915f19901b19161790565b90555f52600860205260405f20555f8080611a67565b50505f90565b805f52600860205260405f2054155f14611b5c57600754600160401b8110156106b157611b45611ada8260018594016007556007611a1c565b9055600754905f52600860205260405f2055600190565b505f90565b905f602091828151910182855af115610801575f513d611bb057506001600160a01b0381163b155b611b905750565b635274afe760e01b5f9081526001600160a01b0391909116600452602490fd5b60011415611b8956fea2646970667358221220eab359e572d4446fd706042168d782a07c3566fa30b4e2d5cf6f791bb8586c0364736f6c634300081b0033","linkReferences":{}},"methodIdentifiers":{"FEE_RANGE()":"fbde47f6","acceptOwnership()":"79ba5097","allowlistEnabled()":"94c8e4ff","claim(uint256,address,uint256,bytes32[])":"2e7ba6ef","claimed(uint256,address)":"120aa877","distribute(address,uint256,bytes32)":"e39f06bd","distributions(uint256)":"4487d3df","feePercentage()":"a001ecdd","feeRecipient()":"46904840","getAllowlist()":"c5eff3d0","getAllowlistAt(uint256)":"49891e99","getAllowlistLength()":"64d042f0","getAllowlistPaginated(uint256,uint256)":"e7a96ca1","getDistribution(uint256)":"3b345a87","getDistributionCount()":"42c91605","getDistributions(uint256,uint256)":"147a7a5b","isAllowlisted(address)":"05a3b809","merkleSnapshot()":"6cf9e2f2","owner()":"8da5cb5b","pause()":"8456cb59","paused()":"5c975abb","pendingOwner()":"e30c3978","setAllowlistEnabled(bool)":"d7644ba2","setFeePercentage(uint256)":"ae06c1b7","setFeeRecipient(address)":"e74b981b","setMerkleSnapshot(address)":"54dcb7b9","transferOwnership(address)":"f2fde38b","unpause()":"3f4ba83a","updateDistributorAllowance(address,bool)":"16166241"},"id":40}