{"abi":[{"type":"constructor","inputs":[{"name":"_owner","type":"address","internalType":"address"},{"name":"_avatar","type":"address","internalType":"address"},{"name":"_target","type":"address","internalType":"address"},{"name":"_merkleSnapshot","type":"address","internalType":"address"}],"stateMutability":"nonpayable"},{"type":"function","name":"QUORUM_RANGE","inputs":[],"outputs":[{"name":"","type":"uint256","internalType":"uint256"}],"stateMutability":"view"},{"type":"function","name":"avatar","inputs":[],"outputs":[{"name":"","type":"address","internalType":"address"}],"stateMutability":"view"},{"type":"function","name":"cancel","inputs":[{"name":"proposalId","type":"uint256","internalType":"uint256"}],"outputs":[],"stateMutability":"nonpayable"},{"type":"function","name":"castVote","inputs":[{"name":"proposalId","type":"uint256","internalType":"uint256"},{"name":"voteType","type":"uint8","internalType":"enum MerkleGovModule.VoteType"},{"name":"votingPower","type":"uint256","internalType":"uint256"},{"name":"proof","type":"bytes32[]","internalType":"bytes32[]"}],"outputs":[],"stateMutability":"nonpayable"},{"type":"function","name":"currentMerkleRoot","inputs":[],"outputs":[{"name":"","type":"bytes32","internalType":"bytes32"}],"stateMutability":"view"},{"type":"function","name":"execute","inputs":[{"name":"proposalId","type":"uint256","internalType":"uint256"}],"outputs":[],"stateMutability":"nonpayable"},{"type":"function","name":"getActions","inputs":[{"name":"proposalId","type":"uint256","internalType":"uint256"}],"outputs":[{"name":"","type":"tuple[]","internalType":"struct MerkleGovModule.ProposalAction[]","components":[{"name":"target","type":"address","internalType":"address"},{"name":"value","type":"uint256","internalType":"uint256"},{"name":"data","type":"bytes","internalType":"bytes"},{"name":"operation","type":"uint8","internalType":"enum Operation"},{"name":"description","type":"string","internalType":"string"}]}],"stateMutability":"view"},{"type":"function","name":"getProposal","inputs":[{"name":"proposalId","type":"uint256","internalType":"uint256"}],"outputs":[{"name":"proposal","type":"tuple","internalType":"struct MerkleGovModule.Proposal","components":[{"name":"id","type":"uint256","internalType":"uint256"},{"name":"proposer","type":"address","internalType":"address"},{"name":"title","type":"string","internalType":"string"},{"name":"description","type":"string","internalType":"string"},{"name":"startBlock","type":"uint256","internalType":"uint256"},{"name":"endBlock","type":"uint256","internalType":"uint256"},{"name":"yesVotes","type":"uint256","internalType":"uint256"},{"name":"noVotes","type":"uint256","internalType":"uint256"},{"name":"abstainVotes","type":"uint256","internalType":"uint256"},{"name":"executed","type":"bool","internalType":"bool"},{"name":"cancelled","type":"bool","internalType":"bool"},{"name":"merkleRoot","type":"bytes32","internalType":"bytes32"},{"name":"totalVotingPower","type":"uint256","internalType":"uint256"}]},{"name":"proposalState","type":"uint8","internalType":"enum MerkleGovModule.ProposalState"},{"name":"actions","type":"tuple[]","internalType":"struct MerkleGovModule.ProposalAction[]","components":[{"name":"target","type":"address","internalType":"address"},{"name":"value","type":"uint256","internalType":"uint256"},{"name":"data","type":"bytes","internalType":"bytes"},{"name":"operation","type":"uint8","internalType":"enum Operation"},{"name":"description","type":"string","internalType":"string"}]}],"stateMutability":"view"},{"type":"function","name":"hasVoted","inputs":[{"name":"proposalId","type":"uint256","internalType":"uint256"},{"name":"voter","type":"address","internalType":"address"}],"outputs":[{"name":"","type":"bool","internalType":"bool"}],"stateMutability":"view"},{"type":"function","name":"ipfsHash","inputs":[],"outputs":[{"name":"","type":"bytes32","internalType":"bytes32"}],"stateMutability":"view"},{"type":"function","name":"ipfsHashCid","inputs":[],"outputs":[{"name":"","type":"string","internalType":"string"}],"stateMutability":"view"},{"type":"function","name":"merkleSnapshotContract","inputs":[],"outputs":[{"name":"","type":"address","internalType":"address"}],"stateMutability":"view"},{"type":"function","name":"onMerkleUpdate","inputs":[{"name":"state_","type":"tuple","internalType":"struct IMerkleSnapshot.MerkleState","components":[{"name":"blockNumber","type":"uint256","internalType":"uint256"},{"name":"timestamp","type":"uint256","internalType":"uint256"},{"name":"root","type":"bytes32","internalType":"bytes32"},{"name":"ipfsHash","type":"bytes32","internalType":"bytes32"},{"name":"ipfsHashCid","type":"string","internalType":"string"},{"name":"totalValue","type":"uint256","internalType":"uint256"}]}],"outputs":[],"stateMutability":"nonpayable"},{"type":"function","name":"owner","inputs":[],"outputs":[{"name":"","type":"address","internalType":"address"}],"stateMutability":"view"},{"type":"function","name":"proposalActions","inputs":[{"name":"","type":"uint256","internalType":"uint256"},{"name":"","type":"uint256","internalType":"uint256"}],"outputs":[{"name":"target","type":"address","internalType":"address"},{"name":"value","type":"uint256","internalType":"uint256"},{"name":"data","type":"bytes","internalType":"bytes"},{"name":"operation","type":"uint8","internalType":"enum Operation"},{"name":"description","type":"string","internalType":"string"}],"stateMutability":"view"},{"type":"function","name":"proposalCount","inputs":[],"outputs":[{"name":"","type":"uint256","internalType":"uint256"}],"stateMutability":"view"},{"type":"function","name":"proposals","inputs":[{"name":"","type":"uint256","internalType":"uint256"}],"outputs":[{"name":"id","type":"uint256","internalType":"uint256"},{"name":"proposer","type":"address","internalType":"address"},{"name":"title","type":"string","internalType":"string"},{"name":"description","type":"string","internalType":"string"},{"name":"startBlock","type":"uint256","internalType":"uint256"},{"name":"endBlock","type":"uint256","internalType":"uint256"},{"name":"yesVotes","type":"uint256","internalType":"uint256"},{"name":"noVotes","type":"uint256","internalType":"uint256"},{"name":"abstainVotes","type":"uint256","internalType":"uint256"},{"name":"executed","type":"bool","internalType":"bool"},{"name":"cancelled","type":"bool","internalType":"bool"},{"name":"merkleRoot","type":"bytes32","internalType":"bytes32"},{"name":"totalVotingPower","type":"uint256","internalType":"uint256"}],"stateMutability":"view"},{"type":"function","name":"propose","inputs":[{"name":"title","type":"string","internalType":"string"},{"name":"description","type":"string","internalType":"string"},{"name":"targets","type":"address[]","internalType":"address[]"},{"name":"values","type":"uint256[]","internalType":"uint256[]"},{"name":"calldatas","type":"bytes[]","internalType":"bytes[]"},{"name":"operations","type":"uint8[]","internalType":"enum Operation[]"},{"name":"actionDescriptions","type":"string[]","internalType":"string[]"},{"name":"votingPower","type":"uint256","internalType":"uint256"},{"name":"proof","type":"bytes32[]","internalType":"bytes32[]"}],"outputs":[{"name":"proposalId","type":"uint256","internalType":"uint256"}],"stateMutability":"nonpayable"},{"type":"function","name":"proposeWithVote","inputs":[{"name":"title","type":"string","internalType":"string"},{"name":"description","type":"string","internalType":"string"},{"name":"targets","type":"address[]","internalType":"address[]"},{"name":"values","type":"uint256[]","internalType":"uint256[]"},{"name":"calldatas","type":"bytes[]","internalType":"bytes[]"},{"name":"operations","type":"uint8[]","internalType":"enum Operation[]"},{"name":"actionDescriptions","type":"string[]","internalType":"string[]"},{"name":"votingPower","type":"uint256","internalType":"uint256"},{"name":"proof","type":"bytes32[]","internalType":"bytes32[]"},{"name":"voteType","type":"uint8","internalType":"enum MerkleGovModule.VoteType"}],"outputs":[{"name":"proposalId","type":"uint256","internalType":"uint256"}],"stateMutability":"nonpayable"},{"type":"function","name":"quorum","inputs":[],"outputs":[{"name":"","type":"uint256","internalType":"uint256"}],"stateMutability":"view"},{"type":"function","name":"renounceOwnership","inputs":[],"outputs":[],"stateMutability":"nonpayable"},{"type":"function","name":"setAvatar","inputs":[{"name":"_avatar","type":"address","internalType":"address"}],"outputs":[],"stateMutability":"nonpayable"},{"type":"function","name":"setMerkleSnapshotContract","inputs":[{"name":"newContract","type":"address","internalType":"address"}],"outputs":[],"stateMutability":"nonpayable"},{"type":"function","name":"setQuorum","inputs":[{"name":"newQuorum","type":"uint256","internalType":"uint256"}],"outputs":[],"stateMutability":"nonpayable"},{"type":"function","name":"setTarget","inputs":[{"name":"_target","type":"address","internalType":"address"}],"outputs":[],"stateMutability":"nonpayable"},{"type":"function","name":"setUp","inputs":[{"name":"initializeParams","type":"bytes","internalType":"bytes"}],"outputs":[],"stateMutability":"nonpayable"},{"type":"function","name":"setVotingDelay","inputs":[{"name":"newDelay","type":"uint256","internalType":"uint256"}],"outputs":[],"stateMutability":"nonpayable"},{"type":"function","name":"setVotingPeriod","inputs":[{"name":"newPeriod","type":"uint256","internalType":"uint256"}],"outputs":[],"stateMutability":"nonpayable"},{"type":"function","name":"state","inputs":[{"name":"proposalId","type":"uint256","internalType":"uint256"}],"outputs":[{"name":"","type":"uint8","internalType":"enum MerkleGovModule.ProposalState"}],"stateMutability":"view"},{"type":"function","name":"target","inputs":[],"outputs":[{"name":"","type":"address","internalType":"address"}],"stateMutability":"view"},{"type":"function","name":"totalVotingPower","inputs":[],"outputs":[{"name":"","type":"uint256","internalType":"uint256"}],"stateMutability":"view"},{"type":"function","name":"transferOwnership","inputs":[{"name":"newOwner","type":"address","internalType":"address"}],"outputs":[],"stateMutability":"nonpayable"},{"type":"function","name":"votes","inputs":[{"name":"proposalId","type":"uint256","internalType":"uint256"},{"name":"voter","type":"address","internalType":"address"}],"outputs":[{"name":"","type":"uint8","internalType":"enum MerkleGovModule.VoteType"}],"stateMutability":"view"},{"type":"function","name":"votingDelay","inputs":[],"outputs":[{"name":"","type":"uint256","internalType":"uint256"}],"stateMutability":"view"},{"type":"function","name":"votingPeriod","inputs":[],"outputs":[{"name":"","type":"uint256","internalType":"uint256"}],"stateMutability":"view"},{"type":"event","name":"AvatarSet","inputs":[{"name":"previousAvatar","type":"address","indexed":true,"internalType":"address"},{"name":"newAvatar","type":"address","indexed":true,"internalType":"address"}],"anonymous":false},{"type":"event","name":"Initialized","inputs":[{"name":"version","type":"uint64","indexed":false,"internalType":"uint64"}],"anonymous":false},{"type":"event","name":"MerkleRootUpdated","inputs":[{"name":"root","type":"bytes32","indexed":true,"internalType":"bytes32"},{"name":"ipfsHash","type":"bytes32","indexed":false,"internalType":"bytes32"},{"name":"ipfsHashCid","type":"string","indexed":false,"internalType":"string"},{"name":"totalValue","type":"uint256","indexed":false,"internalType":"uint256"}],"anonymous":false},{"type":"event","name":"MerkleSnapshotContractUpdated","inputs":[{"name":"previousContract","type":"address","indexed":true,"internalType":"address"},{"name":"newContract","type":"address","indexed":true,"internalType":"address"}],"anonymous":false},{"type":"event","name":"OwnershipTransferred","inputs":[{"name":"previousOwner","type":"address","indexed":true,"internalType":"address"},{"name":"newOwner","type":"address","indexed":true,"internalType":"address"}],"anonymous":false},{"type":"event","name":"ProposalCancelled","inputs":[{"name":"proposalId","type":"uint256","indexed":true,"internalType":"uint256"}],"anonymous":false},{"type":"event","name":"ProposalCreated","inputs":[{"name":"proposalId","type":"uint256","indexed":true,"internalType":"uint256"},{"name":"proposer","type":"address","indexed":true,"internalType":"address"},{"name":"title","type":"string","indexed":false,"internalType":"string"},{"name":"description","type":"string","indexed":false,"internalType":"string"},{"name":"startBlock","type":"uint256","indexed":false,"internalType":"uint256"},{"name":"endBlock","type":"uint256","indexed":false,"internalType":"uint256"},{"name":"merkleRoot","type":"bytes32","indexed":false,"internalType":"bytes32"},{"name":"totalVotingPower","type":"uint256","indexed":false,"internalType":"uint256"}],"anonymous":false},{"type":"event","name":"ProposalExecuted","inputs":[{"name":"proposalId","type":"uint256","indexed":true,"internalType":"uint256"}],"anonymous":false},{"type":"event","name":"QuorumUpdated","inputs":[{"name":"newQuorum","type":"uint256","indexed":false,"internalType":"uint256"}],"anonymous":false},{"type":"event","name":"TargetSet","inputs":[{"name":"previousTarget","type":"address","indexed":true,"internalType":"address"},{"name":"newTarget","type":"address","indexed":true,"internalType":"address"}],"anonymous":false},{"type":"event","name":"VoteCast","inputs":[{"name":"voter","type":"address","indexed":true,"internalType":"address"},{"name":"proposalId","type":"uint256","indexed":true,"internalType":"uint256"},{"name":"voteType","type":"uint8","indexed":false,"internalType":"enum MerkleGovModule.VoteType"},{"name":"votingPower","type":"uint256","indexed":false,"internalType":"uint256"}],"anonymous":false},{"type":"event","name":"VotingDelayUpdated","inputs":[{"name":"newDelay","type":"uint256","indexed":false,"internalType":"uint256"}],"anonymous":false},{"type":"event","name":"VotingPeriodUpdated","inputs":[{"name":"newPeriod","type":"uint256","indexed":false,"internalType":"uint256"}],"anonymous":false},{"type":"error","name":"AlreadyInitialized","inputs":[]},{"type":"error","name":"AlreadyVoted","inputs":[]},{"type":"error","name":"InvalidAddress","inputs":[]},{"type":"error","name":"InvalidInitialization","inputs":[]},{"type":"error","name":"InvalidMerkleProof","inputs":[]},{"type":"error","name":"InvalidProposalData","inputs":[]},{"type":"error","name":"InvalidQuorum","inputs":[]},{"type":"error","name":"InvalidTotalVotingPower","inputs":[]},{"type":"error","name":"InvalidVotingPeriod","inputs":[]},{"type":"error","name":"NoMerkleRootSet","inputs":[]},{"type":"error","name":"NotAuthorized","inputs":[]},{"type":"error","name":"NotInitializing","inputs":[]},{"type":"error","name":"OnlyMerkleSnapshot","inputs":[]},{"type":"error","name":"OwnableInvalidOwner","inputs":[{"name":"owner","type":"address","internalType":"address"}]},{"type":"error","name":"OwnableUnauthorizedAccount","inputs":[{"name":"account","type":"address","internalType":"address"}]},{"type":"error","name":"ProposalAlreadyCancelled","inputs":[]},{"type":"error","name":"ProposalAlreadyExecuted","inputs":[]},{"type":"error","name":"ProposalNotFound","inputs":[]},{"type":"error","name":"ProposalNotPassed","inputs":[]},{"type":"error","name":"VotingClosed","inputs":[]}],"bytecode":{"object":"0x6080806040523461049a57608081612f1e803803809161001f82856104bb565b83398101031261049a57610032816104de565b9061003f602082016104de565b906100586060610051604084016104de565b92016104de565b916001600c5561c4e0600d55668e1bc9bf040000600e55600f5460ff81166104ad5760ff1916600117600f557f9016d09d72d40fdae2fd8ceac6b6234c7706214fd39c1cd1e609a0528c19930080546001600160a01b031981166001600160a01b0396871690811790925560405195167f8be0079c531659141344cd1fd0a4f28419497f9722a3daafe3b4186f6b6457e05f80a35f80546001600160a01b03199081166001600160a01b0393841617909155600180549091169282169290921790915516801561049e57600280546001600160a01b0319811683179091556305b209d760e31b8352915f81600481855afa5f91816103b3575b5061027757503d15610270573d610167816104f2565b9061017560405192836104bb565b81523d5f602083013e5b805190600482148061021c575b156102175750505f6003555f6004556101a660055461050d565b601f81116101f6575b505f6005555f6006555b604051916001600160a01b03167fb8ed9bab5ad5186bb6cda3bac43ff4b637c4494961d1ee2a6a0c6408de71211b5f80a36129c2908161055c8239f35b6102119060055f52601f60205f20910160051c810190610545565b5f6101af565b602001fd5b5060208101516001600160e01b031981169060048410610250575b506001600160e01b031916633b02b60f60e11b1461018c565b6001600160e01b0319600485900360031b81901b9091161690505f610237565b606061017f565b604081015160035560608101516004556080810151805190939291906001600160401b03811161039f576102ac60055461050d565b601f8111610363575b506020601f82116001146102fb57819060a09495965f926102f0575b50508160011b915f199060031b1c1916176005555b01516006556101b9565b015190505f806102d1565b601f1982169560055f52815f20965f5b81811061034b57509160a095969791846001959410610333575b505050811b016005556102e6565b01515f1960f88460031b161c191690555f8080610325565b8383015189556001909801976020938401930161030b565b61038f9060055f5260205f20601f840160051c81019160208510610395575b601f0160051c0190610545565b5f6102b5565b9091508190610382565b634e487b7160e01b5f52604160045260245ffd5b9091503d805f833e6103c581836104bb565b81019060208183031261049a578051906001600160401b03821161049a57019060c08282031261049a576040519160c083016001600160401b0381118482101761039f5760405280518352602081015160208401526040810151604084015260608101516060840152608081015160018060401b03811161049a5781019180601f8401121561049a578251610459816104f2565b9161046760405193846104bb565b8183526020828601011161049a576020815f928260a097018386015e830101526080840152015160a0820152905f610151565b5f80fd5b63e6c4247b60e01b5f5260045ffd5b62dc149f60e41b5f5260045ffd5b601f909101601f19168101906001600160401b0382119082101761039f57604052565b51906001600160a01b038216820361049a57565b6001600160401b03811161039f57601f01601f191660200190565b90600182811c9216801561053b575b602083101461052757565b634e487b7160e01b5f52602260045260245ffd5b91607f169161051c565b818110610550575050565b5f815560010161054556fe60806040526004361015610011575f80fd5b5f3560e01c8063013cf08b146115a357806302a251a314611586578063086cfca81461151f5780631703a018146115025780631acc1ab0146114d9578063328dd98214611401578063343fc9e7146112df5780633932abb1146112c25780633e4f49e61461129757806340e58ee5146111b1578063438596321461116857806356b9e4c5146110ba5780635aef7de614611093578063671b37931461107657806370b0f6601461102a578063715018a614610fc3578063748aca8e14610e7e578063776d1a0114610e155780638da5cb5b14610de15780639cb5bd9e14610d035780639ea9719014610ce6578063a01ff54e14610c22578063a120455c14610c00578063a4f9edbf14610b23578063a96ab06d14610afb578063bbdce969146108ad578063c1ba4e5914610833578063c623674f14610816578063c7f758a81461052e578063d23254b4146104e0578063d4b83992146104b8578063da35c6641461049b578063ea0217cf14610439578063f2fde38b146103eb5763fe0d94c11461019a575f80fd5b34610311576020366003190112610311576004356101b781611c2d565b60068110156103d7576003036103c857805f526008602052600960405f2001600160ff19825416179055805f52600960205260405f2080546101f881611941565b91610206604051938461171f565b81835260208301905f5260205f205f915b83831061034f5785855f5b8151811015610328576102ba60206001600160a01b036102428486611d93565b515116816102508587611d93565b5101519060406102608688611d93565b510151915f61027b6060610274898b611d93565b5101611da7565b9260018060a01b0360015416936102c56040519889978896879563468721a760e01b8752600487015260248601526080604486015260848501906117e0565b916064840190611830565b03925af1801561031d576102dd575b50600101610222565b6020813d8211610315575b816102f56020938361171f565b81010312610311575190811515820361031157905060016102d4565b5f80fd5b3d91506102e8565b6040513d5f823e3d90fd5b827f712ae1383f79ac853f8d882153778e0260ef8f03b504e2866e0593e04d2b291f5f80a2005b60056020600192604051610362816116cd565b848060a01b0386541681528486015483820152604051610390816103898160028b01611b72565b038261171f565b60408201526103a960ff60038801541660608301611c00565b6103b560048701611740565b6080820152815201920192019190610217565b63c8c93ba360e01b5f5260045ffd5b634e487b7160e01b5f52602160045260245ffd5b3461031157602036600319011261031157610404611804565b61040c611db4565b6001600160a01b038116156104265761042490612786565b005b631e4fbdf760e01b5f525f60045260245ffd5b3461031157602036600319011261031157600435610455611db4565b801561048c576020817f651c77f42613a075437aa794c44471e3abc3a661956a67aaee165bb7396974aa92600d55604051908152a1005b6305a612e360e01b5f5260045ffd5b34610311575f366003190112610311576020600754604051908152f35b34610311575f366003190112610311576001546040516001600160a01b039091168152602090f35b34610311576040366003190112610311576104f961181a565b6004355f52600b60205260405f209060018060a01b03165f52602052602060ff60405f20541661052c6040518092611bf3565bf35b34610311576020366003190112610311576004355f61018060405161055281611703565b828152826020820152606060408201526060808201528260808201528260a08201528260c08201528260e08201528261010082015282610120820152826101408201528261016082015201528015801561080b575b6107fc57805f52600860205260405f20604051916105c483611703565b8154835260018201546001600160a01b031660208401908152916105ea60028201611740565b6040850190815291846105ff60038401611740565b92606082019384526004810154936080830194855260058201549060a08401918252600683015460c08501908152600784015460e08601908152600885015491610100870192835260098601549461012088019460ff87161515865261014089019660081c60ff1615158752600a880154976101608a01988952600b0154986101800198895261068e8a611c2d565b995f52600960205260405f209b8c546106a681611941565b9d6040519e8f906106b7908261171f565b828152602001905f5260205f205f915b83831061078a57505050506040519e8f9e8f9160608352516060830152600160a01b600190039051169060800152518d60a081016101a090526102000161070d916117e0565b90518d8203605f190160c08f015261072591906117e0565b995160e08d0152516101008c0152516101208b0152516101408a0152516101608901525115156101808801525115156101a0870152516101c0860152516101e08501526020840161077591611b38565b82810360408401526107869161183d565b0390f35b6005602060019260405161079d816116cd565b848060a01b03865416815284860154838201526040516107c4816103898160028b01611b72565b60408201526107dd60ff60038801541660608301611c00565b6107e960048701611740565b60808201528152019201920191906106c7565b63635e873760e01b5f5260045ffd5b5060075481116105a7565b34610311575f366003190112610311576020600454604051908152f35b346103115760203660031901126103115760043561084f611db4565b8015801561089c575b61088d576020817ff18f88786aae85a652aadb99a82462616489a33370c9bcc7b245906812ef7cd192600e55604051908152a1005b63d173577960e01b5f5260045ffd5b50670de0b6b3a76400008111610858565b34610311576020366003190112610311576004356001600160401b0381116103115760c06003198236030112610311576040516108e9816116e8565b8160040135815260248201356020820152604081016044830135815260608201916064840135835260848401356001600160401b0381116103115760a061093860a492600436918901016118fd565b926080810193845201940135845260018060a01b03600254163303610aec57835115610add57815160035582516004558051938451946001600160401b038611610ac9576109908661098b600554611695565b611d18565b602090601f8711600114610a245795806109e2927f60469a1323c9c22c5b6bde126cfa19042e701ef43149c572808ee3969da7aa7697985f92610a19575b50508160011b915f199060031b1c19161790565b6005555b519182600655519351905191610a0e60405193849384526060602085015260608401906117e0565b9060408301520390a2005b0151905088806109ce565b90601f1987169160055f527f036b6384b5eca791c62761152d0c79bb0604c104a5fb6f4eb0703f3154bb3db0925f5b818110610ab157509160019391897f60469a1323c9c22c5b6bde126cfa19042e701ef43149c572808ee3969da7aa76999a9410610a99575b505050811b016005556109e6565b01515f1960f88460031b161c19169055878080610a8b565b92936020600181928786015181550195019301610a53565b634e487b7160e01b5f52604160045260245ffd5b630558bb2560e21b5f5260045ffd5b63173d355360e11b5f5260045ffd5b34610311575f366003190112610311576002546040516001600160a01b039091168152602090f35b34610311576020366003190112610311576004356001600160401b03811161031157610b539036906004016118fd565b600f5460ff8116610bf25760019060ff191617600f556080818051810103126103115780610b8660206104249301611cee565b90610b9360408201611cee565b610bbd610bae6080610ba760608601611cee565b9401611cee565b936001600160a01b0316612786565b5f80546001600160a01b03199081166001600160a01b0393841617909155600180549091169282169290921790915516611de7565b62dc149f60e41b5f5260045ffd5b34610311575f366003190112610311576020604051670de0b6b3a76400008152f35b3461031157608036600319011261031157600435602435600381101561031157604435906064356001600160401b03811161031157610c65903690600401611b08565b845f95929552600860205260405f2090610c7e83611c2d565b60068110156103d757600103610cd7575f838152600a6020908152604080832033845290915290205460ff16610cc85761042495600a610cc193015486336128c3565b33906127da565b637c9a1cf960e01b5f5260045ffd5b63335b65a560e11b5f5260045ffd5b34610311575f366003190112610311576020600354604051908152f35b34610311575f366003190112610311576040515f600554610d2381611695565b8084529060018116908115610dbd5750600114610d5f575b61078683610d4b8185038261171f565b6040519182916020835260208301906117e0565b60055f9081527f036b6384b5eca791c62761152d0c79bb0604c104a5fb6f4eb0703f3154bb3db0939250905b808210610da357509091508101602001610d4b610d3b565b919260018160209254838588010152019101909291610d8b565b60ff191660208086019190915291151560051b84019091019150610d4b9050610d3b565b34610311575f366003190112610311575f51602061296d5f395f51905f52546040516001600160a01b039091168152602090f35b3461031157602036600319011261031157610e2e611804565b610e36611db4565b600180546001600160a01b039283166001600160a01b0319821681179092559091167f90cc2f570a6eb594b1580ea3e41247d2d73a55281889e86bd4ec2fc29c7e62d65f80a3005b3461031157610140366003190112610311576004356001600160401b03811161031157610eaf9036906004016118fd565b6024356001600160401b03811161031157610ece9036906004016118fd565b6044356001600160401b03811161031157610eed903690600401611958565b6064356001600160401b03811161031157610f0c9036906004016119c6565b926084356001600160401b03811161031157610f2c903690600401611a23565b9260a4356001600160401b03811161031157610f4c903690600401611aa1565b60c4356001600160401b03811161031157610f6b903690600401611a23565b9060e43593610104356001600160401b03811161031157610f90903690600401611b08565b939092610124359860038a10156103115760209a610fbb99610fb3988a9661212c565b9233846127da565b604051908152f35b34610311575f36600319011261031157610fdb611db4565b5f51602061296d5f395f51905f5280546001600160a01b031981169091555f906001600160a01b03167f8be0079c531659141344cd1fd0a4f28419497f9722a3daafe3b4186f6b6457e08280a3005b34610311576020366003190112610311577fba76433d63148cc0d7df02d39ab5cddf8737df279d4af4c7bce819a2ef719e956020600435611069611db4565b80600c55604051908152a1005b34610311575f366003190112610311576020600654604051908152f35b34610311575f366003190112610311575f546040516001600160a01b039091168152602090f35b34610311576040366003190112610311576024356004355f52600960205260405f20908154811015610311576110ef91611b45565b5060018060a01b03815416610786600183015492604051611117816103898160028601611b72565b61115b611150611131600460ff6003870154169501611740565b926040519788978852602088015260a0604088015260a08701906117e0565b926060860190611830565b83820360808501526117e0565b346103115760403660031901126103115761118161181a565b6004355f52600a60205260405f209060018060a01b03165f52602052602060ff60405f2054166040519015158152f35b34610311576020366003190112610311576004358015801561128c575b6107fc57805f52600860205260405f2060018060a01b035f51602061296d5f395f51905f52541633141580611278575b61126957600901805460ff811661125a5760ff8160081c1661124b5761ff0019166101001790557f416e669c63d9a3a5e36ee7cc7e2104b8db28ccd286aa18966e98fa230c73b08c5f80a2005b63029684ff60e61b5f5260045ffd5b6351618d5360e01b5f5260045ffd5b63ea8e4eb560e01b5f5260045ffd5b505f546001600160a01b03163314156111fe565b5060075481116111ce565b346103115760203660031901126103115760206112b5600435611c2d565b61052c6040518092611b38565b34610311575f366003190112610311576020600c54604051908152f35b3461031157610120366003190112610311576004356001600160401b038111610311576113109036906004016118fd565b6024356001600160401b0381116103115761132f9036906004016118fd565b906044356001600160401b0381116103115761134f903690600401611958565b6064356001600160401b0381116103115761136e9036906004016119c6565b926084356001600160401b0381116103115761138e903690600401611a23565b9260a4356001600160401b038111610311576113ae903690600401611aa1565b60c4356001600160401b038111610311576113cd903690600401611a23565b9061010435956001600160401b038711610311576020976113f5610fbb983690600401611b08565b97909660e4359661212c565b34610311576020366003190112610311576004355f52600960205260405f20805461142b81611941565b91611439604051938461171f565b81835260208301905f5260205f205f915b83831061146757604051602080825281906107869082018861183d565b6005602060019260405161147a816116cd565b848060a01b03865416815284860154838201526040516114a1816103898160028b01611b72565b60408201526114ba60ff60038801541660608301611c00565b6114c660048701611740565b608082015281520192019201919061144a565b34610311576020366003190112610311576104246114f5611804565b6114fd611db4565b611de7565b34610311575f366003190112610311576020600e54604051908152f35b3461031157602036600319011261031157611538611804565b611540611db4565b5f80546001600160a01b039283166001600160a01b03198216811783559216907f52ae88b092de36f87fb43fe794eb1381023b9c1bce563a871154022c63dce3429080a3005b34610311575f366003190112610311576020600d54604051908152f35b34610311576020366003190112610311576004355f908152600860205260409020805460018201546001600160a01b0316916115e160028201611740565b6115ed60038301611740565b9160048101549260058201546006830154600784015490600885015492600986015494600a87015496600b0154976040519b8c9b8c5260208c015260408b016101a090526101a08b0161163f916117e0565b8a810360608c0152611650916117e0565b9760808a015260a089015260c088015260e087015261010086015260ff8116151561012086015260081c60ff1615156101408501526101608401526101808301520390f35b90600182811c921680156116c3575b60208310146116af57565b634e487b7160e01b5f52602260045260245ffd5b91607f16916116a4565b60a081019081106001600160401b03821117610ac957604052565b60c081019081106001600160401b03821117610ac957604052565b6101a081019081106001600160401b03821117610ac957604052565b90601f801991011681019081106001600160401b03821117610ac957604052565b9060405191825f82549261175384611695565b80845293600181169081156117be575060011461177a575b506117789250038361171f565b565b90505f9291925260205f20905f915b8183106117a2575050906020611778928201015f61176b565b6020919350806001915483858901015201910190918492611789565b90506020925061177894915060ff191682840152151560051b8201015f61176b565b805180835260209291819084018484015e5f828201840152601f01601f1916010190565b600435906001600160a01b038216820361031157565b602435906001600160a01b038216820361031157565b9060028210156103d75752565b9080602083519182815201916020808360051b8301019401925f915b83831061186857505050505090565b90919293946020806118d3600193601f19868203018752895190858060a01b038251168152838201518482015260806118b0604084015160a0604085015260a08401906117e0565b926118c360608201516060850190611830565b01519060808184039101526117e0565b97019301930191939290611859565b6001600160401b038111610ac957601f01601f191660200190565b81601f8201121561031157602081359101611917826118e2565b92611925604051948561171f565b8284528282011161031157815f92602092838601378301015290565b6001600160401b038111610ac95760051b60200190565b9080601f830112156103115781359061197082611941565b9261197e604051948561171f565b82845260208085019360051b82010191821161031157602001915b8183106119a65750505090565b82356001600160a01b038116810361031157815260209283019201611999565b9080601f830112156103115781356119dd81611941565b926119eb604051948561171f565b81845260208085019260051b82010192831161031157602001905b828210611a135750505090565b8135815260209182019101611a06565b9080601f83011215610311578135611a3a81611941565b92611a48604051948561171f565b81845260208085019260051b820101918383116103115760208201905b838210611a7457505050505090565b81356001600160401b03811161031157602091611a96878480948801016118fd565b815201910190611a65565b9080601f8301121561031157813590611ab982611941565b92611ac7604051948561171f565b82845260208085019360051b82010191821161031157602001915b818310611aef5750505090565b8235600281101561031157815260209283019201611ae2565b9181601f84011215610311578235916001600160401b038311610311576020808501948460051b01011161031157565b9060068210156103d75752565b8054821015611b5e575f52600560205f20910201905f90565b634e487b7160e01b5f52603260045260245ffd5b5f9291815491611b8183611695565b8083529260018116908115611bd65750600114611b9d57505050565b5f9081526020812093945091925b838310611bbc575060209250010190565b600181602092949394548385870101520191019190611bab565b915050602093945060ff929192191683830152151560051b010190565b9060038210156103d75752565b60028210156103d75752565b91908201809211611c1957565b634e487b7160e01b5f52601160045260245ffd5b80158015611ce3575b6107fc575f52600860205260405f20600981015460ff8160081c16611cdc5760ff16611cd65760048101544310611cd1576005810154431115611ccb57600681015490600781015490611ca8600b611c9c611c918587611c0c565b600885015490611c0c565b920154600e54906126f0565b11159182611cc1575b5050611cbc57600290565b600390565b1190505f80611cb1565b50600190565b505f90565b50600490565b5050600590565b506007548111611c36565b51906001600160a01b038216820361031157565b818110611d0d575050565b5f8155600101611d02565b90601f8211611d25575050565b6117789160055f5260205f20906020601f840160051c83019310611d51575b601f0160051c0190611d02565b9091508190611d44565b9190601f8111611d6a57505050565b611778925f5260205f20906020601f840160051c83019310611d5157601f0160051c0190611d02565b8051821015611b5e5760209160051b010190565b5160028110156103d75790565b5f51602061296d5f395f51905f52546001600160a01b03163303611dd457565b63118cdaa760e01b5f523360045260245ffd5b6001600160a01b0316801561211d57600280546001600160a01b0319811683179091556040516305b209d760e31b81525f81600481865afa5f9181612045575b50611f3f57503d15611f38573d611e3d816118e2565b90611e4b604051928361171f565b81523d5f602083013e5b8051906004821480611ee4575b15611edf5750505f6003555f600455611e7c600554611695565b601f8111611ebe575b505f6005555f6006555b6001600160a01b03167fb8ed9bab5ad5186bb6cda3bac43ff4b637c4494961d1ee2a6a0c6408de71211b5f80a3565b611ed99060055f52601f60205f20910160051c810190611d02565b5f611e85565b602001fd5b5060208101516001600160e01b031981169060048410611f18575b506001600160e01b031916633b02b60f60e11b14611e62565b6001600160e01b0319600485900360031b81901b9091161690505f611eff565b6060611e55565b6040810151600355606081015160045560808101518051906001600160401b038211610ac957611f748261098b600554611695565b602090601f8311600114611fbf579180611fa69260a095945f92611fb45750508160011b915f199060031b1c19161790565b6005555b0151600655611e8f565b015190505f806109ce565b90601f1983169160055f527f036b6384b5eca791c62761152d0c79bb0604c104a5fb6f4eb0703f3154bb3db0925f5b81811061202d575091600193918560a097969410612015575b505050811b01600555611faa565b01515f1960f88460031b161c191690555f8080612007565b92936020600181928786015181550195019301611fee565b9091503d805f833e612057818361171f565b810190602081830312610311578051906001600160401b03821161031157019060c082820312610311576040519161208e836116e8565b8051835260208101516020840152604081015160408401526060810151606084015260808101516001600160401b0381116103115781019180601f840112156103115782516120dc816118e2565b916120ea604051938461171f565b81835260208286010111610311576020815f928260a097018386015e830101526080840152015160a0820152905f611e27565b63e6c4247b60e01b5f5260045ffd5b989092999396919760035480156126e15789518c518114908115916126d5575b81156126c9575b81156126bd575b506126ae5761216993336128c3565b600754915f198314611c1957600183810160078190555f81815260086020526040902081815591820180546001600160a01b0319163317905589519199909391906001600160401b038211610ac9576121d2828c60026121cb81830154611695565b9101611d5b565b602090601f83116001146126455761220092915f9183611fb45750508160011b915f199060031b1c19161790565b60028a01555b8051906001600160401b038211610ac9576122318261222860038d0154611695565b60038d01611d5b565b602090601f83116001146125d85761225f92915f9183611fb45750508160011b915f199060031b1c19161790565b60038901555b612283612274600c5443611c0c565b8060048b0155600d5490611c0c565b6005890155600354600a890155600654600b8901555f5b875181101561254a57600184015f9081526009602052604090206001600160a01b036122c6838b611d93565b5116906122d3838d611d93565b516123236122e1858c611d93565b516122f46122ef878c611d93565b611da7565b906122ff878d611d93565b51936040519661230e886116cd565b87526020870152604086015260608501611c00565b6080830152805468010000000000000000811015610ac95761234a91600182018155611b45565b91909161253757805182546001600160a01b0319166001600160a01b0391909116178255602081015160018301556040810151805160028401916001600160401b038211610ac9576123a6826123a08554611695565b85611d5b565b602090601f83116001146124d4576123d492915f9183611fb45750508160011b915f199060031b1c19161790565b90555b6060810151906003830160028310156103d75760809260ff8019835416911617905501518051906001600160401b038211610ac9576124268261241d6004860154611695565b60048601611d5b565b602090601f83116001146124655782600195949360049361245b935f92611fb45750508160011b915f199060031b1c19161790565b9101555b0161229a565b90600484015f52805f20915f5b601f19851681106124bc575092600492600196959492879383601f198116106124a4575b505050811b0191015561245f565b01515f1960f88460031b161c191690555f8080612496565b91926020600181928685015181550194019201612472565b90601f19831691845f52815f20925f5b81811061251f5750908460019594939210612507575b505050811b0190556123d7565b01515f1960f88460031b161c191690555f80806124fa565b929360206001819287860151815501950193016124e4565b634e487b7160e01b5f525f60045260245ffd5b509694509650935050507f7fbe432f55ce68ee893ba06ce1304fa7bd8435642ff4654d6ac718361e68532c6004820154916005810154600a820154600b830154916125b76040519460c0865260036125a860c0880160028401611b72565b91878303602089015201611b72565b9560408501526060840152608083015260a0820152806001339501930390a3565b919060038b015f52805f20905f935b601f198416851061262a576001945083601f19811610612612575b505050811b016003890155612265565b01515f1960f88460031b161c191690555f8080612602565b818101518355602094850194600190930192909101906125e7565b90601f1983169160028d015f52815f20925f5b818110612696575090846001959493921061267e575b505050811b0160028a0155612206565b01515f1960f88460031b161c191690555f808061266e565b92936020600181928786015181550195019301612658565b632fc149b760e11b5f5260045ffd5b9050885114155f61215a565b88518114159150612153565b8a51811415915061214c565b63a34e98db60e01b5f5260045ffd5b9091905f905f1984820990848102928380841093039280840393146127735782670de0b6b3a7640000111561276157507faccb18165bd6fe31ae1cf318dc5b51eee0e1ba569b88cd74c1773b91fac106699394670de0b6b3a7640000910990828211900360ee1b910360121c170290565b634e487b71905260116020526024601cfd5b505050670de0b6b3a76400009192500490565b5f51602061296d5f395f51905f5280546001600160a01b039283166001600160a01b0319821681179092559091167f8be0079c531659141344cd1fd0a4f28419497f9722a3daafe3b4186f6b6457e05f80a3565b5f818152600860209081526040808320600a83528184206001600160a01b038716808652908452828520805460ff19166001179055858552600b8452828520908552909252909120919490929060038510156103d7577f2c9deb38f462962eadbd85a9d3a4120503ee091f1582eaaa10aa8c6797651d299360409360ff1981541660ff8816179055600186145f1461289b5760060161287a828254611c0c565b90555b61288983518096611bf3565b60208501526001600160a01b031692a3565b856128b5576007016128ae828254611c0c565b905561287d565b6008016128ae828254611c0c565b604080516001600160a01b03909216602083019081528282019390935281529192916128f060608261171f565b519020604051602081019182526020815261290c60408261171f565b519020915f925b84841015612951578360051b830135908181105f14612940575f52602052600160405f205b930192612913565b905f52602052600160405f20612938565b92509250500361295d57565b63582f497d60e11b5f5260045ffdfe9016d09d72d40fdae2fd8ceac6b6234c7706214fd39c1cd1e609a0528c199300a2646970667358221220ba80e9dcb766e657c2f3c15e544794f510abb3ef8904877ac042cec236fd64ce64736f6c634300081b0033","linkReferences":{}},"methodIdentifiers":{"QUORUM_RANGE()":"a120455c","avatar()":"5aef7de6","cancel(uint256)":"40e58ee5","castVote(uint256,uint8,uint256,bytes32[])":"a01ff54e","currentMerkleRoot()":"9ea97190","execute(uint256)":"fe0d94c1","getActions(uint256)":"328dd982","getProposal(uint256)":"c7f758a8","hasVoted(uint256,address)":"43859632","ipfsHash()":"c623674f","ipfsHashCid()":"9cb5bd9e","merkleSnapshotContract()":"a96ab06d","onMerkleUpdate((uint256,uint256,bytes32,bytes32,string,uint256))":"bbdce969","owner()":"8da5cb5b","proposalActions(uint256,uint256)":"56b9e4c5","proposalCount()":"da35c664","proposals(uint256)":"013cf08b","propose(string,string,address[],uint256[],bytes[],uint8[],string[],uint256,bytes32[])":"343fc9e7","proposeWithVote(string,string,address[],uint256[],bytes[],uint8[],string[],uint256,bytes32[],uint8)":"748aca8e","quorum()":"1703a018","renounceOwnership()":"715018a6","setAvatar(address)":"086cfca8","setMerkleSnapshotContract(address)":"1acc1ab0","setQuorum(uint256)":"c1ba4e59","setTarget(address)":"776d1a01","setUp(bytes)":"a4f9edbf","setVotingDelay(uint256)":"70b0f660","setVotingPeriod(uint256)":"ea0217cf","state(uint256)":"3e4f49e6","target()":"d4b83992","totalVotingPower()":"671b3793","transferOwnership(address)":"f2fde38b","votes(uint256,address)":"d23254b4","votingDelay()":"3932abb1","votingPeriod()":"02a251a3"},"id":133}