{"abi":[{"type":"constructor","inputs":[{"name":"serviceManager","type":"address","internalType":"contract IWavsServiceManager"}],"stateMutability":"nonpayable"},{"type":"function","name":"ENVELOPE_EXPIRATION_TIME","inputs":[],"outputs":[{"name":"","type":"uint256","internalType":"uint256"}],"stateMutability":"view"},{"type":"function","name":"addHook","inputs":[{"name":"hook","type":"address","internalType":"contract IMerkleSnapshotHook"}],"outputs":[],"stateMutability":"nonpayable"},{"type":"function","name":"blockToStateIndex","inputs":[{"name":"blockNumber","type":"uint256","internalType":"uint256"}],"outputs":[{"name":"stateIndex","type":"uint256","internalType":"uint256"}],"stateMutability":"view"},{"type":"function","name":"envelopeExpirationQueue","inputs":[{"name":"index","type":"uint256","internalType":"uint256"}],"outputs":[{"name":"eventId","type":"bytes20","internalType":"bytes20"}],"stateMutability":"view"},{"type":"function","name":"envelopeExpirationQueueEnd","inputs":[],"outputs":[{"name":"","type":"uint256","internalType":"uint256"}],"stateMutability":"view"},{"type":"function","name":"envelopeExpirationQueueSize","inputs":[],"outputs":[{"name":"","type":"uint256","internalType":"uint256"}],"stateMutability":"view"},{"type":"function","name":"envelopeExpirationQueueStart","inputs":[],"outputs":[{"name":"","type":"uint256","internalType":"uint256"}],"stateMutability":"view"},{"type":"function","name":"envelopesSeen","inputs":[{"name":"eventId","type":"bytes20","internalType":"bytes20"}],"outputs":[{"name":"expiresAt","type":"uint256","internalType":"uint256"}],"stateMutability":"view"},{"type":"function","name":"getHooks","inputs":[],"outputs":[{"name":"","type":"address[]","internalType":"contract IMerkleSnapshotHook[]"}],"stateMutability":"view"},{"type":"function","name":"getLatestState","inputs":[],"outputs":[{"name":"","type":"tuple","internalType":"struct IMerkleSnapshot.MerkleState","components":[{"name":"blockNumber","type":"uint256","internalType":"uint256"},{"name":"timestamp","type":"uint256","internalType":"uint256"},{"name":"root","type":"bytes32","internalType":"bytes32"},{"name":"ipfsHash","type":"bytes32","internalType":"bytes32"},{"name":"ipfsHashCid","type":"string","internalType":"string"},{"name":"totalValue","type":"uint256","internalType":"uint256"}]}],"stateMutability":"view"},{"type":"function","name":"getServiceManager","inputs":[],"outputs":[{"name":"","type":"address","internalType":"address"}],"stateMutability":"view"},{"type":"function","name":"getStateAtBlock","inputs":[{"name":"blockNumber","type":"uint256","internalType":"uint256"}],"outputs":[{"name":"state","type":"tuple","internalType":"struct IMerkleSnapshot.MerkleState","components":[{"name":"blockNumber","type":"uint256","internalType":"uint256"},{"name":"timestamp","type":"uint256","internalType":"uint256"},{"name":"root","type":"bytes32","internalType":"bytes32"},{"name":"ipfsHash","type":"bytes32","internalType":"bytes32"},{"name":"ipfsHashCid","type":"string","internalType":"string"},{"name":"totalValue","type":"uint256","internalType":"uint256"}]}],"stateMutability":"view"},{"type":"function","name":"getStateAtIndex","inputs":[{"name":"index","type":"uint256","internalType":"uint256"}],"outputs":[{"name":"state","type":"tuple","internalType":"struct IMerkleSnapshot.MerkleState","components":[{"name":"blockNumber","type":"uint256","internalType":"uint256"},{"name":"timestamp","type":"uint256","internalType":"uint256"},{"name":"root","type":"bytes32","internalType":"bytes32"},{"name":"ipfsHash","type":"bytes32","internalType":"bytes32"},{"name":"ipfsHashCid","type":"string","internalType":"string"},{"name":"totalValue","type":"uint256","internalType":"uint256"}]}],"stateMutability":"view"},{"type":"function","name":"getStateBlocks","inputs":[{"name":"offset","type":"uint256","internalType":"uint256"},{"name":"limit","type":"uint256","internalType":"uint256"}],"outputs":[{"name":"result_","type":"uint256[]","internalType":"uint256[]"}],"stateMutability":"view"},{"type":"function","name":"getStateCount","inputs":[],"outputs":[{"name":"count","type":"uint256","internalType":"uint256"}],"stateMutability":"view"},{"type":"function","name":"getStates","inputs":[{"name":"offset","type":"uint256","internalType":"uint256"},{"name":"limit","type":"uint256","internalType":"uint256"}],"outputs":[{"name":"result_","type":"tuple[]","internalType":"struct IMerkleSnapshot.MerkleState[]","components":[{"name":"blockNumber","type":"uint256","internalType":"uint256"},{"name":"timestamp","type":"uint256","internalType":"uint256"},{"name":"root","type":"bytes32","internalType":"bytes32"},{"name":"ipfsHash","type":"bytes32","internalType":"bytes32"},{"name":"ipfsHashCid","type":"string","internalType":"string"},{"name":"totalValue","type":"uint256","internalType":"uint256"}]}],"stateMutability":"view"},{"type":"function","name":"handleSignedEnvelope","inputs":[{"name":"envelope","type":"tuple","internalType":"struct IWavsServiceHandler.Envelope","components":[{"name":"eventId","type":"bytes20","internalType":"bytes20"},{"name":"ordering","type":"bytes12","internalType":"bytes12"},{"name":"payload","type":"bytes","internalType":"bytes"}]},{"name":"signatureData","type":"tuple","internalType":"struct IWavsServiceHandler.SignatureData","components":[{"name":"signers","type":"address[]","internalType":"address[]"},{"name":"signatures","type":"bytes[]","internalType":"bytes[]"},{"name":"referenceBlock","type":"uint32","internalType":"uint32"}]}],"outputs":[],"stateMutability":"nonpayable"},{"type":"function","name":"hookCount","inputs":[],"outputs":[{"name":"","type":"uint64","internalType":"uint64"}],"stateMutability":"view"},{"type":"function","name":"hookIndex","inputs":[{"name":"hook","type":"address","internalType":"contract IMerkleSnapshotHook"}],"outputs":[{"name":"hookIndex","type":"uint256","internalType":"uint256"}],"stateMutability":"view"},{"type":"function","name":"hooks","inputs":[{"name":"hookIndex","type":"uint256","internalType":"uint256"}],"outputs":[{"name":"hook","type":"address","internalType":"contract IMerkleSnapshotHook"}],"stateMutability":"view"},{"type":"function","name":"lastCronTimestampSeen","inputs":[],"outputs":[{"name":"","type":"uint64","internalType":"uint64"}],"stateMutability":"view"},{"type":"function","name":"nextHookIndex","inputs":[],"outputs":[{"name":"","type":"uint64","internalType":"uint64"}],"stateMutability":"view"},{"type":"function","name":"nextTriggerId","inputs":[],"outputs":[{"name":"","type":"uint64","internalType":"uint64"}],"stateMutability":"view"},{"type":"function","name":"removeHook","inputs":[{"name":"hook","type":"address","internalType":"contract IMerkleSnapshotHook"}],"outputs":[],"stateMutability":"nonpayable"},{"type":"function","name":"stateBlocks","inputs":[{"name":"","type":"uint256","internalType":"uint256"}],"outputs":[{"name":"","type":"uint256","internalType":"uint256"}],"stateMutability":"view"},{"type":"function","name":"states","inputs":[{"name":"stateIndex","type":"uint256","internalType":"uint256"}],"outputs":[{"name":"blockNumber","type":"uint256","internalType":"uint256"},{"name":"timestamp","type":"uint256","internalType":"uint256"},{"name":"root","type":"bytes32","internalType":"bytes32"},{"name":"ipfsHash","type":"bytes32","internalType":"bytes32"},{"name":"ipfsHashCid","type":"string","internalType":"string"},{"name":"totalValue","type":"uint256","internalType":"uint256"}],"stateMutability":"view"},{"type":"function","name":"trigger","inputs":[],"outputs":[{"name":"triggerId","type":"uint64","internalType":"uint64"}],"stateMutability":"nonpayable"},{"type":"function","name":"verifyMyProof","inputs":[{"name":"value","type":"uint256","internalType":"uint256"},{"name":"proof","type":"bytes32[]","internalType":"bytes32[]"}],"outputs":[{"name":"","type":"bool","internalType":"bool"}],"stateMutability":"view"},{"type":"function","name":"verifyMyProofAtBlock","inputs":[{"name":"value","type":"uint256","internalType":"uint256"},{"name":"proof","type":"bytes32[]","internalType":"bytes32[]"},{"name":"blockNumber","type":"uint256","internalType":"uint256"}],"outputs":[{"name":"","type":"bool","internalType":"bool"}],"stateMutability":"view"},{"type":"function","name":"verifyMyProofAtStateIndex","inputs":[{"name":"value","type":"uint256","internalType":"uint256"},{"name":"proof","type":"bytes32[]","internalType":"bytes32[]"},{"name":"stateIndex","type":"uint256","internalType":"uint256"}],"outputs":[{"name":"","type":"bool","internalType":"bool"}],"stateMutability":"view"},{"type":"function","name":"verifyProof","inputs":[{"name":"account","type":"address","internalType":"address"},{"name":"value","type":"uint256","internalType":"uint256"},{"name":"proof","type":"bytes32[]","internalType":"bytes32[]"}],"outputs":[{"name":"","type":"bool","internalType":"bool"}],"stateMutability":"view"},{"type":"function","name":"verifyProofAtBlock","inputs":[{"name":"account","type":"address","internalType":"address"},{"name":"value","type":"uint256","internalType":"uint256"},{"name":"proof","type":"bytes32[]","internalType":"bytes32[]"},{"name":"blockNumber","type":"uint256","internalType":"uint256"}],"outputs":[{"name":"","type":"bool","internalType":"bool"}],"stateMutability":"view"},{"type":"function","name":"verifyProofAtStateIndex","inputs":[{"name":"account","type":"address","internalType":"address"},{"name":"value","type":"uint256","internalType":"uint256"},{"name":"proof","type":"bytes32[]","internalType":"bytes32[]"},{"name":"stateIndex","type":"uint256","internalType":"uint256"}],"outputs":[{"name":"","type":"bool","internalType":"bool"}],"stateMutability":"view"},{"type":"event","name":"MerkleRootUpdated","inputs":[{"name":"root","type":"bytes32","indexed":true,"internalType":"bytes32"},{"name":"ipfsHash","type":"bytes32","indexed":false,"internalType":"bytes32"},{"name":"ipfsHashCid","type":"string","indexed":false,"internalType":"string"},{"name":"totalValue","type":"uint256","indexed":false,"internalType":"uint256"}],"anonymous":false},{"type":"event","name":"MerklerTrigger","inputs":[{"name":"triggerId","type":"uint64","indexed":false,"internalType":"uint64"}],"anonymous":false},{"type":"event","name":"NewTrigger","inputs":[{"name":"_triggerInfo","type":"bytes","indexed":false,"internalType":"bytes"}],"anonymous":false},{"type":"event","name":"PrunedExpiredEnvelopes","inputs":[{"name":"count","type":"uint256","indexed":false,"internalType":"uint256"}],"anonymous":false},{"type":"error","name":"EnvelopeAlreadySeen","inputs":[]},{"type":"error","name":"EnvelopeExpired","inputs":[]},{"type":"error","name":"HookAlreadyAdded","inputs":[]},{"type":"error","name":"HookNotAdded","inputs":[]},{"type":"error","name":"NoMerkleStateAtBlock","inputs":[{"name":"requested","type":"uint256","internalType":"uint256"},{"name":"firstBlock","type":"uint256","internalType":"uint256"}]},{"type":"error","name":"NoMerkleStateAtIndex","inputs":[{"name":"requested","type":"uint256","internalType":"uint256"},{"name":"total","type":"uint256","internalType":"uint256"}]},{"type":"error","name":"NoMerkleStates","inputs":[]}],"bytecode":{"object":"0x608034609157601f611bf738819003918201601f19168301916001600160401b03831184841017609557808492602094604052833981010312609157516001600160a01b038116908190036091575f600281905560035560048054600b80546001600160401b03191660011790556001600160e01b031916909117600160a01b179055604051611b4d90816100aa8239f35b5f80fd5b634e487b7160e01b5f52604160045260245ffdfe6080806040526004361015610012575f80fd5b5f3560e01c908163017a910514610b9457508063025d26be14610b5957806307971de714610b335780630d98919214610a5957806329b9fbf914610a225780632d904eb814610a0757806335951f7f146109eb57806342227fa4146109c257806344cb266f1461099d5780634dda0b4314610975578063550004e5146109505780635cd2525e146108435780635e0f9e371461081a578063658f09c5146107f85780636c819c4d146107bc57806376886d841461068e5780637b4e04e8146105a05780637fec8d3814610522578063864c17d7146104f057806396ee965b146104c6578063a52e9526146104a4578063a828a40a1461047b578063b2fd74c91461045e578063b42bc9fe1461043f578063c267d5b514610419578063c8411d1a146103e2578063c97b7f80146103c5578063daa05015146103a8578063df92c13714610370578063e5adf3ab1461029a578063f3af613414610256578063f616ec85146101ed5763f969ff3314610187575f80fd5b346101e95760403660031901126101e9576004356001600160401b0381116101e957606060031982360301126101e957602435906001600160401b0382116101e957606060031983360301126101e9576101e791600401906004016111aa565b005b5f80fd5b346101e95760603660031901126101e9576004356001600160a01b03811681036101e9576044356001600160401b0381116101e95760209161023661024c923690600401610dbf565b91602435906040610245610f6e565b0151611979565b6040519015158152f35b346101e95760403660031901126101e9576024356001600160401b0381116101e95761024c61028b6020923690600401610dbf565b90600435336040610245610f6e565b346101e95760203660031901126101e9576004356001600160a01b038116908190036101e957805f52600a60205260405f20541561036157805f52600a60205260405f20545f52600960205260405f2080546001600160601b0360a01b1690555f52600a6020525f6040812055600b546001600160401b038160401c16801561034d576fffffffffffffffff0000000000000000199091165f1990910160401b67ffffffffffffffff60401b1617600b55005b634e487b7160e01b5f52601160045260245ffd5b633cea835f60e11b5f5260045ffd5b346101e95760203660031901126101e9576004356007548110156101e957610399602091610e70565b90549060031b1c604051908152f35b346101e9575f3660031901126101e9576020600754604051908152f35b346101e9575f3660031901126101e9576020600254604051908152f35b346101e95760203660031901126101e95761041561040160043561108d565b604051918291602083526020830190610d77565b0390f35b346101e9575f3660031901126101e95760206001600160401b0360055416604051908152f35b346101e95760203660031901126101e957610415610401600435610fdb565b346101e9575f3660031901126101e9576020600354604051908152f35b346101e9575f3660031901126101e957602061049c60035460025490610ea9565b604051908152f35b346101e957602061024c6104b736610e39565b6040610245949294339261108d565b346101e95760203660031901126101e9576004355f526008602052602060405f2054604051908152f35b346101e95760203660031901126101e9576004355f526009602052602060018060a01b0360405f205416604051908152f35b346101e9575f3660031901126101e95760206004546001600160401b038160a01c16906001600160401b0360a01b61055983610fbe565b60a01b16906001600160401b0360a01b1916176004557f26c7819cd977f19b3fcfc03aa705e25e2aefa99133ba83b6eaf04841b669297c82604051838152a1604051908152f35b346101e95760203660031901126101e9576004356001600160a01b038116908190036101e957805f52600a60205260405f205461067f576001600160401b03600b54165f52600960205260405f20816001600160601b0360a01b8254161790556001600160401b03600b5416905f52600a60205260405f2055600b546001600160401b0361062f818316610fbe565b1667ffffffffffffffff60401b61065e67ffffffffffffffff198416831760401c6001600160401b0316610fbe565b60401b16916fffffffffffffffffffffffffffffffff19161717600b555f80f35b6323f8ed6f60e11b5f5260045ffd5b346101e9576106a761069f36610d61565b819291610e9c565b6007548082116107b4575b506106bd8282610ea9565b916106c783610eb6565b926106d56040519485610d02565b8084526106e4601f1991610eb6565b015f5b81811061079d575050805b82811061076057836040518091602082016020835281518091526040830190602060408260051b8601019301915f905b82821061073157505050500390f35b919360019193955060206107508192603f198a82030186528851610d77565b9601920192018594939192610722565b806001915f52600660205261079660405f2061078561077f8685610ea9565b91610f12565b61078f8289610ecd565b5286610ecd565b50016106f2565b6020906107a8610ee1565b828288010152016106e7565b9050826106b2565b346101e95760203660031901126101e9576004356001600160a01b038116908190036101e9575f52600a602052602060405f2054604051908152f35b346101e957602061024c61080b36610e39565b60406102459492943392610fdb565b346101e9575f3660031901126101e95760206001600160401b03600b5460401c16604051908152f35b346101e9575f3660031901126101e957600b546001600160401b038160401c169061088661087083610eb6565b9261087e6040519485610d02565b808452610eb6565b602083019190601f19013683376001600160401b031660015f5b8282106108f4578385604051918291602083019060208452518091526040830191905f5b8181106108d2575050500390f35b82516001600160a01b03168452859450602093840193909201916001016108c4565b5f828152600960205260409020546001600160a01b031615610947575f8281526009602052604090205460019161093e916001600160a01b03166109388289610ecd565b52610fb0565b915b01906108a0565b90600190610940565b346101e957602061024c604061024561096836610def565b9591949095939293610fdb565b346101e9575f3660031901126101e9576004546040516001600160a01b039091168152602090f35b346101e957602061024c60406102456109b536610def565b959194909593929361108d565b346101e9575f3660031901126101e95760206001600160401b0360045460a01c16604051908152f35b346101e9575f3660031901126101e957602060405161012c8152f35b346101e9575f3660031901126101e957610415610401610f6e565b346101e95760203660031901126101e9576004355f526001602052602060405f205460601b604051906001600160601b0319168152f35b346101e957610a6a61069f36610d61565b90600754808311610b2b575b50610a818183610ea9565b91610aa4610a8e84610eb6565b93610a9c6040519586610d02565b808552610eb6565b602084019290601f1901368437805b828110610afe578385604051918291602083019060208452518091526040830191905f5b818110610ae5575050500390f35b8251845285945060209384019390920191600101610ad7565b80610b0a600192610e70565b90549060031b1c610b24610b1e8584610ea9565b88610ecd565b5201610ab3565b915082610a76565b346101e9575f3660031901126101e95760206001600160401b03600b5416604051908152f35b346101e95760203660031901126101e9576004356001600160601b031981168091036101e9575f525f602052602060405f2054604051908152f35b346101e95760203660031901126101e9576004355f52600660205260405f20805490610c106001820154936002830154926005600382015491610be584610bde8160048501610c52565b0385610d02565b015493604051968796875260208701526040860152606085015260c0608085015260c0840190610d23565b9060a08301520390f35b90600182811c92168015610c48575b6020831014610c3457565b634e487b7160e01b5f52602260045260245ffd5b91607f1691610c29565b5f9291815491610c6183610c1a565b8083529260018116908115610cb65750600114610c7d57505050565b5f9081526020812093945091925b838310610c9c575060209250010190565b600181602092949394548385870101520191019190610c8b565b915050602093945060ff929192191683830152151560051b010190565b60c081019081106001600160401b03821117610cee57604052565b634e487b7160e01b5f52604160045260245ffd5b90601f801991011681019081106001600160401b03821117610cee57604052565b805180835260209291819084018484015e5f828201840152601f01601f1916010190565b35906bffffffffffffffffffffffff19821682036101e957565b60409060031901126101e9576004359060243590565b908151815260208201516020820152604082015160408201526060820151606082015260a080610db6608085015160c0608086015260c0850190610d23565b93015191015290565b9181601f840112156101e9578235916001600160401b0383116101e9576020808501948460051b0101116101e957565b60806003198201126101e9576004356001600160a01b03811681036101e9579160243591604435906001600160401b0382116101e957610e3191600401610dbf565b909160643590565b9060606003198301126101e95760043591602435906001600160401b0382116101e957610e6891600401610dbf565b909160443590565b600754811015610e885760075f5260205f2001905f90565b634e487b7160e01b5f52603260045260245ffd5b9190820180921161034d57565b9190820391821161034d57565b6001600160401b038111610cee5760051b60200190565b8051821015610e885760209160051b010190565b60405190610eee82610cd3565b5f60a083828152826020820152826040820152826060820152606060808201520152565b90604051610f1f81610cd3565b60a06005829480548452600181015460208501526002810154604085015260038101546060850152604051610f6281610f5b8160048601610c52565b0382610d02565b60808501520154910152565b610f76610ee1565b506007548015610fa1575f19810190811161034d575f526006602052610f9e60405f20610f12565b90565b633b02b60f60e11b5f5260045ffd5b5f19811461034d5760010190565b6001600160401b03166001600160401b03811461034d5760010190565b610fe3610ee1565b5060075415610fa157805f52600860205260405f20548161100382610e70565b90549060031b1c14611078575061101981611a0b565b91901561103457505f526006602052610f9e60405f20610f12565b60075415610e88577fa66cc928b5edb82af9bd49922954155ab7b0942694bea4ce44661d9a8736c688546347329a5b60e01b5f908152600492909252602452604490fd5b90505f526006602052610f9e60405f20610f12565b611095610ee1565b50600754808210156110b557505f526006602052610f9e60405f20610f12565b9063254df73b60e11b5f5260045260245260445ffd5b35906001600160a01b0319821682036101e957565b9035601e19823603018112156101e95701602081359101916001600160401b0382116101e95781360383136101e957565b908060209392818452848401375f828201840152601f01601f1916010190565b9035601e19823603018112156101e95701602081359101916001600160401b0382116101e9578160051b360383136101e957565b9291926001600160401b038211610cee576040519161118e601f8201601f191660200184610d02565b8294818452818301116101e9578281602093845f960137010152565b6004545f936001600160a01b0390911692833b156101e9576040516366b8ac4f60e11b8152604060048201526001600160601b03196111e885610d47565b16604482015260208401946001600160a01b0319611205876110cb565b166064830152604085019261122e61121d85886110e0565b6060608487015260a4860191611111565b83810360031901602485015291606083019161124a8180611131565b606086529384905260808501935f905b808210611943575050506112716020820182611131565b8585036020870152808552602085019460208260051b82010195835f925b84841061190b575050505050506040013563ffffffff81168091036101e957848093819260405f97015203915afa8015611900576118eb575b503591803603601e1981018412156118e757838201938435916001600160401b03831161168e57602086019383360385136118e357602087850181810196909591898703126118be5780356001600160401b0381116118c25789019560c090879003126118be576040519861133c8a610cd3565b60208701358a5260208a01956040880135875260408b019b60608901358d5260608c019960808a01358b5260a08a01356001600160401b0381116118df576020908b010181601f820112156118df5760609181602061139d93359101611165565b9c608081019d8e5260c060a082019b01358b525197126118db5760405195606087018781106001600160401b038211176118c657916113eb6113f2926001600160401b039594604052610d47565b88526110cb565b6020870152116118c257601f36910112156118be57611412913691611165565b6040820152428211156118af576001600160601b031981511689528860205260408920546118a05751906001600160601b03198216895288602052604089205560035488526001602052604088209060601c6001600160601b0360a01b825416179055611480600354610fb0565b9081600355518061181e5750508451938251948151835160075497881580156117e6575b156117d25788438c5260086020528060408d2055680100000000000000008110156117be578060016114d99201600755610e70565b81549060031b9043821b915f19901b19161790555b604051936114fb85610cd3565b4385526020850142815260408601918252606086019283526080860194855260a086019384528a8d52600660205260408d20955186555160018601555160028501555160038401556004830191519182516001600160401b0381116117be576115648254610c1a565b601f8111611774575b5060208c601f831160011461170c579060059583611701575b50508160011b915f199060031b1c19161790555b5191015560015b6001600160401b03600b54168110156116a957808852600960205260408820546001600160a01b0316156116a157808852600960209081526040808a2054888b526006909252892089916001600160a01b0316803b1561169d5782918291604051809481809463bbdce96960e01b8252602060048301528054602483015260018101546044830152600281015460648301526003810154608483015260c060a4830152600561165660e4840160048401610c52565b91015460c483015203925af1801561169257611679575b50506001905b016115a1565b8161168391610d02565b61168e57875f61166d565b8780fd5b6040513d84823e3d90fd5b8280fd5b600190611673565b509194909295507f60469a1323c9c22c5b6bde126cfa19042e701ef43149c572808ee3969da7aa769350519351905191516116f66040519384938452606060208501526060840190610d23565b9060408301520390a2565b015190505f80611586565b91929394601f198416858452828420935b81811061175c575091600193918560059897969410611744575b505050811b01905561159a565b01515f1960f88460031b161c191690555f8080611737565b9293602060018192878601518155019501930161171d565b828d5260208d20601f830160051c810191602084106117b4575b601f0160051c01908d905b8281106117a757505061156d565b6001918155018d90611799565b909150819061178e565b634e487b7160e01b8c52604160045260248cfd5b438b52600860205260408b205498506114ee565b505f19890189811161180a576117fb90610e70565b4391549060031b1c14156114a4565b634e487b7160e01b8c52601160045260248cfd5b9396945094505050611834819360025490610ea9565b809111611898575b50905b808210611875575b5060207f9ab3d70475df098666ddecfedc7d84969049ae8e9f088b5657bf0db3900324c291604051908152a1565b9061187e611aa7565b156118925761188c90610fb0565b9061183f565b90611847565b91505f61183c565b633a181deb60e11b8952600489fd5b63fd427c0960e01b8952600489fd5b8a80fd5b8b80fd5b50634e487b7160e01b8f52604160045260248ffd5b8d80fd5b8f80fd5b8880fd5b8580fd5b6118f89195505f90610d02565b5f935f6112c8565b6040513d5f823e3d90fd5b909192939497602080611933600193601f1986820301885261192d8d886110e0565b90611111565b9a0194019401929493919061128f565b91949091908535906001600160a01b03821682036101e9576001600160a01b03909116815260209081019501916001019061125a565b929160405190602082019260018060a01b031683526040820152604081526119a2606082610d02565b51902060405160208101918252602081526119be604082610d02565b519020915f925b84841015611a03578360051b830135908181105f146119f2575f52602052600160405f205b9301926119c5565b905f52602052600160405f206119ea565b149392505050565b6007545f9291839182915b818310611a24575050509190565b9092919394611a338486610e9c565b60011c92611a4084610e70565b90549060031b1c958387145f14611a6a575050505050505f52600860205260405f20549060019190565b83879495969897105f14611a9c575050505f52600860205260405f20549360019283810180911161034d575b91611a16565b919650939150611a96565b6002545f5260016020526001600160601b031960405f205460601b16805f525f60205260405f20544210611b12575f525f6020525f60408120556002545f52600160205260405f2080546001600160601b0360a01b169055611b0a600254610fb0565b600255600190565b505f9056fea2646970667358221220ca45ac4d03b5e0b6136e0a99c7eb00282a274df4d46f99eebadb3dde371b130d64736f6c634300081b0033","linkReferences":{}},"methodIdentifiers":{"ENVELOPE_EXPIRATION_TIME()":"35951f7f","addHook(address)":"7b4e04e8","blockToStateIndex(uint256)":"96ee965b","envelopeExpirationQueue(uint256)":"29b9fbf9","envelopeExpirationQueueEnd()":"b2fd74c9","envelopeExpirationQueueSize()":"a828a40a","envelopeExpirationQueueStart()":"c97b7f80","envelopesSeen(bytes20)":"025d26be","getHooks()":"5cd2525e","getLatestState()":"2d904eb8","getServiceManager()":"4dda0b43","getStateAtBlock(uint256)":"b42bc9fe","getStateAtIndex(uint256)":"c8411d1a","getStateBlocks(uint256,uint256)":"0d989192","getStateCount()":"daa05015","getStates(uint256,uint256)":"76886d84","handleSignedEnvelope((bytes20,bytes12,bytes),(address[],bytes[],uint32))":"f969ff33","hookCount()":"5e0f9e37","hookIndex(address)":"6c819c4d","hooks(uint256)":"864c17d7","lastCronTimestampSeen()":"c267d5b5","nextHookIndex()":"07971de7","nextTriggerId()":"42227fa4","removeHook(address)":"e5adf3ab","stateBlocks(uint256)":"df92c137","states(uint256)":"017a9105","trigger()":"7fec8d38","verifyMyProof(uint256,bytes32[])":"f3af6134","verifyMyProofAtBlock(uint256,bytes32[],uint256)":"658f09c5","verifyMyProofAtStateIndex(uint256,bytes32[],uint256)":"a52e9526","verifyProof(address,uint256,bytes32[])":"f616ec85","verifyProofAtBlock(address,uint256,bytes32[],uint256)":"550004e5","verifyProofAtStateIndex(address,uint256,bytes32[],uint256)":"44cb266f"},"id":75}