{"abi":[{"type":"constructor","inputs":[{"name":"_owner","type":"address","internalType":"address"},{"name":"_avatar","type":"address","internalType":"address"},{"name":"_target","type":"address","internalType":"address"}],"stateMutability":"nonpayable"},{"type":"function","name":"avatar","inputs":[],"outputs":[{"name":"","type":"address","internalType":"address"}],"stateMutability":"view"},{"type":"function","name":"cancel","inputs":[{"name":"proposalId","type":"uint256","internalType":"uint256"}],"outputs":[],"stateMutability":"nonpayable"},{"type":"function","name":"castVote","inputs":[{"name":"proposalId","type":"uint256","internalType":"uint256"},{"name":"voteType","type":"uint8","internalType":"enum MerkleGovModule.VoteType"},{"name":"votingPower","type":"uint256","internalType":"uint256"},{"name":"rewardToken","type":"address","internalType":"address"},{"name":"proof","type":"bytes32[]","internalType":"bytes32[]"}],"outputs":[],"stateMutability":"nonpayable"},{"type":"function","name":"currentMerkleRoot","inputs":[],"outputs":[{"name":"","type":"bytes32","internalType":"bytes32"}],"stateMutability":"view"},{"type":"function","name":"execute","inputs":[{"name":"proposalId","type":"uint256","internalType":"uint256"}],"outputs":[],"stateMutability":"nonpayable"},{"type":"function","name":"getActions","inputs":[{"name":"proposalId","type":"uint256","internalType":"uint256"}],"outputs":[{"name":"","type":"tuple[]","internalType":"struct MerkleGovModule.ProposalAction[]","components":[{"name":"target","type":"address","internalType":"address"},{"name":"value","type":"uint256","internalType":"uint256"},{"name":"data","type":"bytes","internalType":"bytes"},{"name":"operation","type":"uint8","internalType":"enum Operation"}]}],"stateMutability":"view"},{"type":"function","name":"hasVoted","inputs":[{"name":"proposalId","type":"uint256","internalType":"uint256"},{"name":"account","type":"address","internalType":"address"}],"outputs":[{"name":"","type":"bool","internalType":"bool"}],"stateMutability":"view"},{"type":"function","name":"ipfsHash","inputs":[],"outputs":[{"name":"","type":"bytes32","internalType":"bytes32"}],"stateMutability":"view"},{"type":"function","name":"ipfsHashCid","inputs":[],"outputs":[{"name":"","type":"string","internalType":"string"}],"stateMutability":"view"},{"type":"function","name":"onMerkleUpdate","inputs":[{"name":"state_","type":"tuple","internalType":"struct IMerkleSnapshot.MerkleState","components":[{"name":"blockNumber","type":"uint256","internalType":"uint256"},{"name":"root","type":"bytes32","internalType":"bytes32"},{"name":"ipfsHash","type":"bytes32","internalType":"bytes32"},{"name":"ipfsHashCid","type":"string","internalType":"string"}]}],"outputs":[],"stateMutability":"nonpayable"},{"type":"function","name":"owner","inputs":[],"outputs":[{"name":"","type":"address","internalType":"address"}],"stateMutability":"view"},{"type":"function","name":"proposalActions","inputs":[{"name":"","type":"uint256","internalType":"uint256"},{"name":"","type":"uint256","internalType":"uint256"}],"outputs":[{"name":"target","type":"address","internalType":"address"},{"name":"value","type":"uint256","internalType":"uint256"},{"name":"data","type":"bytes","internalType":"bytes"},{"name":"operation","type":"uint8","internalType":"enum Operation"}],"stateMutability":"view"},{"type":"function","name":"proposalCount","inputs":[],"outputs":[{"name":"","type":"uint256","internalType":"uint256"}],"stateMutability":"view"},{"type":"function","name":"proposals","inputs":[{"name":"","type":"uint256","internalType":"uint256"}],"outputs":[{"name":"id","type":"uint256","internalType":"uint256"},{"name":"proposer","type":"address","internalType":"address"},{"name":"startBlock","type":"uint256","internalType":"uint256"},{"name":"endBlock","type":"uint256","internalType":"uint256"},{"name":"forVotes","type":"uint256","internalType":"uint256"},{"name":"againstVotes","type":"uint256","internalType":"uint256"},{"name":"abstainVotes","type":"uint256","internalType":"uint256"},{"name":"executed","type":"bool","internalType":"bool"},{"name":"cancelled","type":"bool","internalType":"bool"},{"name":"merkleRoot","type":"bytes32","internalType":"bytes32"}],"stateMutability":"view"},{"type":"function","name":"propose","inputs":[{"name":"targets","type":"address[]","internalType":"address[]"},{"name":"values","type":"uint256[]","internalType":"uint256[]"},{"name":"calldatas","type":"bytes[]","internalType":"bytes[]"},{"name":"operations","type":"uint8[]","internalType":"enum Operation[]"},{"name":"","type":"string","internalType":"string"}],"outputs":[{"name":"proposalId","type":"uint256","internalType":"uint256"}],"stateMutability":"nonpayable"},{"type":"function","name":"quorum","inputs":[],"outputs":[{"name":"","type":"uint256","internalType":"uint256"}],"stateMutability":"view"},{"type":"function","name":"renounceOwnership","inputs":[],"outputs":[],"stateMutability":"nonpayable"},{"type":"function","name":"setAvatar","inputs":[{"name":"_avatar","type":"address","internalType":"address"}],"outputs":[],"stateMutability":"nonpayable"},{"type":"function","name":"setQuorum","inputs":[{"name":"newQuorum","type":"uint256","internalType":"uint256"}],"outputs":[],"stateMutability":"nonpayable"},{"type":"function","name":"setTarget","inputs":[{"name":"_target","type":"address","internalType":"address"}],"outputs":[],"stateMutability":"nonpayable"},{"type":"function","name":"setUp","inputs":[{"name":"initializeParams","type":"bytes","internalType":"bytes"}],"outputs":[],"stateMutability":"nonpayable"},{"type":"function","name":"setVotingDelay","inputs":[{"name":"newDelay","type":"uint256","internalType":"uint256"}],"outputs":[],"stateMutability":"nonpayable"},{"type":"function","name":"setVotingPeriod","inputs":[{"name":"newPeriod","type":"uint256","internalType":"uint256"}],"outputs":[],"stateMutability":"nonpayable"},{"type":"function","name":"state","inputs":[{"name":"proposalId","type":"uint256","internalType":"uint256"}],"outputs":[{"name":"","type":"uint8","internalType":"enum MerkleGovModule.ProposalState"}],"stateMutability":"view"},{"type":"function","name":"target","inputs":[],"outputs":[{"name":"","type":"address","internalType":"address"}],"stateMutability":"view"},{"type":"function","name":"transferOwnership","inputs":[{"name":"newOwner","type":"address","internalType":"address"}],"outputs":[],"stateMutability":"nonpayable"},{"type":"function","name":"votingDelay","inputs":[],"outputs":[{"name":"","type":"uint256","internalType":"uint256"}],"stateMutability":"view"},{"type":"function","name":"votingPeriod","inputs":[],"outputs":[{"name":"","type":"uint256","internalType":"uint256"}],"stateMutability":"view"},{"type":"event","name":"AvatarSet","inputs":[{"name":"previousAvatar","type":"address","indexed":true,"internalType":"address"},{"name":"newAvatar","type":"address","indexed":true,"internalType":"address"}],"anonymous":false},{"type":"event","name":"Initialized","inputs":[{"name":"version","type":"uint64","indexed":false,"internalType":"uint64"}],"anonymous":false},{"type":"event","name":"MerkleRootUpdated","inputs":[{"name":"root","type":"bytes32","indexed":true,"internalType":"bytes32"},{"name":"ipfsHash","type":"bytes32","indexed":false,"internalType":"bytes32"},{"name":"ipfsHashCid","type":"string","indexed":false,"internalType":"string"}],"anonymous":false},{"type":"event","name":"OwnershipTransferred","inputs":[{"name":"previousOwner","type":"address","indexed":true,"internalType":"address"},{"name":"newOwner","type":"address","indexed":true,"internalType":"address"}],"anonymous":false},{"type":"event","name":"ProposalCancelled","inputs":[{"name":"proposalId","type":"uint256","indexed":true,"internalType":"uint256"}],"anonymous":false},{"type":"event","name":"ProposalCreated","inputs":[{"name":"proposalId","type":"uint256","indexed":true,"internalType":"uint256"},{"name":"proposer","type":"address","indexed":true,"internalType":"address"},{"name":"startBlock","type":"uint256","indexed":false,"internalType":"uint256"},{"name":"endBlock","type":"uint256","indexed":false,"internalType":"uint256"},{"name":"merkleRoot","type":"bytes32","indexed":false,"internalType":"bytes32"}],"anonymous":false},{"type":"event","name":"ProposalExecuted","inputs":[{"name":"proposalId","type":"uint256","indexed":true,"internalType":"uint256"}],"anonymous":false},{"type":"event","name":"QuorumUpdated","inputs":[{"name":"newQuorum","type":"uint256","indexed":false,"internalType":"uint256"}],"anonymous":false},{"type":"event","name":"TargetSet","inputs":[{"name":"previousTarget","type":"address","indexed":true,"internalType":"address"},{"name":"newTarget","type":"address","indexed":true,"internalType":"address"}],"anonymous":false},{"type":"event","name":"VoteCast","inputs":[{"name":"voter","type":"address","indexed":true,"internalType":"address"},{"name":"proposalId","type":"uint256","indexed":true,"internalType":"uint256"},{"name":"voteType","type":"uint8","indexed":false,"internalType":"enum MerkleGovModule.VoteType"},{"name":"votingPower","type":"uint256","indexed":false,"internalType":"uint256"}],"anonymous":false},{"type":"event","name":"VotingDelayUpdated","inputs":[{"name":"newDelay","type":"uint256","indexed":false,"internalType":"uint256"}],"anonymous":false},{"type":"event","name":"VotingPeriodUpdated","inputs":[{"name":"newPeriod","type":"uint256","indexed":false,"internalType":"uint256"}],"anonymous":false},{"type":"error","name":"InvalidInitialization","inputs":[]},{"type":"error","name":"NotInitializing","inputs":[]},{"type":"error","name":"OwnableInvalidOwner","inputs":[{"name":"owner","type":"address","internalType":"address"}]},{"type":"error","name":"OwnableUnauthorizedAccount","inputs":[{"name":"account","type":"address","internalType":"address"}]}],"bytecode":{"object":"0x60803461017357601f611e0138819003918201601f19168301916001600160401b0383118484101761017757808492606094604052833981010312610173576100478161018b565b9061006060406100596020840161018b565b920161018b565b90600160085561c4e0600955668e1bc9bf040000600a55600b5460ff811661012e5760ff1916600117600b557f9016d09d72d40fdae2fd8ceac6b6234c7706214fd39c1cd1e609a0528c19930080546001600160a01b031981166001600160a01b0395861690811790925560405194167f8be0079c531659141344cd1fd0a4f28419497f9722a3daafe3b4186f6b6457e05f80a35f80546001600160a01b039283166001600160a01b03199182161790915560018054939092169216919091179055611c6190816101a08239f35b60405162461bcd60e51b815260206004820152601360248201527f416c726561647920696e697469616c697a6564000000000000000000000000006044820152606490fd5b5f80fd5b634e487b7160e01b5f52604160045260245ffd5b51906001600160a01b03821682036101735756fe6080806040526004361015610012575f80fd5b5f3560e01c908163013cf08b1461179e5750806302a251a314611781578063086cfca81461171a5780631703a018146116fd5780633099e1aa146114d0578063328dd982146113815780633932abb1146113645780633e4f49e61461133557806340e58ee51461122e57806343859632146111d757806356b9e4c51461115e5780635aef7de61461113757806370b0f660146110eb578063715018a614611084578063776d1a011461101b5780638da5cb5b14610fe75780639cb5bd9e14610f055780639ea9719014610ee8578063a4f9edbf14610e1e578063a7a4c96914610b76578063c1ba4e5914610ad3578063c623674f14610ab6578063d4b8399214610a8e578063da35c66414610a71578063dfb9c74614610471578063ea0217cf146103e8578063f2fde38b1461039a5763fe0d94c114610150575f80fd5b346102ab5760203660031901126102ab5760043561016d81611a72565b60068110156103865760030361035157805f526006602052600760405f2001600160ff19825416179055805f52600760205260405f2080546101ae81611a2c565b916101bc6040519384611869565b81835260208301905f5260205f205f915b8383106102e95785855f5b81518110156102c2576001600160a01b036101f38284611b63565b5151166020806102038486611b63565b5101519160406102138587611b63565b5101519061022d60606102268789611b63565b5101611b77565b60015460405163468721a760e01b81529586946001600160a01b039092169385935f93859361025f93600486016119f4565b03925af180156102b757610277575b506001016101d8565b6020813d82116102af575b8161028f60209383611869565b810103126102ab57519081151582036102ab579050600161026e565b5f80fd5b3d9150610282565b6040513d5f823e3d90fd5b827f712ae1383f79ac853f8d882153778e0260ef8f03b504e2866e0593e04d2b291f5f80a2005b600460206001926040516102fc8161184e565b848060a01b038654168152848601548382015260405161032a816103238160028b01611973565b0382611869565b604082015261034360ff60038801541660608301611a59565b8152019201920191906101cd565b60405162461bcd60e51b815260206004820152600d60248201526c139bdd081cdd58d8d959591959609a1b6044820152606490fd5b634e487b7160e01b5f52602160045260245ffd5b346102ab5760203660031901126102ab576103b3611838565b6103bb611b84565b6001600160a01b038116156103d5576103d390611bb7565b005b631e4fbdf760e01b5f525f60045260245ffd5b346102ab5760203660031901126102ab57600435610404611b84565b801561043b576020817f651c77f42613a075437aa794c44471e3abc3a661956a67aaee165bb7396974aa92600955604051908152a1005b60405162461bcd60e51b815260206004820152600e60248201526d125b9d985b1a59081c195c9a5bd960921b6044820152606490fd5b346102ab5760a03660031901126102ab576004356001600160401b0381116102ab57366023820112156102ab5780600401356104ac81611a2c565b916104ba6040519384611869565b8183526024602084019260051b820101903682116102ab57602401915b818310610a5157836024356001600160401b0381116102ab57366023820112156102ab5780600401359061050a82611a2c565b916105186040519384611869565b8083526024602084019160051b830101913683116102ab57602401905b828210610a4157505050604435906001600160401b0382116102ab57366023830112156102ab57816004013561056a81611a2c565b926105786040519485611869565b8184526024602085019260051b820101903682116102ab5760248101925b828410610a1257505050506064356001600160401b0381116102ab57366023820112156102ab5780600401356105cb81611a2c565b916105d96040519384611869565b8183526024602084019260051b820101903682116102ab57602401915b8183106109f9575050506084356001600160401b0381116102ab5761061f90369060040161188a565b50600254156109bf5783518251811490816109b4575b816109a9575b501561096c57835115610936576005545f19811461092257600190810160058190555f81815260066020526040902081815591820180546001600160a01b031916331790556008549194916106909043611a65565b946106a5600282019680885560095490611a65565b906003810191825560086002549101555f5b87518110156108d8575f838152600760205260409020906001600160a01b036106e0828b611b63565b51166106ec8289611b63565b516106f78388611b63565b519061070b610706858b611b63565b611b77565b94604051936107198561184e565b84526020840191825260408401928352610737606085019687611a59565b8054680100000000000000008110156108b1576107599160018201815561190e565b9390936108c5575183546001600160a01b0319166001600160a01b039190911617835551600183015551805160028301916001600160401b0382116108b1576107a2835461193b565b601f8111610876575b50602090601f83116001146108105791806107e09260039695945f92610805575b50508160011b915f199060031b1c19161790565b90555b0191519160028310156103865760019260ff80198354169116179055016106b7565b015190508f806107cc565b90601f19831691845f52815f20925f5b81811061085e575091600193918560039897969410610847575b505050811b0190556107e3565b01515f1983881b60f8161c191690558e808061083a565b92936020600181928786015181550195019301610820565b6108a190845f5260205f20601f850160051c810191602086106108a7575b601f0160051c0190611a43565b8d6107ab565b9091508190610894565b634e487b7160e01b5f52604160045260245ffd5b634e487b7160e01b5f525f60045260245ffd5b602083838954905460025490604051928352848301526040820152817ff32960f4970092125cfbabeeef775222d0db96a4a77fbf9f776a816331fa92d160603393a3604051908152f35b634e487b7160e01b5f52601160045260245ffd5b60405162461bcd60e51b815260206004820152600e60248201526d115b5c1d1e481c1c9bdc1bdcd85b60921b6044820152606490fd5b60405162461bcd60e51b8152602060048201526015602482015274496e76616c69642070726f706f73616c206461746160581b6044820152606490fd5b90508151148561063b565b845181149150610635565b60405162461bcd60e51b8152602060048201526012602482015271139bc81b595c9adb19481c9bdbdd081cd95d60721b6044820152606490fd5b823560028110156102ab578152602092830192016105f6565b83356001600160401b0381116102ab57602091610a3683926024369187010161188a565b815201930192610596565b8135815260209182019101610535565b82356001600160a01b03811681036102ab578152602092830192016104d7565b346102ab575f3660031901126102ab576020600554604051908152f35b346102ab575f3660031901126102ab576001546040516001600160a01b039091168152602090f35b346102ab575f3660031901126102ab576020600354604051908152f35b346102ab5760203660031901126102ab57600435610aef611b84565b80151580610b64575b15610b2e576020817ff18f88786aae85a652aadb99a82462616489a33370c9bcc7b245906812ef7cd192600a55604051908152a1005b60405162461bcd60e51b815260206004820152600e60248201526d496e76616c69642071756f72756d60901b6044820152606490fd5b50670de0b6b3a7640000811115610af8565b346102ab5760a03660031901126102ab5760043560243560038110156102ab576064356001600160a01b0381169260443592918490036102ab57608435916001600160401b0383116102ab57366023840112156102ab578260040135936001600160401b0385116102ab573660248660051b860101116102ab57825f52600660205260405f2091610c0684611a72565b600681101561038657600103610de957600983019660018060a01b0333165f528760205260ff60405f205416610db4576040516020810191338352604082015283606082015260608152610c5b608082611869565b5190206040516020810191825260208152610c77604082611869565b5190209660088401545f985b888a1015610cc45760248a60051b89010135908181105f14610cb3575f52602052600160405f205b990198610c83565b905f52602052600160405f20610cab565b03610d7857335f908152602091825260408082208054600160ff1991821617909155600a87019093528120805490921660ff841617909155925f198201610d4d57600401610d13838254611a65565b90555b6040519261038657825260208201527f2c9deb38f462962eadbd85a9d3a4120503ee091f1582eaaa10aa8c6797651d2960403392a3005b5f935081610d6a57600501610d63838254611a65565b9055610d16565b600601610d63838254611a65565b60405162461bcd60e51b815260206004820152601460248201527324b73b30b634b2103b37ba34b73390383937b7b360611b6044820152606490fd5b60405162461bcd60e51b815260206004820152600d60248201526c105b1c9958591e481d9bdd1959609a1b6044820152606490fd5b60405162461bcd60e51b815260206004820152600d60248201526c159bdd1a5b99c818db1bdcd959609a1b6044820152606490fd5b346102ab5760203660031901126102ab576004356001600160401b0381116102ab57610e4e90369060040161188a565b600b549060ff82161591610e6183611b0d565b6060828051810103126102ab57610eb8906001610e8060208501611b4f565b91610ea2610e9c6060610e9560408901611b4f565b9701611b4f565b96611b0d565b60ff191617600b556001600160a01b0316611bb7565b5f80546001600160a01b039283166001600160a01b03199182161790915560018054939092169216919091179055005b346102ab575f3660031901126102ab576020600254604051908152f35b346102ab575f3660031901126102ab576040515f600454610f258161193b565b8084529060018116908115610fc35750600114610f65575b610f6183610f4d81850382611869565b6040519182916020835260208301906118dd565b0390f35b60045f9081527f8a35acfbc15ff81a39ae7d344fd709f28e8600b4aa8c65c6b64bfe7fe36bd19b939250905b808210610fa957509091508101602001610f4d610f3d565b919260018160209254838588010152019101909291610f91565b60ff191660208086019190915291151560051b84019091019150610f4d9050610f3d565b346102ab575f3660031901126102ab575f516020611c0c5f395f51905f52546040516001600160a01b039091168152602090f35b346102ab5760203660031901126102ab57611034611838565b61103c611b84565b600180546001600160a01b039283166001600160a01b0319821681179092559091167f90cc2f570a6eb594b1580ea3e41247d2d73a55281889e86bd4ec2fc29c7e62d65f80a3005b346102ab575f3660031901126102ab5761109c611b84565b5f516020611c0c5f395f51905f5280546001600160a01b031981169091555f906001600160a01b03167f8be0079c531659141344cd1fd0a4f28419497f9722a3daafe3b4186f6b6457e08280a3005b346102ab5760203660031901126102ab577fba76433d63148cc0d7df02d39ab5cddf8737df279d4af4c7bce819a2ef719e95602060043561112a611b84565b80600855604051908152a1005b346102ab575f3660031901126102ab575f546040516001600160a01b039091168152602090f35b346102ab5760403660031901126102ab576024356004355f52600760205260405f209081548110156102ab576111939161190e565b5060018060a01b03815416610f6160018301549260ff6003604051926111c7846111c08160028501611973565b0385611869565b01541690604051948594856119f4565b346102ab5760403660031901126102ab576024356001600160a01b03811681036102ab576004355f526006602052600960405f20019060018060a01b03165f52602052602060ff60405f2054166040519015158152f35b346102ab5760203660031901126102ab57600435805f52600660205260405f2060018060a01b0360018201541633148015611315575b156112df57600701805460ff81166112a75761ff0019166101001790557f416e669c63d9a3a5e36ee7cc7e2104b8db28ccd286aa18966e98fa230c73b08c5f80a2005b60405162461bcd60e51b815260206004820152601060248201526f105b1c9958591e48195e1958dd5d195960821b6044820152606490fd5b60405162461bcd60e51b815260206004820152600e60248201526d139bdd08185d5d1a1bdc9a5e995960921b6044820152606490fd5b505f516020611c0c5f395f51905f52546001600160a01b03163314611264565b346102ab5760203660031901126102ab57611351600435611a72565b6040516006821015610386576020918152f35b346102ab575f3660031901126102ab576020600854604051908152f35b346102ab5760203660031901126102ab576004355f52600760205260405f208054906113ac82611a2c565b916113ba6040519384611869565b8083526020830180925f5260205f205f915b83831061146f57848660405191829160208301906020845251809152604083019060408160051b85010192915f905b82821061140a57505050500390f35b919360019193955060208091603f1989820301855261145f885191858060a01b038351168152838301518482015260608061145460408601516080604086015260808501906118dd565b940151910190611901565b96019201920185949391926113fb565b600460206001926040516114828161184e565b848060a01b03865416815284860154838201526040516114a9816103238160028b01611973565b60408201526114c260ff60038801541660608301611a59565b8152019201920191906113cc565b346102ab5760203660031901126102ab576004356001600160401b0381116102ab57608060031982360301126102ab576040519061150d8261184e565b80600401358252602082016024820135815260408301916044810135835260648101356001600160401b0381116102ab576060916004611550923692010161188a565b9301908382528051600255825160035583516001600160401b0381116108b15761157b60045461193b565b601f81116116af575b506020601f821160011461160b5790806115d5927f9958b12204332a9f4a785b96fb90aed175c88d27250e7b036e3661a50e1cc20496975f926116005750508160011b915f199060031b1c19161790565b6004555b5192519051906115fb60405192839283526040602084015260408301906118dd565b0390a2005b0151905087806107cc565b601f1982169560045f527f8a35acfbc15ff81a39ae7d344fd709f28e8600b4aa8c65c6b64bfe7fe36bd19b965f5b8181106116975750917f9958b12204332a9f4a785b96fb90aed175c88d27250e7b036e3661a50e1cc20496979184600195941061167f575b505050811b016004556115d9565b01515f1960f88460031b161c19169055868080611671565b83830151895560019098019760209384019301611639565b60045f526116f7907f8a35acfbc15ff81a39ae7d344fd709f28e8600b4aa8c65c6b64bfe7fe36bd19b601f840160051c810191602085106108a757601f0160051c0190611a43565b85611584565b346102ab575f3660031901126102ab576020600a54604051908152f35b346102ab5760203660031901126102ab57611733611838565b61173b611b84565b5f80546001600160a01b039283166001600160a01b03198216811783559216907f52ae88b092de36f87fb43fe794eb1381023b9c1bce563a871154022c63dce3429080a3005b346102ab575f3660031901126102ab576020600954604051908152f35b346102ab5760203660031901126102ab57610140906004355f52600660205260405f2060ff81549160018060a01b036001820154166002820154600383015460048401549060058501549260068601549460086007880154970154988a5260208a015260408901526060880152608087015260a086015260c0850152818116151560e085015260081c161515610100830152610120820152f35b600435906001600160a01b03821682036102ab57565b608081019081106001600160401b038211176108b157604052565b90601f801991011681019081106001600160401b038211176108b157604052565b81601f820112156102ab576020813591016001600160401b0382116108b157604051926118c1601f8401601f191660200185611869565b828452828201116102ab57815f92602092838601378301015290565b805180835260209291819084018484015e5f828201840152601f01601f1916010190565b9060028210156103865752565b8054821015611927575f5260205f209060021b01905f90565b634e487b7160e01b5f52603260045260245ffd5b90600182811c92168015611969575b602083101461195557565b634e487b7160e01b5f52602260045260245ffd5b91607f169161194a565b5f92918154916119828361193b565b80835292600181169081156119d7575060011461199e57505050565b5f9081526020812093945091925b8383106119bd575060209250010190565b6001816020929493945483858701015201910191906119ac565b915050602093945060ff929192191683830152151560051b010190565b949391611a2a93611a229160609360018060a01b0316885260208801526080604088015260808701906118dd565b940190611901565b565b6001600160401b0381116108b15760051b60200190565b818110611a4e575050565b5f8155600101611a43565b60028210156103865752565b9190820180921161092257565b5f52600660205260405f20600781015460ff8160081c16611b065760ff16611b005760028101544310611afb576003810154431115611af557600481015490611acf6005820154916006611ac68486611a65565b91015490611a65565b600a5411159182611aeb575b5050611ae657600290565b600390565b1190505f80611adb565b50600190565b505f90565b50600490565b5050600590565b15611b1457565b60405162461bcd60e51b8152602060048201526013602482015272105b1c9958591e481a5b9a5d1a585b1a5e9959606a1b6044820152606490fd5b51906001600160a01b03821682036102ab57565b80518210156119275760209160051b010190565b5160028110156103865790565b5f516020611c0c5f395f51905f52546001600160a01b03163303611ba457565b63118cdaa760e01b5f523360045260245ffd5b5f516020611c0c5f395f51905f5280546001600160a01b039283166001600160a01b0319821681179092559091167f8be0079c531659141344cd1fd0a4f28419497f9722a3daafe3b4186f6b6457e05f80a356fe9016d09d72d40fdae2fd8ceac6b6234c7706214fd39c1cd1e609a0528c199300a264697066735822122089e1d09bd3993b7f74e601ea65486a5258fcecb5607f0b93f89200cb26c6778a64736f6c634300081b0033","linkReferences":{}},"methodIdentifiers":{"avatar()":"5aef7de6","cancel(uint256)":"40e58ee5","castVote(uint256,uint8,uint256,address,bytes32[])":"a7a4c969","currentMerkleRoot()":"9ea97190","execute(uint256)":"fe0d94c1","getActions(uint256)":"328dd982","hasVoted(uint256,address)":"43859632","ipfsHash()":"c623674f","ipfsHashCid()":"9cb5bd9e","onMerkleUpdate((uint256,bytes32,bytes32,string))":"3099e1aa","owner()":"8da5cb5b","proposalActions(uint256,uint256)":"56b9e4c5","proposalCount()":"da35c664","proposals(uint256)":"013cf08b","propose(address[],uint256[],bytes[],uint8[],string)":"dfb9c746","quorum()":"1703a018","renounceOwnership()":"715018a6","setAvatar(address)":"086cfca8","setQuorum(uint256)":"c1ba4e59","setTarget(address)":"776d1a01","setUp(bytes)":"a4f9edbf","setVotingDelay(uint256)":"70b0f660","setVotingPeriod(uint256)":"ea0217cf","state(uint256)":"3e4f49e6","target()":"d4b83992","transferOwnership(address)":"f2fde38b","votingDelay()":"3932abb1","votingPeriod()":"02a251a3"},"id":108}