{"abi":[{"type":"constructor","inputs":[{"name":"_owner","type":"address","internalType":"address"},{"name":"_avatar","type":"address","internalType":"address"},{"name":"_target","type":"address","internalType":"address"},{"name":"_merkleSnapshot","type":"address","internalType":"address"}],"stateMutability":"nonpayable"},{"type":"function","name":"QUORUM_RANGE","inputs":[],"outputs":[{"name":"","type":"uint256","internalType":"uint256"}],"stateMutability":"view"},{"type":"function","name":"avatar","inputs":[],"outputs":[{"name":"","type":"address","internalType":"address"}],"stateMutability":"view"},{"type":"function","name":"cancel","inputs":[{"name":"proposalId","type":"uint256","internalType":"uint256"}],"outputs":[],"stateMutability":"nonpayable"},{"type":"function","name":"castVote","inputs":[{"name":"proposalId","type":"uint256","internalType":"uint256"},{"name":"voteType","type":"uint8","internalType":"enum MerkleGovModule.VoteType"},{"name":"votingPower","type":"uint256","internalType":"uint256"},{"name":"proof","type":"bytes32[]","internalType":"bytes32[]"}],"outputs":[],"stateMutability":"nonpayable"},{"type":"function","name":"currentMerkleRoot","inputs":[],"outputs":[{"name":"","type":"bytes32","internalType":"bytes32"}],"stateMutability":"view"},{"type":"function","name":"execute","inputs":[{"name":"proposalId","type":"uint256","internalType":"uint256"}],"outputs":[],"stateMutability":"nonpayable"},{"type":"function","name":"getActions","inputs":[{"name":"proposalId","type":"uint256","internalType":"uint256"}],"outputs":[{"name":"","type":"tuple[]","internalType":"struct MerkleGovModule.ProposalAction[]","components":[{"name":"target","type":"address","internalType":"address"},{"name":"value","type":"uint256","internalType":"uint256"},{"name":"data","type":"bytes","internalType":"bytes"},{"name":"operation","type":"uint8","internalType":"enum Operation"}]}],"stateMutability":"view"},{"type":"function","name":"getProposal","inputs":[{"name":"proposalId","type":"uint256","internalType":"uint256"}],"outputs":[{"name":"proposal","type":"tuple","internalType":"struct MerkleGovModule.Proposal","components":[{"name":"id","type":"uint256","internalType":"uint256"},{"name":"proposer","type":"address","internalType":"address"},{"name":"title","type":"string","internalType":"string"},{"name":"description","type":"string","internalType":"string"},{"name":"startBlock","type":"uint256","internalType":"uint256"},{"name":"endBlock","type":"uint256","internalType":"uint256"},{"name":"yesVotes","type":"uint256","internalType":"uint256"},{"name":"noVotes","type":"uint256","internalType":"uint256"},{"name":"abstainVotes","type":"uint256","internalType":"uint256"},{"name":"executed","type":"bool","internalType":"bool"},{"name":"cancelled","type":"bool","internalType":"bool"},{"name":"merkleRoot","type":"bytes32","internalType":"bytes32"},{"name":"totalVotingPower","type":"uint256","internalType":"uint256"}]},{"name":"proposalState","type":"uint8","internalType":"enum MerkleGovModule.ProposalState"},{"name":"actions","type":"tuple[]","internalType":"struct MerkleGovModule.ProposalAction[]","components":[{"name":"target","type":"address","internalType":"address"},{"name":"value","type":"uint256","internalType":"uint256"},{"name":"data","type":"bytes","internalType":"bytes"},{"name":"operation","type":"uint8","internalType":"enum Operation"}]}],"stateMutability":"view"},{"type":"function","name":"hasVoted","inputs":[{"name":"proposalId","type":"uint256","internalType":"uint256"},{"name":"voter","type":"address","internalType":"address"}],"outputs":[{"name":"","type":"bool","internalType":"bool"}],"stateMutability":"view"},{"type":"function","name":"ipfsHash","inputs":[],"outputs":[{"name":"","type":"bytes32","internalType":"bytes32"}],"stateMutability":"view"},{"type":"function","name":"ipfsHashCid","inputs":[],"outputs":[{"name":"","type":"string","internalType":"string"}],"stateMutability":"view"},{"type":"function","name":"merkleSnapshotContract","inputs":[],"outputs":[{"name":"","type":"address","internalType":"address"}],"stateMutability":"view"},{"type":"function","name":"onMerkleUpdate","inputs":[{"name":"state_","type":"tuple","internalType":"struct IMerkleSnapshot.MerkleState","components":[{"name":"blockNumber","type":"uint256","internalType":"uint256"},{"name":"timestamp","type":"uint256","internalType":"uint256"},{"name":"root","type":"bytes32","internalType":"bytes32"},{"name":"ipfsHash","type":"bytes32","internalType":"bytes32"},{"name":"ipfsHashCid","type":"string","internalType":"string"},{"name":"totalValue","type":"uint256","internalType":"uint256"}]}],"outputs":[],"stateMutability":"nonpayable"},{"type":"function","name":"owner","inputs":[],"outputs":[{"name":"","type":"address","internalType":"address"}],"stateMutability":"view"},{"type":"function","name":"proposalActions","inputs":[{"name":"","type":"uint256","internalType":"uint256"},{"name":"","type":"uint256","internalType":"uint256"}],"outputs":[{"name":"target","type":"address","internalType":"address"},{"name":"value","type":"uint256","internalType":"uint256"},{"name":"data","type":"bytes","internalType":"bytes"},{"name":"operation","type":"uint8","internalType":"enum Operation"}],"stateMutability":"view"},{"type":"function","name":"proposalCount","inputs":[],"outputs":[{"name":"","type":"uint256","internalType":"uint256"}],"stateMutability":"view"},{"type":"function","name":"proposals","inputs":[{"name":"","type":"uint256","internalType":"uint256"}],"outputs":[{"name":"id","type":"uint256","internalType":"uint256"},{"name":"proposer","type":"address","internalType":"address"},{"name":"title","type":"string","internalType":"string"},{"name":"description","type":"string","internalType":"string"},{"name":"startBlock","type":"uint256","internalType":"uint256"},{"name":"endBlock","type":"uint256","internalType":"uint256"},{"name":"yesVotes","type":"uint256","internalType":"uint256"},{"name":"noVotes","type":"uint256","internalType":"uint256"},{"name":"abstainVotes","type":"uint256","internalType":"uint256"},{"name":"executed","type":"bool","internalType":"bool"},{"name":"cancelled","type":"bool","internalType":"bool"},{"name":"merkleRoot","type":"bytes32","internalType":"bytes32"},{"name":"totalVotingPower","type":"uint256","internalType":"uint256"}],"stateMutability":"view"},{"type":"function","name":"propose","inputs":[{"name":"title","type":"string","internalType":"string"},{"name":"description","type":"string","internalType":"string"},{"name":"targets","type":"address[]","internalType":"address[]"},{"name":"values","type":"uint256[]","internalType":"uint256[]"},{"name":"calldatas","type":"bytes[]","internalType":"bytes[]"},{"name":"operations","type":"uint8[]","internalType":"enum Operation[]"},{"name":"votingPower","type":"uint256","internalType":"uint256"},{"name":"proof","type":"bytes32[]","internalType":"bytes32[]"}],"outputs":[{"name":"proposalId","type":"uint256","internalType":"uint256"}],"stateMutability":"nonpayable"},{"type":"function","name":"proposeWithVote","inputs":[{"name":"title","type":"string","internalType":"string"},{"name":"description","type":"string","internalType":"string"},{"name":"targets","type":"address[]","internalType":"address[]"},{"name":"values","type":"uint256[]","internalType":"uint256[]"},{"name":"calldatas","type":"bytes[]","internalType":"bytes[]"},{"name":"operations","type":"uint8[]","internalType":"enum Operation[]"},{"name":"votingPower","type":"uint256","internalType":"uint256"},{"name":"proof","type":"bytes32[]","internalType":"bytes32[]"},{"name":"voteType","type":"uint8","internalType":"enum MerkleGovModule.VoteType"}],"outputs":[{"name":"proposalId","type":"uint256","internalType":"uint256"}],"stateMutability":"nonpayable"},{"type":"function","name":"quorum","inputs":[],"outputs":[{"name":"","type":"uint256","internalType":"uint256"}],"stateMutability":"view"},{"type":"function","name":"renounceOwnership","inputs":[],"outputs":[],"stateMutability":"nonpayable"},{"type":"function","name":"setAvatar","inputs":[{"name":"_avatar","type":"address","internalType":"address"}],"outputs":[],"stateMutability":"nonpayable"},{"type":"function","name":"setMerkleSnapshotContract","inputs":[{"name":"newContract","type":"address","internalType":"address"}],"outputs":[],"stateMutability":"nonpayable"},{"type":"function","name":"setQuorum","inputs":[{"name":"newQuorum","type":"uint256","internalType":"uint256"}],"outputs":[],"stateMutability":"nonpayable"},{"type":"function","name":"setTarget","inputs":[{"name":"_target","type":"address","internalType":"address"}],"outputs":[],"stateMutability":"nonpayable"},{"type":"function","name":"setUp","inputs":[{"name":"initializeParams","type":"bytes","internalType":"bytes"}],"outputs":[],"stateMutability":"nonpayable"},{"type":"function","name":"setVotingDelay","inputs":[{"name":"newDelay","type":"uint256","internalType":"uint256"}],"outputs":[],"stateMutability":"nonpayable"},{"type":"function","name":"setVotingPeriod","inputs":[{"name":"newPeriod","type":"uint256","internalType":"uint256"}],"outputs":[],"stateMutability":"nonpayable"},{"type":"function","name":"state","inputs":[{"name":"proposalId","type":"uint256","internalType":"uint256"}],"outputs":[{"name":"","type":"uint8","internalType":"enum MerkleGovModule.ProposalState"}],"stateMutability":"view"},{"type":"function","name":"target","inputs":[],"outputs":[{"name":"","type":"address","internalType":"address"}],"stateMutability":"view"},{"type":"function","name":"totalVotingPower","inputs":[],"outputs":[{"name":"","type":"uint256","internalType":"uint256"}],"stateMutability":"view"},{"type":"function","name":"transferOwnership","inputs":[{"name":"newOwner","type":"address","internalType":"address"}],"outputs":[],"stateMutability":"nonpayable"},{"type":"function","name":"votes","inputs":[{"name":"proposalId","type":"uint256","internalType":"uint256"},{"name":"voter","type":"address","internalType":"address"}],"outputs":[{"name":"","type":"uint8","internalType":"enum MerkleGovModule.VoteType"}],"stateMutability":"view"},{"type":"function","name":"votingDelay","inputs":[],"outputs":[{"name":"","type":"uint256","internalType":"uint256"}],"stateMutability":"view"},{"type":"function","name":"votingPeriod","inputs":[],"outputs":[{"name":"","type":"uint256","internalType":"uint256"}],"stateMutability":"view"},{"type":"event","name":"AvatarSet","inputs":[{"name":"previousAvatar","type":"address","indexed":true,"internalType":"address"},{"name":"newAvatar","type":"address","indexed":true,"internalType":"address"}],"anonymous":false},{"type":"event","name":"Initialized","inputs":[{"name":"version","type":"uint64","indexed":false,"internalType":"uint64"}],"anonymous":false},{"type":"event","name":"MerkleRootUpdated","inputs":[{"name":"root","type":"bytes32","indexed":true,"internalType":"bytes32"},{"name":"ipfsHash","type":"bytes32","indexed":false,"internalType":"bytes32"},{"name":"ipfsHashCid","type":"string","indexed":false,"internalType":"string"},{"name":"totalValue","type":"uint256","indexed":false,"internalType":"uint256"}],"anonymous":false},{"type":"event","name":"MerkleSnapshotContractUpdated","inputs":[{"name":"previousContract","type":"address","indexed":true,"internalType":"address"},{"name":"newContract","type":"address","indexed":true,"internalType":"address"}],"anonymous":false},{"type":"event","name":"OwnershipTransferred","inputs":[{"name":"previousOwner","type":"address","indexed":true,"internalType":"address"},{"name":"newOwner","type":"address","indexed":true,"internalType":"address"}],"anonymous":false},{"type":"event","name":"ProposalCancelled","inputs":[{"name":"proposalId","type":"uint256","indexed":true,"internalType":"uint256"}],"anonymous":false},{"type":"event","name":"ProposalCreated","inputs":[{"name":"proposalId","type":"uint256","indexed":true,"internalType":"uint256"},{"name":"proposer","type":"address","indexed":true,"internalType":"address"},{"name":"title","type":"string","indexed":false,"internalType":"string"},{"name":"description","type":"string","indexed":false,"internalType":"string"},{"name":"startBlock","type":"uint256","indexed":false,"internalType":"uint256"},{"name":"endBlock","type":"uint256","indexed":false,"internalType":"uint256"},{"name":"merkleRoot","type":"bytes32","indexed":false,"internalType":"bytes32"},{"name":"totalVotingPower","type":"uint256","indexed":false,"internalType":"uint256"}],"anonymous":false},{"type":"event","name":"ProposalExecuted","inputs":[{"name":"proposalId","type":"uint256","indexed":true,"internalType":"uint256"}],"anonymous":false},{"type":"event","name":"QuorumUpdated","inputs":[{"name":"newQuorum","type":"uint256","indexed":false,"internalType":"uint256"}],"anonymous":false},{"type":"event","name":"TargetSet","inputs":[{"name":"previousTarget","type":"address","indexed":true,"internalType":"address"},{"name":"newTarget","type":"address","indexed":true,"internalType":"address"}],"anonymous":false},{"type":"event","name":"VoteCast","inputs":[{"name":"voter","type":"address","indexed":true,"internalType":"address"},{"name":"proposalId","type":"uint256","indexed":true,"internalType":"uint256"},{"name":"voteType","type":"uint8","indexed":false,"internalType":"enum MerkleGovModule.VoteType"},{"name":"votingPower","type":"uint256","indexed":false,"internalType":"uint256"}],"anonymous":false},{"type":"event","name":"VotingDelayUpdated","inputs":[{"name":"newDelay","type":"uint256","indexed":false,"internalType":"uint256"}],"anonymous":false},{"type":"event","name":"VotingPeriodUpdated","inputs":[{"name":"newPeriod","type":"uint256","indexed":false,"internalType":"uint256"}],"anonymous":false},{"type":"error","name":"AlreadyInitialized","inputs":[]},{"type":"error","name":"AlreadyVoted","inputs":[]},{"type":"error","name":"EmptyProposal","inputs":[]},{"type":"error","name":"InvalidAddress","inputs":[]},{"type":"error","name":"InvalidInitialization","inputs":[]},{"type":"error","name":"InvalidMerkleProof","inputs":[]},{"type":"error","name":"InvalidProposalData","inputs":[]},{"type":"error","name":"InvalidQuorum","inputs":[]},{"type":"error","name":"InvalidTotalVotingPower","inputs":[]},{"type":"error","name":"InvalidVotingPeriod","inputs":[]},{"type":"error","name":"NoMerkleRootSet","inputs":[]},{"type":"error","name":"NotAuthorized","inputs":[]},{"type":"error","name":"NotInitializing","inputs":[]},{"type":"error","name":"OnlyMerkleSnapshot","inputs":[]},{"type":"error","name":"OwnableInvalidOwner","inputs":[{"name":"owner","type":"address","internalType":"address"}]},{"type":"error","name":"OwnableUnauthorizedAccount","inputs":[{"name":"account","type":"address","internalType":"address"}]},{"type":"error","name":"ProposalAlreadyCancelled","inputs":[]},{"type":"error","name":"ProposalAlreadyExecuted","inputs":[]},{"type":"error","name":"ProposalNotFound","inputs":[]},{"type":"error","name":"ProposalNotPassed","inputs":[]},{"type":"error","name":"VotingClosed","inputs":[]}],"bytecode":{"object":"0x6080806040523461049a57608081612d6f803803809161001f82856104bb565b83398101031261049a57610032816104de565b9061003f602082016104de565b906100586060610051604084016104de565b92016104de565b916001600c5561c4e0600d55668e1bc9bf040000600e55600f5460ff81166104ad5760ff1916600117600f557f9016d09d72d40fdae2fd8ceac6b6234c7706214fd39c1cd1e609a0528c19930080546001600160a01b031981166001600160a01b0396871690811790925560405195167f8be0079c531659141344cd1fd0a4f28419497f9722a3daafe3b4186f6b6457e05f80a35f80546001600160a01b03199081166001600160a01b0393841617909155600180549091169282169290921790915516801561049e57600280546001600160a01b0319811683179091556305b209d760e31b8352915f81600481855afa5f91816103b3575b5061027757503d15610270573d610167816104f2565b9061017560405192836104bb565b81523d5f602083013e5b805190600482148061021c575b156102175750505f6003555f6004556101a660055461050d565b601f81116101f6575b505f6005555f6006555b604051916001600160a01b03167fb8ed9bab5ad5186bb6cda3bac43ff4b637c4494961d1ee2a6a0c6408de71211b5f80a3612813908161055c8239f35b6102119060055f52601f60205f20910160051c810190610545565b5f6101af565b602001fd5b5060208101516001600160e01b031981169060048410610250575b506001600160e01b031916633b02b60f60e11b1461018c565b6001600160e01b0319600485900360031b81901b9091161690505f610237565b606061017f565b604081015160035560608101516004556080810151805190939291906001600160401b03811161039f576102ac60055461050d565b601f8111610363575b506020601f82116001146102fb57819060a09495965f926102f0575b50508160011b915f199060031b1c1916176005555b01516006556101b9565b015190505f806102d1565b601f1982169560055f52815f20965f5b81811061034b57509160a095969791846001959410610333575b505050811b016005556102e6565b01515f1960f88460031b161c191690555f8080610325565b8383015189556001909801976020938401930161030b565b61038f9060055f5260205f20601f840160051c81019160208510610395575b601f0160051c0190610545565b5f6102b5565b9091508190610382565b634e487b7160e01b5f52604160045260245ffd5b9091503d805f833e6103c581836104bb565b81019060208183031261049a578051906001600160401b03821161049a57019060c08282031261049a576040519160c083016001600160401b0381118482101761039f5760405280518352602081015160208401526040810151604084015260608101516060840152608081015160018060401b03811161049a5781019180601f8401121561049a578251610459816104f2565b9161046760405193846104bb565b8183526020828601011161049a576020815f928260a097018386015e830101526080840152015160a0820152905f610151565b5f80fd5b63e6c4247b60e01b5f5260045ffd5b62dc149f60e41b5f5260045ffd5b601f909101601f19168101906001600160401b0382119082101761039f57604052565b51906001600160a01b038216820361049a57565b6001600160401b03811161039f57601f01601f191660200190565b90600182811c9216801561053b575b602083101461052757565b634e487b7160e01b5f52602260045260245ffd5b91607f169161051c565b818110610550575050565b5f815560010161054556fe60806040526004361015610011575f80fd5b5f3560e01c8063013cf08b146114de57806302a251a3146114c1578063086cfca81461145a5780631703a0181461143d5780631acc1ab01461141457806328cd5fa914611313578063328dd9821461124c5780633932abb11461122f5780633e4f49e61461120457806340e58ee51461111e57806343859632146110d557806356b9e4c51461105c5780635aef7de614611035578063671b37931461101857806370b0f66014610fcc578063715018a614610f65578063776d1a0114610efc5780638da5cb5b14610ec85780639cb5bd9e14610dea5780639ea9719014610dcd578063a01ff54e14610d09578063a120455c14610ce7578063a4f9edbf14610c0a578063a96ab06d14610be2578063bbdce96914610994578063c1ba4e591461091a578063c623674f146108fd578063c7f758a814610626578063d23254b4146105d8578063d4b83992146105b0578063da35c66414610593578063ea0217cf14610531578063ec5321b91461040c578063f2fde38b146103be5763fe0d94c11461019a575f80fd5b346102f55760203660031901126102f5576004356101b781611b87565b60068110156103aa5760030361039b57805f526008602052600960405f2001600160ff19825416179055805f52600960205260405f2080546101f8816117ca565b91610206604051938461165a565b81835260208301905f5260205f205f915b8383106103335785855f5b815181101561030c576001600160a01b0361023d8284611ced565b51511660208061024d8486611ced565b51015191604061025d8587611ced565b5101519061027760606102708789611ced565b5101611d01565b60015460405163468721a760e01b81529586946001600160a01b039092169385935f9385936102a99360048601611b17565b03925af18015610301576102c1575b50600101610222565b6020813d82116102f9575b816102d96020938361165a565b810103126102f557519081151582036102f557905060016102b8565b5f80fd5b3d91506102cc565b6040513d5f823e3d90fd5b827f712ae1383f79ac853f8d882153778e0260ef8f03b504e2866e0593e04d2b291f5f80a2005b6004602060019260405161034681611608565b848060a01b03865416815284860154838201526040516103748161036d8160028b01611a96565b038261165a565b604082015261038d60ff60038801541660608301611b5a565b815201920192019190610217565b63c8c93ba360e01b5f5260045ffd5b634e487b7160e01b5f52602160045260245ffd5b346102f55760203660031901126102f5576103d761173f565b6103df611d0e565b6001600160a01b038116156103f9576103f7906125d7565b005b631e4fbdf760e01b5f525f60045260245ffd5b346102f5576101203660031901126102f5576004356001600160401b0381116102f55761043d903690600401611786565b6024356001600160401b0381116102f55761045c903690600401611786565b6044356001600160401b0381116102f55761047b9036906004016117e1565b6064356001600160401b0381116102f55761049a90369060040161184f565b926084356001600160401b0381116102f5576104ba9036906004016118ac565b9260a4356001600160401b0381116102f5576104da90369060040161192a565b9160c4359260e4356001600160401b0381116102f5576104fe903690600401611991565b929091610104359760038910156102f55760209961052998610521978995612086565b9233846126d4565b604051908152f35b346102f55760203660031901126102f55760043561054d611d0e565b8015610584576020817f651c77f42613a075437aa794c44471e3abc3a661956a67aaee165bb7396974aa92600d55604051908152a1005b6305a612e360e01b5f5260045ffd5b346102f5575f3660031901126102f5576020600754604051908152f35b346102f5575f3660031901126102f5576001546040516001600160a01b039091168152602090f35b346102f55760403660031901126102f5576105f1611755565b6004355f52600b60205260405f209060018060a01b03165f52602052602060ff60405f2054166106246040518092611b4d565bf35b346102f55760203660031901126102f5576004355f61018060405161064a8161163e565b828152826020820152606060408201526060808201528260808201528260a08201528260c08201528260e0820152826101008201528261012082015282610140820152826101608201520152801580156108f2575b6108e357805f52600860205260405f20604051916106bc8361163e565b8154835260018201546001600160a01b031660208401908152916106e26002820161167b565b6040850190815291846106f76003840161167b565b92606082019384526004810154936080830194855260058201549060a08401918252600683015460c08501908152600784015460e08601908152600885015491610100870192835260098601549461012088019460ff87161515865261014089019660081c60ff1615158752600a880154976101608a01988952600b015498610180019889526107868a611b87565b995f52600960205260405f209b8c5461079e816117ca565b9d6040519e8f906107af908261165a565b828152602001905f5260205f205f915b83831061088257505050506040519e8f9e8f9160608352516060830152600160a01b600190039051169060800152518d60a081016101a09052610200016108059161171b565b90518d8203605f190160c08f015261081d919061171b565b995160e08d0152516101008c0152516101208b0152516101408a0152516101608901525115156101808801525115156101a0870152516101c0860152516101e08501526020840161086d91611a5c565b828103604084015261087e916119ce565b0390f35b6004602060019260405161089581611608565b848060a01b03865416815284860154838201526040516108bc8161036d8160028b01611a96565b60408201526108d560ff60038801541660608301611b5a565b8152019201920191906107bf565b63635e873760e01b5f5260045ffd5b50600754811161069f565b346102f5575f3660031901126102f5576020600454604051908152f35b346102f55760203660031901126102f557600435610936611d0e565b80158015610983575b610974576020817ff18f88786aae85a652aadb99a82462616489a33370c9bcc7b245906812ef7cd192600e55604051908152a1005b63d173577960e01b5f5260045ffd5b50670de0b6b3a7640000811161093f565b346102f55760203660031901126102f5576004356001600160401b0381116102f55760c060031982360301126102f5576040516109d081611623565b8160040135815260248201356020820152604081016044830135815260608201916064840135835260848401356001600160401b0381116102f55760a0610a1f60a49260043691890101611786565b926080810193845201940135845260018060a01b03600254163303610bd357835115610bc457815160035582516004558051938451946001600160401b038611610bb057610a7786610a726005546115d0565b611c72565b602090601f8711600114610b0b579580610ac9927f60469a1323c9c22c5b6bde126cfa19042e701ef43149c572808ee3969da7aa7697985f92610b00575b50508160011b915f199060031b1c19161790565b6005555b519182600655519351905191610af5604051938493845260606020850152606084019061171b565b9060408301520390a2005b015190508880610ab5565b90601f1987169160055f527f036b6384b5eca791c62761152d0c79bb0604c104a5fb6f4eb0703f3154bb3db0925f5b818110610b9857509160019391897f60469a1323c9c22c5b6bde126cfa19042e701ef43149c572808ee3969da7aa76999a9410610b80575b505050811b01600555610acd565b01515f1960f88460031b161c19169055878080610b72565b92936020600181928786015181550195019301610b3a565b634e487b7160e01b5f52604160045260245ffd5b630558bb2560e21b5f5260045ffd5b63173d355360e11b5f5260045ffd5b346102f5575f3660031901126102f5576002546040516001600160a01b039091168152602090f35b346102f55760203660031901126102f5576004356001600160401b0381116102f557610c3a903690600401611786565b600f5460ff8116610cd95760019060ff191617600f556080818051810103126102f55780610c6d60206103f79301611c48565b90610c7a60408201611c48565b610ca4610c956080610c8e60608601611c48565b9401611c48565b936001600160a01b03166125d7565b5f80546001600160a01b03199081166001600160a01b0393841617909155600180549091169282169290921790915516611d41565b62dc149f60e41b5f5260045ffd5b346102f5575f3660031901126102f5576020604051670de0b6b3a76400008152f35b346102f55760803660031901126102f55760043560243560038110156102f557604435906064356001600160401b0381116102f557610d4c903690600401611991565b845f95929552600860205260405f2090610d6583611b87565b60068110156103aa57600103610dbe575f838152600a6020908152604080832033845290915290205460ff16610daf576103f795600a610da8930154863361262b565b33906126d4565b637c9a1cf960e01b5f5260045ffd5b63335b65a560e11b5f5260045ffd5b346102f5575f3660031901126102f5576020600354604051908152f35b346102f5575f3660031901126102f5576040515f600554610e0a816115d0565b8084529060018116908115610ea45750600114610e46575b61087e83610e328185038261165a565b60405191829160208352602083019061171b565b60055f9081527f036b6384b5eca791c62761152d0c79bb0604c104a5fb6f4eb0703f3154bb3db0939250905b808210610e8a57509091508101602001610e32610e22565b919260018160209254838588010152019101909291610e72565b60ff191660208086019190915291151560051b84019091019150610e329050610e22565b346102f5575f3660031901126102f5575f5160206127be5f395f51905f52546040516001600160a01b039091168152602090f35b346102f55760203660031901126102f557610f1561173f565b610f1d611d0e565b600180546001600160a01b039283166001600160a01b0319821681179092559091167f90cc2f570a6eb594b1580ea3e41247d2d73a55281889e86bd4ec2fc29c7e62d65f80a3005b346102f5575f3660031901126102f557610f7d611d0e565b5f5160206127be5f395f51905f5280546001600160a01b031981169091555f906001600160a01b03167f8be0079c531659141344cd1fd0a4f28419497f9722a3daafe3b4186f6b6457e08280a3005b346102f55760203660031901126102f5577fba76433d63148cc0d7df02d39ab5cddf8737df279d4af4c7bce819a2ef719e95602060043561100b611d0e565b80600c55604051908152a1005b346102f5575f3660031901126102f5576020600654604051908152f35b346102f5575f3660031901126102f5575f546040516001600160a01b039091168152602090f35b346102f55760403660031901126102f5576024356004355f52600960205260405f209081548110156102f55761109191611a69565b5060018060a01b0381541661087e60018301549260ff6003604051926110c5846110be8160028501611a96565b038561165a565b0154169060405194859485611b17565b346102f55760403660031901126102f5576110ee611755565b6004355f52600a60205260405f209060018060a01b03165f52602052602060ff60405f2054166040519015158152f35b346102f55760203660031901126102f557600435801580156111f9575b6108e357805f52600860205260405f2060018060a01b035f5160206127be5f395f51905f525416331415806111e5575b6111d657600901805460ff81166111c75760ff8160081c166111b85761ff0019166101001790557f416e669c63d9a3a5e36ee7cc7e2104b8db28ccd286aa18966e98fa230c73b08c5f80a2005b63029684ff60e61b5f5260045ffd5b6351618d5360e01b5f5260045ffd5b63ea8e4eb560e01b5f5260045ffd5b505f546001600160a01b031633141561116b565b50600754811161113b565b346102f55760203660031901126102f5576020611222600435611b87565b6106246040518092611a5c565b346102f5575f3660031901126102f5576020600c54604051908152f35b346102f55760203660031901126102f5576004355f52600960205260405f208054611276816117ca565b91611284604051938461165a565b81835260208301905f5260205f205f915b8383106112b2576040516020808252819061087e908201886119ce565b600460206001926040516112c581611608565b848060a01b03865416815284860154838201526040516112ec8161036d8160028b01611a96565b604082015261130560ff60038801541660608301611b5a565b815201920192019190611295565b346102f5576101003660031901126102f5576004356001600160401b0381116102f557611344903690600401611786565b6024356001600160401b0381116102f557611363903690600401611786565b906044356001600160401b0381116102f5576113839036906004016117e1565b6064356001600160401b0381116102f5576113a290369060040161184f565b926084356001600160401b0381116102f5576113c29036906004016118ac565b9260a4356001600160401b0381116102f5576113e290369060040161192a565b60e435946001600160401b0386116102f557602096611408610529973690600401611991565b96909560c43595612086565b346102f55760203660031901126102f5576103f761143061173f565b611438611d0e565b611d41565b346102f5575f3660031901126102f5576020600e54604051908152f35b346102f55760203660031901126102f55761147361173f565b61147b611d0e565b5f80546001600160a01b039283166001600160a01b03198216811783559216907f52ae88b092de36f87fb43fe794eb1381023b9c1bce563a871154022c63dce3429080a3005b346102f5575f3660031901126102f5576020600d54604051908152f35b346102f55760203660031901126102f5576004355f908152600860205260409020805460018201546001600160a01b03169161151c6002820161167b565b6115286003830161167b565b9160048101549260058201546006830154600784015490600885015492600986015494600a87015496600b0154976040519b8c9b8c5260208c015260408b016101a090526101a08b0161157a9161171b565b8a810360608c015261158b9161171b565b9760808a015260a089015260c088015260e087015261010086015260ff8116151561012086015260081c60ff1615156101408501526101608401526101808301520390f35b90600182811c921680156115fe575b60208310146115ea57565b634e487b7160e01b5f52602260045260245ffd5b91607f16916115df565b608081019081106001600160401b03821117610bb057604052565b60c081019081106001600160401b03821117610bb057604052565b6101a081019081106001600160401b03821117610bb057604052565b90601f801991011681019081106001600160401b03821117610bb057604052565b9060405191825f82549261168e846115d0565b80845293600181169081156116f957506001146116b5575b506116b39250038361165a565b565b90505f9291925260205f20905f915b8183106116dd5750509060206116b3928201015f6116a6565b60209193508060019154838589010152019101909184926116c4565b9050602092506116b394915060ff191682840152151560051b8201015f6116a6565b805180835260209291819084018484015e5f828201840152601f01601f1916010190565b600435906001600160a01b03821682036102f557565b602435906001600160a01b03821682036102f557565b6001600160401b038111610bb057601f01601f191660200190565b81601f820112156102f5576020813591016117a08261176b565b926117ae604051948561165a565b828452828201116102f557815f92602092838601378301015290565b6001600160401b038111610bb05760051b60200190565b9080601f830112156102f5578135906117f9826117ca565b92611807604051948561165a565b82845260208085019360051b8201019182116102f557602001915b81831061182f5750505090565b82356001600160a01b03811681036102f557815260209283019201611822565b9080601f830112156102f5578135611866816117ca565b92611874604051948561165a565b81845260208085019260051b8201019283116102f557602001905b82821061189c5750505090565b813581526020918201910161188f565b9080601f830112156102f55781356118c3816117ca565b926118d1604051948561165a565b81845260208085019260051b820101918383116102f55760208201905b8382106118fd57505050505090565b81356001600160401b0381116102f55760209161191f87848094880101611786565b8152019101906118ee565b9080601f830112156102f557813590611942826117ca565b92611950604051948561165a565b82845260208085019360051b8201019182116102f557602001915b8183106119785750505090565b823560028110156102f55781526020928301920161196b565b9181601f840112156102f5578235916001600160401b0383116102f5576020808501948460051b0101116102f557565b9060028210156103aa5752565b9080602083519182815201916020808360051b8301019401925f915b8383106119f957505050505090565b9091929394602080600192601f19858203018652611a4d895191858060a01b0383511681528383015184820152606080611a42604086015160806040860152608085019061171b565b9401519101906119c1565b970193019301919392906119ea565b9060068210156103aa5752565b8054821015611a82575f5260205f209060021b01905f90565b634e487b7160e01b5f52603260045260245ffd5b5f9291815491611aa5836115d0565b8083529260018116908115611afa5750600114611ac157505050565b5f9081526020812093945091925b838310611ae0575060209250010190565b600181602092949394548385870101520191019190611acf565b915050602093945060ff929192191683830152151560051b010190565b9493916116b393611b459160609360018060a01b03168852602088015260806040880152608087019061171b565b9401906119c1565b9060038210156103aa5752565b60028210156103aa5752565b91908201809211611b7357565b634e487b7160e01b5f52601160045260245ffd5b80158015611c3d575b6108e3575f52600860205260405f20600981015460ff8160081c16611c365760ff16611c305760048101544310611c2b576005810154431115611c2557600681015490600781015490611c02600b611bf6611beb8587611b66565b600885015490611b66565b920154600e5490612541565b11159182611c1b575b5050611c1657600290565b600390565b1190505f80611c0b565b50600190565b505f90565b50600490565b5050600590565b506007548111611b90565b51906001600160a01b03821682036102f557565b818110611c67575050565b5f8155600101611c5c565b90601f8211611c7f575050565b6116b39160055f5260205f20906020601f840160051c83019310611cab575b601f0160051c0190611c5c565b9091508190611c9e565b9190601f8111611cc457505050565b6116b3925f5260205f20906020601f840160051c83019310611cab57601f0160051c0190611c5c565b8051821015611a825760209160051b010190565b5160028110156103aa5790565b5f5160206127be5f395f51905f52546001600160a01b03163303611d2e57565b63118cdaa760e01b5f523360045260245ffd5b6001600160a01b0316801561207757600280546001600160a01b0319811683179091556040516305b209d760e31b81525f81600481865afa5f9181611f9f575b50611e9957503d15611e92573d611d978161176b565b90611da5604051928361165a565b81523d5f602083013e5b8051906004821480611e3e575b15611e395750505f6003555f600455611dd66005546115d0565b601f8111611e18575b505f6005555f6006555b6001600160a01b03167fb8ed9bab5ad5186bb6cda3bac43ff4b637c4494961d1ee2a6a0c6408de71211b5f80a3565b611e339060055f52601f60205f20910160051c810190611c5c565b5f611ddf565b602001fd5b5060208101516001600160e01b031981169060048410611e72575b506001600160e01b031916633b02b60f60e11b14611dbc565b6001600160e01b0319600485900360031b81901b9091161690505f611e59565b6060611daf565b6040810151600355606081015160045560808101518051906001600160401b038211610bb057611ece82610a726005546115d0565b602090601f8311600114611f19579180611f009260a095945f92611f0e5750508160011b915f199060031b1c19161790565b6005555b0151600655611de9565b015190505f80610ab5565b90601f1983169160055f527f036b6384b5eca791c62761152d0c79bb0604c104a5fb6f4eb0703f3154bb3db0925f5b818110611f87575091600193918560a097969410611f6f575b505050811b01600555611f04565b01515f1960f88460031b161c191690555f8080611f61565b92936020600181928786015181550195019301611f48565b9091503d805f833e611fb1818361165a565b8101906020818303126102f5578051906001600160401b0382116102f557019060c0828203126102f55760405191611fe883611623565b8051835260208101516020840152604081015160408401526060810151606084015260808101516001600160401b0381116102f55781019180601f840112156102f55782516120368161176b565b91612044604051938461165a565b818352602082860101116102f5576020815f928260a097018386015e830101526080840152015160a0820152905f611d81565b63e6c4247b60e01b5f5260045ffd5b92969893949591989790976003548015612532578a518951811490811591612526575b811561251a575b5061250b578a51156124fc576120c6933361262b565b6007545f198114611b7357600190810160078190555f81815260086020526040902081815591820180546001600160a01b0319163317905582519093849390929160028301916001600160401b038211610bb05761212e8261212885546115d0565b85611cb5565b602090601f83116001146124995761215c92915f9183611f0e5750508160011b915f199060031b1c19161790565b81555b885160038301996001600160401b038211610bb057612188826121828d546115d0565b8d611cb5565b602090601f8311600114612436576121b692915f9183611f0e5750508160011b915f199060031b1c19161790565b89555b6121c5600c5443611b66565b986121da600484019a808c55600d5490611b66565b9260058101938455600354600a8201908155600b60065492019182555f5b8d518110156123ba578d90895f5260096020528c8c8c61224e612249856122428161223b8160405f209b6122338260018060a01b0392611ced565b511699611ced565b5195611ced565b5194611ced565b611d01565b946040519361225c85611608565b8452602084019182526040840192835261227a606085019687611b5a565b805468010000000000000000811015610bb05761229c91600182018155611a69565b9390936123a7575183546001600160a01b0319166001600160a01b039190911617835551600183015551805160028301916001600160401b038211610bb0576122e98261212885546115d0565b602090601f831160011461234157918061231c9260039695945f92611f0e5750508160011b915f199060031b1c19161790565b90555b0191519160028310156103aa5760019260ff80198354169116179055016121f8565b90601f19831691845f52815f20925f5b81811061238f575091600193918560039897969410612378575b505050811b01905561231f565b01515f1983881b60f8161c191690555f808061236b565b92936020600181928786015181550195019301612351565b634e487b7160e01b5f525f60045260245ffd5b50939950939990949a50612419919597507f7fbe432f55ce68ee893ba06ce1304fa7bd8435642ff4654d6ac718361e68532c9650549754915492549361240b6040519660c0885260c0880190611a96565b908682036020880152611a96565b9660408501526060840152608083015260a08201528033940390a3565b90601f198316918c5f52815f20925f5b8181106124815750908460019594939210612469575b505050811b0189556121b9565b01515f1960f88460031b161c191690555f808061245c565b92936020600181928786015181550195019301612446565b90601f19831691845f52815f20925f5b8181106124e457509084600195949392106124cc575b505050811b01815561215f565b01515f1960f88460031b161c191690555f80806124bf565b929360206001819287860151815501950193016124a9565b63294565bf60e01b5f5260045ffd5b632fc149b760e11b5f5260045ffd5b9050885114155f6120b0565b885181141591506120a9565b63a34e98db60e01b5f5260045ffd5b9091905f905f1984820990848102928380841093039280840393146125c45782670de0b6b3a764000011156125b257507faccb18165bd6fe31ae1cf318dc5b51eee0e1ba569b88cd74c1773b91fac106699394670de0b6b3a7640000910990828211900360ee1b910360121c170290565b634e487b71905260116020526024601cfd5b505050670de0b6b3a76400009192500490565b5f5160206127be5f395f51905f5280546001600160a01b039283166001600160a01b0319821681179092559091167f8be0079c531659141344cd1fd0a4f28419497f9722a3daafe3b4186f6b6457e05f80a3565b604080516001600160a01b039092166020830190815282820193909352815291929161265860608261165a565b519020604051602081019182526020815261267460408261165a565b519020915f925b848410156126b9578360051b830135908181105f146126a8575f52602052600160405f205b93019261267b565b905f52602052600160405f206126a0565b9250925050036126c557565b63582f497d60e11b5f5260045ffd5b5f818152600860209081526040808320600a83528184206001600160a01b038716808652908452828520805460ff19166001179055858552600b8452828520908552909252909120919490929060038510156103aa577f2c9deb38f462962eadbd85a9d3a4120503ee091f1582eaaa10aa8c6797651d299360409360ff1981541660ff8816179055600186145f1461279557600601612774828254611b66565b90555b61278383518096611b4d565b60208501526001600160a01b031692a3565b856127af576007016127a8828254611b66565b9055612777565b6008016127a8828254611b6656fe9016d09d72d40fdae2fd8ceac6b6234c7706214fd39c1cd1e609a0528c199300a26469706673582212205ce0b8b04a628d2ab3b58e570b7687143506c864f1244d3614c1dab51122768464736f6c634300081b0033","linkReferences":{}},"methodIdentifiers":{"QUORUM_RANGE()":"a120455c","avatar()":"5aef7de6","cancel(uint256)":"40e58ee5","castVote(uint256,uint8,uint256,bytes32[])":"a01ff54e","currentMerkleRoot()":"9ea97190","execute(uint256)":"fe0d94c1","getActions(uint256)":"328dd982","getProposal(uint256)":"c7f758a8","hasVoted(uint256,address)":"43859632","ipfsHash()":"c623674f","ipfsHashCid()":"9cb5bd9e","merkleSnapshotContract()":"a96ab06d","onMerkleUpdate((uint256,uint256,bytes32,bytes32,string,uint256))":"bbdce969","owner()":"8da5cb5b","proposalActions(uint256,uint256)":"56b9e4c5","proposalCount()":"da35c664","proposals(uint256)":"013cf08b","propose(string,string,address[],uint256[],bytes[],uint8[],uint256,bytes32[])":"28cd5fa9","proposeWithVote(string,string,address[],uint256[],bytes[],uint8[],uint256,bytes32[],uint8)":"ec5321b9","quorum()":"1703a018","renounceOwnership()":"715018a6","setAvatar(address)":"086cfca8","setMerkleSnapshotContract(address)":"1acc1ab0","setQuorum(uint256)":"c1ba4e59","setTarget(address)":"776d1a01","setUp(bytes)":"a4f9edbf","setVotingDelay(uint256)":"70b0f660","setVotingPeriod(uint256)":"ea0217cf","state(uint256)":"3e4f49e6","target()":"d4b83992","totalVotingPower()":"671b3793","transferOwnership(address)":"f2fde38b","votes(uint256,address)":"d23254b4","votingDelay()":"3932abb1","votingPeriod()":"02a251a3"},"id":133}