{"abi":[{"type":"constructor","inputs":[{"name":"serviceManager_","type":"address","internalType":"address"}],"stateMutability":"nonpayable"},{"type":"function","name":"factory","inputs":[],"outputs":[{"name":"","type":"address","internalType":"contract PredictionMarketFactory"}],"stateMutability":"view"},{"type":"function","name":"getServiceManager","inputs":[],"outputs":[{"name":"","type":"address","internalType":"address"}],"stateMutability":"view"},{"type":"function","name":"handleSignedEnvelope","inputs":[{"name":"envelope","type":"tuple","internalType":"struct IWavsServiceHandler.Envelope","components":[{"name":"eventId","type":"bytes20","internalType":"bytes20"},{"name":"ordering","type":"bytes12","internalType":"bytes12"},{"name":"payload","type":"bytes","internalType":"bytes"}]},{"name":"signatureData","type":"tuple","internalType":"struct IWavsServiceHandler.SignatureData","components":[{"name":"signers","type":"address[]","internalType":"address[]"},{"name":"signatures","type":"bytes[]","internalType":"bytes[]"},{"name":"referenceBlock","type":"uint32","internalType":"uint32"}]}],"outputs":[],"stateMutability":"nonpayable"},{"type":"function","name":"resolvedMarkets","inputs":[{"name":"lmsrMarketMaker","type":"address","internalType":"address"}],"outputs":[{"name":"resolved","type":"bool","internalType":"bool"}],"stateMutability":"view"},{"type":"function","name":"serviceManager","inputs":[],"outputs":[{"name":"","type":"address","internalType":"contract IWavsServiceManager"}],"stateMutability":"view"},{"type":"function","name":"trigger","inputs":[],"outputs":[],"stateMutability":"nonpayable"},{"type":"event","name":"NewTrigger","inputs":[],"anonymous":false},{"type":"error","name":"MarketAlreadyResolved","inputs":[]}],"bytecode":{"object":"0x60803461011c57601f61982b38819003918201601f19168301916001600160401b038311848410176100c35780849260209460405283398101031261011c57516001600160a01b0381169081900361011c5780156100d7576040516191328082016001600160401b038111838210176100c35782916106f9833903905ff080156100b85760018060a01b031660018060a01b03195f5416175f5560018060a01b031960015416176001556040516105d890816101218239f35b6040513d5f823e3d90fd5b634e487b7160e01b5f52604160045260245ffd5b60405162461bcd60e51b815260206004820152601760248201527f496e76616c69642073657276696365206d616e616765720000000000000000006044820152606490fd5b5f80fdfe6080806040526004361015610012575f80fd5b5f905f3560e01c9081633998fdd3146104ae575080634dda0b43146104865780635f051377146104455780637fec8d381461040f578063c45a0155146103e85763f969ff3314610060575f80fd5b346103865760403660031901126103865760043567ffffffffffffffff81116103865736819003906004810160606003198401126103865760243567ffffffffffffffff811161038657806004019060606003198236030112610386576001546001600160a01b031691823b1561038657604051926366b8ac4f60e11b84526040600485015284356bffffffffffffffffffffffff19811680910361038657604485015260248601356bffffffffffffffffffffffff60a01b811680910361038657606485015261014961013860448801809761051b565b6060608488015260a487019161054d565b848103600319016024860152926060840192610165818061056d565b606087529485905260808601945f5b8181106103c25750505061018c90602483019061056d565b8585036020870152808552602085019460208260051b82010195835f925b84841061038a575050505050506044013563ffffffff811680910361038657848093819260405f97015203915afa801561037b57610366575b5035916022190182121561035e570160048101359067ffffffffffffffff821161035e57602481019180360383136103625760609082018290031261035e57604051916060830183811067ffffffffffffffff82111761034a57604052610249906104d1565b90818352606461025b604483016104d1565b916020850192835201359182151583036103375760408481019384526001600160a01b03919091168552600260205284205460ff1661033b5783548351915192518593901515926001600160a01b03908116929181169116803b15610337578492836064926040519687958694630cd7fe5360e11b86526004860152602485015260448401525af1801561032c57610313575b5050516001600160a01b03168152600260205260408120805460ff1916600117905580f35b8161031d916104e5565b61032857815f6102ee565b5080fd5b6040513d84823e3d90fd5b8480fd5b63aa43cb2d60e01b8452600484fd5b634e487b7160e01b85526041600452602485fd5b8280fd5b8380fd5b6103739194505f906104e5565b5f925f6101e3565b6040513d5f823e3d90fd5b5f80fd5b9091929394976020806103b2600193601f198682030188526103ac8d8861051b565b9061054d565b9a019401940192949391906101aa565b909195602080600192838060a01b036103da8b6104d1565b168152019701929101610174565b34610386575f366003190112610386575f546040516001600160a01b039091168152602090f35b34610386575f366003190112610386577f73d3a5cc9e4ef13e9213b4efcc4ed5e34d7b3d9dd7622a0ba1c1f63906933bdc5f80a1005b34610386576020366003190112610386576004356001600160a01b03811690819003610386575f526002602052602060ff60405f2054166040519015158152f35b34610386575f366003190112610386576001546040516001600160a01b039091168152602090f35b34610386575f366003190112610386576001546001600160a01b03168152602090f35b35906001600160a01b038216820361038657565b90601f8019910116810190811067ffffffffffffffff82111761050757604052565b634e487b7160e01b5f52604160045260245ffd5b9035601e198236030181121561038657016020813591019167ffffffffffffffff821161038657813603831361038657565b908060209392818452848401375f828201840152601f01601f1916010190565b9035601e198236030181121561038657016020813591019167ffffffffffffffff8211610386578160051b360383136103865756fea264697066735822122035063f13d5c52344440223ca1ec9940966e446fe85945ecc5bd020c9c35a7b7d64736f6c634300081b0033608080604052346097575f80546001600160a01b031916331790556145a1818101906001600160401b038211838310176083576020918391614b9183393081520301905ff08015607857600180546001600160a01b0319166001600160a01b0392909216919091179055604051614af5908161009c8239f35b6040513d5f823e3d90fd5b634e487b7160e01b5f52604160045260245ffd5b5f80fdfe6080806040526004361015610012575f80fd5b5f905f3560e01c90816312b4d20c146107a15750806319affca6146105885780637dc0d1d0146105615763cc2cc9241461004a575f80fd5b346103ff5760a03660031901126103ff576004359067ffffffffffffffff82116103ff57366023830112156103ff5781600401359067ffffffffffffffff821161054d57604051916100a6601f8201601f1916602001846107c4565b8083526020830193366024838301011161054957818392602460209301873784010152602435926044356001600160a01b03811690819003610549576064359167ffffffffffffffff83168093036104f3576084359460405191614259918284019284841067ffffffffffffffff85111761053557916040939185936108678539602083525180918160208501528584015e8181018401889052601f01601f19160103019084f0801561052a576001600160a01b031693843b156104f35760405163365bb9d560e21b815230600482015260248101879052600260448201528481606481838a5af1801561051f5790859161050a575b505060405195634296357160e11b8752306004880152602487015260026044870152602086606481885afa9586156104ff5784966104c7575b506040958651906101e688836107c4565b60018252601f1988013660208401376101fe826107fa565b52600154608881901c62ffffff16763d602d80600a3d3981f3363d3d373d3d3d363d7300000017865260781b6effffffffffffffffffffffffffffff19166e5af43d82803e903d91602b57fd5bf3176020526001600160a01b036037600987f0169485156104b857853b156103ff57875163277c0e7f60e21b815287600482015284602482015260a0604482015281818061029c60a482018761081b565b8960648301528360848301520381838b5af18015610402579082916104a3575b505087516323b872dd60e01b81523360048201523060248201526044810184905260208160648185895af1908115610402578291610484575b501561044e57875163095ea7b360e01b815286600482015283602482015260208160448185895af1801561040257610421575b50853b156103ff5787516321fce69760e21b8152600481018490528181602481838b5af180156104025790829161040c575b5050853b156103ff578751630237bed160e11b81528181600481838b5af18015610402576103ea575b5050906103cd7f6867cd3ddf1a2f1ce80923be4ebe91b6cdab90ef2266e1b5c38c3e509ad0d8f893928851938785528860208601528985015260c0606085015260c084019061081b565b93608083015260a08201528033930390a282519182526020820152f35b6103f58280926107c4565b6103ff5780610383565b80fd5b89513d84823e3d90fd5b81610416916107c4565b6103ff57805f61035a565b6104429060203d602011610447575b61043a81836107c4565b81019061084e565b610328565b503d610430565b875162461bcd60e51b815260206004820152600f60248201526e151c985b9cd9995c8819985a5b1959608a1b6044820152606490fd5b61049d915060203d6020116104475761043a81836107c4565b5f6102f5565b816104ad916107c4565b6103ff57805f6102bc565b63b06ebf3d60e01b8152600490fd5b9095506020813d6020116104f7575b816104e3602093836107c4565b810103126104f35751945f6101d5565b8380fd5b3d91506104d6565b6040513d86823e3d90fd5b81610514916107c4565b6104f357835f61019c565b6040513d87823e3d90fd5b6040513d85823e3d90fd5b634e487b7160e01b88526041600452602488fd5b8280fd5b634e487b7160e01b81526041600452602490fd5b50346103ff57806003193601126103ff57546040516001600160a01b039091168152602090f35b5034610749576060366003190112610749576004356001600160a01b0381169190829003610749576024356001600160a01b038116929083900361074957604435908115158203610749575f546001600160a01b0316330361074d57803b15610749575f8091600460405180948193638456cb5960e01b83525af1801561073e57610729575b506040519061061e6060836107c4565b600282526020820190604036833780156107125767ffffffffffffffff845b16610647846107fa565b521561070c57670de0b6b3a76400005b8251600110156106f85767ffffffffffffffff166040830152833b156105495760405191633124a62b60e21b835260448301908460048501526040602485015251809152606483019190845b8181106106e257505050818394818581819503925af180156106d7576106c65750f35b816106d0916107c4565b6103ff5780f35b6040513d84823e3d90fd5b82518452602093840193909201916001016106a3565b634e487b7160e01b84526032600452602484fd5b82610657565b67ffffffffffffffff670de0b6b3a764000061063d565b6107369192505f906107c4565b5f905f61060e565b6040513d5f823e3d90fd5b5f80fd5b60405162461bcd60e51b815260206004820152602660248201527f4f6e6c7920746865206f7261636c652063616e2063616c6c20746869732066756044820152653731ba34b7b760d11b6064820152608490fd5b34610749575f366003190112610749576001546001600160a01b03168152602090f35b90601f8019910116810190811067ffffffffffffffff8211176107e657604052565b634e487b7160e01b5f52604160045260245ffd5b8051156108075760200190565b634e487b7160e01b5f52603260045260245ffd5b90602080835192838152019201905f5b8181106108385750505090565b825184526020938401939092019160010161082b565b9081602091031261074957518015158103610749579056fe6080604052346101f95761425980380380610019816101fd565b9283398101906020818303126101f9578051906001600160401b0382116101f9570181601f820112156101f9578051906001600160401b0382116101e55761006a601f8301601f19166020016101fd565b92828452602083830101116101f957815f9260208093018386015e8301015280516001600160401b0381116101e557600254600181811c911680156101db575b60208210146101c757601f8111610164575b50602091601f8211600114610104579181925f926100f9575b50508160011b915f199060031b1c1916176002555b60405161403690816102238239f35b015190505f806100d5565b601f1982169260025f52805f20915f5b85811061014c57508360019510610134575b505050811b016002556100ea565b01515f1960f88460031b161c191690555f8080610126565b91926020600181928685015181550194019201610114565b60025f527f405787fa12a823e0f2b7631cc41b3ba8828b3321ca811111fa75cd3aa3bb5ace601f830160051c810191602084106101bd575b601f0160051c01905b8181106101b257506100bc565b5f81556001016101a5565b909150819061019c565b634e487b7160e01b5f52602260045260245ffd5b90607f16906100aa565b634e487b7160e01b5f52604160045260245ffd5b5f80fd5b6040519190601f01601f191682016001600160401b038111838210176101e55760405256fe60806040526004361015610011575f80fd5b5f3560e01c8062fdd58e1461014357806301b7037c1461013e57806301ffc9a7146101395780630504c814146101345780630e89341c1461012f5780632eb2c2d61461012a57806339dd7530146101255780634e1273f41461012057806372ce42751461011b578063852c6ae214610116578063856296f7146101115780639e7212ad1461010c578063a22cb46514610107578063c49298ac14610102578063d42dc0c2146100fd578063d96ee754146100f8578063dd34de67146100f3578063e985e9c5146100ee5763f242432a146100e9575f80fd5b6112d4565b611270565b611246565b61115a565b611130565b610fc9565b610f0e565b610d30565b610d0c565b610cf3565b610ab3565b6109aa565b610933565b61089f565b61069c565b61061d565b610581565b6101d9565b61015d565b6001600160a01b0381160361015957565b5f80fd5b346101595760403660031901126101595760206101a060043561017f81610148565b6024355f525f835260405f209060018060a01b03165f5260205260405f2090565b54604051908152f35b9181601f84011215610159578235916001600160401b038311610159576020808501948460051b01011161015957565b34610159576080366003190112610159576004356101f681610148565b602435906044356064356001600160401b0381116101595761021c9036906004016101a9565b610231839492945f52600460205260405f2090565b549161023e8315156113e2565b610250845f52600360205260405f2090565b5461025c81151561143c565b5f9361026a6001831b61149c565b915f5b87868a8c82851061046857918a84918a826102c4575b6102bf7f2682012a4a4f1973119f1c9b90745d1bd91fa2bab387344f044cb3586864d18d9360405193849360018060a01b0316973397856117eb565b0390a4005b856104215760405163a9059cbb60e01b815233600482015260248101849052926001600160a01b038216906020856044815f865af191821561041c576103366102bf937f2682012a4a4f1973119f1c9b90745d1bd91fa2bab387344f044cb3586864d18d975f916103ed575b506115d4565b61034f61034a610344611634565b926120fe565b611680565b610358826116c1565b52610362816116c1565b5061037461036f8a6121bd565b6116f2565b61037d826116ce565b52610387816116ce565b507f17b25de1f7ac081e71892e23f73afb17b86207521c28158cf2f7798a97ae88c76103e16040516103d3816103c587602083019190602083019252565b03601f1981018352826107a4565b604051918291339583611726565b0390a25b935050610283565b61040f915060203d602011610415575b61040781836107a4565b8101906115b4565b8b610330565b503d6103fd565b6115c9565b6102bf7f2682012a4a4f1973119f1c9b90745d1bd91fa2bab387344f044cb3586864d18d93610463610453898561202e565b8261045c6115a0565b91336120ba565b6103e5565b6104798561049a94610494946114d5565b3593849182151580610566575b61048f906114e5565b611dea565b8761202e565b905f905f5b8581106105195750506104d2336104bd845f525f60205260405f2090565b9060018060a01b03165f5260205260405f2090565b5490816104e5575b50505060010161026d565b9061050a600194939a610504886104ff610511968661156a565b611591565b90611545565b9933612067565b905f806104da565b8b6001821b831661052e575b5060010161049f565b819361050461055360019461054e61055d955f52600360205260405f2090565b610603565b90549060031b1c90565b9290508b610525565b50898310610486565b6001600160e01b031981160361015957565b346101595760203660031901126101595760206004356105a08161056f565b63ffffffff60e01b16636cdb3d1360e11b81149081156105de575b81156105cd575b506040519015158152f35b6301ffc9a760e01b1490505f6105c2565b6303a24d0760e21b811491506105bb565b634e487b7160e01b5f52603260045260245ffd5b8054821015610618575f5260205f2001905f90565b6105ef565b3461015957604036600319011261015957600435602435905f52600360205260405f2080548210156101595760209161065591610603565b90549060031b1c604051908152f35b805180835260209291819084018484015e5f828201840152601f01601f1916010190565b906020610699928181520190610664565b90565b34610159576020366003190112610159576040515f6002548060011c9060018116908115610786575b6020831082146107725782855260208501919081156107595750600114610707575b610703846106f7818603826107a4565b60405191829182610688565b0390f35b60025f9081529250907f405787fa12a823e0f2b7631cc41b3ba8828b3321ca811111fa75cd3aa3bb5ace5b818410610745575050016106f7826106e7565b805484840152602090930192600101610732565b60ff191682525090151560051b0190506106f7826106e7565b634e487b7160e01b5f52602260045260245ffd5b91607f16916106c5565b634e487b7160e01b5f52604160045260245ffd5b90601f801991011681019081106001600160401b038211176107c557604052565b610790565b6001600160401b0381116107c55760051b60200190565b9080601f830112156101595781356107f8816107ca565b9261080660405194856107a4565b81845260208085019260051b82010192831161015957602001905b82821061082e5750505090565b8135815260209182019101610821565b6001600160401b0381116107c557601f01601f191660200190565b81601f82011215610159578035906108708261083e565b9261087e60405194856107a4565b8284526020838301011161015957815f926020809301838601378301015290565b346101595760a0366003190112610159576004356108bc81610148565b602435906108c982610148565b6044356001600160401b038111610159576108e89036906004016107e1565b6064356001600160401b038111610159576109079036906004016107e1565b90608435936001600160401b0385116101595761092b610931953690600401610859565b9361180e565b005b3461015957604036600319011261015957602061095e60043561095581610148565b6024359061202e565b604051908152f35b90602080835192838152019201905f5b8181106109835750505090565b8251845260209384019390920191600101610976565b906020610699928181520190610966565b34610159576040366003190112610159576004356001600160401b0381116101595736602382011215610159578060040135906109e6826107ca565b916109f460405193846107a4565b8083526024602084019160051b8301019136831161015957602401905b828210610a5157836024356001600160401b0381116101595761070391610a3f610a459236906004016107e1565b9061189c565b60405191829182610999565b602080918335610a6081610148565b815201910190610a11565b9060a060031983011261015957600435610a8481610148565b916024359160443591606435906001600160401b03821161015957610aab916004016101a9565b909160843590565b3461015957610ac136610a6b565b91610ad160018397959711611926565b610afa6001610ae8885f52600360205260405f2090565b54610af481151561143c565b1b61149c565b80938688610b078661186a565b93610b118761186a565b975f5b888110610c5f575081610c1b57505050610bd9576040516323b872dd60e01b815233600482015230602482015260448101829052916020836064815f6001600160a01b038c165af190811561041c577f2e6bb91f8cbcda0c93623c54d0403a43514fabc40084ec96b6d5379a7478629896610b9d610bac936102bf965f91610bba575b506119b6565b610ba56115a0565b91336122a7565b604051938493339785611a0e565b610bd3915060203d6020116104155761040781836107a4565b5f610b97565b610bac6102bf927f2e6bb91f8cbcda0c93623c54d0403a43514fabc40084ec96b6d5379a7478629896610c1684610c108c8c61202e565b33612067565b610b9d565b84610c10610c59610bac966102bf99967f2e6bb91f8cbcda0c93623c54d0403a43514fabc40084ec96b6d5379a747862989d96610c16961891611dea565b8c61202e565b9092610c9f600193610ca592610c76858d8d6114d5565b35809281151580610cc7575b610c8b906114e5565b610c988282811614611971565b1897611dea565b8b61202e565b610caf82886116de565b5284610cbb828b6116de565b5201918a918a93610b14565b50888210610c82565b606090600319011261015957600435610ce881610148565b906024359060443590565b3461015957602061095e610d0636610cd0565b916122c2565b3461015957606036600319011261015957602061095e604435602435600435611dea565b3461015957610d3e36610a6b565b91610d4e60018397959711611926565b610d656001610ae8885f52600360205260405f2090565b80610d6f8461186a565b610d788561186a565b90885f5b8b888210610e9d5750505090610d9291336122fa565b81610e5f57505084610e285760405163a9059cbb60e01b815233600482015260248101849052926020846044815f6001600160a01b038a165af190811561041c57610bac6102bf927f6f13ca62553fcc2bcd2372180a43949c1e4cebba603901ede2f4e14f36b282ca965f91610e09575b50611a34565b610e22915060203d6020116104155761040781836107a4565b5f610e03565b6102bf7f6f13ca62553fcc2bcd2372180a43949c1e4cebba603901ede2f4e14f36b282ca93610e5a610453888861202e565b610bac565b93610e5a610453610e976102bf947f6f13ca62553fcc2bcd2372180a43949c1e4cebba603901ede2f4e14f36b282ca98188b8b611dea565b8861202e565b610c9f60019397610edc92610eb3858d8d6114d5565b35809281151580610efb575b610ec8906114e5565b610ed58282811614611971565b1899611dea565b610ee682856116de565b5288610ef282866116de565b52018990610d7c565b508a8210610ebf565b8015150361015957565b3461015957604036600319011261015957600435610f2b81610148565b602435610f3781610f04565b6001600160a01b038216918215610fb757335f9081526001602090815260408083206001600160a01b0390941683529290522060ff1981541660ff831515161790557f17307eab39ab6107e8899845ad3d59bd9653f200f220920489ca2b5937696c3160405180610fb2339482919091602081019215159052565b0390a3005b62ced3e160e81b5f525f60045260245ffd5b34610159576040366003190112610159576004356024356001600160401b03811161015957610ffc9036906004016101a9565b9061100960018311611a7f565b6110148284336122c2565b906110328361102b845f52600360205260405f2090565b5414611ade565b61104e611047835f52600460205260405f2090565b5415611b2a565b5f905f5b8481106110bd575050611066811515611bc2565b611078825f52600460205260405f2090565b557fb44d84d3289691f71497564b85d4233648d9dbae8cbdbb4329f301c3a01858946102bf6110af835f52600360205260405f2090565b604051918291339683611c05565b8061112a6110d96110d160019489876114d5565b358096611545565b946110fc6110f66105538561054e8b5f52600360205260405f2090565b15611b76565b6111128361054e895f52600360205260405f2090565b90919082549060031b91821b915f19901b1916179055565b01611052565b34610159576020366003190112610159576004355f526003602052602060405f2054604051908152f35b346101595761116836610cd0565b909161010082116112085761117f60018311611a7f565b7fab3760c3bd2bb38b5bcf54dc79802ed67338b4cf29f3054ded67ed24661e41776102bf6111ae8486856122c2565b926111cb6111c4855f52600360205260405f2090565b5415611c49565b6111ee6111d78661186a565b6111e9865f52600360205260405f2090565b611c95565b6040519485526001600160a01b0316939081906020820190565b60405162461bcd60e51b8152602060048201526016602482015275746f6f206d616e79206f7574636f6d6520736c6f747360501b6044820152606490fd5b34610159576020366003190112610159576004355f526004602052602060405f2054604051908152f35b3461015957604036600319011261015957602060ff6112c860043561129481610148565b602435906112a182610148565b60018060a01b03165f526001845260405f209060018060a01b03165f5260205260405f2090565b54166040519015158152f35b346101595760a0366003190112610159576004356112f181610148565b6024356112fd81610148565b60443590606435926084356001600160401b03811161015957611324903690600401610859565b926001600160a01b03821633811415806113bf575b6113a9576001600160a01b038416156113965715611384576109319461137c60405192600184526020840152604083019160018352606084015260808301604052565b929091613b5b565b626a0d4560e21b5f525f60045260245ffd5b632bfa23e760e11b5f525f60045260245ffd5b63711bec9160e11b5f523360045260245260445ffd5b505f81815260016020908152604080832033845290915290205460ff1615611339565b156113e957565b60405162461bcd60e51b815260206004820152602560248201527f726573756c7420666f7220636f6e646974696f6e206e6f74207265636569766560448201526419081e595d60da1b6064820152608490fd5b1561144357565b60405162461bcd60e51b815260206004820152601a60248201527f636f6e646974696f6e206e6f74207072657061726564207965740000000000006044820152606490fd5b634e487b7160e01b5f52601160045260245ffd5b5f198101919082116114aa57565b611488565b5f516020613fe15f395f51905f5203905f516020613fe15f395f51905f5282116114aa57565b91908110156106185760051b0190565b156114ec57565b60405162461bcd60e51b815260206004820152601560248201527419dbdd081a5b9d985b1a59081a5b99195e081cd95d605a1b6044820152606490fd5b90600282018092116114aa57565b90600182018092116114aa57565b919082018092116114aa57565b600181901b91906001600160ff1b038116036114aa57565b818102929181159184041417156114aa57565b634e487b7160e01b5f52601260045260245ffd5b811561159b570490565b61157d565b604051906115af6020836107a4565b5f8252565b90816020910312610159575161069981610f04565b6040513d5f823e3d90fd5b156115db57565b60405162461bcd60e51b815260206004820152602b60248201527f636f756c64206e6f74207472616e73666572207061796f757420746f206d657360448201526a39b0b3b29039b2b73232b960a91b6064820152608490fd5b6040516060919061164583826107a4565b6002815291601f1901825f5b82811061165d57505050565b806060602080938501015201611651565b805191908290602001825e015f815290565b906116bf6116b1926040519384916f31b7b63630ba32b930b62a37b5b2b71d60811b6020840152603083019061166e565b03601f1981018452836107a4565b565b8051156106185760200190565b8051600110156106185760400190565b80518210156106185760209160051b010190565b906116bf6116b192604051938491723830b932b73a21b7b63632b1ba34b7b724b21d60691b6020840152603383019061166e565b929160608452601860608501527f70726564696374696f6e5f6d61726b65745f72656465656d0000000000000000608085015260a084019360a06020820152825180955260c0810194602060c08260051b8401019401905f5b81811061179c575050506106999394506040818403910152610664565b9091946020806117b860019360bf19888203018c528951610664565b9701980191019691909661177f565b81835290916001600160fb1b0383116101595760209260051b809284830137010190565b949392916040926118099287526060602088015260608701916117c7565b930152565b939291906001600160a01b0385163381141580611847575b6113a9576001600160a01b038216156113965715611384576116bf94613b5b565b505f81815260016020908152604080832033845290915290205460ff1615611826565b90611874826107ca565b61188160405191826107a4565b8281528092611892601f19916107ca565b0190602036910137565b919091805183518082036119115750506118b6815161186a565b905f5b815181101561190a57806118f860019260051b602080828701015191890101515f525f60205260405f209060018060a01b03165f5260205260405f2090565b5461190382866116de565b52016118b9565b5090925050565b635b05999160e01b5f5260045260245260445ffd5b1561192d57565b606460405162461bcd60e51b815260206004820152602060248201527f676f7420656d707479206f722073696e676c65746f6e20706172746974696f6e6044820152fd5b1561197857565b60405162461bcd60e51b81526020600482015260166024820152751c185c9d1a5d1a5bdb881b9bdd08191a5cda9bda5b9d60521b6044820152606490fd5b156119bd57565b60405162461bcd60e51b815260206004820152602360248201527f636f756c64206e6f74207265636569766520636f6c6c61746572616c20746f6b604482015262656e7360e81b6064820152608490fd5b949392916040926118099260018060a01b031687526060602088015260608701916117c7565b15611a3b57565b606460405162461bcd60e51b815260206004820152602060248201527f636f756c64206e6f742073656e6420636f6c6c61746572616c20746f6b656e736044820152fd5b15611a8657565b60405162461bcd60e51b815260206004820152602a60248201527f74686572652073686f756c64206265206d6f7265207468616e206f6e65206f756044820152691d18dbdb59481cdb1bdd60b21b6064820152608490fd5b15611ae557565b60405162461bcd60e51b815260206004820152601f60248201527f636f6e646974696f6e206e6f74207072657061726564206f7220666f756e64006044820152606490fd5b15611b3157565b60405162461bcd60e51b815260206004820152601e60248201527f7061796f75742064656e6f6d696e61746f7220616c72656164792073657400006044820152606490fd5b15611b7d57565b60405162461bcd60e51b815260206004820152601c60248201527f7061796f7574206e756d657261746f7220616c726561647920736574000000006044820152606490fd5b15611bc957565b60405162461bcd60e51b81526020600482015260146024820152737061796f757420697320616c6c207a65726f657360601b6044820152606490fd5b6060906040810192815260406020820152835480935201915f5260205f20905f5b818110611c335750505090565b8254845260209093019260019283019201611c26565b15611c5057565b60405162461bcd60e51b815260206004820152601a60248201527f636f6e646974696f6e20616c72656164792070726570617265640000000000006044820152606490fd5b8151916001600160401b0383116107c5576801000000000000000083116107c5578154838355808410611cf8575b506020611cd59101915f5260205f2090565b5f5b838110611ce45750505050565b600190602084519401938184015501611cd7565b825f528360205f2091820191015b818110611d135750611cc3565b5f8155600101611d06565b15611d2557565b60405162461bcd60e51b815260206004820152601c60248201527f696e76616c696420706172656e7420636f6c6c656374696f6e204944000000006044820152606490fd5b3d15611d94573d90611d7b8261083e565b91611d8960405193846107a4565b82523d5f602084013e565b606090565b15611da057565b60405162461bcd60e51b815260206004820152600c60248201526b1958d859190819985a5b195960a21b6044820152606490fd5b9190826040910312610159576020825192015190565b6040805160208101938452908101939093529291611e0b81606081016103c5565b51902090611e198260ff1c90565b1580159390925f919082808060015b15611e7b575b5050505f9261159b5760015f516020613fe15f395f51905f529108945f945f516020613fe15f395f51905f52600381808a80098a090886611e6e8261231e565b9598939897959297611e28565b61159b575f516020613fe15f395f51905f5282800914611e9c578084611e2e565b9395909481612022575b8115612008575b50611ff8575b80611ed8575b5050611ec760019160011690565b14611ecf5790565b600160fe1b1890565b9091611ee48260fe1c90565b1591611efb611ef584159260021b90565b60021c90565b9361159b57611ec79484611f8e5f946103c5611fb49787965f516020613fe15f395f51905f52600381808960019f0989090890611f378261231e565b9281611fec575b8115611fd2575b50611fbd575b611f66905f516020613fe15f395f51905f5283800914611d1e565b6040519485936020850197889094939260609260808301968352602083015260408201520152565b519060065afa611fa5611f9f611d6a565b91611d99565b60208082518301019101611dd4565b92909291611eb9565b90611fca611f66916114af565b919050611f4b565b905080611fe0575b5f611f45565b508a6001831614611fda565b60018416159150611f3e565b91612002906114af565b91611eb3565b905080612016575b5f611ead565b50600183811614612010565b60018516159150611ea6565b906040519060208201926bffffffffffffffffffffffff199060601b1683526034820152603481526120616054826107a4565b51902090565b906001600160a01b03821615611384576116bf926120a260405192600184526020840152604083019160018352606084015260808301604052565b90604051926120b26020856107a4565b5f84526138af565b919291906001600160a01b03821615611396576116bf936120f860405192600184526020840152604083019160018352606084015260808301604052565b91613a14565b6001600160a01b03168061212261211d6121186014611552565b611529565b613d31565b91603061212e846116c1565b53607861213a84613d59565b5361214d6121486014611552565b611537565b60018111612175575061215e575090565b63e22e27eb60e01b5f52600452601460245260445ffd5b90600f81166010811015610618576121b8916121b2916f181899199a1a9b1b9c1cb0b131b232b360811b901a6121ab8588613d69565b5360041c90565b91613d7a565b61214d565b60016fffffffffffffffffffffffffffffffff821160071b6001600160401b0383821c1160061b1763ffffffff83821c1160051b1761ffff83821c1160041b1760ff838260031c921c1117018161221961211d61211884611552565b926030612225856116c1565b53607861223185613d59565b5361223e61214884611552565b60018111612265575061225057505090565b63e22e27eb60e01b5f5260045260245260445ffd5b90600f8116906010821015610618576122a2916f181899199a1a9b1b9c1cb0b131b232b360811b901a6122988488613d69565b5360041c91613d7a565b61223e565b9291906001600160a01b03841615611396576116bf93613a14565b916040519160208301936bffffffffffffffffffffffff199060601b16845260348301526054820152605481526120616074826107a4565b90916001600160a01b03821615611384576116bf92604051926120b26020856107a4565b5f516020613fe15f395f51905f528180095f516020613fe15f395f51905f52818009805f516020613fe15f395f51905f5291095f516020613fe15f395f51905f52910990815f516020613fe15f395f51905f52910990815f516020613fe15f395f51905f529109905f516020613fe15f395f51905f528280095f516020613fe15f395f51905f528180095f516020613fe15f395f51905f52908209805f516020613fe15f395f51905f529109805f516020613fe15f395f51905f5291095f516020613fe15f395f51905f5291095f516020613fe15f395f51905f529109905f516020613fe15f395f51905f52828009805f516020613fe15f395f51905f5291095f516020613fe15f395f51905f529109905f516020613fe15f395f51905f52828009805f516020613fe15f395f51905f529109805f516020613fe15f395f51905f5291095f516020613fe15f395f51905f529083095f516020613fe15f395f51905f529109905f516020613fe15f395f51905f52828009805f516020613fe15f395f51905f529109805f516020613fe15f395f51905f5291095f516020613fe15f395f51905f529083095f516020613fe15f395f51905f52910990815f516020613fe15f395f51905f529109905f516020613fe15f395f51905f52828009805f516020613fe15f395f51905f5291095f516020613fe15f395f51905f529109905f516020613fe15f395f51905f528280095f516020613fe15f395f51905f52818009805f516020613fe15f395f51905f529109805f516020613fe15f395f51905f5291095f516020613fe15f395f51905f5291095f516020613fe15f395f51905f52910990815f516020613fe15f395f51905f529109905f516020613fe15f395f51905f52828009805f516020613fe15f395f51905f529109805f516020613fe15f395f51905f5291095f516020613fe15f395f51905f529109905f516020613fe15f395f51905f52828009805f516020613fe15f395f51905f5291095f516020613fe15f395f51905f52908309805f516020613fe15f395f51905f529109805f516020613fe15f395f51905f5291095f516020613fe15f395f51905f529083095f516020613fe15f395f51905f529109905f516020613fe15f395f51905f528280095f516020613fe15f395f51905f52818009805f516020613fe15f395f51905f5291095f516020613fe15f395f51905f529082095f516020613fe15f395f51905f52908409805f516020613fe15f395f51905f529109805f516020613fe15f395f51905f529109805f516020613fe15f395f51905f529109805f516020613fe15f395f51905f5291095f516020613fe15f395f51905f5291095f516020613fe15f395f51905f529109905f516020613fe15f395f51905f528280095f516020613fe15f395f51905f529083095f516020613fe15f395f51905f529109905f516020613fe15f395f51905f528280095f516020613fe15f395f51905f52908309805f516020613fe15f395f51905f5291095f516020613fe15f395f51905f528180095f516020613fe15f395f51905f529082095f516020613fe15f395f51905f52818009805f516020613fe15f395f51905f529109805f516020613fe15f395f51905f529109805f516020613fe15f395f51905f529109805f516020613fe15f395f51905f5291095f516020613fe15f395f51905f5291095f516020613fe15f395f51905f5291095f516020613fe15f395f51905f52910990815f516020613fe15f395f51905f529109905f516020613fe15f395f51905f528280095f516020613fe15f395f51905f52910990815f516020613fe15f395f51905f52910990815f516020613fe15f395f51905f52910990815f516020613fe15f395f51905f52910990815f516020613fe15f395f51905f529109905f516020613fe15f395f51905f528280095f516020613fe15f395f51905f52908309805f516020613fe15f395f51905f5291095f516020613fe15f395f51905f529109905f516020613fe15f395f51905f52828009805f516020613fe15f395f51905f5291095f516020613fe15f395f51905f52910990815f516020613fe15f395f51905f529109905f516020613fe15f395f51905f528280095f516020613fe15f395f51905f529083095f516020613fe15f395f51905f52910990815f516020613fe15f395f51905f52910990815f516020613fe15f395f51905f52910990815f516020613fe15f395f51905f529109905f516020613fe15f395f51905f52828009805f516020613fe15f395f51905f5291095f516020613fe15f395f51905f529083095f516020613fe15f395f51905f529109905f516020613fe15f395f51905f528280095f516020613fe15f395f51905f529083095f516020613fe15f395f51905f52910990815f516020613fe15f395f51905f52910990815f516020613fe15f395f51905f52910990815f516020613fe15f395f51905f52910990815f516020613fe15f395f51905f529109905f516020613fe15f395f51905f528280095f516020613fe15f395f51905f52908309805f516020613fe15f395f51905f5291095f516020613fe15f395f51905f52910990815f516020613fe15f395f51905f529109905f516020613fe15f395f51905f528280095f516020613fe15f395f51905f52908309805f516020613fe15f395f51905f5291095f516020613fe15f395f51905f529109905f516020613fe15f395f51905f528280095f516020613fe15f395f51905f52818009805f516020613fe15f395f51905f5291095f516020613fe15f395f51905f529082095f516020613fe15f395f51905f52908409805f516020613fe15f395f51905f529109805f516020613fe15f395f51905f529109805f516020613fe15f395f51905f529109805f516020613fe15f395f51905f5291095f516020613fe15f395f51905f5291095f516020613fe15f395f51905f52910990815f516020613fe15f395f51905f52910990815f516020613fe15f395f51905f52910990815f516020613fe15f395f51905f529109905f516020613fe15f395f51905f528280095f516020613fe15f395f51905f52908309805f516020613fe15f395f51905f529109805f516020613fe15f395f51905f529109805f516020613fe15f395f51905f5291095f516020613fe15f395f51905f529083095f516020613fe15f395f51905f529109905f516020613fe15f395f51905f528280095f516020613fe15f395f51905f52908309805f516020613fe15f395f51905f5291095f516020613fe15f395f51905f529109905f516020613fe15f395f51905f528280095f516020613fe15f395f51905f529083095f516020613fe15f395f51905f52910990815f516020613fe15f395f51905f529109905f516020613fe15f395f51905f52828009805f516020613fe15f395f51905f5291095f516020613fe15f395f51905f52910990815f516020613fe15f395f51905f529109905f516020613fe15f395f51905f528280095f516020613fe15f395f51905f52910990815f516020613fe15f395f51905f52910990815f516020613fe15f395f51905f529109905f516020613fe15f395f51905f528280095f516020613fe15f395f51905f529083095f516020613fe15f395f51905f52910990815f516020613fe15f395f51905f529109905f516020613fe15f395f51905f528280095f516020613fe15f395f51905f52908309805f516020613fe15f395f51905f529109805f516020613fe15f395f51905f5291095f516020613fe15f395f51905f529109905f516020613fe15f395f51905f52828009805f516020613fe15f395f51905f529109805f516020613fe15f395f51905f5291095f516020613fe15f395f51905f529083095f516020613fe15f395f51905f52910990815f516020613fe15f395f51905f529109905f516020613fe15f395f51905f528280095f516020613fe15f395f51905f52818409805f516020613fe15f395f51905f529109805f516020613fe15f395f51905f5291095f516020613fe15f395f51905f5291095f516020613fe15f395f51905f529109905f516020613fe15f395f51905f528280095f516020613fe15f395f51905f52910990815f516020613fe15f395f51905f52910990815f516020613fe15f395f51905f52910990815f516020613fe15f395f51905f52910990815f516020613fe15f395f51905f52910990815f516020613fe15f395f51905f529109905f516020613fe15f395f51905f528280095f516020613fe15f395f51905f529083095f516020613fe15f395f51905f52818409805f516020613fe15f395f51905f529109805f516020613fe15f395f51905f5291095f516020613fe15f395f51905f5291095f516020613fe15f395f51905f52910990815f516020613fe15f395f51905f52910990815f516020613fe15f395f51905f52910990815f516020613fe15f395f51905f52910990815f516020613fe15f395f51905f529109905f516020613fe15f395f51905f528280095f516020613fe15f395f51905f529083095f516020613fe15f395f51905f52910990815f516020613fe15f395f51905f529109805f516020613fe15f395f51905f529109805f516020613fe15f395f51905f529109805f516020613fe15f395f51905f529109805f516020613fe15f395f51905f529109805f516020613fe15f395f51905f529109805f516020613fe15f395f51905f529109805f516020613fe15f395f51905f529109805f516020613fe15f395f51905f529109805f516020613fe15f395f51905f529109805f516020613fe15f395f51905f529109805f516020613fe15f395f51905f529109805f516020613fe15f395f51905f529109805f516020613fe15f395f51905f529109805f516020613fe15f395f51905f529109805f516020613fe15f395f51905f529109805f516020613fe15f395f51905f529109805f516020613fe15f395f51905f529109805f516020613fe15f395f51905f529109805f516020613fe15f395f51905f529109805f516020613fe15f395f51905f529109805f516020613fe15f395f51905f529109805f516020613fe15f395f51905f529109805f516020613fe15f395f51905f529109805f516020613fe15f395f51905f529109805f516020613fe15f395f51905f529109805f516020613fe15f395f51905f529109805f516020613fe15f395f51905f529109805f516020613fe15f395f51905f529109805f516020613fe15f395f51905f529109805f516020613fe15f395f51905f529109805f516020613fe15f395f51905f529109805f516020613fe15f395f51905f529109805f516020613fe15f395f51905f529109805f516020613fe15f395f51905f529109805f516020613fe15f395f51905f529109805f516020613fe15f395f51905f529109805f516020613fe15f395f51905f529109805f516020613fe15f395f51905f529109805f516020613fe15f395f51905f529109805f516020613fe15f395f51905f529109805f516020613fe15f395f51905f529109805f516020613fe15f395f51905f529109805f516020613fe15f395f51905f529109805f516020613fe15f395f51905f529109805f516020613fe15f395f51905f529109805f516020613fe15f395f51905f529109805f516020613fe15f395f51905f529109805f516020613fe15f395f51905f529109805f516020613fe15f395f51905f529109805f516020613fe15f395f51905f529109805f516020613fe15f395f51905f529109805f516020613fe15f395f51905f529109805f516020613fe15f395f51905f529109805f516020613fe15f395f51905f529109805f516020613fe15f395f51905f529109805f516020613fe15f395f51905f529109805f516020613fe15f395f51905f529109805f516020613fe15f395f51905f529109805f516020613fe15f395f51905f529109805f516020613fe15f395f51905f529109805f516020613fe15f395f51905f529109805f516020613fe15f395f51905f529109805f516020613fe15f395f51905f529109805f516020613fe15f395f51905f529109805f516020613fe15f395f51905f529109805f516020613fe15f395f51905f529109805f516020613fe15f395f51905f529109805f516020613fe15f395f51905f529109805f516020613fe15f395f51905f529109805f516020613fe15f395f51905f529109805f516020613fe15f395f51905f529109805f516020613fe15f395f51905f529109805f516020613fe15f395f51905f529109805f516020613fe15f395f51905f529109805f516020613fe15f395f51905f529109805f516020613fe15f395f51905f529109805f516020613fe15f395f51905f529109805f516020613fe15f395f51905f529109805f516020613fe15f395f51905f529109805f516020613fe15f395f51905f529109805f516020613fe15f395f51905f529109805f516020613fe15f395f51905f529109805f516020613fe15f395f51905f529109805f516020613fe15f395f51905f529109805f516020613fe15f395f51905f529109805f516020613fe15f395f51905f529109805f516020613fe15f395f51905f529109805f516020613fe15f395f51905f529109805f516020613fe15f395f51905f529109805f516020613fe15f395f51905f529109805f516020613fe15f395f51905f529109805f516020613fe15f395f51905f529109805f516020613fe15f395f51905f529109805f516020613fe15f395f51905f529109805f516020613fe15f395f51905f529109805f516020613fe15f395f51905f529109805f516020613fe15f395f51905f529109805f516020613fe15f395f51905f529109805f516020613fe15f395f51905f529109805f516020613fe15f395f51905f529109805f516020613fe15f395f51905f529109805f516020613fe15f395f51905f529109805f516020613fe15f395f51905f529109805f516020613fe15f395f51905f529109805f516020613fe15f395f51905f529109805f516020613fe15f395f51905f529109805f516020613fe15f395f51905f529109805f516020613fe15f395f51905f529109805f516020613fe15f395f51905f529109805f516020613fe15f395f51905f529109805f516020613fe15f395f51905f529109805f516020613fe15f395f51905f529109805f516020613fe15f395f51905f529109805f516020613fe15f395f51905f529109805f516020613fe15f395f51905f529109805f516020613fe15f395f51905f529109805f516020613fe15f395f51905f529109805f516020613fe15f395f51905f529109805f516020613fe15f395f51905f529109805f516020613fe15f395f51905f529109805f516020613fe15f395f51905f529109805f516020613fe15f395f51905f529109805f516020613fe15f395f51905f529109805f516020613fe15f395f51905f529109805f516020613fe15f395f51905f529109805f516020613fe15f395f51905f5291095f516020613fe15f395f51905f52910990565b90925082518251908181036139ff5750506001600160a01b038116801515949093905f5b8251811015613976578060051b8760208083870101519288010151906138fe575b50506001016138d3565b613913866104bd845f525f60205260405f2090565b5481811061393f57866104bd60019594936139379303935f525f60205260405f2090565b55905f6138f4565b6040516303dee4c560e01b81526001600160a01b038816600482015260248101919091526044810182905260648101839052608490fd5b5094505f93929150600181511484146139cc5760209081015191810151604080519384529183015233917fc3d58168c5ae7397731d063d5bbf3d657854427343f4c083240f7aacaa2d0f6291819081015b0390a4565b60405133927f4a39dc06d4c0dbc64b70af90fd698a233a518aa5d07e595d983b8c0526c8f7fb9282916139c79183613d86565b635b05999160e01b5f5260045260245260445ffd5b9392919080518251908181036139ff5750506001600160a01b03851693841515935f5b8351811015613a8f5780868960019360051b602080828a010151918a01015192613a65575b50505001613a37565b613a85916104bd613a7d925f525f60205260405f2090565b918254611545565b90555f8981613a5c565b509390959460018351145f14613b20576020838101518582015160408051928352928201525f9133917fc3d58168c5ae7397731d063d5bbf3d657854427343f4c083240f7aacaa2d0f629190a45b613ae8575b50505050565b8051600103613b105790602080613b0795930151910151915f33613f42565b5f808080613ae2565b613b1b935f33613e13565b613b07565b5f6040517f4a39dc06d4c0dbc64b70af90fd698a233a518aa5d07e595d983b8c0526c8f7fb339180613b53898983613d86565b0390a4613add565b94939290919384518251908181036139ff5750506001600160a01b038681169586151595918516801515939192905f5b8451811015613c64578060051b90898988602080868b010151958c01015192613be3575b93600194613bc1575b50505001613b8b565b613bd9916104bd613a7d925f525f60205260405f2090565b90555f8981613bb8565b50509091613bfc8d6104bd835f525f60205260405f2090565b54828110613c2d578291898f613c24600197968f9503916104bd855f525f60205260405f2090565b55909450613baf565b6040516303dee4c560e01b81526001600160a01b038f16600482015260248101919091526044810183905260648101829052608490fd5b5091989593929790965060018851145f14613cf75760208881015186820151604080519283529282015233917fc3d58168c5ae7397731d063d5bbf3d657854427343f4c083240f7aacaa2d0f6291a45b613cc0575b5050505050565b8451600103613ce657602080613cdc9601519201519233613f42565b5f80808080613cb9565b613cf294919233613e13565b613cdc565b6040517f4a39dc06d4c0dbc64b70af90fd698a233a518aa5d07e595d983b8c0526c8f7fb339180613d29898d83613d86565b0390a4613cb4565b90613d3b8261083e565b613d4860405191826107a4565b8281528092611892601f199161083e565b8051600110156106185760210190565b908151811015610618570160200190565b80156114aa575f190190565b9091613d9d61069993604084526040840190610966565b916020818403910152610966565b9081602091031261015957516106998161056f565b6001600160a01b0391821681529116602082015260a0604082018190526106999491939192613e059291613df79190860190610966565b908482036060860152610966565b916080818403910152610664565b9091949293853b613e27575b505050505050565b602093613e4991604051968795869563bc197c8160e01b875260048701613dc0565b03815f6001600160a01b0387165af15f9181613ed8575b50613e9a5750613e6e611d6a565b8051919082613e9357632bfa23e760e11b5f526001600160a01b03821660045260245ffd5b6020915001fd5b6001600160e01b0319166343e6837f60e01b01613ebd57505f8080808080613e1f565b632bfa23e760e11b5f526001600160a01b031660045260245ffd5b613efb91925060203d602011613f02575b613ef381836107a4565b810190613dab565b905f613e60565b503d613ee9565b6001600160a01b039182168152911660208201526040810191909152606081019190915260a06080820181905261069992910190610664565b9091949293853b613f5557505050505050565b602093613f7791604051968795869563f23a6e6160e01b875260048701613f09565b03815f6001600160a01b0387165af15f9181613fbf575b50613f9c5750613e6e611d6a565b6001600160e01b031916630dc5919f60e01b01613ebd57505f8080808080613e1f565b613fd991925060203d602011613f0257613ef381836107a4565b905f613f8e56fe30644e72e131a029b85045b68181585d97816a916871ca8d3c208c16d87cfd47a2646970667358221220c7496e2e5cdfee5e66e799415f94d65b48a9131ea034c77f0a5add2936867f5b64736f6c634300081b0033a26469706673582212203b7a70401db2ddec2646f30559bf0b51fa62efa181b2e5e0cff9623a548789e964736f6c634300081b003360803460b857601f6145a138819003918201601f19168301916001600160401b0383118484101760bc5780849260209460405283398101031260b857516001600160a01b0381169081900360b857801560a5575f80546001600160a01b031981168317825560405192916001600160a01b03909116907f8be0079c531659141344cd1fd0a4f28419497f9722a3daafe3b4186f6b6457e09080a36144d090816100d18239f35b631e4fbdf760e01b5f525f60045260245ffd5b5f80fd5b634e487b7160e01b5f52604160045260245ffdfe6080806040526004361015610012575f80fd5b5f905f3560e01c90816301ffc9a714611f4657508063046f7da214611eea57806305be8b2c14611ec257806315bd7611146116ba57806343d726d6146114cf578063476343ee146113ad578063715018a614611353578063782d085b146113105780638456cb59146112b257806387f39a5c14610fe45780638da5cb5b14610fbd57806393e59dc114610f905780639df039fc1461082c578063b0011509146107ef578063b2016bd4146107c6578063b20f8e7f146103f6578063bc197c8114610364578063c040e6b81461033a578063cb4c86b71461031c578063d8c55af7146102e2578063dd83bad2146102c4578063ddca3f431461029d578063e7f3378914610215578063f23a6e61146101b2578063f2fde38b146101615763fbde47f61461013c575f80fd5b3461015e578060031936011261015e576020604051670de0b6b3a76400008152f35b80fd5b503461015e57602036600319011261015e5761017b612025565b610183612830565b6001600160a01b0381161561019e5761019b90612a4e565b80f35b631e4fbdf760e01b82526004829052602482fd5b503461015e5760a036600319011261015e576101cc612025565b906101d561203b565b50608435906001600160401b03821161015e576020610202846101fb3660048701612081565b5050612812565b6040516001600160e01b03199091168152f35b503461015e57602036600319011261015e576004356001600160401b03811680910361029957610243612830565b600160ff60075416610254816120ae565b03610299576020817f43acfe4f4a14c012959016586aee3b318a0a30e17bb8edae05a58d46c80b4199926001600160401b03196005541617600555604051908152a180f35b5080fd5b503461015e578060031936011261015e5760206001600160401b0360055416604051908152f35b503461015e578060031936011261015e576020600454604051908152f35b503461015e57602036600319011261015e576004359060035482101561015e57602061030d836120e4565b90549060031b1c604051908152f35b503461015e578060031936011261015e576020600654604051908152f35b503461015e578060031936011261015e57602060ff6007541660405190610360816120ae565b8152f35b503461015e5760a036600319011261015e5761037e612025565b9061038761203b565b506044356001600160401b038111610299576103a7903690600401612051565b50506064356001600160401b038111610299576103c8903690600401612051565b5050608435906001600160401b03821161015e576020610202846103ef3660048701612081565b50506127f4565b503461015e57602036600319011261015e5760043560ff81168091036102995760045461042281612198565b6001549091906001600160a01b0316845b8281106107165750505073__$04535272edbb5de4db92ca79bf8f00960a$__908051918260401b92808404600160401b1490151715610702576040519263026f7ef360e31b8452600484015260026024840152602083604481845af49283156106f75785936106c3575b508490859086851215806106b7575b156106b3576040516333304e0560e21b81528060248101602060048301528651809152604482019060208801908b5b81811061069a5750505090806020920381855af4801561068f5786918991610658575b506105136105219261051c92989697986123b3565b600654906123d5565b612355565b5f948894905b87519060ff87169182101561062b57610556846105516105138661054b878f6121e7565b516123b3565b61236f565b8860405191631d58012360e01b835260048301526106175760026024820152602081604481895af492831561060c578b918d946105d2575b50146105c8575b60ff916105a1916127e7565b951660ff81146105b45760010194610527565b634e487b7160e01b8a52601160045260248afd5b9094508490610595565b915092506020813d8211610604575b816105ee60209383611f7c565b81010312610600578a9051925f61058e565b5f80fd5b3d91506105e1565b6040513d8e823e3d90fd5b634e487b7160e01b5f52602160045260245ffd5b8a9060401c868115610644576020925004604051908152f35b634e487b7160e01b83526012600452602483fd5b9150506020813d602011610687575b8161067460209383611f7c565b81010312610600575185906105136104fe565b3d9150610667565b6040513d8a823e3d90fd5b82518452859450602093840193909201916001016104db565b8680fd5b508660065412156104ac565b9092506020813d6020116106ef575b816106df60209383611f7c565b810103126106005751915f61049d565b3d91506106d2565b6040513d87823e3d90fd5b634e487b7160e01b85526011600452602485fd5b6107506020610724836120b8565b9054604051627eeac760e11b815230600482015260039290921b1c602482015291829081906044820190565b0381865afa80156107bb578790610788575b61076c9150612159565b908682136106b35760019161078182876121e7565b5201610433565b506020813d82116107b3575b816107a160209383611f7c565b810103126106005761076c9051610762565b3d9150610794565b6040513d89823e3d90fd5b503461015e578060031936011261015e576002546040516001600160a01b039091168152602090f35b503461015e57602036600319011261015e576020670de0b6b3a76400006108236001600160401b0360055416600435612387565b04604051908152f35b503461015e5760a036600319011261015e576004356001600160a01b03811690819003610299576024356001600160a01b03811690819003610f8c576044356001600160401b038111610f885736602382011215610f8857806004013561089281611fb1565b916108a06040519384611f7c565b818352602083016024819360051b83010191368311610f0557602401905b828210610f7857505050606435916001600160401b038316809303610f7457608435936001600160a01b03851685036106b3575f51602061447b5f395f51905f5254956001600160401b0360ff8860401c1615971680159081610f6c575b6001149081610f62575b159081610f59575b50610f4a578660016001600160401b03195f51602061447b5f395f51905f525416175f51602061447b5f395f51905f5255610f1a575b61096d33612a4e565b80151580610f09575b15610f05576001600160601b0360a01b60015416176001556001600160601b0360a01b600254161760025551906001600160401b038211610ef157600160401b8211610ef15760035482600355808310610ead575b5060038652855b828110610e79575050506001600160401b0319600554161760055560075490610100600160a81b039060081b1690610100600160a81b031916176007556001600455610a1f600354612198565b8051906001600160401b038211610d8e57600160401b8211610d8e5760085482600855808310610e1b575b5060200160088452835b828110610de757505050815b600354811015610b2a576001546001600160a01b0316906020610a82826120e4565b90549060031b1c602460405180958193636a16e06160e11b835260048301525afa8015610b1f578490610aed575b60019250610ac081600454612387565b600455610ae5610acf836120fc565b819391549060031b91821b915f19901b19161790565b905501610a60565b506020823d8211610b17575b81610b0660209383611f7c565b810103126106005760019151610ab0565b3d9150610af9565b6040513d86823e3d90fd5b5060016004541115610da257600354610b5b610b4582611fb1565b91610b536040519384611f7c565b808352611fb1565b90610b6e6020820192601f190183612315565b5190600160401b8211610d8e5760095482600955808310610cff575b50600984527f6e1540171b6c0c960b71a7020d9f60077f6af931a8bbf590da0223dacf75c7af84915b838310610c5c578585610bc882600354612aea565b600160ff1960075416176007557f631ac92e0a879a687b1bd27a7dcbf3ec0be307aa0a1046c0df4109be02c493076020600654604051908152a1610c095780f35b60ff60401b195f51602061447b5f395f51905f5254165f51602061447b5f395f51905f52557fc7f505b2f371ae2175ee4913f4499e1f2633a7b5936321eed1cdaeb6115181d2602060405160018152a180f35b80518051906001600160401b038211610ceb57600160401b8211610ceb578354828555808310610cc5575b5060200183885260208820885b838110610cb1575050505060016020819201920192019190610bb3565b600190602084519401938184015501610c94565b8489528260208a2091820191015b818110610ce05750610c87565b898155600101610cd3565b634e487b7160e01b88526041600452602488fd5b600985527f6e1540171b6c0c960b71a7020d9f60077f6af931a8bbf590da0223dacf75c7af01827f6e1540171b6c0c960b71a7020d9f60077f6af931a8bbf590da0223dacf75c7af015b818110610d565750610b8a565b805486825580610d6a575b50600101610d49565b81875260208720908101905b818110610d835750610d61565b878155600101610d76565b634e487b7160e01b84526041600452602484fd5b60405162461bcd60e51b815260206004820152601860248201527f636f6e646974696f6e73206d7573742062652076616c696400000000000000006044820152606490fd5b60019060208351930192817ff3f7a9fe364faab93b216da50a3214154f22a0a2b415b23a84c8169e8b636ee3015501610a54565b7ff3f7a9fe364faab93b216da50a3214154f22a0a2b415b23a84c8169e8b636ee301827ff3f7a9fe364faab93b216da50a3214154f22a0a2b415b23a84c8169e8b636ee3015b818110610e6e5750610a4a565b858155600101610e61565b60019060208351930192817fc2575a0e9e593c00f959f8c92f12db2869c3395a3b0502d05e2516446f71f85b0155016109d2565b600387527fc2575a0e9e593c00f959f8c92f12db2869c3395a3b0502d05e2516446f71f85b9081019083015b818110610ee657506109cb565b878155600101610ed9565b634e487b7160e01b86526041600452602486fd5b8780fd5b50670de0b6b3a76400008510610976565b600160401b60ff60401b195f51602061447b5f395f51905f525416175f51602061447b5f395f51905f5255610964565b63f92ee8a960e01b8852600488fd5b9050155f61092e565b303b159150610926565b88915061091c565b8580fd5b81358152602091820191016108be565b8380fd5b8280fd5b503461015e578060031936011261015e5760075460405160089190911c6001600160a01b03168152602090f35b503461015e578060031936011261015e57546040516001600160a01b039091168152602090f35b503461015e57602036600319011261015e57600435611001612830565b600160ff60075416611012816120ae565b0361029957801561126d57818113611144575b818112611030575080f35b61104161103c82612159565b612981565b61104a81612159565b6006549081039081116111305760065560025482546110b0916020916001600160a01b03908116911661107c85612159565b60405163a9059cbb60e01b81526001600160a01b039093166004840152602483015290928391908290879082906044820190565b03925af19081156111255783916110f6575b50156102995760207fc55e9a33fb8b1de5318b5c7b96a32937e54006c82000b2c468ed1fb9f73f679991604051908152a180f35b611118915060203d60201161111e575b6111108183611f7c565b810190612141565b5f6110c2565b503d611106565b6040513d85823e3d90fd5b634e487b7160e01b83526011600452602483fd5b6002546040516323b872dd60e01b815233600482015230602482015260448101839052906020908290606490829087906001600160a01b03165af190811561112557839161124e575b50806111e0575b15610299576111a28161288c565b6111ae816006546127e7565b6006557fc55e9a33fb8b1de5318b5c7b96a32937e54006c82000b2c468ed1fb9f73f67996020604051838152a1611025565b5060025460015460405163095ea7b360e01b81526001600160a01b0391821660048201526024810184905291602091839160449183918891165af190811561112557839161122f575b50611194565b611248915060203d60201161111e576111108183611f7c565b5f611229565b611267915060203d60201161111e576111108183611f7c565b5f61118d565b60405162461bcd60e51b815260206004820152601f60248201527f66756e64696e67206368616e6765206d757374206265206e6f6e2d7a65726f006044820152606490fd5b503461015e578060031936011261015e576112cb612830565b60075460ff81166112db816120ae565b6102995760ff19166001176007557fbb11914e7a395f00cf0920fe85f50088bd8d7681529fb0bd3c27ccb45a8bcd8f8180a180f35b503461015e57602036600319011261015e57600435906001600160401b03821161015e57602061134b6113463660048601611fc8565b612403565b604051908152f35b503461015e578060031936011261015e5761136c612830565b80546001600160a01b03198116825581906001600160a01b03167f8be0079c531659141344cd1fd0a4f28419497f9722a3daafe3b4186f6b6457e08280a380f35b503461015e578060031936011261015e576113c6612830565b6002546040516370a0823160e01b8152306004820152906001600160a01b0316602082602481845afa91821561112557839261149a575b50825460405163a9059cbb60e01b81526001600160a01b03909116600482015260248101839052906020908290604490829087905af190811561112557839161147b575b5015610299576020907fce1d35d26fbf6b3cc5cd924de10b5a52b08e484129ea7d93abc48d739fffe5b982604051838152a1604051908152f35b611494915060203d60201161111e576111108183611f7c565b5f611441565b9091506020813d6020116114c7575b816114b660209383611f7c565b8101031261060057519060206113fd565b3d91506114a9565b503461015e578060031936011261015e576114e8612830565b60ff600754166114f7816120ae565b80159081156116a6575b501561165557805b600454811015611620578161151d826120b8565b90546001548354604051627eeac760e11b815230600482015260039490941b9290921c602484018190526001600160a01b0392831692909116602084604481845afa9384156106f75785946115ea575b50803b156115e65784928360c4926040519687958694637921219560e11b865230600487015260248601526044850152606484015260a060848401528160a48401525af180156115db576115c6575b5050600101611509565b816115d091611f7c565b61029957815f6115bc565b6040513d84823e3d90fd5b8480fd5b945092506020843d8211611618575b8161160660209383611f7c565b8101031261060057859351925f61156d565b3d91506115f9565b50600260ff1960075416176007557f6e18b1b14477b5922c6efa82206ed0e3b73c2500e8d1528c9a6e17554ea125548180a180f35b60405162461bcd60e51b815260206004820152602360248201527f54686973204d61726b65742068617320616c7265616479206265656e20636c6f6044820152621cd95960ea1b6064820152608490fd5b600191506116b3816120ae565b145f611501565b5034610600576040366003190112610600576004356001600160401b038111610600576116eb903690600401611fc8565b906024359060075460ff8116611700816120ae565b6106005760081c6001600160a01b03168015908115611e6d575b5015611e12578251600454036106005761173383612403565b905f8212908115611dce57670de0b6b3a764000061176561175385612159565b6001600160401b036005541690612387565b0490604051611775604082611f7c565b60048152631cd95b1b60e21b6020820152925b5f831261060057611799838661217d565b95801580159182611dc3575b508115611dbb575b5015610600575f8513611ccb575b600454905f6117c983612198565b925f5b818110611c83575050611c19575b611c08575b6040517fda7ff5556ce7ecfcf06296f03426e8c02a7305b85cfd88816a32f7f496905177339180611812878a8d846122ca565b0390a281826004545b808210611bbc575050611b56575b50808512611ad5575b606095604051926118438885611f7c565b600284526020611898602a82870197611860601f198d018a612315565b604051938491693a3930b232aa3cb8329d60b11b828401528051918291018484015e810187838201520301601f198101835282611f7c565b6118a1856121ca565b526118ab846121ca565b506002546040516001600160a01b0390911690816118c98b83611f7c565b602a82526020820192601f198c01368537825115611ac15760308453825160011015611ac1576078602184015360295b60018111611a665750611a4f57509161197891611955603061198696956040999899519384916f31b7b63630ba32b930b62a37b5b2b71d60811b60208401525180918484015e81018a838201520301601f198101835282611f7c565b61195e866121d7565b52611968856121d7565b50604051978893602085016122ca565b03601f198101865285611f7c565b6017604051968088528701527f70726564696374696f6e5f6d61726b65745f7472616465000000000000000000608087015260a086019060a060208801525180915260c0860160c08260051b8801019392905b828210611a24578785036040890152602087337f17b25de1f7ac081e71892e23f73afb17b86207521c28158cf2f7798a97ae88c78b80611a198b8d612331565b0390a2604051908152f35b90919293602080611a4160019360bf198c82030186528851612331565b9601920192019092916119d9565b63e22e27eb60e01b86526004526014602452604485fd5b90600f81166010811015611aad578451831015611aad57611aa891906f181899199a1a9b1b9c1cb0b131b232b360811b901a8584016020015360041c91612abc565b6118f9565b634e487b7160e01b89526032600452602489fd5b634e487b7160e01b87526032600452602487fd5b6002548190602090611b1d906001600160a01b0316611af389612159565b60405163a9059cbb60e01b8152336004820152602481019190915293849283919082906044820190565b03925af19081156115db578291611b37575b506118325780fd5b611b50915060203d60201161111e576111108183611f7c565b5f611b2f565b6001546001600160a01b031690813b15610f8c57611b8f83928392604051948580948193631759616b60e11b835233306004850161222e565b03925af180156115db57908291611ba7575b50611829565b81611bb191611f7c565b61015e57805f611ba1565b909184611bc9848c6121e7565b511315611bf3575060018092611bdf818c6121e7565b51611bea82876121e7565b525b019061181b565b918085611c02600193876121e7565b52611bec565b611c1461103c86612159565b6117df565b6001546001600160a01b0316803b15610600575f6040518092631759616b60e11b8252818381611c4e8930336004850161222e565b03925af18015611c7857611c63575b506117da565b611c709193505f90611f7c565b5f915f611c5d565b6040513d5f823e3d90fd5b8a5f611c8f83836121e7565b5112611c9f575b506001016117cc565b925080611cb8611cb260019384966121e7565b51612159565b611cc282886121e7565b5290508a611c96565b6002546040516323b872dd60e01b81523360048201523060248201526044810188905290602090829060649082905f906001600160a01b03165af1908115611c78575f91611d9c575b5080611d2e575b1561060057611d298561288c565b6117bb565b5060025460015460405163095ea7b360e01b81526001600160a01b0391821660048201526024810188905291602091839160449183915f91165af1908115611c78575f91611d7d575b50611d1b565b611d96915060203d60201161111e576111108183611f7c565b5f611d77565b611db5915060203d60201161111e576111108183611f7c565b5f611d14565b90505f6117ad565b88131591505f6117a5565b670de0b6b3a7640000611dec6001600160401b036005541685612387565b0490604051611dfc604082611f7c565b600381526262757960e81b602082015292611788565b60405162461bcd60e51b815260206004820152602d60248201527f6f6e6c792077686974656c6973746564207573657273206d61792063616c6c2060448201526c3a3434b990333ab731ba34b7b760991b6064820152608490fd5b604051633af32abf60e01b81523360048201529150602090829060249082905afa908115611c78575f91611ea3575b505f61171a565b611ebc915060203d60201161111e576111108183611f7c565b5f611e9c565b34610600575f366003190112610600576001546040516001600160a01b039091168152602090f35b34610600575f36600319011261060057611f02612830565b600754600160ff8216611f14816120ae565b036106005760ff19166007557fb0cf596e1402e50b88a6d1097918e48922e4a2878ece11d7bb51b5d81cf6c1785f80a1005b34610600576020366003190112610600576004359063ffffffff60e01b821680920361060057602091630271189760e51b148152f35b90601f801991011681019081106001600160401b03821117611f9d57604052565b634e487b7160e01b5f52604160045260245ffd5b6001600160401b038111611f9d5760051b60200190565b9080601f83011215610600578135611fdf81611fb1565b92611fed6040519485611f7c565b81845260208085019260051b82010192831161060057602001905b8282106120155750505090565b8135815260209182019101612008565b600435906001600160a01b038216820361060057565b602435906001600160a01b038216820361060057565b9181601f84011215610600578235916001600160401b038311610600576020808501948460051b01011161060057565b9181601f84011215610600578235916001600160401b038311610600576020838186019501011161060057565b6003111561061757565b600a548110156120d057600a5f5260205f2001905f90565b634e487b7160e01b5f52603260045260245ffd5b6003548110156120d05760035f5260205f2001905f90565b6008548110156120d05760085f5260205f2001905f90565b6009548110156120d05760095f5260205f2001905f90565b80548210156120d0575f5260205f2001905f90565b90816020910312610600575180151581036106005790565b600160ff1b8114612169575f0390565b634e487b7160e01b5f52601160045260245ffd5b9190915f838201938412911290801582169115161761216957565b906121a282611fb1565b6121af6040519182611f7c565b82815280926121c0601f1991611fb1565b0190602036910137565b8051156120d05760200190565b8051600110156120d05760400190565b80518210156120d05760209160051b010190565b90602080835192838152019201905f5b8181106122185750505090565b825184526020938401939092019160010161220b565b6001600160a01b0391821681529116602082015260a060408201819052600a80549183018290525f908152919260c084019290917fc65a7bb8d6351c1cf70c95a316cc6a92839c986682d98bc35f958f4883f9d2a8915b8181106122b457505050816122a49184602095940360608501526121fb565b9060808183039101525f81520190565b8254855260209094019360019283019201612285565b9093929193606082016060835281518091526020608084019201905f5b8181106122ff57505050906040919460208201520152565b82518452602093840193909201916001016122e7565b5f5b82811061232357505050565b606082820152602001612317565b805180835260209291819084018484015e5f828201840152601f01601f1916010190565b9068b7ffffffffffffffff19820191821360011661216957565b81810392915f13801582851316918412161761216957565b8181029291811591840414171561216957565b908160401b91808305600160401b149015171561216957565b81810292915f8212600160ff1b82141661216957818405149015171561216957565b81156123ef57600160ff1b81145f19831416612169570590565b634e487b7160e01b5f52601260045260245ffd5b8051906004548092036106005761241982612198565b60015490916001600160a01b03909116905f5b8481106127375750505073__$04535272edbb5de4db92ca79bf8f00960a$__928260401b92808404600160401b1490151715612169576040519263026f7ef360e31b8452600484015260016024840152602083604481875af4928315611c78575f93612703575b505f935f841215806126f7575b15610600576040516333304e0560e21b81528060248101602060048301528551809152604482019060208701905f5b8181106126de5750505090806020920381855af48015611c785785915f916126a7575b506105136125079261051c92989697986123b3565b5f9586945b865160ff8916908110156125c55761252f846105516105138661054b868e6121e7565b908760405192631d58012360e01b845260048401526106175760016024830152602082604481895af4918215611c78575f92612591575b509060ff92612579921561258c576127e7565b971660ff8114612169576001019661250c565b6127e7565b91506020823d82116125bd575b816125ab60209383611f7c565b810103126106005790519060ff612566565b3d915061259e565b50919450945060209192955060446040518094819363026f7ef360e31b83526004830152600160248301525af4908115611c78575f91612671575b50600160401b9261261f61261a61262d946126249461217d565b61239a565b6123d5565b600654906123b3565b5f811380159061265e575b15612641570590565b0560018101905f6001831291129080158216911516176121695790565b508061266b83820561239a565b14612638565b90506020813d60201161269f575b8161268c60209383611f7c565b810103126106005751600160401b612600565b3d915061267f565b9150506020813d6020116126d6575b816126c360209383611f7c565b81010312610600575184906105136124f2565b3d91506126b6565b82518452859450602093840193909201916001016124cf565b505f60065412156124a0565b9092506020813d60201161272f575b8161271f60209383611f7c565b810103126106005751915f612493565b3d9150612712565b806020612746612772936120b8565b9054604051627eeac760e11b815230600482015260039290921b1c602482015292839081906044820190565b0381875afa918215611c78575f926127b4575b505f8212610600576127a360019261279d83866121e7565b5161236f565b6127ad82876121e7565b520161242c565b9091506020813d82116127df575b816127cf60209383611f7c565b810103126106005751905f612785565b3d91506127c2565b9190820180921161216957565b6001600160a01b03163014612807575f90565b63bc197c8160e01b90565b6001600160a01b03163014612825575f90565b63f23a6e6160e01b90565b5f546001600160a01b0316330361284357565b63118cdaa760e01b5f523360045260245ffd5b95949390926128879260809460018060a01b031688526020880152604087015260a0606087015260a08601906121fb565b930152565b6003545f198101908111612169575b5f8112156128a7575050565b6128bf6128b3826120fc565b90549060031b1c612b9d565b925f5b6128cb83612114565b505481101561296b576001546002546001600160a01b039182169291166128fb826128f587612114565b5061212c565b90549060031b1c9261290c866120e4565b90549060031b1c90803b156106005788945f80946129418b604051998a97889687956372ce427560e01b875260048701612856565b03925af1918215611c785760019261295b575b50016128c2565b5f61296591611f7c565b5f612954565b509250600160ff1b8114612169575f190161289b565b5f5b600354811015612a4a576129996128b3826120fc565b925f5b6129a583612114565b5054811015612a3f576001546002546001600160a01b039182169291166129cf826128f587612114565b90549060031b1c926129e0866120e4565b90549060031b1c90803b156106005788945f8094612a158b604051998a9788968795639e7212ad60e01b875260048701612856565b03925af1918215611c7857600192612a2f575b500161299c565b5f612a3991611f7c565b5f612a28565b509250600101612983565b5050565b5f80546001600160a01b039283166001600160a01b03198216811783559216907f8be0079c531659141344cd1fd0a4f28419497f9722a3daafe3b4186f6b6457e09080a3565b600a54600160401b811015611f9d57610acf816001612ab89301600a55600a61212c565b9055565b8015612169575f190190565b805490600160401b821015611f9d5781610acf916001612ab89401815561212c565b8015612b5d57612af990612abc565b612b0f612b05826120fc565b90549060031b1c90565b91612b2381612b1d84612114565b50612ac8565b5f5b838110612b325750505050565b612b55612b4f612b44612b05866120e4565b6001841b9085612bcc565b84612aea565b600101612b25565b50612b9b90600254906040519060208201926001600160601b03199060601b168352603482015260348152612b93605482611f7c565b519020612a94565b565b90612ba782612198565b915f5b818110612bb5575050565b80600180921b612bc582876121e7565b5201612baa565b92916040519060208201928352604082015260408152612bed606082611f7c565b519020908160ff1c15918215935f915f926001935f80955b15612c58575b5050505f926123ef5760015f51602061445b5f395f51905f529108945f945f51602061445b5f395f51905f52600381808a80098a090886612c4b82612ec9565b9598939897959297612c05565b6123ef575f51602061445b5f395f51905f5282800914612c79578084612c0b565b9395909492919281612ebd575b8115612ea3575b50612e79575b81612cb1575b5050600180911614612ca85790565b600160fe1b1890565b60fe82901c15936001600160fe1b0390921692908415906123ef575f51602061445b5f395f51905f526003818087800987090890612cee82612ec9565b9581612e6d575b8115612e53575b50612e29575b5f51602061445b5f395f51905f5285800903612de4575f938493604051926020840194855260408401526060830152608082015260808152612d4560a082611f7c565b519060065afa3d15612ddc573d906001600160401b038211611f9d5760405191612d79601f8201601f191660200184611f7c565b82523d5f602084013e5b15612da857604081805181010312610600576001806040602084015193015191612c99565b60405162461bcd60e51b815260206004820152600c60248201526b1958d859190819985a5b195960a21b6044820152606490fd5b606090612d83565b60405162461bcd60e51b815260206004820152601c60248201527f696e76616c696420706172656e7420636f6c6c656374696f6e204944000000006044820152606490fd5b935f51602061445b5f395f51905f52035f51602061445b5f395f51905f5281116121695793612d02565b905080612e61575b5f612cfc565b50600180861614612e5b565b60018716159150612cf5565b915f51602061445b5f395f51905f52035f51602061445b5f395f51905f5281116121695791612c93565b905080612eb1575b5f612c8d565b50600180841614612eab565b60018516159150612c86565b5f51602061445b5f395f51905f528180095f51602061445b5f395f51905f52818009805f51602061445b5f395f51905f5291095f51602061445b5f395f51905f52910990815f51602061445b5f395f51905f52910990815f51602061445b5f395f51905f529109905f51602061445b5f395f51905f528280095f51602061445b5f395f51905f528180095f51602061445b5f395f51905f52908209805f51602061445b5f395f51905f529109805f51602061445b5f395f51905f5291095f51602061445b5f395f51905f5291095f51602061445b5f395f51905f529109905f51602061445b5f395f51905f52828009805f51602061445b5f395f51905f5291095f51602061445b5f395f51905f529109905f51602061445b5f395f51905f52828009805f51602061445b5f395f51905f529109805f51602061445b5f395f51905f5291095f51602061445b5f395f51905f529083095f51602061445b5f395f51905f529109905f51602061445b5f395f51905f52828009805f51602061445b5f395f51905f529109805f51602061445b5f395f51905f5291095f51602061445b5f395f51905f529083095f51602061445b5f395f51905f52910990815f51602061445b5f395f51905f529109905f51602061445b5f395f51905f52828009805f51602061445b5f395f51905f5291095f51602061445b5f395f51905f529109905f51602061445b5f395f51905f528280095f51602061445b5f395f51905f52818009805f51602061445b5f395f51905f529109805f51602061445b5f395f51905f5291095f51602061445b5f395f51905f5291095f51602061445b5f395f51905f52910990815f51602061445b5f395f51905f529109905f51602061445b5f395f51905f52828009805f51602061445b5f395f51905f529109805f51602061445b5f395f51905f5291095f51602061445b5f395f51905f529109905f51602061445b5f395f51905f52828009805f51602061445b5f395f51905f5291095f51602061445b5f395f51905f52908309805f51602061445b5f395f51905f529109805f51602061445b5f395f51905f5291095f51602061445b5f395f51905f529083095f51602061445b5f395f51905f529109905f51602061445b5f395f51905f528280095f51602061445b5f395f51905f52818009805f51602061445b5f395f51905f5291095f51602061445b5f395f51905f529082095f51602061445b5f395f51905f52908409805f51602061445b5f395f51905f529109805f51602061445b5f395f51905f529109805f51602061445b5f395f51905f529109805f51602061445b5f395f51905f5291095f51602061445b5f395f51905f5291095f51602061445b5f395f51905f529109905f51602061445b5f395f51905f528280095f51602061445b5f395f51905f529083095f51602061445b5f395f51905f529109905f51602061445b5f395f51905f528280095f51602061445b5f395f51905f52908309805f51602061445b5f395f51905f5291095f51602061445b5f395f51905f528180095f51602061445b5f395f51905f529082095f51602061445b5f395f51905f52818009805f51602061445b5f395f51905f529109805f51602061445b5f395f51905f529109805f51602061445b5f395f51905f529109805f51602061445b5f395f51905f5291095f51602061445b5f395f51905f5291095f51602061445b5f395f51905f5291095f51602061445b5f395f51905f52910990815f51602061445b5f395f51905f529109905f51602061445b5f395f51905f528280095f51602061445b5f395f51905f52910990815f51602061445b5f395f51905f52910990815f51602061445b5f395f51905f52910990815f51602061445b5f395f51905f52910990815f51602061445b5f395f51905f529109905f51602061445b5f395f51905f528280095f51602061445b5f395f51905f52908309805f51602061445b5f395f51905f5291095f51602061445b5f395f51905f529109905f51602061445b5f395f51905f52828009805f51602061445b5f395f51905f5291095f51602061445b5f395f51905f52910990815f51602061445b5f395f51905f529109905f51602061445b5f395f51905f528280095f51602061445b5f395f51905f529083095f51602061445b5f395f51905f52910990815f51602061445b5f395f51905f52910990815f51602061445b5f395f51905f52910990815f51602061445b5f395f51905f529109905f51602061445b5f395f51905f52828009805f51602061445b5f395f51905f5291095f51602061445b5f395f51905f529083095f51602061445b5f395f51905f529109905f51602061445b5f395f51905f528280095f51602061445b5f395f51905f529083095f51602061445b5f395f51905f52910990815f51602061445b5f395f51905f52910990815f51602061445b5f395f51905f52910990815f51602061445b5f395f51905f52910990815f51602061445b5f395f51905f529109905f51602061445b5f395f51905f528280095f51602061445b5f395f51905f52908309805f51602061445b5f395f51905f5291095f51602061445b5f395f51905f52910990815f51602061445b5f395f51905f529109905f51602061445b5f395f51905f528280095f51602061445b5f395f51905f52908309805f51602061445b5f395f51905f5291095f51602061445b5f395f51905f529109905f51602061445b5f395f51905f528280095f51602061445b5f395f51905f52818009805f51602061445b5f395f51905f5291095f51602061445b5f395f51905f529082095f51602061445b5f395f51905f52908409805f51602061445b5f395f51905f529109805f51602061445b5f395f51905f529109805f51602061445b5f395f51905f529109805f51602061445b5f395f51905f5291095f51602061445b5f395f51905f5291095f51602061445b5f395f51905f52910990815f51602061445b5f395f51905f52910990815f51602061445b5f395f51905f52910990815f51602061445b5f395f51905f529109905f51602061445b5f395f51905f528280095f51602061445b5f395f51905f52908309805f51602061445b5f395f51905f529109805f51602061445b5f395f51905f529109805f51602061445b5f395f51905f5291095f51602061445b5f395f51905f529083095f51602061445b5f395f51905f529109905f51602061445b5f395f51905f528280095f51602061445b5f395f51905f52908309805f51602061445b5f395f51905f5291095f51602061445b5f395f51905f529109905f51602061445b5f395f51905f528280095f51602061445b5f395f51905f529083095f51602061445b5f395f51905f52910990815f51602061445b5f395f51905f529109905f51602061445b5f395f51905f52828009805f51602061445b5f395f51905f5291095f51602061445b5f395f51905f52910990815f51602061445b5f395f51905f529109905f51602061445b5f395f51905f528280095f51602061445b5f395f51905f52910990815f51602061445b5f395f51905f52910990815f51602061445b5f395f51905f529109905f51602061445b5f395f51905f528280095f51602061445b5f395f51905f529083095f51602061445b5f395f51905f52910990815f51602061445b5f395f51905f529109905f51602061445b5f395f51905f528280095f51602061445b5f395f51905f52908309805f51602061445b5f395f51905f529109805f51602061445b5f395f51905f5291095f51602061445b5f395f51905f529109905f51602061445b5f395f51905f52828009805f51602061445b5f395f51905f529109805f51602061445b5f395f51905f5291095f51602061445b5f395f51905f529083095f51602061445b5f395f51905f52910990815f51602061445b5f395f51905f529109905f51602061445b5f395f51905f528280095f51602061445b5f395f51905f52818409805f51602061445b5f395f51905f529109805f51602061445b5f395f51905f5291095f51602061445b5f395f51905f5291095f51602061445b5f395f51905f529109905f51602061445b5f395f51905f528280095f51602061445b5f395f51905f52910990815f51602061445b5f395f51905f52910990815f51602061445b5f395f51905f52910990815f51602061445b5f395f51905f52910990815f51602061445b5f395f51905f52910990815f51602061445b5f395f51905f529109905f51602061445b5f395f51905f528280095f51602061445b5f395f51905f529083095f51602061445b5f395f51905f52818409805f51602061445b5f395f51905f529109805f51602061445b5f395f51905f5291095f51602061445b5f395f51905f5291095f51602061445b5f395f51905f52910990815f51602061445b5f395f51905f52910990815f51602061445b5f395f51905f52910990815f51602061445b5f395f51905f52910990815f51602061445b5f395f51905f529109905f51602061445b5f395f51905f528280095f51602061445b5f395f51905f529083095f51602061445b5f395f51905f52910990815f51602061445b5f395f51905f529109805f51602061445b5f395f51905f529109805f51602061445b5f395f51905f529109805f51602061445b5f395f51905f529109805f51602061445b5f395f51905f529109805f51602061445b5f395f51905f529109805f51602061445b5f395f51905f529109805f51602061445b5f395f51905f529109805f51602061445b5f395f51905f529109805f51602061445b5f395f51905f529109805f51602061445b5f395f51905f529109805f51602061445b5f395f51905f529109805f51602061445b5f395f51905f529109805f51602061445b5f395f51905f529109805f51602061445b5f395f51905f529109805f51602061445b5f395f51905f529109805f51602061445b5f395f51905f529109805f51602061445b5f395f51905f529109805f51602061445b5f395f51905f529109805f51602061445b5f395f51905f529109805f51602061445b5f395f51905f529109805f51602061445b5f395f51905f529109805f51602061445b5f395f51905f529109805f51602061445b5f395f51905f529109805f51602061445b5f395f51905f529109805f51602061445b5f395f51905f529109805f51602061445b5f395f51905f529109805f51602061445b5f395f51905f529109805f51602061445b5f395f51905f529109805f51602061445b5f395f51905f529109805f51602061445b5f395f51905f529109805f51602061445b5f395f51905f529109805f51602061445b5f395f51905f529109805f51602061445b5f395f51905f529109805f51602061445b5f395f51905f529109805f51602061445b5f395f51905f529109805f51602061445b5f395f51905f529109805f51602061445b5f395f51905f529109805f51602061445b5f395f51905f529109805f51602061445b5f395f51905f529109805f51602061445b5f395f51905f529109805f51602061445b5f395f51905f529109805f51602061445b5f395f51905f529109805f51602061445b5f395f51905f529109805f51602061445b5f395f51905f529109805f51602061445b5f395f51905f529109805f51602061445b5f395f51905f529109805f51602061445b5f395f51905f529109805f51602061445b5f395f51905f529109805f51602061445b5f395f51905f529109805f51602061445b5f395f51905f529109805f51602061445b5f395f51905f529109805f51602061445b5f395f51905f529109805f51602061445b5f395f51905f529109805f51602061445b5f395f51905f529109805f51602061445b5f395f51905f529109805f51602061445b5f395f51905f529109805f51602061445b5f395f51905f529109805f51602061445b5f395f51905f529109805f51602061445b5f395f51905f529109805f51602061445b5f395f51905f529109805f51602061445b5f395f51905f529109805f51602061445b5f395f51905f529109805f51602061445b5f395f51905f529109805f51602061445b5f395f51905f529109805f51602061445b5f395f51905f529109805f51602061445b5f395f51905f529109805f51602061445b5f395f51905f529109805f51602061445b5f395f51905f529109805f51602061445b5f395f51905f529109805f51602061445b5f395f51905f529109805f51602061445b5f395f51905f529109805f51602061445b5f395f51905f529109805f51602061445b5f395f51905f529109805f51602061445b5f395f51905f529109805f51602061445b5f395f51905f529109805f51602061445b5f395f51905f529109805f51602061445b5f395f51905f529109805f51602061445b5f395f51905f529109805f51602061445b5f395f51905f529109805f51602061445b5f395f51905f529109805f51602061445b5f395f51905f529109805f51602061445b5f395f51905f529109805f51602061445b5f395f51905f529109805f51602061445b5f395f51905f529109805f51602061445b5f395f51905f529109805f51602061445b5f395f51905f529109805f51602061445b5f395f51905f529109805f51602061445b5f395f51905f529109805f51602061445b5f395f51905f529109805f51602061445b5f395f51905f529109805f51602061445b5f395f51905f529109805f51602061445b5f395f51905f529109805f51602061445b5f395f51905f529109805f51602061445b5f395f51905f529109805f51602061445b5f395f51905f529109805f51602061445b5f395f51905f529109805f51602061445b5f395f51905f529109805f51602061445b5f395f51905f529109805f51602061445b5f395f51905f529109805f51602061445b5f395f51905f529109805f51602061445b5f395f51905f529109805f51602061445b5f395f51905f529109805f51602061445b5f395f51905f529109805f51602061445b5f395f51905f529109805f51602061445b5f395f51905f529109805f51602061445b5f395f51905f529109805f51602061445b5f395f51905f529109805f51602061445b5f395f51905f529109805f51602061445b5f395f51905f529109805f51602061445b5f395f51905f529109805f51602061445b5f395f51905f529109805f51602061445b5f395f51905f529109805f51602061445b5f395f51905f529109805f51602061445b5f395f51905f529109805f51602061445b5f395f51905f529109805f51602061445b5f395f51905f529109805f51602061445b5f395f51905f529109805f51602061445b5f395f51905f529109805f51602061445b5f395f51905f529109805f51602061445b5f395f51905f529109805f51602061445b5f395f51905f529109805f51602061445b5f395f51905f529109805f51602061445b5f395f51905f529109805f51602061445b5f395f51905f529109805f51602061445b5f395f51905f529109805f51602061445b5f395f51905f5291095f51602061445b5f395f51905f5291099056fe30644e72e131a029b85045b68181585d97816a916871ca8d3c208c16d87cfd47f0c57e16840df040f15088dc2f81fe391c3923bec73e23a9662efc9c229c6a00a2646970667358221220740e029c78616dcbad998d4abe98703e5c9e3b00b188d8f768295dad3dca89ad64736f6c634300081b0033","linkReferences":{"node_modules/@lay3rlabs/conditional-tokens-market-makers/contracts/Fixed192x64Math.sol":{"Fixed192x64Math":[{"start":22426,"length":20},{"start":30611,"length":20}]}}},"methodIdentifiers":{"factory()":"c45a0155","getServiceManager()":"4dda0b43","handleSignedEnvelope((bytes20,bytes12,bytes),(address[],bytes[],uint32))":"f969ff33","resolvedMarkets(address)":"5f051377","serviceManager()":"3998fdd3","trigger()":"7fec8d38"},"id":194}