{"abi":[{"type":"constructor","inputs":[{"name":"rewardToken_","type":"address","internalType":"address"}],"stateMutability":"nonpayable"},{"type":"function","name":"acceptRoot","inputs":[],"outputs":[],"stateMutability":"nonpayable"},{"type":"function","name":"claim","inputs":[{"name":"account","type":"address","internalType":"address"},{"name":"claimable","type":"uint256","internalType":"uint256"},{"name":"proof","type":"bytes32[]","internalType":"bytes32[]"}],"outputs":[{"name":"amount","type":"uint256","internalType":"uint256"}],"stateMutability":"nonpayable"},{"type":"function","name":"claim","inputs":[{"name":"account","type":"address","internalType":"address"},{"name":"reward","type":"address","internalType":"address"},{"name":"claimable","type":"uint256","internalType":"uint256"},{"name":"proof","type":"bytes32[]","internalType":"bytes32[]"}],"outputs":[{"name":"amount","type":"uint256","internalType":"uint256"}],"stateMutability":"nonpayable"},{"type":"function","name":"claimed","inputs":[{"name":"account","type":"address","internalType":"address"},{"name":"reward","type":"address","internalType":"address"}],"outputs":[{"name":"amount","type":"uint256","internalType":"uint256"}],"stateMutability":"view"},{"type":"function","name":"ipfsHash","inputs":[],"outputs":[{"name":"","type":"bytes32","internalType":"bytes32"}],"stateMutability":"view"},{"type":"function","name":"ipfsHashCid","inputs":[],"outputs":[{"name":"","type":"string","internalType":"string"}],"stateMutability":"view"},{"type":"function","name":"isUpdater","inputs":[{"name":"","type":"address","internalType":"address"}],"outputs":[{"name":"","type":"bool","internalType":"bool"}],"stateMutability":"view"},{"type":"function","name":"onMerkleUpdate","inputs":[{"name":"state","type":"tuple","internalType":"struct IMerkleSnapshot.MerkleState","components":[{"name":"blockNumber","type":"uint256","internalType":"uint256"},{"name":"timestamp","type":"uint256","internalType":"uint256"},{"name":"root","type":"bytes32","internalType":"bytes32"},{"name":"ipfsHash","type":"bytes32","internalType":"bytes32"},{"name":"ipfsHashCid","type":"string","internalType":"string"},{"name":"totalValue","type":"uint256","internalType":"uint256"}]}],"outputs":[],"stateMutability":"nonpayable"},{"type":"function","name":"owner","inputs":[],"outputs":[{"name":"","type":"address","internalType":"address"}],"stateMutability":"view"},{"type":"function","name":"pendingRoot","inputs":[],"outputs":[{"name":"root","type":"bytes32","internalType":"bytes32"},{"name":"ipfsHash","type":"bytes32","internalType":"bytes32"},{"name":"validAt","type":"uint256","internalType":"uint256"}],"stateMutability":"view"},{"type":"function","name":"revokePendingRoot","inputs":[],"outputs":[],"stateMutability":"nonpayable"},{"type":"function","name":"rewardToken","inputs":[],"outputs":[{"name":"","type":"address","internalType":"address"}],"stateMutability":"view"},{"type":"function","name":"root","inputs":[],"outputs":[{"name":"","type":"bytes32","internalType":"bytes32"}],"stateMutability":"view"},{"type":"function","name":"setOwner","inputs":[{"name":"newOwner","type":"address","internalType":"address"}],"outputs":[],"stateMutability":"nonpayable"},{"type":"function","name":"setRoot","inputs":[{"name":"newRoot","type":"bytes32","internalType":"bytes32"},{"name":"newIpfsHash","type":"bytes32","internalType":"bytes32"}],"outputs":[],"stateMutability":"nonpayable"},{"type":"function","name":"setRootUpdater","inputs":[{"name":"updater","type":"address","internalType":"address"},{"name":"active","type":"bool","internalType":"bool"}],"outputs":[],"stateMutability":"nonpayable"},{"type":"function","name":"setTimelock","inputs":[{"name":"newTimelock","type":"uint256","internalType":"uint256"}],"outputs":[],"stateMutability":"nonpayable"},{"type":"function","name":"submitRoot","inputs":[{"name":"newRoot","type":"bytes32","internalType":"bytes32"},{"name":"newIpfsHash","type":"bytes32","internalType":"bytes32"}],"outputs":[],"stateMutability":"nonpayable"},{"type":"function","name":"timelock","inputs":[],"outputs":[{"name":"","type":"uint256","internalType":"uint256"}],"stateMutability":"view"},{"type":"event","name":"Claimed","inputs":[{"name":"account","type":"address","indexed":true,"internalType":"address"},{"name":"reward","type":"address","indexed":true,"internalType":"address"},{"name":"amount","type":"uint256","indexed":false,"internalType":"uint256"}],"anonymous":false},{"type":"event","name":"MerkleRootUpdated","inputs":[{"name":"root","type":"bytes32","indexed":true,"internalType":"bytes32"},{"name":"ipfsHash","type":"bytes32","indexed":false,"internalType":"bytes32"},{"name":"ipfsHashCid","type":"string","indexed":false,"internalType":"string"},{"name":"totalValue","type":"uint256","indexed":false,"internalType":"uint256"}],"anonymous":false},{"type":"event","name":"OwnerSet","inputs":[{"name":"newOwner","type":"address","indexed":true,"internalType":"address"}],"anonymous":false},{"type":"event","name":"PendingRootRevoked","inputs":[{"name":"caller","type":"address","indexed":true,"internalType":"address"}],"anonymous":false},{"type":"event","name":"PendingRootSet","inputs":[{"name":"caller","type":"address","indexed":true,"internalType":"address"},{"name":"newRoot","type":"bytes32","indexed":true,"internalType":"bytes32"},{"name":"newIpfsHash","type":"bytes32","indexed":true,"internalType":"bytes32"}],"anonymous":false},{"type":"event","name":"RootSet","inputs":[{"name":"newRoot","type":"bytes32","indexed":true,"internalType":"bytes32"},{"name":"newIpfsHash","type":"bytes32","indexed":true,"internalType":"bytes32"}],"anonymous":false},{"type":"event","name":"RootUpdaterSet","inputs":[{"name":"rootUpdater","type":"address","indexed":true,"internalType":"address"},{"name":"active","type":"bool","indexed":false,"internalType":"bool"}],"anonymous":false},{"type":"event","name":"TimelockSet","inputs":[{"name":"newTimelock","type":"uint256","indexed":false,"internalType":"uint256"}],"anonymous":false},{"type":"error","name":"SafeERC20FailedOperation","inputs":[{"name":"token","type":"address","internalType":"address"}]},{"type":"error","name":"SafeERC20FailedOperation","inputs":[{"name":"token","type":"address","internalType":"address"}]}],"bytecode":{"object":"0x60803461011257601f6112f438819003918201601f19168301916001600160401b038311848410176101165780849260209460405283398101031261011257516001600160a01b03811690819003610112573060018060a01b031960035416176003557f980b903efea70e6b1bd235b1fb05f1a5da73cbd478b73c9538053f9eb29f129f6020604051307f50146d0e3c60aa1d17a70635b05494f864e86144a2201275021014fbf08bafe25f80a25f6005555f8152a15f80555f6001555f6006555f6007555f600855604051905f807f901232fc92ac16700a7d4b60706cbd27dec177bc85c9c2dbd2e2871d63b22a238180a3600a80546001600160a01b0319169190911790556111c9908161012b8239f35b5f80fd5b634e487b7160e01b5f52604160045260245ffdfe60806040526004361015610011575f80fd5b5f3560e01c80630c9cbf0e14610d9657806313af403514610d085780631e891c0a14610c9b5780633d13f87414610ae857806342af83fb14610a155780634b3870531461098b5780634fdfb0861461094e57806353739410146108a2578063750588cf146108745780638da5cb5b1461084c5780639cb5bd9e1461077d578063bbdce969146104cd578063c623674f146104b0578063d33219b414610493578063d61825ef1461036f578063ebf0c71714610353578063ed075ec5146102e0578063f7c618c1146102b85763fabed412146100ea575f80fd5b346102b45760803660031901126102b457610103610de6565b61010b610dfc565b906044359160643567ffffffffffffffff81116102b457610130903690600401610e12565b91905f5461014761013f610f6b565b821515610f12565b6040519361018b6020860160018060a01b0388169586825260018060a01b03169687604082015289606082015260608152610183608082610e91565b519020610f98565b60208151910120925f915b80831061029057505050946101ba61025f926020976101b3610fb3565b9114610f12565b825f526002865260405f20845f5286526101e260405f205482116101dc610fee565b90610f12565b825f526002865260405f20845f52865261025961020360405f20548361101d565b5f8581526002895260408082208883528a529081902093909355915163a9059cbb60e01b818901526001600160a01b0390961660248701526044860182905290949081606481015b03601f198101835282610e91565b836110ef565b7ff7a40077ff7a04c7e61f6f26fb13774259ddf1b6bce9ecf26a8276cdd399268384604051858152a3604051908152f35b9091936102ab6001916102a48785876110cb565b3590611152565b94019190610196565b5f80fd5b346102b4575f3660031901126102b457600a546040516001600160a01b039091168152602090f35b346102b4575f3660031901126102b45761034260085461030161013f611065565b60405190610310604083610e91565b601782527f74696d656c6f636b206973206e6f7420657870697265640000000000000000006020830152421015610f12565b61035160065460075490611092565b005b346102b4575f3660031901126102b45760205f54604051908152f35b346102b45761037d36610e43565b90335f52600460205260ff60405f205416801561047f575b6103a1906101dc61102a565b6006548114801590610473575b6103e26040918251906103c18483610e91565b600f82526e616c72656164792070656e64696e6760881b6020830152610f12565b60055442019081421161045f57805190606082019180831067ffffffffffffffff84111761044b578392825284815285602082015201528160065582600755600855337f922a2513428e5d51dd666942f04a14788d1db1ab35373059a8a29f025d6342cb5f80a4005b634e487b7160e01b5f52604160045260245ffd5b634e487b7160e01b5f52601160045260245ffd5b506007548214156103ae565b506003546001600160a01b03163314610395565b346102b4575f3660031901126102b4576020600554604051908152f35b346102b4575f3660031901126102b4576020600154604051908152f35b346102b45760203660031901126102b45760043567ffffffffffffffff81116102b45760c060031982360301126102b45760405160c0810181811067ffffffffffffffff82111761044b576040528160040135815260248201356020820152604081019160448101358352606082019160648201358352608482013567ffffffffffffffff81116102b4578201366023820112156102b45760048101359067ffffffffffffffff821161044b5760405192610592601f8401601f191660200185610e91565b82845236602483850101116102b4575f60208460a495602460a096018389013786010152608081019384520192013582526105d08451845190611092565b80519384519467ffffffffffffffff861161044b576105f0600954610e59565b601f8111610715575b50602090601f8711600114610683579580917f60469a1323c9c22c5b6bde126cfa19042e701ef43149c572808ee3969da7aa7696975f92610678575b50508160011b915f199060031b1c1916176009555b5193519051915161066d6040519384938452606060208501526060840190610eb3565b9060408301520390a2005b015190508780610635565b90601f1987169160095f525f5160206111745f395f51905f52925f5b8181106106fd57509160019391897f60469a1323c9c22c5b6bde126cfa19042e701ef43149c572808ee3969da7aa76999a94106106e5575b505050811b0160095561064a565b01515f1960f88460031b161c191690558780806106d7565b9293602060018192878601518155019501930161069f565b60095f52601f870160051c5f5160206111745f395f51905f52019060208810610768575b601f0160051c5f5160206111745f395f51905f5201905b81811061075d57506105f9565b5f8155600101610750565b5f5160206111745f395f51905f529150610739565b346102b4575f3660031901126102b4576040515f60095461079d81610e59565b808452906001811690811561082857506001146107dd575b6107d9836107c581850382610e91565b604051918291602083526020830190610eb3565b0390f35b91905060095f525f5160206111745f395f51905f52915f905b80821061080e575090915081016020016107c56107b5565b9192600181602092548385880101520191019092916107f6565b60ff191660208086019190915291151560051b840190910191506107c590506107b5565b346102b4575f3660031901126102b4576003546040516001600160a01b039091168152602090f35b346102b4575f3660031901126102b45760606006546007546008549060405192835260208301526040820152f35b346102b45760403660031901126102b4576108bb610de6565b602435908115158092036102b45760207fefa819ca5209d17f1dfd20e7c0c2100700ae10239d28140f00fa620742b2d8429161090560018060a01b036003541633146101dc610ed7565b60018060a01b031692835f526004825261092d8160ff60405f205416151514156101dc610f42565b835f526004825260405f2060ff1981541660ff8316179055604051908152a2005b346102b45760203660031901126102b4576001600160a01b0361096f610de6565b165f526004602052602060ff60405f2054166040519015158152f35b346102b4575f3660031901126102b457335f52600460205260ff60405f2054168015610a01575b6109be906101dc61102a565b6109ce60085415156101dc611065565b5f6006555f6007555f600855337ffc5bc87b2339664e063f6f7cd154075756d9c3b2c38ca2b950fef2f8b3f6dc405f80a2005b506003546001600160a01b031633146109b2565b346102b457610351610a2636610e43565b90335f52600460205260ff60405f2054168015610ad4575b610a4a906101dc61102a565b5f548114801590610ac8575b610a62906101dc610f42565b600554158015610ab4575b610aaf9060405190610a80604083610e91565b601f82527f756e617574686f72697a656420746f206368616e67652074686520726f6f74006020830152610f12565b611092565b506003546001600160a01b03163314610a6d565b50600154821415610a56565b506003546001600160a01b03163314610a3e565b346102b45760603660031901126102b457610b01610de6565b60243560443567ffffffffffffffff81116102b457610b24903690600401610e12565b5f93919354610b3461013f610f6b565b604080516001600160a01b03851660208201908152918101869052610b619190610183816060810161024b565b60208151910120915f905b808210610c805760208686610b8487876101b3610fb3565b6001600160a01b038181165f818152600286526040808220600a549094168083529387529020549092610c439291610bc09086116101dc610fee565b5f8481526002875260408082206001600160a01b03851683528852902054610be8908661101d565b5f8581526002885260408082206001600160a01b03958616835289529081902096909655600a54955163a9059cbb60e01b8189015291831660248301526044808301829052825294909116610c3e606483610e91565b6110ef565b60018060a01b03600a5416907ff7a40077ff7a04c7e61f6f26fb13774259ddf1b6bce9ecf26a8276cdd399268384604051858152a3604051908152f35b9092610c936001916102a486858b6110cb565b930190610b6c565b346102b45760203660031901126102b4577f980b903efea70e6b1bd235b1fb05f1a5da73cbd478b73c9538053f9eb29f129f6020600435610cea60018060a01b036003541633146101dc610ed7565b610cfb6005548214156101dc610f42565b80600555604051908152a1005b346102b45760203660031901126102b457610d62610d24610de6565b6003546001600160a01b03811691610d45610d3d610ed7565b843314610f12565b6001600160a01b0316928392610d59610f42565b90841415610f12565b6001600160a01b031916176003557f50146d0e3c60aa1d17a70635b05494f864e86144a2201275021014fbf08bafe25f80a2005b346102b45760403660031901126102b457610daf610de6565b610db7610dfc565b6001600160a01b039182165f908152600260209081526040808320949093168252928352819020549051908152f35b600435906001600160a01b03821682036102b457565b602435906001600160a01b03821682036102b457565b9181601f840112156102b45782359167ffffffffffffffff83116102b4576020808501948460051b0101116102b457565b60409060031901126102b4576004359060243590565b90600182811c92168015610e87575b6020831014610e7357565b634e487b7160e01b5f52602260045260245ffd5b91607f1691610e68565b90601f8019910116810190811067ffffffffffffffff82111761044b57604052565b805180835260209291819084018484015e5f828201840152601f01601f1916010190565b60405190610ee6604083610e91565b601782527f63616c6c6572206973206e6f7420746865206f776e65720000000000000000006020830152565b15610f1a5750565b60405162461bcd60e51b815260206004820152908190610f3e906024830190610eb3565b0390fd5b60405190610f51604083610e91565b600b82526a185b1c9958591e481cd95d60aa1b6020830152565b60405190610f7a604083610e91565b600f82526e1c9bdbdd081a5cc81b9bdd081cd95d608a1b6020830152565b9060405191602083015260208252610fb1604083610e91565b565b60405190610fc2604083610e91565b601882527f696e76616c69642070726f6f66206f72206578706972656400000000000000006020830152565b60405190610ffd604083610e91565b6011825270636c61696d61626c6520746f6f206c6f7760781b6020830152565b9190820391821161045f57565b60405190611039604083610e91565b601f82527f63616c6c657220686173206e6f7420746865207570646174657220726f6c65006020830152565b60405190611074604083610e91565b600f82526e1b9bc81c195b991a5b99c81c9bdbdd608a1b6020830152565b805f55816001555f6006555f6007555f6008557f901232fc92ac16700a7d4b60706cbd27dec177bc85c9c2dbd2e2871d63b22a235f80a3565b91908110156110db5760051b0190565b634e487b7160e01b5f52603260045260245ffd5b905f602091828151910182855af115611147575f513d61113e57506001600160a01b0381163b155b61111e5750565b635274afe760e01b5f9081526001600160a01b0391909116600452602490fd5b60011415611117565b6040513d5f823e3d90fd5b81811015611166575f5260205260405f2090565b905f5260205260405f209056fe6e1540171b6c0c960b71a7020d9f60077f6af931a8bbf590da0223dacf75c7afa2646970667358221220ce96ecf4e6c980c53014187bd2ce68dcfbc7df207ab57022d9d19fa785ff07ee64736f6c634300081b0033","linkReferences":{}},"methodIdentifiers":{"acceptRoot()":"ed075ec5","claim(address,address,uint256,bytes32[])":"fabed412","claim(address,uint256,bytes32[])":"3d13f874","claimed(address,address)":"0c9cbf0e","ipfsHash()":"c623674f","ipfsHashCid()":"9cb5bd9e","isUpdater(address)":"4fdfb086","onMerkleUpdate((uint256,uint256,bytes32,bytes32,string,uint256))":"bbdce969","owner()":"8da5cb5b","pendingRoot()":"750588cf","revokePendingRoot()":"4b387053","rewardToken()":"f7c618c1","root()":"ebf0c717","setOwner(address)":"13af4035","setRoot(bytes32,bytes32)":"42af83fb","setRootUpdater(address,bool)":"53739410","setTimelock(uint256)":"1e891c0a","submitRoot(bytes32,bytes32)":"d61825ef","timelock()":"d33219b4"},"id":207}