{"abi":[{"type":"constructor","inputs":[{"name":"rewardToken_","type":"address","internalType":"address"}],"stateMutability":"nonpayable"},{"type":"function","name":"acceptRoot","inputs":[],"outputs":[],"stateMutability":"nonpayable"},{"type":"function","name":"claim","inputs":[{"name":"account","type":"address","internalType":"address"},{"name":"claimable","type":"uint256","internalType":"uint256"},{"name":"proof","type":"bytes32[]","internalType":"bytes32[]"}],"outputs":[{"name":"amount","type":"uint256","internalType":"uint256"}],"stateMutability":"nonpayable"},{"type":"function","name":"claim","inputs":[{"name":"account","type":"address","internalType":"address"},{"name":"reward","type":"address","internalType":"address"},{"name":"claimable","type":"uint256","internalType":"uint256"},{"name":"proof","type":"bytes32[]","internalType":"bytes32[]"}],"outputs":[{"name":"amount","type":"uint256","internalType":"uint256"}],"stateMutability":"nonpayable"},{"type":"function","name":"claimed","inputs":[{"name":"account","type":"address","internalType":"address"},{"name":"reward","type":"address","internalType":"address"}],"outputs":[{"name":"amount","type":"uint256","internalType":"uint256"}],"stateMutability":"view"},{"type":"function","name":"ipfsHash","inputs":[],"outputs":[{"name":"","type":"bytes32","internalType":"bytes32"}],"stateMutability":"view"},{"type":"function","name":"ipfsHashCid","inputs":[],"outputs":[{"name":"","type":"string","internalType":"string"}],"stateMutability":"view"},{"type":"function","name":"isUpdater","inputs":[{"name":"","type":"address","internalType":"address"}],"outputs":[{"name":"","type":"bool","internalType":"bool"}],"stateMutability":"view"},{"type":"function","name":"onMerkleUpdate","inputs":[{"name":"state","type":"tuple","internalType":"struct IMerkleSnapshot.MerkleState","components":[{"name":"blockNumber","type":"uint256","internalType":"uint256"},{"name":"root","type":"bytes32","internalType":"bytes32"},{"name":"ipfsHash","type":"bytes32","internalType":"bytes32"},{"name":"ipfsHashCid","type":"string","internalType":"string"}]}],"outputs":[],"stateMutability":"nonpayable"},{"type":"function","name":"owner","inputs":[],"outputs":[{"name":"","type":"address","internalType":"address"}],"stateMutability":"view"},{"type":"function","name":"pendingRoot","inputs":[],"outputs":[{"name":"root","type":"bytes32","internalType":"bytes32"},{"name":"ipfsHash","type":"bytes32","internalType":"bytes32"},{"name":"validAt","type":"uint256","internalType":"uint256"}],"stateMutability":"view"},{"type":"function","name":"revokePendingRoot","inputs":[],"outputs":[],"stateMutability":"nonpayable"},{"type":"function","name":"rewardToken","inputs":[],"outputs":[{"name":"","type":"address","internalType":"address"}],"stateMutability":"view"},{"type":"function","name":"root","inputs":[],"outputs":[{"name":"","type":"bytes32","internalType":"bytes32"}],"stateMutability":"view"},{"type":"function","name":"setOwner","inputs":[{"name":"newOwner","type":"address","internalType":"address"}],"outputs":[],"stateMutability":"nonpayable"},{"type":"function","name":"setRoot","inputs":[{"name":"newRoot","type":"bytes32","internalType":"bytes32"},{"name":"newIpfsHash","type":"bytes32","internalType":"bytes32"}],"outputs":[],"stateMutability":"nonpayable"},{"type":"function","name":"setRootUpdater","inputs":[{"name":"updater","type":"address","internalType":"address"},{"name":"active","type":"bool","internalType":"bool"}],"outputs":[],"stateMutability":"nonpayable"},{"type":"function","name":"setTimelock","inputs":[{"name":"newTimelock","type":"uint256","internalType":"uint256"}],"outputs":[],"stateMutability":"nonpayable"},{"type":"function","name":"submitRoot","inputs":[{"name":"newRoot","type":"bytes32","internalType":"bytes32"},{"name":"newIpfsHash","type":"bytes32","internalType":"bytes32"}],"outputs":[],"stateMutability":"nonpayable"},{"type":"function","name":"timelock","inputs":[],"outputs":[{"name":"","type":"uint256","internalType":"uint256"}],"stateMutability":"view"},{"type":"event","name":"Claimed","inputs":[{"name":"account","type":"address","indexed":true,"internalType":"address"},{"name":"reward","type":"address","indexed":true,"internalType":"address"},{"name":"amount","type":"uint256","indexed":false,"internalType":"uint256"}],"anonymous":false},{"type":"event","name":"MerkleRootUpdated","inputs":[{"name":"root","type":"bytes32","indexed":true,"internalType":"bytes32"},{"name":"ipfsHash","type":"bytes32","indexed":false,"internalType":"bytes32"},{"name":"ipfsHashCid","type":"string","indexed":false,"internalType":"string"}],"anonymous":false},{"type":"event","name":"OwnerSet","inputs":[{"name":"newOwner","type":"address","indexed":true,"internalType":"address"}],"anonymous":false},{"type":"event","name":"PendingRootRevoked","inputs":[{"name":"caller","type":"address","indexed":true,"internalType":"address"}],"anonymous":false},{"type":"event","name":"PendingRootSet","inputs":[{"name":"caller","type":"address","indexed":true,"internalType":"address"},{"name":"newRoot","type":"bytes32","indexed":true,"internalType":"bytes32"},{"name":"newIpfsHash","type":"bytes32","indexed":true,"internalType":"bytes32"}],"anonymous":false},{"type":"event","name":"RootSet","inputs":[{"name":"newRoot","type":"bytes32","indexed":true,"internalType":"bytes32"},{"name":"newIpfsHash","type":"bytes32","indexed":true,"internalType":"bytes32"}],"anonymous":false},{"type":"event","name":"RootUpdaterSet","inputs":[{"name":"rootUpdater","type":"address","indexed":true,"internalType":"address"},{"name":"active","type":"bool","indexed":false,"internalType":"bool"}],"anonymous":false},{"type":"event","name":"TimelockSet","inputs":[{"name":"newTimelock","type":"uint256","indexed":false,"internalType":"uint256"}],"anonymous":false},{"type":"error","name":"SafeERC20FailedOperation","inputs":[{"name":"token","type":"address","internalType":"address"}]},{"type":"error","name":"SafeERC20FailedOperation","inputs":[{"name":"token","type":"address","internalType":"address"}]}],"bytecode":{"object":"0x60803461011257601f6112d538819003918201601f19168301916001600160401b038311848410176101165780849260209460405283398101031261011257516001600160a01b03811690819003610112573060018060a01b031960035416176003557f980b903efea70e6b1bd235b1fb05f1a5da73cbd478b73c9538053f9eb29f129f6020604051307f50146d0e3c60aa1d17a70635b05494f864e86144a2201275021014fbf08bafe25f80a25f6005555f8152a15f80555f6001555f6006555f6007555f600855604051905f807f901232fc92ac16700a7d4b60706cbd27dec177bc85c9c2dbd2e2871d63b22a238180a3600a80546001600160a01b0319169190911790556111aa908161012b8239f35b5f80fd5b634e487b7160e01b5f52604160045260245ffdfe60806040526004361015610011575f80fd5b5f3560e01c80630c9cbf0e14610d7757806313af403514610ce95780631e891c0a14610c7c5780633099e1aa146109eb5780633d13f8741461083857806342af83fb146107655780634b387053146106db5780634fdfb0861461069e57806353739410146105f2578063750588cf146105c45780638da5cb5b1461059c5780639cb5bd9e146104cd578063c623674f146104b0578063d33219b414610493578063d61825ef1461036f578063ebf0c71714610353578063ed075ec5146102e0578063f7c618c1146102b85763fabed412146100ea575f80fd5b346102b45760803660031901126102b457610103610dc7565b61010b610ddd565b906044359160643567ffffffffffffffff81116102b457610130903690600401610e15565b91905f5461014761013f610f4c565b821515610ef3565b6040519361018b6020860160018060a01b0388169586825260018060a01b03169687604082015289606082015260608152610183608082610df3565b519020610f79565b60208151910120925f915b80831061029057505050946101ba61025f926020976101b3610f94565b9114610ef3565b825f526002865260405f20845f5286526101e260405f205482116101dc610fcf565b90610ef3565b825f526002865260405f20845f52865261025961020360405f205483610ffe565b5f8581526002895260408082208883528a529081902093909355915163a9059cbb60e01b818901526001600160a01b0390961660248701526044860182905290949081606481015b03601f198101835282610df3565b836110d0565b7ff7a40077ff7a04c7e61f6f26fb13774259ddf1b6bce9ecf26a8276cdd399268384604051858152a3604051908152f35b9091936102ab6001916102a48785876110ac565b3590611133565b94019190610196565b5f80fd5b346102b4575f3660031901126102b457600a546040516001600160a01b039091168152602090f35b346102b4575f3660031901126102b45761034260085461030161013f611046565b60405190610310604083610df3565b601782527f74696d656c6f636b206973206e6f7420657870697265640000000000000000006020830152421015610ef3565b61035160065460075490611073565b005b346102b4575f3660031901126102b45760205f54604051908152f35b346102b45761037d36610e46565b90335f52600460205260ff60405f205416801561047f575b6103a1906101dc61100b565b6006548114801590610473575b6103e26040918251906103c18483610df3565b600f82526e616c72656164792070656e64696e6760881b6020830152610ef3565b60055442019081421161045f57805190606082019180831067ffffffffffffffff84111761044b578392825284815285602082015201528160065582600755600855337f922a2513428e5d51dd666942f04a14788d1db1ab35373059a8a29f025d6342cb5f80a4005b634e487b7160e01b5f52604160045260245ffd5b634e487b7160e01b5f52601160045260245ffd5b506007548214156103ae565b506003546001600160a01b03163314610395565b346102b4575f3660031901126102b4576020600554604051908152f35b346102b4575f3660031901126102b4576020600154604051908152f35b346102b4575f3660031901126102b4576040515f6009546104ed81610e5c565b8084529060018116908115610578575060011461052d575b6105298361051581850382610df3565b604051918291602083526020830190610e94565b0390f35b91905060095f525f5160206111555f395f51905f52915f905b80821061055e57509091508101602001610515610505565b919260018160209254838588010152019101909291610546565b60ff191660208086019190915291151560051b840190910191506105159050610505565b346102b4575f3660031901126102b4576003546040516001600160a01b039091168152602090f35b346102b4575f3660031901126102b45760606006546007546008549060405192835260208301526040820152f35b346102b45760403660031901126102b45761060b610dc7565b602435908115158092036102b45760207fefa819ca5209d17f1dfd20e7c0c2100700ae10239d28140f00fa620742b2d8429161065560018060a01b036003541633146101dc610eb8565b60018060a01b031692835f526004825261067d8160ff60405f205416151514156101dc610f23565b835f526004825260405f2060ff1981541660ff8316179055604051908152a2005b346102b45760203660031901126102b4576001600160a01b036106bf610dc7565b165f526004602052602060ff60405f2054166040519015158152f35b346102b4575f3660031901126102b457335f52600460205260ff60405f2054168015610751575b61070e906101dc61100b565b61071e60085415156101dc611046565b5f6006555f6007555f600855337ffc5bc87b2339664e063f6f7cd154075756d9c3b2c38ca2b950fef2f8b3f6dc405f80a2005b506003546001600160a01b03163314610702565b346102b45761035161077636610e46565b90335f52600460205260ff60405f2054168015610824575b61079a906101dc61100b565b5f548114801590610818575b6107b2906101dc610f23565b600554158015610804575b6107ff90604051906107d0604083610df3565b601f82527f756e617574686f72697a656420746f206368616e67652074686520726f6f74006020830152610ef3565b611073565b506003546001600160a01b031633146107bd565b506001548214156107a6565b506003546001600160a01b0316331461078e565b346102b45760603660031901126102b457610851610dc7565b60243560443567ffffffffffffffff81116102b457610874903690600401610e15565b5f9391935461088461013f610f4c565b604080516001600160a01b038516602082019081529181018690526108b19190610183816060810161024b565b60208151910120915f905b8082106109d057602086866108d487876101b3610f94565b6001600160a01b038181165f818152600286526040808220600a54909416808352938752902054909261099392916109109086116101dc610fcf565b5f8481526002875260408082206001600160a01b038516835288529020546109389086610ffe565b5f8581526002885260408082206001600160a01b03958616835289529081902096909655600a54955163a9059cbb60e01b818901529183166024830152604480830182905282529490911661098e606483610df3565b6110d0565b60018060a01b03600a5416907ff7a40077ff7a04c7e61f6f26fb13774259ddf1b6bce9ecf26a8276cdd399268384604051858152a3604051908152f35b90926109e36001916102a486858b6110ac565b9301906108bc565b346102b45760203660031901126102b45760043567ffffffffffffffff81116102b457608060031982360301126102b457604051906080820182811067ffffffffffffffff82111761044b576040528060040135825260208201916024820135835260408101916044810135835260648101359067ffffffffffffffff82116102b45701366023820112156102b45760048101359167ffffffffffffffff831161044b5760405192610aa7601f8201601f191660200185610df3565b80845236602484830101116102b4576020815f92602460609601838801378501015201908152610ada8351835190611073565b805192835167ffffffffffffffff811161044b57610af9600954610e5c565b601f8111610c14575b506020601f8211600114610b835781907f9958b12204332a9f4a785b96fb90aed175c88d27250e7b036e3661a50e1cc20495965f92610b78575b50508160011b915f199060031b1c1916176009555b519251905190610b736040519283928352604060208401526040830190610e94565b0390a2005b015190508680610b3c565b601f1982169560095f525f5160206111555f395f51905f52965f5b818110610bfc5750917f9958b12204332a9f4a785b96fb90aed175c88d27250e7b036e3661a50e1cc204969791846001959410610be4575b505050811b01600955610b51565b01515f1960f88460031b161c19169055868080610bd6565b83830151895560019098019760209384019301610b9e565b60095f52601f820160051c5f5160206111555f395f51905f52019060208310610c67575b601f0160051c5f5160206111555f395f51905f5201905b818110610c5c5750610b02565b5f8155600101610c4f565b5f5160206111555f395f51905f529150610c38565b346102b45760203660031901126102b4577f980b903efea70e6b1bd235b1fb05f1a5da73cbd478b73c9538053f9eb29f129f6020600435610ccb60018060a01b036003541633146101dc610eb8565b610cdc6005548214156101dc610f23565b80600555604051908152a1005b346102b45760203660031901126102b457610d43610d05610dc7565b6003546001600160a01b03811691610d26610d1e610eb8565b843314610ef3565b6001600160a01b0316928392610d3a610f23565b90841415610ef3565b6001600160a01b031916176003557f50146d0e3c60aa1d17a70635b05494f864e86144a2201275021014fbf08bafe25f80a2005b346102b45760403660031901126102b457610d90610dc7565b610d98610ddd565b6001600160a01b039182165f908152600260209081526040808320949093168252928352819020549051908152f35b600435906001600160a01b03821682036102b457565b602435906001600160a01b03821682036102b457565b90601f8019910116810190811067ffffffffffffffff82111761044b57604052565b9181601f840112156102b45782359167ffffffffffffffff83116102b4576020808501948460051b0101116102b457565b60409060031901126102b4576004359060243590565b90600182811c92168015610e8a575b6020831014610e7657565b634e487b7160e01b5f52602260045260245ffd5b91607f1691610e6b565b805180835260209291819084018484015e5f828201840152601f01601f1916010190565b60405190610ec7604083610df3565b601782527f63616c6c6572206973206e6f7420746865206f776e65720000000000000000006020830152565b15610efb5750565b60405162461bcd60e51b815260206004820152908190610f1f906024830190610e94565b0390fd5b60405190610f32604083610df3565b600b82526a185b1c9958591e481cd95d60aa1b6020830152565b60405190610f5b604083610df3565b600f82526e1c9bdbdd081a5cc81b9bdd081cd95d608a1b6020830152565b9060405191602083015260208252610f92604083610df3565b565b60405190610fa3604083610df3565b601882527f696e76616c69642070726f6f66206f72206578706972656400000000000000006020830152565b60405190610fde604083610df3565b6011825270636c61696d61626c6520746f6f206c6f7760781b6020830152565b9190820391821161045f57565b6040519061101a604083610df3565b601f82527f63616c6c657220686173206e6f7420746865207570646174657220726f6c65006020830152565b60405190611055604083610df3565b600f82526e1b9bc81c195b991a5b99c81c9bdbdd608a1b6020830152565b805f55816001555f6006555f6007555f6008557f901232fc92ac16700a7d4b60706cbd27dec177bc85c9c2dbd2e2871d63b22a235f80a3565b91908110156110bc5760051b0190565b634e487b7160e01b5f52603260045260245ffd5b905f602091828151910182855af115611128575f513d61111f57506001600160a01b0381163b155b6110ff5750565b635274afe760e01b5f9081526001600160a01b0391909116600452602490fd5b600114156110f8565b6040513d5f823e3d90fd5b81811015611147575f5260205260405f2090565b905f5260205260405f209056fe6e1540171b6c0c960b71a7020d9f60077f6af931a8bbf590da0223dacf75c7afa264697066735822122080ef83a365ab045d55fbe4622fc2671f375db0bf09dd277e18e1940c773b852e64736f6c634300081b0033","linkReferences":{}},"methodIdentifiers":{"acceptRoot()":"ed075ec5","claim(address,address,uint256,bytes32[])":"fabed412","claim(address,uint256,bytes32[])":"3d13f874","claimed(address,address)":"0c9cbf0e","ipfsHash()":"c623674f","ipfsHashCid()":"9cb5bd9e","isUpdater(address)":"4fdfb086","onMerkleUpdate((uint256,bytes32,bytes32,string))":"3099e1aa","owner()":"8da5cb5b","pendingRoot()":"750588cf","revokePendingRoot()":"4b387053","rewardToken()":"f7c618c1","root()":"ebf0c717","setOwner(address)":"13af4035","setRoot(bytes32,bytes32)":"42af83fb","setRootUpdater(address,bool)":"53739410","setTimelock(uint256)":"1e891c0a","submitRoot(bytes32,bytes32)":"d61825ef","timelock()":"d33219b4"},"id":195}