{"abi":[{"type":"constructor","inputs":[{"name":"rewardToken_","type":"address","internalType":"address"},{"name":"merkleSnapshot_","type":"address","internalType":"address"}],"stateMutability":"nonpayable"},{"type":"function","name":"acceptRoot","inputs":[],"outputs":[],"stateMutability":"nonpayable"},{"type":"function","name":"claim","inputs":[{"name":"account","type":"address","internalType":"address"},{"name":"claimable","type":"uint256","internalType":"uint256"},{"name":"proof","type":"bytes32[]","internalType":"bytes32[]"}],"outputs":[{"name":"amount","type":"uint256","internalType":"uint256"}],"stateMutability":"nonpayable"},{"type":"function","name":"claim","inputs":[{"name":"account","type":"address","internalType":"address"},{"name":"reward","type":"address","internalType":"address"},{"name":"claimable","type":"uint256","internalType":"uint256"},{"name":"proof","type":"bytes32[]","internalType":"bytes32[]"}],"outputs":[{"name":"amount","type":"uint256","internalType":"uint256"}],"stateMutability":"nonpayable"},{"type":"function","name":"claimed","inputs":[{"name":"account","type":"address","internalType":"address"},{"name":"reward","type":"address","internalType":"address"}],"outputs":[{"name":"amount","type":"uint256","internalType":"uint256"}],"stateMutability":"view"},{"type":"function","name":"ipfsHash","inputs":[],"outputs":[{"name":"","type":"bytes32","internalType":"bytes32"}],"stateMutability":"view"},{"type":"function","name":"ipfsHashCid","inputs":[],"outputs":[{"name":"","type":"string","internalType":"string"}],"stateMutability":"view"},{"type":"function","name":"isUpdater","inputs":[{"name":"","type":"address","internalType":"address"}],"outputs":[{"name":"","type":"bool","internalType":"bool"}],"stateMutability":"view"},{"type":"function","name":"merkleSnapshotContract","inputs":[],"outputs":[{"name":"","type":"address","internalType":"address"}],"stateMutability":"view"},{"type":"function","name":"onMerkleUpdate","inputs":[{"name":"state","type":"tuple","internalType":"struct IMerkleSnapshot.MerkleState","components":[{"name":"blockNumber","type":"uint256","internalType":"uint256"},{"name":"timestamp","type":"uint256","internalType":"uint256"},{"name":"root","type":"bytes32","internalType":"bytes32"},{"name":"ipfsHash","type":"bytes32","internalType":"bytes32"},{"name":"ipfsHashCid","type":"string","internalType":"string"},{"name":"totalValue","type":"uint256","internalType":"uint256"}]}],"outputs":[],"stateMutability":"nonpayable"},{"type":"function","name":"owner","inputs":[],"outputs":[{"name":"","type":"address","internalType":"address"}],"stateMutability":"view"},{"type":"function","name":"pendingRoot","inputs":[],"outputs":[{"name":"root","type":"bytes32","internalType":"bytes32"},{"name":"ipfsHash","type":"bytes32","internalType":"bytes32"},{"name":"validAt","type":"uint256","internalType":"uint256"}],"stateMutability":"view"},{"type":"function","name":"revokePendingRoot","inputs":[],"outputs":[],"stateMutability":"nonpayable"},{"type":"function","name":"rewardToken","inputs":[],"outputs":[{"name":"","type":"address","internalType":"address"}],"stateMutability":"view"},{"type":"function","name":"root","inputs":[],"outputs":[{"name":"","type":"bytes32","internalType":"bytes32"}],"stateMutability":"view"},{"type":"function","name":"setMerkleSnapshotContract","inputs":[{"name":"newContract","type":"address","internalType":"address"}],"outputs":[],"stateMutability":"nonpayable"},{"type":"function","name":"setOwner","inputs":[{"name":"newOwner","type":"address","internalType":"address"}],"outputs":[],"stateMutability":"nonpayable"},{"type":"function","name":"setRoot","inputs":[{"name":"newRoot","type":"bytes32","internalType":"bytes32"},{"name":"newIpfsHash","type":"bytes32","internalType":"bytes32"}],"outputs":[],"stateMutability":"nonpayable"},{"type":"function","name":"setRootUpdater","inputs":[{"name":"updater","type":"address","internalType":"address"},{"name":"active","type":"bool","internalType":"bool"}],"outputs":[],"stateMutability":"nonpayable"},{"type":"function","name":"setTimelock","inputs":[{"name":"newTimelock","type":"uint256","internalType":"uint256"}],"outputs":[],"stateMutability":"nonpayable"},{"type":"function","name":"submitRoot","inputs":[{"name":"newRoot","type":"bytes32","internalType":"bytes32"},{"name":"newIpfsHash","type":"bytes32","internalType":"bytes32"}],"outputs":[],"stateMutability":"nonpayable"},{"type":"function","name":"timelock","inputs":[],"outputs":[{"name":"","type":"uint256","internalType":"uint256"}],"stateMutability":"view"},{"type":"event","name":"Claimed","inputs":[{"name":"account","type":"address","indexed":true,"internalType":"address"},{"name":"reward","type":"address","indexed":true,"internalType":"address"},{"name":"amount","type":"uint256","indexed":false,"internalType":"uint256"}],"anonymous":false},{"type":"event","name":"MerkleRootUpdated","inputs":[{"name":"root","type":"bytes32","indexed":true,"internalType":"bytes32"},{"name":"ipfsHash","type":"bytes32","indexed":false,"internalType":"bytes32"},{"name":"ipfsHashCid","type":"string","indexed":false,"internalType":"string"},{"name":"totalValue","type":"uint256","indexed":false,"internalType":"uint256"}],"anonymous":false},{"type":"event","name":"MerkleSnapshotContractUpdated","inputs":[{"name":"previousContract","type":"address","indexed":true,"internalType":"address"},{"name":"newContract","type":"address","indexed":true,"internalType":"address"}],"anonymous":false},{"type":"event","name":"OwnerSet","inputs":[{"name":"newOwner","type":"address","indexed":true,"internalType":"address"}],"anonymous":false},{"type":"event","name":"PendingRootRevoked","inputs":[{"name":"caller","type":"address","indexed":true,"internalType":"address"}],"anonymous":false},{"type":"event","name":"PendingRootSet","inputs":[{"name":"caller","type":"address","indexed":true,"internalType":"address"},{"name":"newRoot","type":"bytes32","indexed":true,"internalType":"bytes32"},{"name":"newIpfsHash","type":"bytes32","indexed":true,"internalType":"bytes32"}],"anonymous":false},{"type":"event","name":"RootSet","inputs":[{"name":"newRoot","type":"bytes32","indexed":true,"internalType":"bytes32"},{"name":"newIpfsHash","type":"bytes32","indexed":true,"internalType":"bytes32"}],"anonymous":false},{"type":"event","name":"RootUpdaterSet","inputs":[{"name":"rootUpdater","type":"address","indexed":true,"internalType":"address"},{"name":"active","type":"bool","indexed":false,"internalType":"bool"}],"anonymous":false},{"type":"event","name":"TimelockSet","inputs":[{"name":"newTimelock","type":"uint256","indexed":false,"internalType":"uint256"}],"anonymous":false},{"type":"error","name":"SafeERC20FailedOperation","inputs":[{"name":"token","type":"address","internalType":"address"}]},{"type":"error","name":"SafeERC20FailedOperation","inputs":[{"name":"token","type":"address","internalType":"address"}]}],"bytecode":{"object":"0x60803461012e57601f61146838819003918201601f19168301916001600160401b0383118484101761013257808492604094855283398101031261012e57610052602061004b83610146565b9201610146565b3060018060a01b031960035416176003557f980b903efea70e6b1bd235b1fb05f1a5da73cbd478b73c9538053f9eb29f129f6020604051307f50146d0e3c60aa1d17a70635b05494f864e86144a2201275021014fbf08bafe25f80a25f6005555f8152a15f80555f6001555f6006555f6007555f600855604051915f807f901232fc92ac16700a7d4b60706cbd27dec177bc85c9c2dbd2e2871d63b22a238180a3600b80546001600160a01b039283166001600160a01b0319918216179091556009805493909216921691909117905561130d908161015b8239f35b5f80fd5b634e487b7160e01b5f52604160045260245ffd5b51906001600160a01b038216820361012e5756fe60806040526004361015610011575f80fd5b5f3560e01c80630c9cbf0e14610eda57806313af403514610e4c5780631acc1ab014610d925780631e891c0a14610d255780633d13f87414610b7257806342af83fb14610a9f5780634b38705314610a155780634fdfb086146109d8578063537394101461092c578063750588cf146108fe5780638da5cb5b146108d65780639cb5bd9e14610807578063a96ab06d146107df578063bbdce969146104e3578063c623674f146104c6578063d33219b4146104a9578063d61825ef14610385578063ebf0c71714610369578063ed075ec5146102f6578063f7c618c1146102ce5763fabed41214610100575f80fd5b346102ca5760803660031901126102ca57610119610f2a565b610121610f40565b906044359160643567ffffffffffffffff81116102ca57610146903690600401610f56565b91905f5461015d6101556110af565b821515611056565b604051936101a16020860160018060a01b0388169586825260018060a01b03169687604082015289606082015260608152610199608082610fd5565b5190206110dc565b60208151910120925f915b8083106102a657505050946101d0610275926020976101c96110f7565b9114611056565b825f526002865260405f20845f5286526101f860405f205482116101f2611132565b90611056565b825f526002865260405f20845f52865261026f61021960405f205483611161565b5f8581526002895260408082208883528a529081902093909355915163a9059cbb60e01b818901526001600160a01b0390961660248701526044860182905290949081606481015b03601f198101835282610fd5565b83611233565b7ff7a40077ff7a04c7e61f6f26fb13774259ddf1b6bce9ecf26a8276cdd399268384604051858152a3604051908152f35b9091936102c16001916102ba87858761120f565b3590611296565b940191906101ac565b5f80fd5b346102ca575f3660031901126102ca57600b546040516001600160a01b039091168152602090f35b346102ca575f3660031901126102ca576103586008546103176101556111a9565b60405190610326604083610fd5565b601782527f74696d656c6f636b206973206e6f7420657870697265640000000000000000006020830152421015611056565b610367600654600754906111d6565b005b346102ca575f3660031901126102ca5760205f54604051908152f35b346102ca5761039336610f87565b90335f52600460205260ff60405f2054168015610495575b6103b7906101f261116e565b6006548114801590610489575b6103f86040918251906103d78483610fd5565b600f82526e616c72656164792070656e64696e6760881b6020830152611056565b60055442019081421161047557805190606082019180831067ffffffffffffffff841117610461578392825284815285602082015201528160065582600755600855337f922a2513428e5d51dd666942f04a14788d1db1ab35373059a8a29f025d6342cb5f80a4005b634e487b7160e01b5f52604160045260245ffd5b634e487b7160e01b5f52601160045260245ffd5b506007548214156103c4565b506003546001600160a01b031633146103ab565b346102ca575f3660031901126102ca576020600554604051908152f35b346102ca575f3660031901126102ca576020600154604051908152f35b346102ca5760203660031901126102ca5760043567ffffffffffffffff81116102ca5760c060031982360301126102ca5760405160c0810181811067ffffffffffffffff821117610461576040528160040135815260248201356020820152604081019160448101358352606082019160648201358352608482013567ffffffffffffffff81116102ca578201366023820112156102ca5760048101359067ffffffffffffffff821161046157604051926105a8601f8401601f191660200185610fd5565b82845236602483850101116102ca575f60208460a495602460a0960183890137860101526080810193845201920135825260018060a01b036009541633036107a4576105f784518451906111d6565b80519384519467ffffffffffffffff861161046157610617600a54610f9d565b601f811161073c575b50602090601f87116001146106aa579580917f60469a1323c9c22c5b6bde126cfa19042e701ef43149c572808ee3969da7aa7696975f9261069f575b50508160011b915f199060031b1c191617600a555b519351905191516106946040519384938452606060208501526060840190610ff7565b9060408301520390a2005b01519050878061065c565b90601f19871691600a5f525f5160206112b85f395f51905f52925f5b81811061072457509160019391897f60469a1323c9c22c5b6bde126cfa19042e701ef43149c572808ee3969da7aa76999a941061070c575b505050811b01600a55610671565b01515f1960f88460031b161c191690558780806106fe565b929360206001819287860151815501950193016106c6565b600a5f52601f870160051c5f5160206112b85f395f51905f5201906020881061078f575b601f0160051c5f5160206112b85f395f51905f5201905b8181106107845750610620565b5f8155600101610777565b5f5160206112b85f395f51905f529150610760565b60405162461bcd60e51b815260206004820152601360248201527213db9b1e4813595c9adb1954db985c1cda1bdd606a1b6044820152606490fd5b346102ca575f3660031901126102ca576009546040516001600160a01b039091168152602090f35b346102ca575f3660031901126102ca576040515f600a5461082781610f9d565b80845290600181169081156108b25750600114610867575b6108638361084f81850382610fd5565b604051918291602083526020830190610ff7565b0390f35b919050600a5f525f5160206112b85f395f51905f52915f905b8082106108985750909150810160200161084f61083f565b919260018160209254838588010152019101909291610880565b60ff191660208086019190915291151560051b8401909101915061084f905061083f565b346102ca575f3660031901126102ca576003546040516001600160a01b039091168152602090f35b346102ca575f3660031901126102ca5760606006546007546008549060405192835260208301526040820152f35b346102ca5760403660031901126102ca57610945610f2a565b602435908115158092036102ca5760207fefa819ca5209d17f1dfd20e7c0c2100700ae10239d28140f00fa620742b2d8429161098f60018060a01b036003541633146101f261101b565b60018060a01b031692835f52600482526109b78160ff60405f205416151514156101f2611086565b835f526004825260405f2060ff1981541660ff8316179055604051908152a2005b346102ca5760203660031901126102ca576001600160a01b036109f9610f2a565b165f526004602052602060ff60405f2054166040519015158152f35b346102ca575f3660031901126102ca57335f52600460205260ff60405f2054168015610a8b575b610a48906101f261116e565b610a5860085415156101f26111a9565b5f6006555f6007555f600855337ffc5bc87b2339664e063f6f7cd154075756d9c3b2c38ca2b950fef2f8b3f6dc405f80a2005b506003546001600160a01b03163314610a3c565b346102ca57610367610ab036610f87565b90335f52600460205260ff60405f2054168015610b5e575b610ad4906101f261116e565b5f548114801590610b52575b610aec906101f2611086565b600554158015610b3e575b610b399060405190610b0a604083610fd5565b601f82527f756e617574686f72697a656420746f206368616e67652074686520726f6f74006020830152611056565b6111d6565b506003546001600160a01b03163314610af7565b50600154821415610ae0565b506003546001600160a01b03163314610ac8565b346102ca5760603660031901126102ca57610b8b610f2a565b60243560443567ffffffffffffffff81116102ca57610bae903690600401610f56565b5f93919354610bbe6101556110af565b604080516001600160a01b03851660208201908152918101869052610beb91906101998160608101610261565b60208151910120915f905b808210610d0a5760208686610c0e87876101c96110f7565b6001600160a01b038181165f818152600286526040808220600b549094168083529387529020549092610ccd9291610c4a9086116101f2611132565b5f8481526002875260408082206001600160a01b03851683528852902054610c729086611161565b5f8581526002885260408082206001600160a01b03958616835289529081902096909655600b54955163a9059cbb60e01b8189015291831660248301526044808301829052825294909116610cc8606483610fd5565b611233565b60018060a01b03600b5416907ff7a40077ff7a04c7e61f6f26fb13774259ddf1b6bce9ecf26a8276cdd399268384604051858152a3604051908152f35b9092610d1d6001916102ba86858b61120f565b930190610bf6565b346102ca5760203660031901126102ca577f980b903efea70e6b1bd235b1fb05f1a5da73cbd478b73c9538053f9eb29f129f6020600435610d7460018060a01b036003541633146101f261101b565b610d856005548214156101f2611086565b80600555604051908152a1005b346102ca5760203660031901126102ca57610dab610f2a565b610dc360018060a01b036003541633146101f261101b565b6001600160a01b03168015610e1557600980546001600160a01b0319811683179091556001600160a01b03167fb8ed9bab5ad5186bb6cda3bac43ff4b637c4494961d1ee2a6a0c6408de71211b5f80a3005b60405162461bcd60e51b815260206004820152600f60248201526e496e76616c6964206164647265737360881b6044820152606490fd5b346102ca5760203660031901126102ca57610ea6610e68610f2a565b6003546001600160a01b03811691610e89610e8161101b565b843314611056565b6001600160a01b0316928392610e9d611086565b90841415611056565b6001600160a01b031916176003557f50146d0e3c60aa1d17a70635b05494f864e86144a2201275021014fbf08bafe25f80a2005b346102ca5760403660031901126102ca57610ef3610f2a565b610efb610f40565b6001600160a01b039182165f908152600260209081526040808320949093168252928352819020549051908152f35b600435906001600160a01b03821682036102ca57565b602435906001600160a01b03821682036102ca57565b9181601f840112156102ca5782359167ffffffffffffffff83116102ca576020808501948460051b0101116102ca57565b60409060031901126102ca576004359060243590565b90600182811c92168015610fcb575b6020831014610fb757565b634e487b7160e01b5f52602260045260245ffd5b91607f1691610fac565b90601f8019910116810190811067ffffffffffffffff82111761046157604052565b805180835260209291819084018484015e5f828201840152601f01601f1916010190565b6040519061102a604083610fd5565b601782527f63616c6c6572206973206e6f7420746865206f776e65720000000000000000006020830152565b1561105e5750565b60405162461bcd60e51b815260206004820152908190611082906024830190610ff7565b0390fd5b60405190611095604083610fd5565b600b82526a185b1c9958591e481cd95d60aa1b6020830152565b604051906110be604083610fd5565b600f82526e1c9bdbdd081a5cc81b9bdd081cd95d608a1b6020830152565b90604051916020830152602082526110f5604083610fd5565b565b60405190611106604083610fd5565b601882527f696e76616c69642070726f6f66206f72206578706972656400000000000000006020830152565b60405190611141604083610fd5565b6011825270636c61696d61626c6520746f6f206c6f7760781b6020830152565b9190820391821161047557565b6040519061117d604083610fd5565b601f82527f63616c6c657220686173206e6f7420746865207570646174657220726f6c65006020830152565b604051906111b8604083610fd5565b600f82526e1b9bc81c195b991a5b99c81c9bdbdd608a1b6020830152565b805f55816001555f6006555f6007555f6008557f901232fc92ac16700a7d4b60706cbd27dec177bc85c9c2dbd2e2871d63b22a235f80a3565b919081101561121f5760051b0190565b634e487b7160e01b5f52603260045260245ffd5b905f602091828151910182855af11561128b575f513d61128257506001600160a01b0381163b155b6112625750565b635274afe760e01b5f9081526001600160a01b0391909116600452602490fd5b6001141561125b565b6040513d5f823e3d90fd5b818110156112aa575f5260205260405f2090565b905f5260205260405f209056fec65a7bb8d6351c1cf70c95a316cc6a92839c986682d98bc35f958f4883f9d2a8a26469706673582212209dfc4569f19878f0297d2d620b6978c38a4f0062eea4c7e7afe7f01aa2eed08064736f6c634300081b0033","linkReferences":{}},"methodIdentifiers":{"acceptRoot()":"ed075ec5","claim(address,address,uint256,bytes32[])":"fabed412","claim(address,uint256,bytes32[])":"3d13f874","claimed(address,address)":"0c9cbf0e","ipfsHash()":"c623674f","ipfsHashCid()":"9cb5bd9e","isUpdater(address)":"4fdfb086","merkleSnapshotContract()":"a96ab06d","onMerkleUpdate((uint256,uint256,bytes32,bytes32,string,uint256))":"bbdce969","owner()":"8da5cb5b","pendingRoot()":"750588cf","revokePendingRoot()":"4b387053","rewardToken()":"f7c618c1","root()":"ebf0c717","setMerkleSnapshotContract(address)":"1acc1ab0","setOwner(address)":"13af4035","setRoot(bytes32,bytes32)":"42af83fb","setRootUpdater(address,bool)":"53739410","setTimelock(uint256)":"1e891c0a","submitRoot(bytes32,bytes32)":"d61825ef","timelock()":"d33219b4"},"id":107}