{"abi":[{"type":"constructor","inputs":[{"name":"schemaRegistry","type":"address","internalType":"contract ISchemaRegistry"}],"stateMutability":"nonpayable"},{"type":"function","name":"register","inputs":[{"name":"schema","type":"string","internalType":"string"},{"name":"resolver","type":"address","internalType":"contract ISchemaResolver"},{"name":"revocable","type":"bool","internalType":"bool"}],"outputs":[{"name":"","type":"bytes32","internalType":"bytes32"}],"stateMutability":"nonpayable"},{"type":"error","name":"InvalidResolver","inputs":[]},{"type":"error","name":"InvalidSchema","inputs":[]},{"type":"error","name":"InvalidSchemaRegistry","inputs":[]}],"bytecode":{"object":"0x60a034607a57601f6102a638819003918201601f19168301916001600160401b03831184841017607e57808492602094604052833981010312607a57516001600160a01b038116808203607a5715606b57608052604051610213908161009382396080518161011c0152f35b639db62cd960e01b5f5260045ffd5b5f80fd5b634e487b7160e01b5f52604160045260245ffdfe6080806040526004361015610012575f80fd5b5f3560e01c6360d7a27814610025575f80fd5b34610181576060366003190112610181576004359067ffffffffffffffff8211610181573660238301121561018157816004013567ffffffffffffffff81116101a75761007c601f8201601f1916602001836101bb565b8082526020820192366024838301011161018157815f926024602093018637830101526024356001600160a01b03811690819003610181576044359283151580940361018157825115610198576020926084916040519586948593630c1af44f60e31b8552606060048601525180938160648701528686015e5f85848601015260248401526044830152601f801991011681010301815f60018060a01b037f0000000000000000000000000000000000000000000000000000000000000000165af1801561018d575f90610156575b602090604051908152f35b506020813d602011610185575b81610170602093836101bb565b81010312610181576020905161014b565b5f80fd5b3d9150610163565b6040513d5f823e3d90fd5b635f9bd90760e11b5f5260045ffd5b634e487b7160e01b5f52604160045260245ffd5b90601f8019910116810190811067ffffffffffffffff8211176101a75760405256fea2646970667358221220f0c9921d045ef043ff90cbcaff9d29771c8ac41c3e1db0d023f8bc02d108ea2b64736f6c634300081b0033","linkReferences":{}},"methodIdentifiers":{"register(string,address,bool)":"60d7a278"},"id":186}