{"abi":[{"type":"constructor","inputs":[{"name":"_owner","type":"address","internalType":"address"},{"name":"_avatar","type":"address","internalType":"address"},{"name":"_target","type":"address","internalType":"address"},{"name":"serviceManager","type":"address","internalType":"contract IWavsServiceManager"}],"stateMutability":"nonpayable"},{"type":"function","name":"addSigner","inputs":[{"name":"signer","type":"address","internalType":"address"},{"name":"newThreshold","type":"uint256","internalType":"uint256"}],"outputs":[],"stateMutability":"nonpayable"},{"type":"function","name":"avatar","inputs":[],"outputs":[{"name":"","type":"address","internalType":"address"}],"stateMutability":"view"},{"type":"function","name":"changeThreshold","inputs":[{"name":"newThreshold","type":"uint256","internalType":"uint256"}],"outputs":[],"stateMutability":"nonpayable"},{"type":"function","name":"envelopesSeen","inputs":[{"name":"eventId","type":"bytes20","internalType":"bytes20"}],"outputs":[{"name":"seen","type":"bool","internalType":"bool"}],"stateMutability":"view"},{"type":"function","name":"executeTransaction","inputs":[{"name":"to","type":"address","internalType":"address"},{"name":"value","type":"uint256","internalType":"uint256"},{"name":"data","type":"bytes","internalType":"bytes"},{"name":"operation","type":"uint8","internalType":"enum Operation"}],"outputs":[{"name":"success","type":"bool","internalType":"bool"}],"stateMutability":"nonpayable"},{"type":"function","name":"getServiceManager","inputs":[],"outputs":[{"name":"","type":"address","internalType":"address"}],"stateMutability":"view"},{"type":"function","name":"getSigners","inputs":[],"outputs":[{"name":"","type":"address[]","internalType":"address[]"}],"stateMutability":"view"},{"type":"function","name":"getThreshold","inputs":[],"outputs":[{"name":"","type":"uint256","internalType":"uint256"}],"stateMutability":"view"},{"type":"function","name":"handleSignedEnvelope","inputs":[{"name":"envelope","type":"tuple","internalType":"struct IWavsServiceHandler.Envelope","components":[{"name":"eventId","type":"bytes20","internalType":"bytes20"},{"name":"ordering","type":"bytes12","internalType":"bytes12"},{"name":"payload","type":"bytes","internalType":"bytes"}]},{"name":"signatureData","type":"tuple","internalType":"struct IWavsServiceHandler.SignatureData","components":[{"name":"signers","type":"address[]","internalType":"address[]"},{"name":"signatures","type":"bytes[]","internalType":"bytes[]"},{"name":"referenceBlock","type":"uint32","internalType":"uint32"}]}],"outputs":[],"stateMutability":"nonpayable"},{"type":"function","name":"owner","inputs":[],"outputs":[{"name":"","type":"address","internalType":"address"}],"stateMutability":"view"},{"type":"function","name":"removeSigner","inputs":[{"name":"prevSigner","type":"address","internalType":"address"},{"name":"signer","type":"address","internalType":"address"},{"name":"newThreshold","type":"uint256","internalType":"uint256"}],"outputs":[],"stateMutability":"nonpayable"},{"type":"function","name":"renounceOwnership","inputs":[],"outputs":[],"stateMutability":"nonpayable"},{"type":"function","name":"setAvatar","inputs":[{"name":"_avatar","type":"address","internalType":"address"}],"outputs":[],"stateMutability":"nonpayable"},{"type":"function","name":"setTarget","inputs":[{"name":"_target","type":"address","internalType":"address"}],"outputs":[],"stateMutability":"nonpayable"},{"type":"function","name":"setUp","inputs":[{"name":"initializeParams","type":"bytes","internalType":"bytes"}],"outputs":[],"stateMutability":"nonpayable"},{"type":"function","name":"setUpModule","inputs":[{"name":"_avatar","type":"address","internalType":"address"},{"name":"_target","type":"address","internalType":"address"}],"outputs":[],"stateMutability":"nonpayable"},{"type":"function","name":"swapSigner","inputs":[{"name":"prevSigner","type":"address","internalType":"address"},{"name":"oldSigner","type":"address","internalType":"address"},{"name":"newSigner","type":"address","internalType":"address"}],"outputs":[],"stateMutability":"nonpayable"},{"type":"function","name":"target","inputs":[],"outputs":[{"name":"","type":"address","internalType":"address"}],"stateMutability":"view"},{"type":"function","name":"transferOwnership","inputs":[{"name":"newOwner","type":"address","internalType":"address"}],"outputs":[],"stateMutability":"nonpayable"},{"type":"event","name":"AvatarSet","inputs":[{"name":"previousAvatar","type":"address","indexed":true,"internalType":"address"},{"name":"newAvatar","type":"address","indexed":true,"internalType":"address"}],"anonymous":false},{"type":"event","name":"Initialized","inputs":[{"name":"version","type":"uint64","indexed":false,"internalType":"uint64"}],"anonymous":false},{"type":"event","name":"ModuleConfigured","inputs":[{"name":"avatar","type":"address","indexed":true,"internalType":"address"},{"name":"target","type":"address","indexed":true,"internalType":"address"}],"anonymous":false},{"type":"event","name":"OwnershipTransferred","inputs":[{"name":"previousOwner","type":"address","indexed":true,"internalType":"address"},{"name":"newOwner","type":"address","indexed":true,"internalType":"address"}],"anonymous":false},{"type":"event","name":"SignerAdded","inputs":[{"name":"signer","type":"address","indexed":true,"internalType":"address"},{"name":"newThreshold","type":"uint256","indexed":false,"internalType":"uint256"}],"anonymous":false},{"type":"event","name":"SignerRemoved","inputs":[{"name":"signer","type":"address","indexed":true,"internalType":"address"},{"name":"newThreshold","type":"uint256","indexed":false,"internalType":"uint256"}],"anonymous":false},{"type":"event","name":"SignerSwapped","inputs":[{"name":"oldSigner","type":"address","indexed":true,"internalType":"address"},{"name":"newSigner","type":"address","indexed":true,"internalType":"address"}],"anonymous":false},{"type":"event","name":"TargetSet","inputs":[{"name":"previousTarget","type":"address","indexed":true,"internalType":"address"},{"name":"newTarget","type":"address","indexed":true,"internalType":"address"}],"anonymous":false},{"type":"event","name":"ThresholdChanged","inputs":[{"name":"newThreshold","type":"uint256","indexed":false,"internalType":"uint256"}],"anonymous":false},{"type":"event","name":"WAVSOperationExecuted","inputs":[{"name":"operationType","type":"uint8","indexed":true,"internalType":"enum SignerManagerModule.OperationType"},{"name":"totalOperations","type":"uint256","indexed":false,"internalType":"uint256"}],"anonymous":false},{"type":"error","name":"EnvelopeAlreadySeen","inputs":[]},{"type":"error","name":"InvalidInitialization","inputs":[]},{"type":"error","name":"NotInitializing","inputs":[]},{"type":"error","name":"OwnableInvalidOwner","inputs":[{"name":"owner","type":"address","internalType":"address"}]},{"type":"error","name":"OwnableUnauthorizedAccount","inputs":[{"name":"account","type":"address","internalType":"address"}]}],"bytecode":{"object":"0x60803461020c57601f611afe38819003918201601f19168301916001600160401b038311848410176102105780849260809460405283398101031261020c5761004781610224565b9061005460208201610224565b606061006260408401610224565b9201516001600160a01b0381169081900361020c5780156101b257600280546001600160a01b03191691909117905560045460ff811661016d5760ff19166001176004557f9016d09d72d40fdae2fd8ceac6b6234c7706214fd39c1cd1e609a0528c19930080546001600160a01b031981166001600160a01b0395861690811790925560405194167f8be0079c531659141344cd1fd0a4f28419497f9722a3daafe3b4186f6b6457e05f80a35f80546001600160a01b03199081166001600160a01b039384169081178355600180549092169490931693841790557f31fb6b16072a4e68b913c2c8f28c5078db907bc7b88bc82eb59f14f6bca29fb29080a36118c590816102398239f35b60405162461bcd60e51b815260206004820152601a60248201527f4d6f64756c6520616c726561647920696e697469616c697a65640000000000006044820152606490fd5b60405162461bcd60e51b815260206004820152602c60248201527f5369676e65724d616e616765724d6f64756c653a20696e76616c69642073657260448201526b3b34b1b29036b0b730b3b2b960a11b6064820152608490fd5b5f80fd5b634e487b7160e01b5f52604160045260245ffd5b51906001600160a01b038216820361020c5756fe6080806040526004361015610012575f80fd5b5f905f3560e01c908163025d26be1461119c57508063086cfca8146111355780631f919f77146110a45780634164139f14610f935780634dda0b4314610f6b5780635878d5ca14610eb55780635aef7de614610e8e57806365af1bed14610df9578063694e80c314610d76578063715018a614610d0f578063776d1a0114610ca65780638da5cb5b14610c7257806394cf795e14610c0d578063a4f9edbf14610a8e578063d4b8399214610a66578063e75235b814610a44578063ee6390aa146109c5578063f2fde38b146109775763f969ff33146100ef575f80fd5b34610915576040366003190112610915576004356001600160401b03811161091557368190039060048101606060031984011261091557602435906001600160401b038211610915578160040160606003198436030112610915576002546001600160a01b031692833b1561091557604051916366b8ac4f60e11b83526040600484015283356001600160601b0319811680910361091557604484015260248601356001600160601b0360a01b811680910361091557606484015260448601946101cd6101bc87876115c3565b6060608488015260a48701916115f4565b8481036003190160248601529260608401926101e98180611614565b606087529485905260808601945f5b81811061095157505050610210906024830190611614565b8585036020870152808552602085019460208260051b82010195835f925b848410610919575050505050506044013563ffffffff811680910361091557848093819260405f97015203915afa801561090a576108f5575b506bffffffffffffffffffffffff1961027f82611648565b168552600360205260ff6040862054166108e6576102a56001600160601b031991611648565b168452600360205260408420805460ff191660011790553591602219018212156108e2570160048101356001600160401b0381116108e257602482019080360382136108de578201600481019260248201929091602090839003126108c257356001600160401b0381116108c257600491010191602080601f198584030101126108de5760405192602084018481106001600160401b038211176108ca5760405260208101356001600160401b0381116108c65760209101019180601f840112156108c257823591610376836113fe565b93610384604051958661121a565b838552602060a081870195028201019283116108be57602001925b82841061082257505050508082525190825b82811061043f57505180511561043757805115610423576020015151600481101561040f57905b600482101561040f5760207f3e07acd0c20cfa9fda52506e500759904062f277a1573379a2e0bb890b2d222791604051908152a280f35b634e487b7160e01b83526021600452602483fd5b634e487b7160e01b83526032600452602483fd5b5081906103d8565b8151805182101561080e576020908260051b01015190815160048110156107fa57610533576040820180516001937f50999ebf9b59bf3157a58816611976f2d723378ad51457d7b0413209e0cdee59916020916080916104a9906001600160a01b0316151561182a565b01926104b78451151561179e565b80518451604051630d582f1360e01b8582015260a089901b8990039092166001600160a01b03166024830152604482015261051a906105159061050781606481015b03601f19810183528261121a565b888060a01b03895416611695565b611340565b858060a01b039051169251604051908152a25b016103b1565b815160048110156107fa5760010361061957817f99c1d2c0ed8107e4db2e5dbfb10a2549cd2a63cbe39cf99d2adffbcd039544186020806001950192610582868060a01b0385511615156117de565b6106026105fd608060408401936105a28a8060a01b03865116151561182a565b01956105b08751151561179e565b518351875160405163f8dc5dd960e01b888201526001600160a01b0360a08d901b8d90039485168116602483015292909316919091166044830152606482015261050781608481016104f9565b6112b0565b858060a01b039051169251604051908152a261052d565b815160048110156107fa5760020361075b57602082018051909290610648906001600160a01b031615156117de565b6040810180519091606091610667906001600160a01b0316151561182a565b0180519091906001600160a01b0316156107165792518351825160405163e318b52b60e01b60208201526001600160a01b03938416602482015291831660448301529091166064820152600193906106dd906106d8906106ca81608481016104f9565b868060a01b03875416611695565b6112fc565b51905160a084901b84900390811691167ffcdebddc1de61931741c4c60d7f4878f27a71d5a56566be4e46e9a80592d36138780a361052d565b60405162461bcd60e51b815260206004820152601960248201527f496e76616c6964206e65775369676e65722061646472657373000000000000006044820152606490fd5b90805160048110156107fa57906003600193921461077a575b5061052d565b602060807f6c4ce60fd690e1216286a10b875c5662555f10774484e58142cedd7a90781baa92016107ad8151151561179e565b6107ec6107e782516040519063694e80c360e01b868301526024820152602481526107d960448261121a565b878060a01b03885416611695565b611383565b51604051908152a15f610774565b634e487b7160e01b86526021600452602486fd5b634e487b7160e01b85526032600452602485fd5b60a0602085840301126108be576040519060a082018281106001600160401b038211176108aa5760405284359060048210156108a6578260209260a0945261086b838801611206565b8382015261087b60408801611206565b604082015261088c60608801611206565b60608201526080870135608082015281520193019261039f565b8880fd5b634e487b7160e01b89526041600452602489fd5b8680fd5b8480fd5b8580fd5b634e487b7160e01b86526041600452602486fd5b8380fd5b8280fd5b633a181deb60e11b8552600485fd5b6109029195505f9061121a565b5f935f610267565b6040513d5f823e3d90fd5b5f80fd5b909192939497602080610941600193601f1986820301885261093b8d886115c3565b906115f4565b9a0194019401929493919061022e565b909195602080600192838060a01b036109698b611206565b1681520197019291016101f8565b34610915576020366003190112610915576109906111da565b610998611662565b6001600160a01b038116156109b2576109b09061174a565b005b631e4fbdf760e01b5f525f60045260245ffd5b34610915576040366003190112610915576109de6111da565b6109e66111f0565b906109ef611662565b5f80546001600160a01b03199081166001600160a01b039384169081178355600180549092169490931693841790557f31fb6b16072a4e68b913c2c8f28c5078db907bc7b88bc82eb59f14f6bca29fb29080a3005b34610915575f366003190112610915576020610a5e611569565b604051908152f35b34610915575f366003190112610915576001546040516001600160a01b039091168152602090f35b34610915576020366003190112610915576004356001600160401b03811161091557610abe90369060040161126a565b6004549060ff821615610ad081611509565b60808280518101031261091557610ae960208301611555565b610af560408401611555565b916080610b0460608601611555565b9401516001600160a01b0381169390849003610915576001600160a01b03948516959416938315610bb357610b51600192610b67956001600160601b0360a01b6002541617600255611509565b60ff1916176004556001600160a01b031661174a565b806001600160601b0360a01b5f5416175f55816001600160601b0360a01b60015416176001557f31fb6b16072a4e68b913c2c8f28c5078db907bc7b88bc82eb59f14f6bca29fb25f80a3005b60405162461bcd60e51b815260206004820152602c60248201527f5369676e65724d616e616765724d6f64756c653a20696e76616c69642073657260448201526b3b34b1b29036b0b730b3b2b960a11b6064820152608490fd5b34610915575f36600319011261091557610c25611415565b6040518091602082016020835281518091526020604084019201905f5b818110610c50575050500390f35b82516001600160a01b0316845285945060209384019390920191600101610c42565b34610915575f366003190112610915575f5160206118705f395f51905f52546040516001600160a01b039091168152602090f35b3461091557602036600319011261091557610cbf6111da565b610cc7611662565b600180546001600160a01b039283166001600160a01b0319821681179092559091167f90cc2f570a6eb594b1580ea3e41247d2d73a55281889e86bd4ec2fc29c7e62d65f80a3005b34610915575f36600319011261091557610d27611662565b5f5160206118705f395f51905f5280546001600160a01b031981169091555f906001600160a01b03167f8be0079c531659141344cd1fd0a4f28419497f9722a3daafe3b4186f6b6457e08280a3005b34610915576020366003190112610915577f6c4ce60fd690e1216286a10b875c5662555f10774484e58142cedd7a90781baa6020600435610db5611662565b610df06107e760405163694e80c360e01b8582015283602482015260248152610ddf60448261121a565b6001546001600160a01b0316611695565b604051908152a1005b3461091557604036600319011261091557610e126111da565b7f50999ebf9b59bf3157a58816611976f2d723378ad51457d7b0413209e0cdee59602060243592610e41611662565b604051630d582f1360e01b838201526001600160a01b038216602482015260448101859052610e7b9061051590610ddf81606481016104f9565b6040519384526001600160a01b031692a2005b34610915575f366003190112610915575f546040516001600160a01b039091168152602090f35b3461091557606036600319011261091557610ece6111da565b610ed66111f0565b6044356001600160a01b03811692908381036109155782610ddf610f3c936104f96106d894610f03611662565b60405163e318b52b60e01b60208201526001600160a01b0393841660248201529483166044860152909116606484015282906084820190565b6001600160a01b03167ffcdebddc1de61931741c4c60d7f4878f27a71d5a56566be4e46e9a80592d36135f80a3005b34610915575f366003190112610915576002546040516001600160a01b039091168152602090f35b3461091557608036600319011261091557610fac6111da565b6044356001600160401b03811161091557610fcb90369060040161126a565b6064356002811015610915576020928392610fe4611662565b5f60a460018060a01b0360015416936040519788968795869363468721a760e01b855260018060a01b031660048501526024356024850152608060448501528051928391826084870152018585015e82820184018590526064830152601f01601f191681010301925af1801561090a575f90611068575b6040519015158152602090f35b506020813d60201161109c575b816110826020938361121a565b81010312610915575180151581036109155760209061105b565b3d9150611075565b34610915576060366003190112610915576110bd6111da565b7f99c1d2c0ed8107e4db2e5dbfb10a2549cd2a63cbe39cf99d2adffbcd0395441860206110e86111f0565b610e7b6105fd82610ddf604435976110fe611662565b60405163f8dc5dd960e01b888201526001600160a01b039182166024820152921660448301526064820188905281608481016104f9565b346109155760203660031901126109155761114e6111da565b611156611662565b5f80546001600160a01b039283166001600160a01b03198216811783559216907f52ae88b092de36f87fb43fe794eb1381023b9c1bce563a871154022c63dce3429080a3005b3461091557602036600319011261091557600435906001600160601b03198216809203610915576020915f526003825260ff60405f20541615158152f35b600435906001600160a01b038216820361091557565b602435906001600160a01b038216820361091557565b35906001600160a01b038216820361091557565b90601f801991011681019081106001600160401b0382111761123b57604052565b634e487b7160e01b5f52604160045260245ffd5b6001600160401b03811161123b57601f01601f191660200190565b81601f82011215610915578035906112818261124f565b9261128f604051948561121a565b8284526020838301011161091557815f926020809301838601378301015290565b156112b757565b60405162461bcd60e51b815260206004820152601760248201527f4661696c656420746f2072656d6f7665207369676e65720000000000000000006044820152606490fd5b1561130357565b60405162461bcd60e51b81526020600482015260156024820152742330b4b632b2103a379039bbb0b81039b4b3b732b960591b6044820152606490fd5b1561134757565b60405162461bcd60e51b81526020600482015260146024820152732330b4b632b2103a379030b2321039b4b3b732b960611b6044820152606490fd5b1561138a57565b60405162461bcd60e51b815260206004820152601a60248201527f4661696c656420746f206368616e6765207468726573686f6c640000000000006044820152606490fd5b3d156113f9573d906113e08261124f565b916113ee604051938461121a565b82523d5f602084013e565b606090565b6001600160401b03811161123b5760051b60200190565b5f806040516020810163a0e67e2b60e01b81526004825261143760248361121a565b6001549151916001600160a01b03165afa6114506113cf565b90156114f0578051810190602081818401930312610915576020810151906001600160401b03821161091557019080603f8301121561091557602082015190611498826113fe565b926114a6604051948561121a565b8284526020808086019460051b8301010191821161091557604001915b8183106114d05750505090565b82516001600160a01b0381168103610915578152602092830192016114c3565b506040516114ff60208261121a565b5f81525f36813790565b1561151057565b60405162461bcd60e51b815260206004820152601a60248201527f4d6f64756c6520616c726561647920696e697469616c697a65640000000000006044820152606490fd5b51906001600160a01b038216820361091557565b5f8060405160208101631cea46b760e31b81526004825261158b60248361121a565b6001549151916001600160a01b03165afa6115a46113cf565b90156115be57602081805181010312610915576020015190565b505f90565b9035601e19823603018112156109155701602081359101916001600160401b03821161091557813603831361091557565b908060209392818452848401375f828201840152601f01601f1916010190565b9035601e19823603018112156109155701602081359101916001600160401b038211610915578160051b3603831361091557565b356bffffffffffffffffffffffff19811681036109155790565b5f5160206118705f395f51905f52546001600160a01b0316330361168257565b63118cdaa760e01b5f523360045260245ffd5b60015460405163468721a760e01b81526001600160a01b0392831660048201525f602482018190526080604483015284516084830181905291946020948694169284929160a4918491819089018385015e83838284010152836064830152601f801991011681010301925af190811561090a575f91611712575090565b90506020813d602011611742575b8161172d6020938361121a565b81010312610915575180151581036109155790565b3d9150611720565b5f5160206118705f395f51905f5280546001600160a01b039283166001600160a01b0319821681179092559091167f8be0079c531659141344cd1fd0a4f28419497f9722a3daafe3b4186f6b6457e05f80a3565b156117a557565b60405162461bcd60e51b8152602060048201526011602482015270125b9d985b1a59081d1a1c995cda1bdb19607a1b6044820152606490fd5b156117e557565b60405162461bcd60e51b815260206004820152601a60248201527f496e76616c696420707265765369676e657220616464726573730000000000006044820152606490fd5b1561183157565b60405162461bcd60e51b8152602060048201526016602482015275496e76616c6964207369676e6572206164647265737360501b6044820152606490fdfe9016d09d72d40fdae2fd8ceac6b6234c7706214fd39c1cd1e609a0528c199300a2646970667358221220b973107f5189c265746c2ec4c3a45e32fc93ec32cfe2ea50506abc890f16411264736f6c634300081b0033","linkReferences":{}},"methodIdentifiers":{"addSigner(address,uint256)":"65af1bed","avatar()":"5aef7de6","changeThreshold(uint256)":"694e80c3","envelopesSeen(bytes20)":"025d26be","executeTransaction(address,uint256,bytes,uint8)":"4164139f","getServiceManager()":"4dda0b43","getSigners()":"94cf795e","getThreshold()":"e75235b8","handleSignedEnvelope((bytes20,bytes12,bytes),(address[],bytes[],uint32))":"f969ff33","owner()":"8da5cb5b","removeSigner(address,address,uint256)":"1f919f77","renounceOwnership()":"715018a6","setAvatar(address)":"086cfca8","setTarget(address)":"776d1a01","setUp(bytes)":"a4f9edbf","setUpModule(address,address)":"ee6390aa","swapSigner(address,address,address)":"5878d5ca","target()":"d4b83992","transferOwnership(address)":"f2fde38b"},"id":214}