{"abi":[{"type":"constructor","inputs":[{"name":"serviceManager","type":"address","internalType":"contract IWavsServiceManager"}],"stateMutability":"nonpayable"},{"type":"function","name":"decodeIndexingPayload","inputs":[{"name":"payload","type":"bytes","internalType":"bytes"}],"outputs":[{"name":"","type":"tuple","internalType":"struct IWavsIndexer.IndexingPayload","components":[{"name":"toAdd","type":"tuple[]","internalType":"struct IWavsIndexer.IndexedEvent[]","components":[{"name":"eventId","type":"bytes32","internalType":"bytes32"},{"name":"chainId","type":"string","internalType":"string"},{"name":"relevantContract","type":"address","internalType":"address"},{"name":"blockNumber","type":"uint256","internalType":"uint256"},{"name":"timestamp","type":"uint128","internalType":"uint128"},{"name":"eventType","type":"string","internalType":"string"},{"name":"data","type":"bytes","internalType":"bytes"},{"name":"tags","type":"string[]","internalType":"string[]"},{"name":"relevantAddresses","type":"address[]","internalType":"address[]"},{"name":"metadata","type":"bytes","internalType":"bytes"},{"name":"deleted","type":"bool","internalType":"bool"}]},{"name":"toDelete","type":"bytes32[]","internalType":"bytes32[]"}]}],"stateMutability":"pure"},{"type":"function","name":"eventExists","inputs":[{"name":"","type":"bytes32","internalType":"bytes32"}],"outputs":[{"name":"","type":"bool","internalType":"bool"}],"stateMutability":"view"},{"type":"function","name":"eventExistsAndDeleted","inputs":[{"name":"eventId","type":"bytes32","internalType":"bytes32"}],"outputs":[{"name":"","type":"bool","internalType":"bool"}],"stateMutability":"view"},{"type":"function","name":"events","inputs":[{"name":"","type":"bytes32","internalType":"bytes32"}],"outputs":[{"name":"eventId","type":"bytes32","internalType":"bytes32"},{"name":"chainId","type":"string","internalType":"string"},{"name":"relevantContract","type":"address","internalType":"address"},{"name":"blockNumber","type":"uint256","internalType":"uint256"},{"name":"timestamp","type":"uint128","internalType":"uint128"},{"name":"eventType","type":"string","internalType":"string"},{"name":"data","type":"bytes","internalType":"bytes"},{"name":"metadata","type":"bytes","internalType":"bytes"},{"name":"deleted","type":"bool","internalType":"bool"}],"stateMutability":"view"},{"type":"function","name":"eventsByAddress","inputs":[{"name":"","type":"address","internalType":"address"},{"name":"","type":"uint256","internalType":"uint256"}],"outputs":[{"name":"","type":"bytes32","internalType":"bytes32"}],"stateMutability":"view"},{"type":"function","name":"eventsByAddressAndTag","inputs":[{"name":"","type":"address","internalType":"address"},{"name":"","type":"string","internalType":"string"},{"name":"","type":"uint256","internalType":"uint256"}],"outputs":[{"name":"","type":"bytes32","internalType":"bytes32"}],"stateMutability":"view"},{"type":"function","name":"eventsByAddressAndType","inputs":[{"name":"","type":"address","internalType":"address"},{"name":"","type":"string","internalType":"string"},{"name":"","type":"uint256","internalType":"uint256"}],"outputs":[{"name":"","type":"bytes32","internalType":"bytes32"}],"stateMutability":"view"},{"type":"function","name":"eventsByAddressAndTypeAndTag","inputs":[{"name":"","type":"address","internalType":"address"},{"name":"","type":"string","internalType":"string"},{"name":"","type":"string","internalType":"string"},{"name":"","type":"uint256","internalType":"uint256"}],"outputs":[{"name":"","type":"bytes32","internalType":"bytes32"}],"stateMutability":"view"},{"type":"function","name":"eventsByChainId","inputs":[{"name":"","type":"string","internalType":"string"},{"name":"","type":"uint256","internalType":"uint256"}],"outputs":[{"name":"","type":"bytes32","internalType":"bytes32"}],"stateMutability":"view"},{"type":"function","name":"eventsByChainIdAndContract","inputs":[{"name":"","type":"string","internalType":"string"},{"name":"","type":"address","internalType":"address"},{"name":"","type":"uint256","internalType":"uint256"}],"outputs":[{"name":"","type":"bytes32","internalType":"bytes32"}],"stateMutability":"view"},{"type":"function","name":"eventsByChainIdAndContractAndAddress","inputs":[{"name":"","type":"string","internalType":"string"},{"name":"","type":"address","internalType":"address"},{"name":"","type":"address","internalType":"address"},{"name":"","type":"uint256","internalType":"uint256"}],"outputs":[{"name":"","type":"bytes32","internalType":"bytes32"}],"stateMutability":"view"},{"type":"function","name":"eventsByChainIdAndContractAndTag","inputs":[{"name":"","type":"string","internalType":"string"},{"name":"","type":"address","internalType":"address"},{"name":"","type":"string","internalType":"string"},{"name":"","type":"uint256","internalType":"uint256"}],"outputs":[{"name":"","type":"bytes32","internalType":"bytes32"}],"stateMutability":"view"},{"type":"function","name":"eventsByChainIdAndContractAndType","inputs":[{"name":"","type":"string","internalType":"string"},{"name":"","type":"address","internalType":"address"},{"name":"","type":"string","internalType":"string"},{"name":"","type":"uint256","internalType":"uint256"}],"outputs":[{"name":"","type":"bytes32","internalType":"bytes32"}],"stateMutability":"view"},{"type":"function","name":"eventsByChainIdAndContractAndTypeAndTag","inputs":[{"name":"","type":"string","internalType":"string"},{"name":"","type":"address","internalType":"address"},{"name":"","type":"string","internalType":"string"},{"name":"","type":"string","internalType":"string"},{"name":"","type":"uint256","internalType":"uint256"}],"outputs":[{"name":"","type":"bytes32","internalType":"bytes32"}],"stateMutability":"view"},{"type":"function","name":"eventsByTag","inputs":[{"name":"","type":"string","internalType":"string"},{"name":"","type":"uint256","internalType":"uint256"}],"outputs":[{"name":"","type":"bytes32","internalType":"bytes32"}],"stateMutability":"view"},{"type":"function","name":"eventsByType","inputs":[{"name":"","type":"string","internalType":"string"},{"name":"","type":"uint256","internalType":"uint256"}],"outputs":[{"name":"","type":"bytes32","internalType":"bytes32"}],"stateMutability":"view"},{"type":"function","name":"eventsByTypeAndTag","inputs":[{"name":"","type":"string","internalType":"string"},{"name":"","type":"string","internalType":"string"},{"name":"","type":"uint256","internalType":"uint256"}],"outputs":[{"name":"","type":"bytes32","internalType":"bytes32"}],"stateMutability":"view"},{"type":"function","name":"getEvent","inputs":[{"name":"eventId","type":"bytes32","internalType":"bytes32"}],"outputs":[{"name":"","type":"tuple","internalType":"struct IWavsIndexer.IndexedEvent","components":[{"name":"eventId","type":"bytes32","internalType":"bytes32"},{"name":"chainId","type":"string","internalType":"string"},{"name":"relevantContract","type":"address","internalType":"address"},{"name":"blockNumber","type":"uint256","internalType":"uint256"},{"name":"timestamp","type":"uint128","internalType":"uint128"},{"name":"eventType","type":"string","internalType":"string"},{"name":"data","type":"bytes","internalType":"bytes"},{"name":"tags","type":"string[]","internalType":"string[]"},{"name":"relevantAddresses","type":"address[]","internalType":"address[]"},{"name":"metadata","type":"bytes","internalType":"bytes"},{"name":"deleted","type":"bool","internalType":"bool"}]}],"stateMutability":"view"},{"type":"function","name":"getEventCountByAddress","inputs":[{"name":"addr","type":"address","internalType":"address"}],"outputs":[{"name":"","type":"uint256","internalType":"uint256"}],"stateMutability":"view"},{"type":"function","name":"getEventCountByAddressAndTag","inputs":[{"name":"addr","type":"address","internalType":"address"},{"name":"tag","type":"string","internalType":"string"}],"outputs":[{"name":"","type":"uint256","internalType":"uint256"}],"stateMutability":"view"},{"type":"function","name":"getEventCountByAddressAndType","inputs":[{"name":"addr","type":"address","internalType":"address"},{"name":"eventType","type":"string","internalType":"string"}],"outputs":[{"name":"","type":"uint256","internalType":"uint256"}],"stateMutability":"view"},{"type":"function","name":"getEventCountByAddressAndTypeAndTag","inputs":[{"name":"addr","type":"address","internalType":"address"},{"name":"eventType","type":"string","internalType":"string"},{"name":"tag","type":"string","internalType":"string"}],"outputs":[{"name":"","type":"uint256","internalType":"uint256"}],"stateMutability":"view"},{"type":"function","name":"getEventCountByChainId","inputs":[{"name":"chainId","type":"string","internalType":"string"}],"outputs":[{"name":"","type":"uint256","internalType":"uint256"}],"stateMutability":"view"},{"type":"function","name":"getEventCountByContract","inputs":[{"name":"chainId","type":"string","internalType":"string"},{"name":"contract_","type":"address","internalType":"address"}],"outputs":[{"name":"","type":"uint256","internalType":"uint256"}],"stateMutability":"view"},{"type":"function","name":"getEventCountByContractAndAddress","inputs":[{"name":"chainId","type":"string","internalType":"string"},{"name":"contract_","type":"address","internalType":"address"},{"name":"addr","type":"address","internalType":"address"}],"outputs":[{"name":"","type":"uint256","internalType":"uint256"}],"stateMutability":"view"},{"type":"function","name":"getEventCountByContractAndTag","inputs":[{"name":"chainId","type":"string","internalType":"string"},{"name":"contract_","type":"address","internalType":"address"},{"name":"tag","type":"string","internalType":"string"}],"outputs":[{"name":"","type":"uint256","internalType":"uint256"}],"stateMutability":"view"},{"type":"function","name":"getEventCountByContractAndType","inputs":[{"name":"chainId","type":"string","internalType":"string"},{"name":"contract_","type":"address","internalType":"address"},{"name":"eventType","type":"string","internalType":"string"}],"outputs":[{"name":"","type":"uint256","internalType":"uint256"}],"stateMutability":"view"},{"type":"function","name":"getEventCountByContractAndTypeAndTag","inputs":[{"name":"chainId","type":"string","internalType":"string"},{"name":"contract_","type":"address","internalType":"address"},{"name":"eventType","type":"string","internalType":"string"},{"name":"tag","type":"string","internalType":"string"}],"outputs":[{"name":"","type":"uint256","internalType":"uint256"}],"stateMutability":"view"},{"type":"function","name":"getEventCountByTag","inputs":[{"name":"tag","type":"string","internalType":"string"}],"outputs":[{"name":"","type":"uint256","internalType":"uint256"}],"stateMutability":"view"},{"type":"function","name":"getEventCountByType","inputs":[{"name":"eventType","type":"string","internalType":"string"}],"outputs":[{"name":"","type":"uint256","internalType":"uint256"}],"stateMutability":"view"},{"type":"function","name":"getEventCountByTypeAndTag","inputs":[{"name":"eventType","type":"string","internalType":"string"},{"name":"tag","type":"string","internalType":"string"}],"outputs":[{"name":"","type":"uint256","internalType":"uint256"}],"stateMutability":"view"},{"type":"function","name":"getEventsByAddress","inputs":[{"name":"addr","type":"address","internalType":"address"},{"name":"start","type":"uint256","internalType":"uint256"},{"name":"length","type":"uint256","internalType":"uint256"},{"name":"reverseOrder","type":"bool","internalType":"bool"}],"outputs":[{"name":"","type":"tuple[]","internalType":"struct IWavsIndexer.IndexedEvent[]","components":[{"name":"eventId","type":"bytes32","internalType":"bytes32"},{"name":"chainId","type":"string","internalType":"string"},{"name":"relevantContract","type":"address","internalType":"address"},{"name":"blockNumber","type":"uint256","internalType":"uint256"},{"name":"timestamp","type":"uint128","internalType":"uint128"},{"name":"eventType","type":"string","internalType":"string"},{"name":"data","type":"bytes","internalType":"bytes"},{"name":"tags","type":"string[]","internalType":"string[]"},{"name":"relevantAddresses","type":"address[]","internalType":"address[]"},{"name":"metadata","type":"bytes","internalType":"bytes"},{"name":"deleted","type":"bool","internalType":"bool"}]}],"stateMutability":"view"},{"type":"function","name":"getEventsByAddressAndTag","inputs":[{"name":"addr","type":"address","internalType":"address"},{"name":"tag","type":"string","internalType":"string"},{"name":"start","type":"uint256","internalType":"uint256"},{"name":"length","type":"uint256","internalType":"uint256"},{"name":"reverseOrder","type":"bool","internalType":"bool"}],"outputs":[{"name":"","type":"tuple[]","internalType":"struct IWavsIndexer.IndexedEvent[]","components":[{"name":"eventId","type":"bytes32","internalType":"bytes32"},{"name":"chainId","type":"string","internalType":"string"},{"name":"relevantContract","type":"address","internalType":"address"},{"name":"blockNumber","type":"uint256","internalType":"uint256"},{"name":"timestamp","type":"uint128","internalType":"uint128"},{"name":"eventType","type":"string","internalType":"string"},{"name":"data","type":"bytes","internalType":"bytes"},{"name":"tags","type":"string[]","internalType":"string[]"},{"name":"relevantAddresses","type":"address[]","internalType":"address[]"},{"name":"metadata","type":"bytes","internalType":"bytes"},{"name":"deleted","type":"bool","internalType":"bool"}]}],"stateMutability":"view"},{"type":"function","name":"getEventsByAddressAndType","inputs":[{"name":"addr","type":"address","internalType":"address"},{"name":"eventType","type":"string","internalType":"string"},{"name":"start","type":"uint256","internalType":"uint256"},{"name":"length","type":"uint256","internalType":"uint256"},{"name":"reverseOrder","type":"bool","internalType":"bool"}],"outputs":[{"name":"","type":"tuple[]","internalType":"struct IWavsIndexer.IndexedEvent[]","components":[{"name":"eventId","type":"bytes32","internalType":"bytes32"},{"name":"chainId","type":"string","internalType":"string"},{"name":"relevantContract","type":"address","internalType":"address"},{"name":"blockNumber","type":"uint256","internalType":"uint256"},{"name":"timestamp","type":"uint128","internalType":"uint128"},{"name":"eventType","type":"string","internalType":"string"},{"name":"data","type":"bytes","internalType":"bytes"},{"name":"tags","type":"string[]","internalType":"string[]"},{"name":"relevantAddresses","type":"address[]","internalType":"address[]"},{"name":"metadata","type":"bytes","internalType":"bytes"},{"name":"deleted","type":"bool","internalType":"bool"}]}],"stateMutability":"view"},{"type":"function","name":"getEventsByAddressAndTypeAndTag","inputs":[{"name":"addr","type":"address","internalType":"address"},{"name":"eventType","type":"string","internalType":"string"},{"name":"tag","type":"string","internalType":"string"},{"name":"start","type":"uint256","internalType":"uint256"},{"name":"length","type":"uint256","internalType":"uint256"},{"name":"reverseOrder","type":"bool","internalType":"bool"}],"outputs":[{"name":"","type":"tuple[]","internalType":"struct IWavsIndexer.IndexedEvent[]","components":[{"name":"eventId","type":"bytes32","internalType":"bytes32"},{"name":"chainId","type":"string","internalType":"string"},{"name":"relevantContract","type":"address","internalType":"address"},{"name":"blockNumber","type":"uint256","internalType":"uint256"},{"name":"timestamp","type":"uint128","internalType":"uint128"},{"name":"eventType","type":"string","internalType":"string"},{"name":"data","type":"bytes","internalType":"bytes"},{"name":"tags","type":"string[]","internalType":"string[]"},{"name":"relevantAddresses","type":"address[]","internalType":"address[]"},{"name":"metadata","type":"bytes","internalType":"bytes"},{"name":"deleted","type":"bool","internalType":"bool"}]}],"stateMutability":"view"},{"type":"function","name":"getEventsByChainId","inputs":[{"name":"chainId","type":"string","internalType":"string"},{"name":"start","type":"uint256","internalType":"uint256"},{"name":"length","type":"uint256","internalType":"uint256"},{"name":"reverseOrder","type":"bool","internalType":"bool"}],"outputs":[{"name":"","type":"tuple[]","internalType":"struct IWavsIndexer.IndexedEvent[]","components":[{"name":"eventId","type":"bytes32","internalType":"bytes32"},{"name":"chainId","type":"string","internalType":"string"},{"name":"relevantContract","type":"address","internalType":"address"},{"name":"blockNumber","type":"uint256","internalType":"uint256"},{"name":"timestamp","type":"uint128","internalType":"uint128"},{"name":"eventType","type":"string","internalType":"string"},{"name":"data","type":"bytes","internalType":"bytes"},{"name":"tags","type":"string[]","internalType":"string[]"},{"name":"relevantAddresses","type":"address[]","internalType":"address[]"},{"name":"metadata","type":"bytes","internalType":"bytes"},{"name":"deleted","type":"bool","internalType":"bool"}]}],"stateMutability":"view"},{"type":"function","name":"getEventsByContract","inputs":[{"name":"chainId","type":"string","internalType":"string"},{"name":"contract_","type":"address","internalType":"address"},{"name":"start","type":"uint256","internalType":"uint256"},{"name":"length","type":"uint256","internalType":"uint256"},{"name":"reverseOrder","type":"bool","internalType":"bool"}],"outputs":[{"name":"","type":"tuple[]","internalType":"struct IWavsIndexer.IndexedEvent[]","components":[{"name":"eventId","type":"bytes32","internalType":"bytes32"},{"name":"chainId","type":"string","internalType":"string"},{"name":"relevantContract","type":"address","internalType":"address"},{"name":"blockNumber","type":"uint256","internalType":"uint256"},{"name":"timestamp","type":"uint128","internalType":"uint128"},{"name":"eventType","type":"string","internalType":"string"},{"name":"data","type":"bytes","internalType":"bytes"},{"name":"tags","type":"string[]","internalType":"string[]"},{"name":"relevantAddresses","type":"address[]","internalType":"address[]"},{"name":"metadata","type":"bytes","internalType":"bytes"},{"name":"deleted","type":"bool","internalType":"bool"}]}],"stateMutability":"view"},{"type":"function","name":"getEventsByContractAndAddress","inputs":[{"name":"chainId","type":"string","internalType":"string"},{"name":"contract_","type":"address","internalType":"address"},{"name":"addr","type":"address","internalType":"address"},{"name":"start","type":"uint256","internalType":"uint256"},{"name":"length","type":"uint256","internalType":"uint256"},{"name":"reverseOrder","type":"bool","internalType":"bool"}],"outputs":[{"name":"","type":"tuple[]","internalType":"struct IWavsIndexer.IndexedEvent[]","components":[{"name":"eventId","type":"bytes32","internalType":"bytes32"},{"name":"chainId","type":"string","internalType":"string"},{"name":"relevantContract","type":"address","internalType":"address"},{"name":"blockNumber","type":"uint256","internalType":"uint256"},{"name":"timestamp","type":"uint128","internalType":"uint128"},{"name":"eventType","type":"string","internalType":"string"},{"name":"data","type":"bytes","internalType":"bytes"},{"name":"tags","type":"string[]","internalType":"string[]"},{"name":"relevantAddresses","type":"address[]","internalType":"address[]"},{"name":"metadata","type":"bytes","internalType":"bytes"},{"name":"deleted","type":"bool","internalType":"bool"}]}],"stateMutability":"view"},{"type":"function","name":"getEventsByContractAndTag","inputs":[{"name":"chainId","type":"string","internalType":"string"},{"name":"contract_","type":"address","internalType":"address"},{"name":"tag","type":"string","internalType":"string"},{"name":"start","type":"uint256","internalType":"uint256"},{"name":"length","type":"uint256","internalType":"uint256"},{"name":"reverseOrder","type":"bool","internalType":"bool"}],"outputs":[{"name":"","type":"tuple[]","internalType":"struct IWavsIndexer.IndexedEvent[]","components":[{"name":"eventId","type":"bytes32","internalType":"bytes32"},{"name":"chainId","type":"string","internalType":"string"},{"name":"relevantContract","type":"address","internalType":"address"},{"name":"blockNumber","type":"uint256","internalType":"uint256"},{"name":"timestamp","type":"uint128","internalType":"uint128"},{"name":"eventType","type":"string","internalType":"string"},{"name":"data","type":"bytes","internalType":"bytes"},{"name":"tags","type":"string[]","internalType":"string[]"},{"name":"relevantAddresses","type":"address[]","internalType":"address[]"},{"name":"metadata","type":"bytes","internalType":"bytes"},{"name":"deleted","type":"bool","internalType":"bool"}]}],"stateMutability":"view"},{"type":"function","name":"getEventsByContractAndType","inputs":[{"name":"chainId","type":"string","internalType":"string"},{"name":"contract_","type":"address","internalType":"address"},{"name":"eventType","type":"string","internalType":"string"},{"name":"start","type":"uint256","internalType":"uint256"},{"name":"length","type":"uint256","internalType":"uint256"},{"name":"reverseOrder","type":"bool","internalType":"bool"}],"outputs":[{"name":"","type":"tuple[]","internalType":"struct IWavsIndexer.IndexedEvent[]","components":[{"name":"eventId","type":"bytes32","internalType":"bytes32"},{"name":"chainId","type":"string","internalType":"string"},{"name":"relevantContract","type":"address","internalType":"address"},{"name":"blockNumber","type":"uint256","internalType":"uint256"},{"name":"timestamp","type":"uint128","internalType":"uint128"},{"name":"eventType","type":"string","internalType":"string"},{"name":"data","type":"bytes","internalType":"bytes"},{"name":"tags","type":"string[]","internalType":"string[]"},{"name":"relevantAddresses","type":"address[]","internalType":"address[]"},{"name":"metadata","type":"bytes","internalType":"bytes"},{"name":"deleted","type":"bool","internalType":"bool"}]}],"stateMutability":"view"},{"type":"function","name":"getEventsByContractAndTypeAndTag","inputs":[{"name":"chainId","type":"string","internalType":"string"},{"name":"contract_","type":"address","internalType":"address"},{"name":"eventType","type":"string","internalType":"string"},{"name":"tag","type":"string","internalType":"string"},{"name":"start","type":"uint256","internalType":"uint256"},{"name":"length","type":"uint256","internalType":"uint256"},{"name":"reverseOrder","type":"bool","internalType":"bool"}],"outputs":[{"name":"","type":"tuple[]","internalType":"struct IWavsIndexer.IndexedEvent[]","components":[{"name":"eventId","type":"bytes32","internalType":"bytes32"},{"name":"chainId","type":"string","internalType":"string"},{"name":"relevantContract","type":"address","internalType":"address"},{"name":"blockNumber","type":"uint256","internalType":"uint256"},{"name":"timestamp","type":"uint128","internalType":"uint128"},{"name":"eventType","type":"string","internalType":"string"},{"name":"data","type":"bytes","internalType":"bytes"},{"name":"tags","type":"string[]","internalType":"string[]"},{"name":"relevantAddresses","type":"address[]","internalType":"address[]"},{"name":"metadata","type":"bytes","internalType":"bytes"},{"name":"deleted","type":"bool","internalType":"bool"}]}],"stateMutability":"view"},{"type":"function","name":"getEventsByTag","inputs":[{"name":"tag","type":"string","internalType":"string"},{"name":"start","type":"uint256","internalType":"uint256"},{"name":"length","type":"uint256","internalType":"uint256"},{"name":"reverseOrder","type":"bool","internalType":"bool"}],"outputs":[{"name":"","type":"tuple[]","internalType":"struct IWavsIndexer.IndexedEvent[]","components":[{"name":"eventId","type":"bytes32","internalType":"bytes32"},{"name":"chainId","type":"string","internalType":"string"},{"name":"relevantContract","type":"address","internalType":"address"},{"name":"blockNumber","type":"uint256","internalType":"uint256"},{"name":"timestamp","type":"uint128","internalType":"uint128"},{"name":"eventType","type":"string","internalType":"string"},{"name":"data","type":"bytes","internalType":"bytes"},{"name":"tags","type":"string[]","internalType":"string[]"},{"name":"relevantAddresses","type":"address[]","internalType":"address[]"},{"name":"metadata","type":"bytes","internalType":"bytes"},{"name":"deleted","type":"bool","internalType":"bool"}]}],"stateMutability":"view"},{"type":"function","name":"getEventsByType","inputs":[{"name":"eventType","type":"string","internalType":"string"},{"name":"start","type":"uint256","internalType":"uint256"},{"name":"length","type":"uint256","internalType":"uint256"},{"name":"reverseOrder","type":"bool","internalType":"bool"}],"outputs":[{"name":"","type":"tuple[]","internalType":"struct IWavsIndexer.IndexedEvent[]","components":[{"name":"eventId","type":"bytes32","internalType":"bytes32"},{"name":"chainId","type":"string","internalType":"string"},{"name":"relevantContract","type":"address","internalType":"address"},{"name":"blockNumber","type":"uint256","internalType":"uint256"},{"name":"timestamp","type":"uint128","internalType":"uint128"},{"name":"eventType","type":"string","internalType":"string"},{"name":"data","type":"bytes","internalType":"bytes"},{"name":"tags","type":"string[]","internalType":"string[]"},{"name":"relevantAddresses","type":"address[]","internalType":"address[]"},{"name":"metadata","type":"bytes","internalType":"bytes"},{"name":"deleted","type":"bool","internalType":"bool"}]}],"stateMutability":"view"},{"type":"function","name":"getEventsByTypeAndTag","inputs":[{"name":"eventType","type":"string","internalType":"string"},{"name":"tag","type":"string","internalType":"string"},{"name":"start","type":"uint256","internalType":"uint256"},{"name":"length","type":"uint256","internalType":"uint256"},{"name":"reverseOrder","type":"bool","internalType":"bool"}],"outputs":[{"name":"","type":"tuple[]","internalType":"struct IWavsIndexer.IndexedEvent[]","components":[{"name":"eventId","type":"bytes32","internalType":"bytes32"},{"name":"chainId","type":"string","internalType":"string"},{"name":"relevantContract","type":"address","internalType":"address"},{"name":"blockNumber","type":"uint256","internalType":"uint256"},{"name":"timestamp","type":"uint128","internalType":"uint128"},{"name":"eventType","type":"string","internalType":"string"},{"name":"data","type":"bytes","internalType":"bytes"},{"name":"tags","type":"string[]","internalType":"string[]"},{"name":"relevantAddresses","type":"address[]","internalType":"address[]"},{"name":"metadata","type":"bytes","internalType":"bytes"},{"name":"deleted","type":"bool","internalType":"bool"}]}],"stateMutability":"view"},{"type":"function","name":"getServiceManager","inputs":[],"outputs":[{"name":"","type":"address","internalType":"address"}],"stateMutability":"view"},{"type":"function","name":"handleSignedEnvelope","inputs":[{"name":"envelope","type":"tuple","internalType":"struct IWavsServiceHandler.Envelope","components":[{"name":"eventId","type":"bytes20","internalType":"bytes20"},{"name":"ordering","type":"bytes12","internalType":"bytes12"},{"name":"payload","type":"bytes","internalType":"bytes"}]},{"name":"signatureData","type":"tuple","internalType":"struct IWavsServiceHandler.SignatureData","components":[{"name":"signers","type":"address[]","internalType":"address[]"},{"name":"signatures","type":"bytes[]","internalType":"bytes[]"},{"name":"referenceBlock","type":"uint32","internalType":"uint32"}]}],"outputs":[],"stateMutability":"nonpayable"},{"type":"function","name":"totalEvents","inputs":[],"outputs":[{"name":"","type":"uint256","internalType":"uint256"}],"stateMutability":"view"},{"type":"function","name":"version","inputs":[],"outputs":[{"name":"","type":"string","internalType":"string"}],"stateMutability":"view"},{"type":"event","name":"EventDeleted","inputs":[{"name":"eventId","type":"bytes32","indexed":true,"internalType":"bytes32"}],"anonymous":false},{"type":"event","name":"EventIndexed","inputs":[{"name":"eventId","type":"bytes32","indexed":true,"internalType":"bytes32"},{"name":"relevantContract","type":"address","indexed":true,"internalType":"address"},{"name":"eventType","type":"string","indexed":true,"internalType":"string"},{"name":"relevantAddresses","type":"address[]","indexed":false,"internalType":"address[]"},{"name":"tags","type":"string[]","indexed":false,"internalType":"string[]"}],"anonymous":false},{"type":"error","name":"CannotCreateDeletedEvent","inputs":[]},{"type":"error","name":"EventAlreadyDeleted","inputs":[]},{"type":"error","name":"EventAlreadyExists","inputs":[]},{"type":"error","name":"EventDoesNotExist","inputs":[]},{"type":"error","name":"ExpectedEventIdZero","inputs":[]},{"type":"error","name":"InvalidOffset","inputs":[]},{"type":"error","name":"InvalidServiceManager","inputs":[]},{"type":"error","name":"NoEvents","inputs":[]},{"type":"error","name":"PayloadDecodingFailed","inputs":[]}],"bytecode":{"object":"0x60e0346100b157601f613e4b38819003918201601f19168301916001600160401b038311848410176100b5578084926020946040528339810103126100b157516001600160a01b038116908190036100b15760016080525f60a0525f60c05280156100a257601080546001600160a01b031916919091179055604051613d8190816100ca823960805181612532015260a0518161255d015260c051816125880152f35b63c172d20d60e01b5f5260045ffd5b5f80fd5b634e487b7160e01b5f52604160045260245ffdfe6080806040526004361015610012575f80fd5b5f905f3560e01c90816301bc644114612fcb575080630c9fdf2814612f395780631060595714612ee2578063118e58bd14612eb35780631eaf27b114612e2d5780631fb294da14612d775780632195030214612cfa5780632410d64114612c455780632a2f991214612bfb5780632e58202814612bbb578063309c2ccc146127c55780633a363314146127995780633aa19a9f146126f95780634dda0b43146126d157806350f5fa8414612666578063511c20ba1461261557806354fd4d5014612513578063550edfe21461248d57806360742b14146124165780636cf1df2c146123c557806380bec78014612318578063832d2fe6146122d8578063850b9db6146121a85780638835aec11461215f5780638981482f146120895780638a1761e31461203f5780638a73363014611fff5780638c172fa214611e265780638d6685d214611daf578063928f9df514611d115780639d4e06ac14611c73578063b5a0827c14611ba4578063b682a1b614611b54578063ba87068614611b37578063baf19b2314611a3f578063bfdc4a6114611917578063c3014d5814611891578063d428fbe31461183a578063da358da2146117e9578063dac1fe5514611727578063e80fb963146116b1578063e8c7936914611671578063ea9f2c86146115d8578063ec880f6f14611597578063f969ff331461035b578063f99417bf146102bb578063fabbcab3146102695763fbea4e6d1461022e575f80fd5b34610266576020366003190112610266576020906040906001600160a01b036102556132a9565b168152600483522054604051908152f35b80fd5b5034610266576020908161027c366135a3565b9390604051928184925191829101835e810160068152030190209081548310156102665760206102ac848461344e565b90549060031b1c604051908152f35b5034610266576080366003190112610266576004356001600160401b038111610357576102ec9036906004016133eb565b906102f56132bf565b6102fd6132d5565b9060208060643595604051928184925191829101835e810160078152030190209060018060a01b03165f5260205260405f209060018060a01b03165f5260205260405f209081548310156102665760206102ac848461344e565b5080fd5b503461153557604036600319011261153557600435906001600160401b03821161153557816004019180360390606060031983011261153557602435936001600160401b038511611535578460040160606003198736030112611535576010546001600160a01b031695863b1561153557604051916366b8ac4f60e11b8352604060048401528335976001600160601b031989168099036115355788604485015260248601356001600160601b0360a01b811680910361153557606485015261043c61042b60448801809761378e565b6060608488015260a48701916137bf565b84810360031901602486015292606084019261045881806137df565b606087529485905260808601945f5b8181106115715750505061047f9060248301906137df565b8585036020870152808552602085019460208260051b82010195835f925b848410611539575050505050506044013563ffffffff811680910361153557848093819260405f97015203915afa801561152a57611515575b506104df613707565b5035916022190182121561151157016004810135906001600160401b0382116115115760240190803603821361151157604051630c270b3360e21b81526020600482015291839183918291610539916024840191906137bf565b0381305afa82918161117a575b5061055a57634f64bf9960e11b8252600482fd5b91825151158061116d575b61115e57825190815161062e575b505090602001518051610584575080f35b815b815181101561062957610599818361386b565b51808452600160205260ff6040852054161561061a578084528360205260ff600a6040862001541661060b579081600192855284602052600a60408620018360ff198254161790557f719d22d3e1041df06461e5bfd381fed6f93905f93013b8526a3e94e2f418868e8580a201610586565b63890be21360e01b8452600484fd5b634833ae7360e11b8452600484fd5b505080f35b9290825b815184101561114f576040519260208401938685526001600160601b0360a01b8660a01b1660348201526020815261066b6040826133af565b519351936020811061113a575b50610683858461386b565b5191825161112b57848352848152600160205260ff60408220541661111c57610140830192835161110d57858252816020526040822096815188556001880195602083019687518051906001600160401b0382116110f9576106ef826106e9855461364e565b85613cd2565b602090601f83116001146110975761071e9291889183610d8b575b50508160011b915f199060031b1c19161790565b90555b6002890194604084019560018060a01b038751166001600160601b0360a01b825416179055606084015160038b015560048a016001600160801b036080860151166001600160801b031982541617905560058a019660a085019788518051906001600160401b0382116110215761079c826106e9855461364e565b602090601f8311600114611035576107ca92918a9183610d8b5750508160011b915f199060031b1c19161790565b90555b60068b0160c08601518051906001600160401b038211611021576107f5826106e9855461364e565b602090601f8311600114610fbf5761082392918a9183610d8b5750508160011b915f199060031b1c19161790565b90555b60078b019a60e086019b8c5190815191600160401b8311610dfc578154838355808410610f45575b50602001908952602089209089905b838210610e5c575050505060088101956101008101968751908151916001600160401b038311610e4857600160401b8311610e48576020908b835485855585818110610e2d575b50505001908a5260208a208a5b838110610e1057505050506101200151805160098301916001600160401b038211610dfc576108e4826106e9855461364e565b602090601f8311600114610d9657918061091792600a9695948d92610d8b5750508160011b915f199060031b1c19161790565b90555b019051151560ff80198354169116179055888552600160205260408520600160ff19825416179055600f545f198114610d7757600101600f55610979896020808b51604051928184925191829101835e81016002815203019020613d17565b6020808951604051928184925191829101835e60039082019081520301902086516001600160a01b03165f908152602091909152604090206109bc908a90613d17565b6109e2896020808a51604051928184925191829101835e81016005815203019020613d17565b6020808951604051928184925191829101835e8101600b81520301902060018060a01b0387511660018060a01b03165f52602052610a2d89610a2860405f208a5161342f565b613d17565b845b8a518051821015610b4457610a45828c9261386b565b51816040518083518060208601835e81016006815203602001902090610a6a91613d17565b818a51604051818192516020819201835e810160088152036020019020610a91908361342f565b90610a9b91613d17565b8a51604051818192516020819201835e600c9082019081520360209081019091208a516001600160a01b03165f9081529152604090208290610add908361342f565b90610ae791613d17565b8a51604051818192516020819201835e600e9082019081520360209081019091208a516001600160a01b03165f9081529152604090208a51610b29919061342f565b610b329161342f565b90610b3c91613d17565b600101610a2f565b505099989690939485995b845180518c1015610c63576001600160a01b0390610b6e908d9061386b565b5116958688526004602052610b868b60408a20613d17565b8688526009602052610ba08b610a2860408b208c5161342f565b6020808551604051928184925191829101835e60079082019081520301902083516001600160a01b039081165f90815260209283526040808220928b168252919092529020610bf0908c90613d17565b875b8a5151811015610c555780610c4f8d610a288e610c338f968f8f986040828b60019c610c489552600a602052610c398a610a28858520610c338a8d5161386b565b5161342f565b8152600d60205220905161342f565b925161386b565b01610bf2565b506001909b019a9550610b4f565b5096939a9950602091509791949796939660018060a01b0390511692519951935199604051918183925191829101835e81018981520390209260405190604082016040835281518091526020606084019201908a905b808210610d555750505081810360208301528a5180825260208201906020808260051b8501019d01928b5b828110610d28575050505050807f277b4e9514cb36d052849f3dc84cee333641d03c0e9afde019ebeff0fcf640489160019798999a9b0390a4019293919093610632565b909192939d8e601f198483030186525190610d42916130e4565b9d60209081019401929190600101610ce4565b82516001600160a01b0316845260209384019390920191600190910190610cb9565b634e487b7160e01b86526011600452602486fd5b015190505f8061070a565b838b52818b209190601f1984168c5b818110610de45750916001939185600a9897969410610dcc575b505050811b01905561091a565b01515f1960f88460031b161c191690555f8080610dbf565b92936020600181928786015181550195019301610da5565b634e487b7160e01b8a52604160045260248afd5b82516001600160a01b0316818301556020909201916001016108b1565b848387610e409552209182019101613cbc565b8b5f856108a4565b634e487b7160e01b8b52604160045260248bfd5b80518051906001600160401b038211610f3157610e8382610e7d875461364e565b87613cd2565b6020908d601f8411600114610ec9578360019592946020948796610eba9492610d8b5750508160011b915f199060031b1c19161790565b86555b0193019101909161085d565b9190601f198416878452828420935b818110610f195750936020936001969387969383889510610f01575b505050811b018655610ebd565b01515f1960f88460031b161c191690555f8080610ef4565b92936020600181928786015181550195019301610ed8565b634e487b7160e01b8d52604160045260248dfd5b828b528360208c2091820191015b818110610f60575061084e565b808c610f6e6001935461364e565b80610f7c575b505001610f53565b601f81118414610f935750508c81555b8c5f610f74565b83601f60208486610fae965220920160051c82019101613cbc565b808d528c6020812081835555610f8c565b838a52818a209190601f1984168b5b8181106110095750908460019594939210610ff1575b505050811b019055610826565b01515f1960f88460031b161c191690555f8080610fe4565b92936020600181928786015181550195019301610fce565b634e487b7160e01b89526041600452602489fd5b838a52818a209190601f1984168b5b81811061107f5750908460019594939210611067575b505050811b0190556107cd565b01515f1960f88460031b161c191690555f808061105a565b92936020600181928786015181550195019301611044565b8388528188209190601f198416895b8181106110e157509084600195949392106110c9575b505050811b019055610721565b01515f1960f88460031b161c191690555f80806110bc565b929360206001819287860151815501950193016110a6565b634e487b7160e01b87526041600452602487fd5b633060486160e21b8252600482fd5b63232cdbe760e11b8152600490fd5b63315d06e960e11b8152600490fd5b5f949194199060200360031b1b16925f610678565b9350506020915091905f610573565b63773943d760e11b8252600482fd5b5060208301515115610565565b9091503d8084833e61118c81836133af565b81019060208183031261150d578051906001600160401b0382116112a357019060408282031261150d57604051916111c383613364565b80516001600160401b0381116112a757810182601f820112156112a7578051906111ec82613720565b916111fa60405193846133af565b80835260208084019160051b830101918583116115095760208101915b8383106112ab575050505083526020810151906001600160401b0382116112a757019080601f830112156112a357815161125081613720565b9261125e60405194856133af565b81845260208085019260051b82010192831161129f57602001905b82821061128f575050506020820152905f610546565b8151815260209182019101611279565b8680fd5b8480fd5b8580fd5b82516001600160401b038111611505578201610160818903601f19011261150557604051906112d982613393565b6020810151825260408101516001600160401b0381116114b15789602061130292840101613813565b602083015261131360608201613857565b60408301526080810151606083015260a08101516001600160801b03811681036114b157608083015260c08101516001600160401b0381116114b15789602061135e92840101613813565b60a083015260e08101516001600160401b0381116114b15789602061138592840101613813565b60c08301526101008101516001600160401b0381116114b15760209082010189601f820112156114b1578051906113bb82613720565b916113c960405193846133af565b80835260208084019160051b830101918c83116114cd5760208101915b8383106114d1575050505060e08301526101208101516001600160401b0381116114b15760209082010189601f820112156114b15780519061142782613720565b9161143560405193846133af565b80835260208084019160051b830101918c83116114cd57602001905b8282106114b5575050506101008301526101408101516001600160401b0381116114b157906114888a602061016094840101613813565b610120840152015180151581036114ad57610140820152815260209283019201611217565b8b80fd5b8c80fd5b602080916114c284613857565b815201910190611451565b8f80fd5b82516001600160401b0381116114ff576020918f6114f490848094870101613813565b8152019201916113e6565b50508f80fd5b8a80fd5b8880fd5b8380fd5b8280fd5b6115229194505f906133af565b5f925f6104d6565b6040513d5f823e3d90fd5b5f80fd5b909192939497602080611561600193601f1986820301885261155b8d8861378e565b906137bf565b9a0194019401929493919061049d565b909195602080600192838060a01b036115898b6132eb565b168152019701929101610467565b34611535576115c36115a83661351a565b929160018060a01b03165f52600960205260405f209061342f565b8054821015611535576020916102ac9161344e565b346115355760206115e836613560565b949093836040949394519384928337810160058152030190206040519081602082549182815201915f5260205f20905f5b81811061165b5761165761164361163e8a8a8a8a611639818c03826133af565b61387f565b613946565b604051918291602083526020830190613251565b0390f35b8254845260209093019260019283019201611619565b3461153557602080611682366135a3565b9290604051928184925191829101835e810160028152030190208054821015611535576020916102ac9161344e565b34611535576060366003190112611535576004356001600160401b038111611535576116e19036906004016133eb565b6024356001600160401b038111611535576117036115c39136906004016133eb565b604051835160443594602091839181908401835e810160088152030190209061342f565b346115355760a0366003190112611535576117406132a9565b6024356001600160401b038111611535576117616020913690600401613099565b919061176b6130c6565b9360018060a01b03165f526009825260405f208360405194859384378201908152030190206040519081602082549182815201915f5260205f20905f5b8181106117d35761165761164361163e88886117c6818a03826133af565b606435906044359061387f565b82548452602090930192600192830192016117a8565b34611535576020366003190112611535576004356001600160401b03811161153557602061181c81923690600401613099565b91908260405193849283378101600681520301902054604051908152f35b34611535576020808061184c366132ff565b9590938360409493945193849283378101600b8152030190209060018060a01b03165f52825260405f2083604051948593843782019081520301902054604051908152f35b34611535576060366003190112611535576004356001600160401b038111611535576118c1903690600401613099565b6118c96132bf565b9060206118d46132d5565b93826040519384928337810160078152030190209060018060a01b03165f5260205260405f209060018060a01b03165f52602052602060405f2054604051908152f35b34611535576020366003190112611535576004355f525f602052602060405f20805490611a3260405191611959836119528160018501613686565b03846133af565b611a2460018060a01b03600283015416611a166003840154916001600160801b036004860154166040519061199c826119958160058b01613686565b03836133af565b604051946119b8866119b18160068c01613686565b03876133af565b6119f960ff600a6040519a6119db8c6119d48160098501613686565b038d6133af565b0154169a6101206040519e8f9e8f90815201526101208d01906130e4565b9360408c015260608b015260808a015288820360a08a01526130e4565b9086820360c08801526130e4565b9084820360e08601526130e4565b9015156101008301520390f35b346115355760c036600319011261153557611a586132a9565b6024356001600160401b03811161153557611a77903690600401613099565b90604435906001600160401b03821161153557602092611a9c84933690600401613099565b949092611aa76130d5565b9660018060a01b03165f52600d825260405f208360405194859384378201908152030190208360405194859384378201908152030190206040519081602082549182815201915f5260205f20905f5b818110611b215761165761164361163e8888611b14818a03826133af565b608435906064359061387f565b8254845260209093019260019283019201611af6565b34611535575f366003190112611535576020600f54604051908152f35b3461153557602036600319011261153557600435805f52600160205260ff60405f20541680611b8b575b6020906040519015158152f35b505f525f602052602060ff600a60405f20015416611b7e565b346115355760c0366003190112611535576004356001600160401b03811161153557611bd4903690600401613099565b611bdc6132bf565b611be46132d5565b916020611bef6130d5565b94826040519384928337810160078152030190209060018060a01b03165f5260205260405f209060018060a01b03165f5260205260405f206040519081602082549182815201915f5260205f20905f5b818110611c5d5761165761164361163e8888611b14818a03826133af565b8254845260209093019260019283019201611c3f565b3461153557602080611c84366135d4565b9894929591968260409992995193849283378101600c8152030190209060018060a01b03165f52825260405f208360405194859384378201908152030190206040519081602082549182815201915f5260205f20905f5b818110611cfb5761165761164361163e8a8a8a8a611639818c03826133af565b8254845260209093019260019283019201611cdb565b3461153557602080611d22366135d4565b9894929591968260409992995193849283378101600b8152030190209060018060a01b03165f52825260405f208360405194859384378201908152030190206040519081602082549182815201915f5260205f20905f5b818110611d995761165761164361163e8a8a8a8a611639818c03826133af565b8254845260209093019260019283019201611d79565b34611535576020611dbf36613560565b949093836040949394519384928337810160068152030190206040519081602082549182815201915f5260205f20905f5b818110611e105761165761164361163e8a8a8a8a611639818c03826133af565b8254845260209093019260019283019201611df0565b3461153557602036600319011261153557600435611e42613737565b50805f52600160205260ff60405f20541615611ff0575f525f60205260405f20604051611e6e81613393565b81548152604051611e8d81611e868160018701613686565b03826133af565b602082015260028201546001600160a01b03166040808301919091526003830154606083015260048301546001600160801b0316608083015251611ed881611e868160058701613686565b60a0820152604051611ef181611e868160068701613686565b60c0820152600782018054611f0581613720565b91611f1360405193846133af565b81835260208301905f5260205f205f915b838310611fcb575050505060e0820152600882016040519081602082549182815201915f5260205f20905f5b818110611fac576116578660ff600a8a89611f6d818b03826133af565b610100850152604051611f8781611e868160098601613686565b6101208501520154161515610140820152604051918291602083526020830190613108565b82546001600160a01b0316845260209093019260019283019201611f50565b600160208192604051611fe281611e868189613686565b815201920192019190611f24565b634833ae7360e11b5f5260045ffd5b3461153557602080612010366135a3565b9290604051928184925191829101835e810160058152030190208054821015611535576020916102ac9161344e565b346115355760206115c38161205336613477565b959192604094919451928184925191829101835e8101600b8152030190209060018060a01b03165f5260205260405f209061342f565b34611535576080366003190112611535576004356001600160401b038111611535576120b9903690600401613099565b6120c16132bf565b906044356001600160401b038111611535576120e1903690600401613099565b6064949194356001600160401b038111611535576020958695869561210b87943690600401613099565b9890968260405193849283378101600e8152030190209060018060a01b03165f52825260405f2083604051948593843782019081520301902083604051948593843782019081520301902054604051908152f35b34611535576040366003190112611535576121786132a9565b6001600160a01b03165f90815260046020526040902080546024359190821015611535576020916102ac9161344e565b346115355760e0366003190112611535576004356001600160401b038111611535576121d8903690600401613099565b906121e16132bf565b916044356001600160401b03811161153557612201903690600401613099565b6064356001600160401b03811161153557612220903690600401613099565b94909260c43596871515880361153557856020809794819560405193849283378101600e8152030190209060018060a01b03165f52825260405f208360405194859384378201908152030190208360405194859384378201908152030190206040519081602082549182815201915f5260205f20905f5b8181106122c25761165761164361163e88886122b5818a03826133af565b60a435906084359061387f565b8254845260209093019260019283019201612297565b34611535576020806122e9366134db565b929160018060a01b03165f52600a825260405f2083604051948593843782019081520301902054604051908152f35b346115355760a0366003190112611535576123316132a9565b6024356001600160401b038111611535576123536123799136906004016133eb565b61235b6130c6565b6001600160a01b039093165f908152600a602052604090209061342f565b6040519081602082549182815201915f5260205f20905f5b8181106123af5761165761164361163e88886117c6818a03826133af565b8254845260209093019260019283019201612391565b34611535576020366003190112611535576004356001600160401b0381116115355760206123f881923690600401613099565b91908260405193849283378101600581520301902054604051908152f35b3461153557602061242636613560565b949093836040949394519384928337810160028152030190206040519081602082549182815201915f5260205f20905f5b8181106124775761165761164361163e8a8a8a8a611639818c03826133af565b8254845260209093019260019283019201612457565b34611535576080366003190112611535576124a66132a9565b6024356001600160401b038111611535576124c59036906004016133eb565b604435906001600160401b0382116115355761250d6124eb6115c39336906004016133eb565b6001600160a01b039094165f908152600d60205260409020606435949261342f565b9061342f565b34611535575f36600319011261153557611657602061260160016125567f0000000000000000000000000000000000000000000000000000000000000000613b4f565b81846125817f0000000000000000000000000000000000000000000000000000000000000000613b4f565b81806125ac7f0000000000000000000000000000000000000000000000000000000000000000613b4f565b9260405199878b985191829101848a015e870190601760f91b83830152805192839101602183015e010190601760f91b84830152805192839101600283015e01015f838201520301601f1981018352826133af565b6040519182916020835260208301906130e4565b34611535576020366003190112611535576004356001600160401b03811161153557602061264881923690600401613099565b91908260405193849283378101600281520301902054604051908152f35b34611535576040366003190112611535576004356001600160401b03811161153557612696903690600401613099565b60206126a06132bf565b92826040519384928337810160038152030190209060018060a01b03165f52602052602060405f2054604051908152f35b34611535575f366003190112611535576010546040516001600160a01b039091168152602090f35b34611535576060366003190112611535576127126132a9565b6024356001600160401b03811161153557612731903690600401613099565b91604435906001600160401b038211611535576020938461275781943690600401613099565b95909360018060a01b03165f52600d825260405f2083604051948593843782019081520301902083604051948593843782019081520301902054604051908152f35b34611535576115c36127aa3661351a565b929160018060a01b03165f52600a60205260405f209061342f565b34611535576020366003190112611535576004356001600160401b038111611535576127f5903690600401613099565b6127fd613707565b50810190602081830312611535578035906001600160401b038211611535570190604082820312611535576040519161283583613364565b80356001600160401b03811161153557810182601f820112156115355780359061285e82613720565b9161286c60405193846133af565b80835260208084019160051b830101918583116115355760208101915b83831061296f575050505083526020810135906001600160401b03821161153557019080601f830112156115355781356128c281613720565b926128d060405194856133af565b81845260208085019260051b82010192831161153557602001905b82821061295f5761291a8585602082019081526040519283926020845251604060208501526060840190613251565b905190601f19838203016040840152602080835192838152019201905f5b818110612946575050500390f35b8251845285945060209384019390920191600101612938565b81358152602091820191016128eb565b82356001600160401b03811161153557820190610160828903601f190112611535576040519161299e83613393565b6020810135835260408101356001600160401b038111611535578960206129c7928401016133eb565b60208401526129d8606082016132eb565b60408401526080810135606084015260a08101356001600160801b038116810361153557608084015260c08101356001600160401b03811161153557896020612a23928401016133eb565b60a084015260e08101356001600160401b03811161153557896020612a4a928401016133eb565b60c08401526101008101356001600160401b0381116115355760209082010189601f82011215611535578035612a7f81613720565b91612a8d60405193846133af565b81835260208084019260051b820101918c83116115355760208201905b838210612b8d575050505060e08401526101208101356001600160401b0381116115355760209082010189601f8201121561153557803590612aeb82613720565b91612af960405193846133af565b80835260208084019160051b830101918c831161153557602001905b828210612b7557505050610100840152610140810135906001600160401b03821161153557612b4c8a6020610160948401016133eb565b610120850152013590811515820361153557826020939261014085940152815201920191612889565b60208091612b82846132eb565b815201910190612b15565b81356001600160401b038111611535576020918f612bb0908480948801016133eb565b815201910190612aaa565b3461153557602080612bcc366134db565b929160018060a01b03165f526009825260405f2083604051948593843782019081520301902054604051908152f35b346115355760206115c381612c0f36613477565b959192604094919451928184925191829101835e8101600c8152030190209060018060a01b03165f5260205260405f209061342f565b346115355760a0366003190112611535576004356001600160401b03811161153557612c75903690600401613099565b612c7d6132bf565b906020612c886130c6565b93826040519384928337810160038152030190209060018060a01b03165f5260205260405f206040519081602082549182815201915f5260205f20905f5b818110612ce45761165761164361163e88886117c6818a03826133af565b8254845260209093019260019283019201612cc6565b34611535576060366003190112611535576004356001600160401b03811161153557612d2a9036906004016133eb565b612d326132bf565b604051825160443593602091839181908401835e810160038152030190209060018060a01b03165f5260205260405f208054821015611535576020916102ac9161344e565b346115355760a0366003190112611535576004356001600160401b03811161153557612da79036906004016133eb565b612daf6132bf565b6044356001600160401b03811161153557612dce9036906004016133eb565b906064356001600160401b038111611535576115c392612df561250d9236906004016133eb565b9260208060843597604051928184925191829101835e8101600e8152030190209060018060a01b03165f5260205260405f209061342f565b34611535576040366003190112611535576004356001600160401b03811161153557612e5d903690600401613099565b6024356001600160401b038111611535576020928392612e8284933690600401613099565b9490928260405193849283378101600881520301902083604051948593843782019081520301902054604051908152f35b34611535576020366003190112611535576004355f526001602052602060ff60405f2054166040519015158152f35b346115355760208080612ef4366132ff565b9590938360409493945193849283378101600c8152030190209060018060a01b03165f52825260405f2083604051948593843782019081520301902054604051908152f35b3461153557608036600319011261153557612f526132a9565b6064359081151582036115355760018060a01b03165f52600460205260405f206040519081602082549182815201915f5260205f20905f5b818110612fb55761165761164361163e8888612fa8818a03826133af565b604435906024359061387f565b8254845260209093019260019283019201612f8a565b346115355760a0366003190112611535576004356001600160401b03811161153557612ffb903690600401613099565b602492919235906001600160401b0382116115355782602061302281943690600401613099565b9590938061302e6130c6565b988337810160088152030190208360405194859384378201908152030190206040519081602082549182815201915f5260205f20905f5b8181106130835761165761164361163e88886117c6818a03826133af565b8254845260209093019260019283019201613065565b9181601f84011215611535578235916001600160401b038311611535576020838186019501011161153557565b60843590811515820361153557565b60a43590811515820361153557565b805180835260209291819084018484015e5f828201840152601f01601f1916010190565b908151815261318161316f61312e602085015161016060208601526101608501906130e4565b60018060a01b036040860151166040850152606085015160608501526001600160801b03608086015116608085015260a085015184820360a08601526130e4565b60c084015183820360c08501526130e4565b60e08301519082810360e0840152815180825260208201916020808360051b8301019401925f915b83831061322457505050505061010083015190828103610100840152602080835192838152019201905f5b818110613205575050506101406131fa81926101208601518582036101208701526130e4565b930151151591015290565b82516001600160a01b03168452602093840193909201916001016131d4565b9091929394602080613242600193601f1986820301875289516130e4565b970193019301919392906131a9565b9080602083519182815201916020808360051b8301019401925f915b83831061327c57505050505090565b909192939460208061329a600193601f198682030187528951613108565b9701930193019193929061326d565b600435906001600160a01b038216820361153557565b602435906001600160a01b038216820361153557565b604435906001600160a01b038216820361153557565b35906001600160a01b038216820361153557565b906060600319830112611535576004356001600160401b038111611535578261332a91600401613099565b909290916024356001600160a01b03811681036115355791604435906001600160401b0382116115355761336091600401613099565b9091565b604081019081106001600160401b0382111761337f57604052565b634e487b7160e01b5f52604160045260245ffd5b61016081019081106001600160401b0382111761337f57604052565b90601f801991011681019081106001600160401b0382111761337f57604052565b6001600160401b03811161337f57601f01601f191660200190565b81601f8201121561153557602081359101613405826133d0565b9261341360405194856133af565b8284528282011161153557815f92602092838601378301015290565b6040518151909260209284929081908501845e82019081520301902090565b8054821015613463575f5260205f2001905f90565b634e487b7160e01b5f52603260045260245ffd5b6080600319820112611535576004356001600160401b03811161153557816134a1916004016133eb565b916024356001600160a01b03811681036115355791604435906001600160401b038211611535576134d4916004016133eb565b9060643590565b906040600319830112611535576004356001600160a01b03811681036115355791602435906001600160401b0382116115355761336091600401613099565b906060600319830112611535576004356001600160a01b03811681036115355791602435906001600160401b03821161153557613559916004016133eb565b9060443590565b608060031982011261153557600435906001600160401b0382116115355761358a91600401613099565b9091602435906044359060643580151581036115355790565b604060031982011261153557600435906001600160401b038211611535576135cd916004016133eb565b9060243590565b9060c0600319830112611535576004356001600160401b03811161153557826135ff91600401613099565b909290916024356001600160a01b03811681036115355791604435906001600160401b0382116115355761363591600401613099565b9091606435906084359060a43580151581036115355790565b90600182811c9216801561367c575b602083101461366857565b634e487b7160e01b5f52602260045260245ffd5b91607f169161365d565b5f92918154916136958361364e565b80835292600181169081156136ea57506001146136b157505050565b5f9081526020812093945091925b8383106136d0575060209250010190565b6001816020929493945483858701015201910191906136bf565b915050602093945060ff929192191683830152151560051b010190565b6040519061371482613364565b60606020838281520152565b6001600160401b03811161337f5760051b60200190565b6040519061374482613393565b5f6101408382815260606020820152826040820152826060820152826080820152606060a0820152606060c0820152606060e0820152606061010082015260606101208201520152565b9035601e19823603018112156115355701602081359101916001600160401b03821161153557813603831361153557565b908060209392818452848401375f828201840152601f01601f1916010190565b9035601e19823603018112156115355701602081359101916001600160401b038211611535578160051b3603831361153557565b81601f820112156115355760208151910161382d826133d0565b9261383b60405194856133af565b8284528282011161153557815f926020928386015e8301015290565b51906001600160a01b038216820361153557565b80518210156134635760209160051b010190565b9081518015613929578082101561391b578382018110613911575b6138a384613720565b946138b160405196876133af565b848652601f196138c086613720565b013660208801375f5b8581106138d95750505050505090565b6001908215613906576138f485820185035f19015b8761386b565b516138ff828a61386b565b52016138c9565b6138f48186016138ee565b818103935061389a565b62ed0ab960e11b5f5260045ffd5b505050505060405161393c6020826133af565b5f81525f36813790565b90815161395281613720565b9061396060405192836133af565b80825261396f601f1991613720565b015f5b818110613b385750505f5b8351811015613b3357613990818561386b565b515f525f60205260405f20604051906139a882613393565b805482526040516139c081611e868160018601613686565b602083015260028101546001600160a01b03166040808401919091526003820154606084015260048201546001600160801b0316608084015251613a0b81611e868160058601613686565b60a0830152604051613a2481611e868160068601613686565b60c0830152600781018054613a3881613720565b91613a4660405193846133af565b81835260208301905f5260205f20905f905b838210613b0e575050505060e0830152600881016040519081602082549182815201915f5260205f20905f905b808210613aec57505050600194939282613aa560ff94600a9403826133af565b610100850152604051613abf81611e868160098601613686565b6101208501520154161515610140820152613ada828561386b565b52613ae5818461386b565b500161397d565b82546001600160a01b0316845260209093019260019283019290910190613a85565b600160208192604051613b2581611e86818a613686565b815201930191019091613a58565b509150565b602090613b43613737565b82828601015201613972565b805f9172184f03e93ff9f4daa797ed6e38ed64bf6a1f0160401b821015613c99575b806d04ee2d6d415b85acef8100000000600a921015613c7e575b662386f26fc10000811015613c6a575b6305f5e100811015613c59575b612710811015613c4a575b6064811015613c3c575b1015613c31575b600a60216001840193613bd6856133d0565b94613be460405196876133af565b808652613bf3601f19916133d0565b013660208701378401015b5f1901916f181899199a1a9b1b9c1cb0b131b232b360811b8282061a8353048015613c2c57600a9091613bfe565b505090565b600190910190613bc4565b606460029104930192613bbd565b61271060049104930192613bb3565b6305f5e10060089104930192613ba8565b662386f26fc1000060109104930192613b9b565b6d04ee2d6d415b85acef810000000060209104930192613b8b565b506040915072184f03e93ff9f4daa797ed6e38ed64bf6a1f0160401b8104613b71565b818110613cc7575050565b5f8155600101613cbc565b9190601f8111613ce157505050565b613d0b925f5260205f20906020601f840160051c83019310613d0d575b601f0160051c0190613cbc565b565b9091508190613cfe565b8054600160401b81101561337f57613d349160018201815561344e565b819291549060031b91821b915f19901b191617905556fea26469706673582212200dcd11dd9c0889f6269f03425a6fabc2d6a5ddeb54a7b2de7311f51ea199868364736f6c634300081b0033","linkReferences":{}},"methodIdentifiers":{"decodeIndexingPayload(bytes)":"309c2ccc","eventExists(bytes32)":"118e58bd","eventExistsAndDeleted(bytes32)":"b682a1b6","events(bytes32)":"bfdc4a61","eventsByAddress(address,uint256)":"8835aec1","eventsByAddressAndTag(address,string,uint256)":"3a363314","eventsByAddressAndType(address,string,uint256)":"ec880f6f","eventsByAddressAndTypeAndTag(address,string,string,uint256)":"550edfe2","eventsByChainId(string,uint256)":"e8c79369","eventsByChainIdAndContract(string,address,uint256)":"21950302","eventsByChainIdAndContractAndAddress(string,address,address,uint256)":"f99417bf","eventsByChainIdAndContractAndTag(string,address,string,uint256)":"2a2f9912","eventsByChainIdAndContractAndType(string,address,string,uint256)":"8a1761e3","eventsByChainIdAndContractAndTypeAndTag(string,address,string,string,uint256)":"1fb294da","eventsByTag(string,uint256)":"fabbcab3","eventsByType(string,uint256)":"8a733630","eventsByTypeAndTag(string,string,uint256)":"e80fb963","getEvent(bytes32)":"8c172fa2","getEventCountByAddress(address)":"fbea4e6d","getEventCountByAddressAndTag(address,string)":"832d2fe6","getEventCountByAddressAndType(address,string)":"2e582028","getEventCountByAddressAndTypeAndTag(address,string,string)":"3aa19a9f","getEventCountByChainId(string)":"511c20ba","getEventCountByContract(string,address)":"50f5fa84","getEventCountByContractAndAddress(string,address,address)":"c3014d58","getEventCountByContractAndTag(string,address,string)":"10605957","getEventCountByContractAndType(string,address,string)":"d428fbe3","getEventCountByContractAndTypeAndTag(string,address,string,string)":"8981482f","getEventCountByTag(string)":"da358da2","getEventCountByType(string)":"6cf1df2c","getEventCountByTypeAndTag(string,string)":"1eaf27b1","getEventsByAddress(address,uint256,uint256,bool)":"0c9fdf28","getEventsByAddressAndTag(address,string,uint256,uint256,bool)":"80bec780","getEventsByAddressAndType(address,string,uint256,uint256,bool)":"dac1fe55","getEventsByAddressAndTypeAndTag(address,string,string,uint256,uint256,bool)":"baf19b23","getEventsByChainId(string,uint256,uint256,bool)":"60742b14","getEventsByContract(string,address,uint256,uint256,bool)":"2410d641","getEventsByContractAndAddress(string,address,address,uint256,uint256,bool)":"b5a0827c","getEventsByContractAndTag(string,address,string,uint256,uint256,bool)":"9d4e06ac","getEventsByContractAndType(string,address,string,uint256,uint256,bool)":"928f9df5","getEventsByContractAndTypeAndTag(string,address,string,string,uint256,uint256,bool)":"850b9db6","getEventsByTag(string,uint256,uint256,bool)":"8d6685d2","getEventsByType(string,uint256,uint256,bool)":"ea9f2c86","getEventsByTypeAndTag(string,string,uint256,uint256,bool)":"01bc6441","getServiceManager()":"4dda0b43","handleSignedEnvelope((bytes20,bytes12,bytes),(address[],bytes[],uint32))":"f969ff33","totalEvents()":"ba870686","version()":"54fd4d50"},"id":132}