{"abi":[{"type":"constructor","inputs":[{"name":"eas","type":"address","internalType":"contract IEAS"},{"name":"serviceManager","type":"address","internalType":"contract IWavsServiceManager"}],"stateMutability":"nonpayable"},{"type":"function","name":"decodeAttestData","inputs":[{"name":"data","type":"bytes","internalType":"bytes"}],"outputs":[{"name":"","type":"tuple","internalType":"struct AttestationRequest","components":[{"name":"schema","type":"bytes32","internalType":"bytes32"},{"name":"data","type":"tuple","internalType":"struct AttestationRequestData","components":[{"name":"recipient","type":"address","internalType":"address"},{"name":"expirationTime","type":"uint64","internalType":"uint64"},{"name":"revocable","type":"bool","internalType":"bool"},{"name":"refUID","type":"bytes32","internalType":"bytes32"},{"name":"data","type":"bytes","internalType":"bytes"},{"name":"value","type":"uint256","internalType":"uint256"}]}]}],"stateMutability":"pure"},{"type":"function","name":"decodeAttestationPayload","inputs":[{"name":"payload","type":"bytes","internalType":"bytes"}],"outputs":[{"name":"","type":"tuple","internalType":"struct WavsAttester.AttestationPayload","components":[{"name":"operationType","type":"uint8","internalType":"enum WavsAttester.OperationType"},{"name":"data","type":"bytes","internalType":"bytes"}]}],"stateMutability":"pure"},{"type":"function","name":"envelopesSeen","inputs":[{"name":"eventId","type":"bytes20","internalType":"bytes20"}],"outputs":[{"name":"seen","type":"bool","internalType":"bool"}],"stateMutability":"view"},{"type":"function","name":"getServiceManager","inputs":[],"outputs":[{"name":"","type":"address","internalType":"address"}],"stateMutability":"view"},{"type":"function","name":"handleSignedEnvelope","inputs":[{"name":"envelope","type":"tuple","internalType":"struct IWavsServiceHandler.Envelope","components":[{"name":"eventId","type":"bytes20","internalType":"bytes20"},{"name":"ordering","type":"bytes12","internalType":"bytes12"},{"name":"payload","type":"bytes","internalType":"bytes"}]},{"name":"signatureData","type":"tuple","internalType":"struct IWavsServiceHandler.SignatureData","components":[{"name":"signers","type":"address[]","internalType":"address[]"},{"name":"signatures","type":"bytes[]","internalType":"bytes[]"},{"name":"referenceBlock","type":"uint32","internalType":"uint32"}]}],"outputs":[],"stateMutability":"nonpayable"},{"type":"event","name":"DebuggingAttestCalled","inputs":[{"name":"schema","type":"bytes32","indexed":false,"internalType":"bytes32"},{"name":"recipient","type":"address","indexed":false,"internalType":"address"},{"name":"dataLength","type":"uint256","indexed":false,"internalType":"uint256"}],"anonymous":false},{"type":"event","name":"DebuggingEnvelopeReceived","inputs":[{"name":"payload","type":"bytes","indexed":false,"internalType":"bytes"},{"name":"payloadLength","type":"uint256","indexed":false,"internalType":"uint256"}],"anonymous":false},{"type":"event","name":"DebuggingPayloadDecoded","inputs":[{"name":"operationType","type":"uint8","indexed":false,"internalType":"uint8"},{"name":"dataLength","type":"uint256","indexed":false,"internalType":"uint256"}],"anonymous":false},{"type":"error","name":"DataDecodingFailed","inputs":[]},{"type":"error","name":"EnvelopeAlreadySeen","inputs":[]},{"type":"error","name":"InvalidEAS","inputs":[]},{"type":"error","name":"InvalidInput","inputs":[]},{"type":"error","name":"InvalidOperationType","inputs":[]},{"type":"error","name":"InvalidServiceManager","inputs":[]},{"type":"error","name":"PayloadDecodingFailed","inputs":[]}],"bytecode":{"object":"0x60c0346100d357601f61173738819003918201601f19168301916001600160401b038311848410176100d75780849260409485528339810103126100d35780516001600160a01b038116918282036100d35760200151916001600160a01b038316908184036100d357156100c457156100b55760805260a05260405161164b90816100ec82396080518181816103fc015281816104cb015281816107390152610c12015260a05181818161010c01526110e00152f35b63c172d20d60e01b5f5260045ffd5b6341bc07ff60e11b5f5260045ffd5b5f80fd5b634e487b7160e01b5f52604160045260245ffdfe6080806040526004361015610012575f80fd5b5f905f3560e01c908163025d26be1461117c575080634a216dfd1461110f5780634dda0b43146110cb578063a2be485814610fbe5763f969ff3314610055575f80fd5b34610f58576040366003190112610f58576004356001600160401b038111610f58578060040160606003198336030112610f5857602435916001600160401b038311610f5857826004019260606003198236030112610f585760448201937ffd39b2c951b44160da2f98e621c4a6b23f44c84369c0a56d55e3bea5b46c62836100de86866114a8565b6100e888886114a8565b90506101016040519384936040855260408501916114da565b9060208301520390a17f00000000000000000000000000000000000000000000000000000000000000006001600160a01b0316803b15610f5857604051936366b8ac4f60e11b8552604060048601528535906001600160601b03198216809203610f5857602491604487015201356001600160601b0360a01b8116809103610f585760648501526101a661019587876114fa565b6060608488015260a48701916114da565b8481036003190160248601529260608401926101c2818061152b565b606087529485905260808601945f905b808210610f94575050506101ea90602483019061152b565b8585036020870152808552602085019460208260051b82010195835f925b848410610f5c575050505050506044013563ffffffff8116809103610f5857848093819260405f97015203915afa8015610f4d57610f38575b506bffffffffffffffffffffffff196102598261155f565b1683528260205260ff604084205416610f29576102ab6102ce9284926001600160601b03196102878261155f565b1684528360205260408420600160ff198254161790556102a561148f565b506114a8565b604051631457c90b60e31b815260206004820152938492839260248401916114da565b0381305afa829181610eab575b506102ef57634f64bf9960e11b8252600482fd5b8051906004821015610e83577f06e6774badbd7bd95530bc9e7f593f19a2e1515e6ab3245ecb9978f056028d6b6040602083019384515160ff8351921682526020820152a180516004811015610e975761049457508161036c915160405180938192634a216dfd60e01b8352602060048401526024830190611285565b0381305afa829181610470575b5061038d576360f64c0760e11b8252600482fd5b6020817fe0a2fc834214a484d7756937616355e9dfc7466a3279e76ca5c2b34834f449c060606103f7945184840151608060018060a01b038251169101515190604051928352868301526040820152a16040518093819263f17325e760e01b835260048301611304565b0381857f00000000000000000000000000000000000000000000000000000000000000006001600160a01b03165af1801561046557610434575080f35b6020813d60201161045d575b8161044d60209383611203565b81010312610459575080f35b5080fd5b3d9150610440565b6040513d84823e3d90fd5b61048d9192503d8085833e6104858183611203565b8101906113b3565b905f610379565b91908251926004841015610e835760018394145f1461057c57505160408180518101031261057957602081015160409182015191517f00000000000000000000000000000000000000000000000000000000000000006001600160a01b0316926104fd826111b9565b815283602082015260405191610512836111b9565b825260208201908152823b156105765760648492836020956040519687958694634692626760e01b86525160048601525180516024860152015160448401525af180156104655761056257505080f35b8161056c91611203565b6105735780f35b80fd5b50505b50fd5b80919250516004811015610e9757600203610b1257505180518101606082602083019203126107ae5760208201516001600160401b0381116107aa578160206105c792850101611590565b9160408101516001600160401b038111610a7e5781019082603f83011215610a7e576020820151916105f883611579565b926106066040519485611203565b8084526020808086019260051b8401010191858311610a7a5760408101915b838310610a8657505050506060810151906001600160401b038211610a82570182603f82011215610a7e5760208101519061065f82611579565b9361066d6040519586611203565b8285526020808087019460051b8401010191818311610a7a5760408101935b8385106109c8575050505050825190811580156109bd575b80156109b2575b6109a3576106b882611579565b936106c66040519586611203565b828552601f196106d584611579565b01865b81811061098c575050855b838110610842575050505050816040518092632256e48760e11b8252602482016020600484015281518091526044830190602060448260051b86010193019185905b8282106107b25750505090829003905081837f00000000000000000000000000000000000000000000000000000000000000006001600160a01b03165af1801561046557610771575080f35b3d8083833e6107808183611203565b81016020828203126107ae5781516001600160401b0381116107aa576107a69201611590565b5080f35b8380fd5b8280fd5b9295509290935060431986820301825284519060206040820192805183520151916040602083015282518091526060820190602060608260051b8501019401928a5b828110610817575050505050602080600192960192019201928593879593610725565b9091929394602080610835600193605f1987820301895289516112a9565b97019501939291016107f4565b61084c81836115ed565b5161085782856115ed565b5161086283886115ed565b5161086b61148f565b5080519081158015610981575b6109725761088582611579565b926108936040519485611203565b828452601f196108a284611579565b018c5b81811061095b5750508b5b8381106108f057505050509060019291604051916108cd836111b9565b825260208201526108de82896115ed565b526108e981886115ed565b50016106e3565b6001908d6001600160a01b0361090683866115ed565b51169061091383876115ed565b5160405192610921846111e8565b8352816020840152846040840152816060840152608083015260a082015261094982886115ed565b5261095481876115ed565b50016108b0565b602090610966611328565b828289010152016108a5565b63b4fa3fb360e01b8b5260048bfd5b508251821415610878565b60209061099761148f565b82828a010152016106d8565b63b4fa3fb360e01b8552600485fd5b5082518214156106ab565b5080518214156106a4565b84516001600160401b038111610a765760209083010183603f82011215610a76576020810151906109f882611579565b91610a066040519384611203565b8083526020808085019260051b8401010191868311610a725760408101915b838310610a3f57505050908252506020948501940161068c565b82516001600160401b038111610a6e57602091610a638a848080958801010161136d565b815201920191610a25565b8e80fd5b8c80fd5b8980fd5b8780fd5b8480fd5b8580fd5b82516001600160401b038111610a765760209083010187603f82011215610a7657602081015190610ab682611579565b91610ac46040519384611203565b8083526020808085019260051b84010101918a8311610a7257604001905b828210610afa57505050815260209283019201610625565b60208091610b0784611359565b815201910190610ae2565b516004811015610e8357600303610e745751908151820191604081602085019403126104595760208101516001600160401b0381116107ae57836020610b5a92840101611590565b906040810151906001600160401b0382116107aa57019280603f850112156107ae57602084015193610b8b85611579565b94610b996040519687611203565b8086526020808088019260051b8401010191838311610a825760408101915b838310610e45575050505050805180158015610e3a575b610e2b57610bdc81611579565b93610bea6040519586611203565b818552601f19610bf983611579565b01845b818110610e14575050835b828110610d125750507f00000000000000000000000000000000000000000000000000000000000000006001600160a01b0316915050803b156104595760405190634cb7e9e560e01b825260248201936020600484015280518095526044830194602060448260051b86010192019085965b818810610ca0575050508394508391838381809403925af180156104655761056257505080f35b9091926043198682030182528351602060608160408501938051865201519360408382015284518094520192019088905b808210610cf05750505060208060019295019201970196919091610c79565b9091926020604060019282875180518352015183820152019401920190610cd1565b610d1c81836115ed565b5180518015610e0557610d2e81611579565b91610d3c6040519384611203565b818352601f19610d4b83611579565b01885b818110610de2575050875b828110610da35750505090600191610d7182876115ed565b519060405191610d80836111b9565b82526020820152610d9182896115ed565b52610d9c81886115ed565b5001610c07565b80610db0600192846115ed565b5160405190610dbe826111b9565b81528a6020820152610dd082876115ed565b52610ddb81866115ed565b5001610d59565b602090604051610df1816111b9565b8b81528b8382015282828801015201610d4e565b63b4fa3fb360e01b8752600487fd5b602090610e1f61148f565b82828a01015201610bfc565b63b4fa3fb360e01b8352600483fd5b508351811415610bcf565b82516001600160401b038111610a7a57602091610e69878480809588010101611590565b815201920191610bb8565b630ead561960e11b8252600482fd5b634e487b7160e01b83526021600452602483fd5b634e487b7160e01b84526021600452602484fd5b9091503d8084833e610ebd8183611203565b8101906020818303126107aa578051906001600160401b038211610a7e57016040818303126107aa5760405191610ef3836111b9565b81516004811015610a8257835260208201516001600160401b038111610a8257610f1d920161136d565b6020820152905f6102db565b633a181deb60e11b8352600483fd5b610f459193505f90611203565b5f915f610241565b6040513d5f823e3d90fd5b5f80fd5b909192939497602080610f84600193601f19868203018852610f7e8d886114fa565b906114da565b9a01940194019294939190610208565b90919586359060018060a01b038216809203610f58576020816001938293520197019201906101d2565b34610f58576020366003190112610f58576004356001600160401b038111610f585736602382011215610f585780600401356001600160401b038111610f585781016024810191368311610f585761101461148f565b50602081830312610f58576024810135906001600160401b038211610f5857019060409082900312610f58576040519161104d836111b9565b60248201356004811015610f585783526044820135916001600160401b038311610f585761107e920160240161123f565b6020820190815260405191602083525160048110156110b75782916110b3916020840152516040808401526060830190611285565b0390f35b634e487b7160e01b5f52602160045260245ffd5b34610f58575f366003190112610f58576040517f00000000000000000000000000000000000000000000000000000000000000006001600160a01b03168152602090f35b34610f58576020366003190112610f58576004356001600160401b038111610f58576111706111456110b392369060040161123f565b604051611151816111b9565b5f8152602061115e611328565b910152602080825183010191016113b3565b60405191829182611304565b34610f58576020366003190112610f5857600435906001600160601b03198216809203610f58576020915f525f825260ff60405f20541615158152f35b604081019081106001600160401b038211176111d457604052565b634e487b7160e01b5f52604160045260245ffd5b60c081019081106001600160401b038211176111d457604052565b90601f801991011681019081106001600160401b038211176111d457604052565b6001600160401b0381116111d457601f01601f191660200190565b81601f82011215610f585780359061125682611224565b926112646040519485611203565b82845260208383010111610f5857815f926020809301838601378301015290565b805180835260209291819084018484015e5f828201840152601f01601f1916010190565b9060018060a01b0382511681526001600160401b0360208301511660208201526040820151151560408201526060820151606082015260a0806112fb608085015160c0608086015260c0850190611285565b93015191015290565b606060206113259381845280518285015201519160408082015201906112a9565b90565b60405190611335826111e8565b5f60a083828152826020820152826040820152826060820152606060808201520152565b51906001600160a01b0382168203610f5857565b81601f82011215610f585780519061138482611224565b926113926040519485611203565b82845260208383010111610f5857815f9260208093018386015e8301015290565b602081830312610f58578051906001600160401b038211610f58570190604082820312610f5857604051916113e7836111b9565b805183526020810151906001600160401b038211610f5857019060c082820312610f585760405191611418836111e8565b61142181611359565b835260208101516001600160401b0381168103610f5857602084015260408101518015158103610f585760408401526060810151606084015260808101516001600160401b038111610f585760a09261147b91830161136d565b6080840152015160a0820152602082015290565b6040519061149c826111b9565b60606020835f81520152565b903590601e1981360301821215610f5857018035906001600160401b038211610f5857602001918136038313610f5857565b908060209392818452848401375f828201840152601f01601f1916010190565b9035601e1982360301811215610f585701602081359101916001600160401b038211610f58578136038313610f5857565b9035601e1982360301811215610f585701602081359101916001600160401b038211610f58578160051b36038313610f5857565b356bffffffffffffffffffffffff1981168103610f585790565b6001600160401b0381116111d45760051b60200190565b9080601f83011215610f585781516115a781611579565b926115b56040519485611203565b81845260208085019260051b820101928311610f5857602001905b8282106115dd5750505090565b81518152602091820191016115d0565b80518210156116015760209160051b010190565b634e487b7160e01b5f52603260045260245ffdfea26469706673582212201f416c1b4d7a2631034eea785ac46577464148de814fbe4ff0a75d19d1ac1d8a64736f6c634300081b0033","linkReferences":{}},"methodIdentifiers":{"decodeAttestData(bytes)":"4a216dfd","decodeAttestationPayload(bytes)":"a2be4858","envelopesSeen(bytes20)":"025d26be","getServiceManager()":"4dda0b43","handleSignedEnvelope((bytes20,bytes12,bytes),(address[],bytes[],uint32))":"f969ff33"},"id":130}