{"abi":[{"type":"constructor","inputs":[{"name":"serviceManager","type":"address","internalType":"contract IWavsServiceManager"}],"stateMutability":"nonpayable"},{"type":"function","name":"decodeIndexingPayload","inputs":[{"name":"payload","type":"bytes","internalType":"bytes"}],"outputs":[{"name":"","type":"tuple","internalType":"struct IWavsIndexer.IndexingPayload","components":[{"name":"toAdd","type":"tuple[]","internalType":"struct IWavsIndexer.IndexedEvent[]","components":[{"name":"eventId","type":"bytes32","internalType":"bytes32"},{"name":"chainId","type":"string","internalType":"string"},{"name":"relevantContract","type":"address","internalType":"address"},{"name":"blockNumber","type":"uint256","internalType":"uint256"},{"name":"timestamp","type":"uint128","internalType":"uint128"},{"name":"eventType","type":"string","internalType":"string"},{"name":"data","type":"bytes","internalType":"bytes"},{"name":"tags","type":"string[]","internalType":"string[]"},{"name":"relevantAddresses","type":"address[]","internalType":"address[]"},{"name":"metadata","type":"bytes","internalType":"bytes"},{"name":"deleted","type":"bool","internalType":"bool"}]},{"name":"toDelete","type":"bytes32[]","internalType":"bytes32[]"}]}],"stateMutability":"pure"},{"type":"function","name":"eventExists","inputs":[{"name":"","type":"bytes32","internalType":"bytes32"}],"outputs":[{"name":"","type":"bool","internalType":"bool"}],"stateMutability":"view"},{"type":"function","name":"eventExistsAndDeleted","inputs":[{"name":"eventId","type":"bytes32","internalType":"bytes32"}],"outputs":[{"name":"","type":"bool","internalType":"bool"}],"stateMutability":"view"},{"type":"function","name":"events","inputs":[{"name":"","type":"bytes32","internalType":"bytes32"}],"outputs":[{"name":"eventId","type":"bytes32","internalType":"bytes32"},{"name":"chainId","type":"string","internalType":"string"},{"name":"relevantContract","type":"address","internalType":"address"},{"name":"blockNumber","type":"uint256","internalType":"uint256"},{"name":"timestamp","type":"uint128","internalType":"uint128"},{"name":"eventType","type":"string","internalType":"string"},{"name":"data","type":"bytes","internalType":"bytes"},{"name":"metadata","type":"bytes","internalType":"bytes"},{"name":"deleted","type":"bool","internalType":"bool"}],"stateMutability":"view"},{"type":"function","name":"eventsByAddress","inputs":[{"name":"","type":"address","internalType":"address"},{"name":"","type":"uint256","internalType":"uint256"}],"outputs":[{"name":"","type":"bytes32","internalType":"bytes32"}],"stateMutability":"view"},{"type":"function","name":"eventsByAddressAndTag","inputs":[{"name":"","type":"address","internalType":"address"},{"name":"","type":"string","internalType":"string"},{"name":"","type":"uint256","internalType":"uint256"}],"outputs":[{"name":"","type":"bytes32","internalType":"bytes32"}],"stateMutability":"view"},{"type":"function","name":"eventsByAddressAndType","inputs":[{"name":"","type":"address","internalType":"address"},{"name":"","type":"string","internalType":"string"},{"name":"","type":"uint256","internalType":"uint256"}],"outputs":[{"name":"","type":"bytes32","internalType":"bytes32"}],"stateMutability":"view"},{"type":"function","name":"eventsByAddressAndTypeAndTag","inputs":[{"name":"","type":"address","internalType":"address"},{"name":"","type":"string","internalType":"string"},{"name":"","type":"string","internalType":"string"},{"name":"","type":"uint256","internalType":"uint256"}],"outputs":[{"name":"","type":"bytes32","internalType":"bytes32"}],"stateMutability":"view"},{"type":"function","name":"eventsByChainId","inputs":[{"name":"","type":"string","internalType":"string"},{"name":"","type":"uint256","internalType":"uint256"}],"outputs":[{"name":"","type":"bytes32","internalType":"bytes32"}],"stateMutability":"view"},{"type":"function","name":"eventsByChainIdAndContract","inputs":[{"name":"","type":"string","internalType":"string"},{"name":"","type":"address","internalType":"address"},{"name":"","type":"uint256","internalType":"uint256"}],"outputs":[{"name":"","type":"bytes32","internalType":"bytes32"}],"stateMutability":"view"},{"type":"function","name":"eventsByChainIdAndContractAndAddress","inputs":[{"name":"","type":"string","internalType":"string"},{"name":"","type":"address","internalType":"address"},{"name":"","type":"address","internalType":"address"},{"name":"","type":"uint256","internalType":"uint256"}],"outputs":[{"name":"","type":"bytes32","internalType":"bytes32"}],"stateMutability":"view"},{"type":"function","name":"eventsByChainIdAndContractAndTag","inputs":[{"name":"","type":"string","internalType":"string"},{"name":"","type":"address","internalType":"address"},{"name":"","type":"string","internalType":"string"},{"name":"","type":"uint256","internalType":"uint256"}],"outputs":[{"name":"","type":"bytes32","internalType":"bytes32"}],"stateMutability":"view"},{"type":"function","name":"eventsByChainIdAndContractAndType","inputs":[{"name":"","type":"string","internalType":"string"},{"name":"","type":"address","internalType":"address"},{"name":"","type":"string","internalType":"string"},{"name":"","type":"uint256","internalType":"uint256"}],"outputs":[{"name":"","type":"bytes32","internalType":"bytes32"}],"stateMutability":"view"},{"type":"function","name":"eventsByChainIdAndContractAndTypeAndTag","inputs":[{"name":"","type":"string","internalType":"string"},{"name":"","type":"address","internalType":"address"},{"name":"","type":"string","internalType":"string"},{"name":"","type":"string","internalType":"string"},{"name":"","type":"uint256","internalType":"uint256"}],"outputs":[{"name":"","type":"bytes32","internalType":"bytes32"}],"stateMutability":"view"},{"type":"function","name":"eventsByTag","inputs":[{"name":"","type":"string","internalType":"string"},{"name":"","type":"uint256","internalType":"uint256"}],"outputs":[{"name":"","type":"bytes32","internalType":"bytes32"}],"stateMutability":"view"},{"type":"function","name":"eventsByType","inputs":[{"name":"","type":"string","internalType":"string"},{"name":"","type":"uint256","internalType":"uint256"}],"outputs":[{"name":"","type":"bytes32","internalType":"bytes32"}],"stateMutability":"view"},{"type":"function","name":"eventsByTypeAndTag","inputs":[{"name":"","type":"string","internalType":"string"},{"name":"","type":"string","internalType":"string"},{"name":"","type":"uint256","internalType":"uint256"}],"outputs":[{"name":"","type":"bytes32","internalType":"bytes32"}],"stateMutability":"view"},{"type":"function","name":"getEventCountByAddress","inputs":[{"name":"addr","type":"address","internalType":"address"}],"outputs":[{"name":"","type":"uint256","internalType":"uint256"}],"stateMutability":"view"},{"type":"function","name":"getEventCountByAddressAndTag","inputs":[{"name":"addr","type":"address","internalType":"address"},{"name":"tag","type":"string","internalType":"string"}],"outputs":[{"name":"","type":"uint256","internalType":"uint256"}],"stateMutability":"view"},{"type":"function","name":"getEventCountByAddressAndType","inputs":[{"name":"addr","type":"address","internalType":"address"},{"name":"eventType","type":"string","internalType":"string"}],"outputs":[{"name":"","type":"uint256","internalType":"uint256"}],"stateMutability":"view"},{"type":"function","name":"getEventCountByAddressAndTypeAndTag","inputs":[{"name":"addr","type":"address","internalType":"address"},{"name":"eventType","type":"string","internalType":"string"},{"name":"tag","type":"string","internalType":"string"}],"outputs":[{"name":"","type":"uint256","internalType":"uint256"}],"stateMutability":"view"},{"type":"function","name":"getEventCountByChainId","inputs":[{"name":"chainId","type":"string","internalType":"string"}],"outputs":[{"name":"","type":"uint256","internalType":"uint256"}],"stateMutability":"view"},{"type":"function","name":"getEventCountByContract","inputs":[{"name":"chainId","type":"string","internalType":"string"},{"name":"contract_","type":"address","internalType":"address"}],"outputs":[{"name":"","type":"uint256","internalType":"uint256"}],"stateMutability":"view"},{"type":"function","name":"getEventCountByContractAndAddress","inputs":[{"name":"chainId","type":"string","internalType":"string"},{"name":"contract_","type":"address","internalType":"address"},{"name":"addr","type":"address","internalType":"address"}],"outputs":[{"name":"","type":"uint256","internalType":"uint256"}],"stateMutability":"view"},{"type":"function","name":"getEventCountByContractAndTag","inputs":[{"name":"chainId","type":"string","internalType":"string"},{"name":"contract_","type":"address","internalType":"address"},{"name":"tag","type":"string","internalType":"string"}],"outputs":[{"name":"","type":"uint256","internalType":"uint256"}],"stateMutability":"view"},{"type":"function","name":"getEventCountByContractAndType","inputs":[{"name":"chainId","type":"string","internalType":"string"},{"name":"contract_","type":"address","internalType":"address"},{"name":"eventType","type":"string","internalType":"string"}],"outputs":[{"name":"","type":"uint256","internalType":"uint256"}],"stateMutability":"view"},{"type":"function","name":"getEventCountByContractAndTypeAndTag","inputs":[{"name":"chainId","type":"string","internalType":"string"},{"name":"contract_","type":"address","internalType":"address"},{"name":"eventType","type":"string","internalType":"string"},{"name":"tag","type":"string","internalType":"string"}],"outputs":[{"name":"","type":"uint256","internalType":"uint256"}],"stateMutability":"view"},{"type":"function","name":"getEventCountByTag","inputs":[{"name":"tag","type":"string","internalType":"string"}],"outputs":[{"name":"","type":"uint256","internalType":"uint256"}],"stateMutability":"view"},{"type":"function","name":"getEventCountByType","inputs":[{"name":"eventType","type":"string","internalType":"string"}],"outputs":[{"name":"","type":"uint256","internalType":"uint256"}],"stateMutability":"view"},{"type":"function","name":"getEventCountByTypeAndTag","inputs":[{"name":"eventType","type":"string","internalType":"string"},{"name":"tag","type":"string","internalType":"string"}],"outputs":[{"name":"","type":"uint256","internalType":"uint256"}],"stateMutability":"view"},{"type":"function","name":"getEventsByAddress","inputs":[{"name":"addr","type":"address","internalType":"address"},{"name":"start","type":"uint256","internalType":"uint256"},{"name":"length","type":"uint256","internalType":"uint256"},{"name":"reverseOrder","type":"bool","internalType":"bool"}],"outputs":[{"name":"","type":"tuple[]","internalType":"struct IWavsIndexer.IndexedEvent[]","components":[{"name":"eventId","type":"bytes32","internalType":"bytes32"},{"name":"chainId","type":"string","internalType":"string"},{"name":"relevantContract","type":"address","internalType":"address"},{"name":"blockNumber","type":"uint256","internalType":"uint256"},{"name":"timestamp","type":"uint128","internalType":"uint128"},{"name":"eventType","type":"string","internalType":"string"},{"name":"data","type":"bytes","internalType":"bytes"},{"name":"tags","type":"string[]","internalType":"string[]"},{"name":"relevantAddresses","type":"address[]","internalType":"address[]"},{"name":"metadata","type":"bytes","internalType":"bytes"},{"name":"deleted","type":"bool","internalType":"bool"}]}],"stateMutability":"view"},{"type":"function","name":"getEventsByAddressAndTag","inputs":[{"name":"addr","type":"address","internalType":"address"},{"name":"tag","type":"string","internalType":"string"},{"name":"start","type":"uint256","internalType":"uint256"},{"name":"length","type":"uint256","internalType":"uint256"},{"name":"reverseOrder","type":"bool","internalType":"bool"}],"outputs":[{"name":"","type":"tuple[]","internalType":"struct IWavsIndexer.IndexedEvent[]","components":[{"name":"eventId","type":"bytes32","internalType":"bytes32"},{"name":"chainId","type":"string","internalType":"string"},{"name":"relevantContract","type":"address","internalType":"address"},{"name":"blockNumber","type":"uint256","internalType":"uint256"},{"name":"timestamp","type":"uint128","internalType":"uint128"},{"name":"eventType","type":"string","internalType":"string"},{"name":"data","type":"bytes","internalType":"bytes"},{"name":"tags","type":"string[]","internalType":"string[]"},{"name":"relevantAddresses","type":"address[]","internalType":"address[]"},{"name":"metadata","type":"bytes","internalType":"bytes"},{"name":"deleted","type":"bool","internalType":"bool"}]}],"stateMutability":"view"},{"type":"function","name":"getEventsByAddressAndType","inputs":[{"name":"addr","type":"address","internalType":"address"},{"name":"eventType","type":"string","internalType":"string"},{"name":"start","type":"uint256","internalType":"uint256"},{"name":"length","type":"uint256","internalType":"uint256"},{"name":"reverseOrder","type":"bool","internalType":"bool"}],"outputs":[{"name":"","type":"tuple[]","internalType":"struct IWavsIndexer.IndexedEvent[]","components":[{"name":"eventId","type":"bytes32","internalType":"bytes32"},{"name":"chainId","type":"string","internalType":"string"},{"name":"relevantContract","type":"address","internalType":"address"},{"name":"blockNumber","type":"uint256","internalType":"uint256"},{"name":"timestamp","type":"uint128","internalType":"uint128"},{"name":"eventType","type":"string","internalType":"string"},{"name":"data","type":"bytes","internalType":"bytes"},{"name":"tags","type":"string[]","internalType":"string[]"},{"name":"relevantAddresses","type":"address[]","internalType":"address[]"},{"name":"metadata","type":"bytes","internalType":"bytes"},{"name":"deleted","type":"bool","internalType":"bool"}]}],"stateMutability":"view"},{"type":"function","name":"getEventsByAddressAndTypeAndTag","inputs":[{"name":"addr","type":"address","internalType":"address"},{"name":"eventType","type":"string","internalType":"string"},{"name":"tag","type":"string","internalType":"string"},{"name":"start","type":"uint256","internalType":"uint256"},{"name":"length","type":"uint256","internalType":"uint256"},{"name":"reverseOrder","type":"bool","internalType":"bool"}],"outputs":[{"name":"","type":"tuple[]","internalType":"struct IWavsIndexer.IndexedEvent[]","components":[{"name":"eventId","type":"bytes32","internalType":"bytes32"},{"name":"chainId","type":"string","internalType":"string"},{"name":"relevantContract","type":"address","internalType":"address"},{"name":"blockNumber","type":"uint256","internalType":"uint256"},{"name":"timestamp","type":"uint128","internalType":"uint128"},{"name":"eventType","type":"string","internalType":"string"},{"name":"data","type":"bytes","internalType":"bytes"},{"name":"tags","type":"string[]","internalType":"string[]"},{"name":"relevantAddresses","type":"address[]","internalType":"address[]"},{"name":"metadata","type":"bytes","internalType":"bytes"},{"name":"deleted","type":"bool","internalType":"bool"}]}],"stateMutability":"view"},{"type":"function","name":"getEventsByChainId","inputs":[{"name":"chainId","type":"string","internalType":"string"},{"name":"start","type":"uint256","internalType":"uint256"},{"name":"length","type":"uint256","internalType":"uint256"},{"name":"reverseOrder","type":"bool","internalType":"bool"}],"outputs":[{"name":"","type":"tuple[]","internalType":"struct IWavsIndexer.IndexedEvent[]","components":[{"name":"eventId","type":"bytes32","internalType":"bytes32"},{"name":"chainId","type":"string","internalType":"string"},{"name":"relevantContract","type":"address","internalType":"address"},{"name":"blockNumber","type":"uint256","internalType":"uint256"},{"name":"timestamp","type":"uint128","internalType":"uint128"},{"name":"eventType","type":"string","internalType":"string"},{"name":"data","type":"bytes","internalType":"bytes"},{"name":"tags","type":"string[]","internalType":"string[]"},{"name":"relevantAddresses","type":"address[]","internalType":"address[]"},{"name":"metadata","type":"bytes","internalType":"bytes"},{"name":"deleted","type":"bool","internalType":"bool"}]}],"stateMutability":"view"},{"type":"function","name":"getEventsByContract","inputs":[{"name":"chainId","type":"string","internalType":"string"},{"name":"contract_","type":"address","internalType":"address"},{"name":"start","type":"uint256","internalType":"uint256"},{"name":"length","type":"uint256","internalType":"uint256"},{"name":"reverseOrder","type":"bool","internalType":"bool"}],"outputs":[{"name":"","type":"tuple[]","internalType":"struct IWavsIndexer.IndexedEvent[]","components":[{"name":"eventId","type":"bytes32","internalType":"bytes32"},{"name":"chainId","type":"string","internalType":"string"},{"name":"relevantContract","type":"address","internalType":"address"},{"name":"blockNumber","type":"uint256","internalType":"uint256"},{"name":"timestamp","type":"uint128","internalType":"uint128"},{"name":"eventType","type":"string","internalType":"string"},{"name":"data","type":"bytes","internalType":"bytes"},{"name":"tags","type":"string[]","internalType":"string[]"},{"name":"relevantAddresses","type":"address[]","internalType":"address[]"},{"name":"metadata","type":"bytes","internalType":"bytes"},{"name":"deleted","type":"bool","internalType":"bool"}]}],"stateMutability":"view"},{"type":"function","name":"getEventsByContractAndAddress","inputs":[{"name":"chainId","type":"string","internalType":"string"},{"name":"contract_","type":"address","internalType":"address"},{"name":"addr","type":"address","internalType":"address"},{"name":"start","type":"uint256","internalType":"uint256"},{"name":"length","type":"uint256","internalType":"uint256"},{"name":"reverseOrder","type":"bool","internalType":"bool"}],"outputs":[{"name":"","type":"tuple[]","internalType":"struct IWavsIndexer.IndexedEvent[]","components":[{"name":"eventId","type":"bytes32","internalType":"bytes32"},{"name":"chainId","type":"string","internalType":"string"},{"name":"relevantContract","type":"address","internalType":"address"},{"name":"blockNumber","type":"uint256","internalType":"uint256"},{"name":"timestamp","type":"uint128","internalType":"uint128"},{"name":"eventType","type":"string","internalType":"string"},{"name":"data","type":"bytes","internalType":"bytes"},{"name":"tags","type":"string[]","internalType":"string[]"},{"name":"relevantAddresses","type":"address[]","internalType":"address[]"},{"name":"metadata","type":"bytes","internalType":"bytes"},{"name":"deleted","type":"bool","internalType":"bool"}]}],"stateMutability":"view"},{"type":"function","name":"getEventsByContractAndTag","inputs":[{"name":"chainId","type":"string","internalType":"string"},{"name":"contract_","type":"address","internalType":"address"},{"name":"tag","type":"string","internalType":"string"},{"name":"start","type":"uint256","internalType":"uint256"},{"name":"length","type":"uint256","internalType":"uint256"},{"name":"reverseOrder","type":"bool","internalType":"bool"}],"outputs":[{"name":"","type":"tuple[]","internalType":"struct IWavsIndexer.IndexedEvent[]","components":[{"name":"eventId","type":"bytes32","internalType":"bytes32"},{"name":"chainId","type":"string","internalType":"string"},{"name":"relevantContract","type":"address","internalType":"address"},{"name":"blockNumber","type":"uint256","internalType":"uint256"},{"name":"timestamp","type":"uint128","internalType":"uint128"},{"name":"eventType","type":"string","internalType":"string"},{"name":"data","type":"bytes","internalType":"bytes"},{"name":"tags","type":"string[]","internalType":"string[]"},{"name":"relevantAddresses","type":"address[]","internalType":"address[]"},{"name":"metadata","type":"bytes","internalType":"bytes"},{"name":"deleted","type":"bool","internalType":"bool"}]}],"stateMutability":"view"},{"type":"function","name":"getEventsByContractAndType","inputs":[{"name":"chainId","type":"string","internalType":"string"},{"name":"contract_","type":"address","internalType":"address"},{"name":"eventType","type":"string","internalType":"string"},{"name":"start","type":"uint256","internalType":"uint256"},{"name":"length","type":"uint256","internalType":"uint256"},{"name":"reverseOrder","type":"bool","internalType":"bool"}],"outputs":[{"name":"","type":"tuple[]","internalType":"struct IWavsIndexer.IndexedEvent[]","components":[{"name":"eventId","type":"bytes32","internalType":"bytes32"},{"name":"chainId","type":"string","internalType":"string"},{"name":"relevantContract","type":"address","internalType":"address"},{"name":"blockNumber","type":"uint256","internalType":"uint256"},{"name":"timestamp","type":"uint128","internalType":"uint128"},{"name":"eventType","type":"string","internalType":"string"},{"name":"data","type":"bytes","internalType":"bytes"},{"name":"tags","type":"string[]","internalType":"string[]"},{"name":"relevantAddresses","type":"address[]","internalType":"address[]"},{"name":"metadata","type":"bytes","internalType":"bytes"},{"name":"deleted","type":"bool","internalType":"bool"}]}],"stateMutability":"view"},{"type":"function","name":"getEventsByContractAndTypeAndTag","inputs":[{"name":"chainId","type":"string","internalType":"string"},{"name":"contract_","type":"address","internalType":"address"},{"name":"eventType","type":"string","internalType":"string"},{"name":"tag","type":"string","internalType":"string"},{"name":"start","type":"uint256","internalType":"uint256"},{"name":"length","type":"uint256","internalType":"uint256"},{"name":"reverseOrder","type":"bool","internalType":"bool"}],"outputs":[{"name":"","type":"tuple[]","internalType":"struct IWavsIndexer.IndexedEvent[]","components":[{"name":"eventId","type":"bytes32","internalType":"bytes32"},{"name":"chainId","type":"string","internalType":"string"},{"name":"relevantContract","type":"address","internalType":"address"},{"name":"blockNumber","type":"uint256","internalType":"uint256"},{"name":"timestamp","type":"uint128","internalType":"uint128"},{"name":"eventType","type":"string","internalType":"string"},{"name":"data","type":"bytes","internalType":"bytes"},{"name":"tags","type":"string[]","internalType":"string[]"},{"name":"relevantAddresses","type":"address[]","internalType":"address[]"},{"name":"metadata","type":"bytes","internalType":"bytes"},{"name":"deleted","type":"bool","internalType":"bool"}]}],"stateMutability":"view"},{"type":"function","name":"getEventsByTag","inputs":[{"name":"tag","type":"string","internalType":"string"},{"name":"start","type":"uint256","internalType":"uint256"},{"name":"length","type":"uint256","internalType":"uint256"},{"name":"reverseOrder","type":"bool","internalType":"bool"}],"outputs":[{"name":"","type":"tuple[]","internalType":"struct IWavsIndexer.IndexedEvent[]","components":[{"name":"eventId","type":"bytes32","internalType":"bytes32"},{"name":"chainId","type":"string","internalType":"string"},{"name":"relevantContract","type":"address","internalType":"address"},{"name":"blockNumber","type":"uint256","internalType":"uint256"},{"name":"timestamp","type":"uint128","internalType":"uint128"},{"name":"eventType","type":"string","internalType":"string"},{"name":"data","type":"bytes","internalType":"bytes"},{"name":"tags","type":"string[]","internalType":"string[]"},{"name":"relevantAddresses","type":"address[]","internalType":"address[]"},{"name":"metadata","type":"bytes","internalType":"bytes"},{"name":"deleted","type":"bool","internalType":"bool"}]}],"stateMutability":"view"},{"type":"function","name":"getEventsByType","inputs":[{"name":"eventType","type":"string","internalType":"string"},{"name":"start","type":"uint256","internalType":"uint256"},{"name":"length","type":"uint256","internalType":"uint256"},{"name":"reverseOrder","type":"bool","internalType":"bool"}],"outputs":[{"name":"","type":"tuple[]","internalType":"struct IWavsIndexer.IndexedEvent[]","components":[{"name":"eventId","type":"bytes32","internalType":"bytes32"},{"name":"chainId","type":"string","internalType":"string"},{"name":"relevantContract","type":"address","internalType":"address"},{"name":"blockNumber","type":"uint256","internalType":"uint256"},{"name":"timestamp","type":"uint128","internalType":"uint128"},{"name":"eventType","type":"string","internalType":"string"},{"name":"data","type":"bytes","internalType":"bytes"},{"name":"tags","type":"string[]","internalType":"string[]"},{"name":"relevantAddresses","type":"address[]","internalType":"address[]"},{"name":"metadata","type":"bytes","internalType":"bytes"},{"name":"deleted","type":"bool","internalType":"bool"}]}],"stateMutability":"view"},{"type":"function","name":"getEventsByTypeAndTag","inputs":[{"name":"eventType","type":"string","internalType":"string"},{"name":"tag","type":"string","internalType":"string"},{"name":"start","type":"uint256","internalType":"uint256"},{"name":"length","type":"uint256","internalType":"uint256"},{"name":"reverseOrder","type":"bool","internalType":"bool"}],"outputs":[{"name":"","type":"tuple[]","internalType":"struct IWavsIndexer.IndexedEvent[]","components":[{"name":"eventId","type":"bytes32","internalType":"bytes32"},{"name":"chainId","type":"string","internalType":"string"},{"name":"relevantContract","type":"address","internalType":"address"},{"name":"blockNumber","type":"uint256","internalType":"uint256"},{"name":"timestamp","type":"uint128","internalType":"uint128"},{"name":"eventType","type":"string","internalType":"string"},{"name":"data","type":"bytes","internalType":"bytes"},{"name":"tags","type":"string[]","internalType":"string[]"},{"name":"relevantAddresses","type":"address[]","internalType":"address[]"},{"name":"metadata","type":"bytes","internalType":"bytes"},{"name":"deleted","type":"bool","internalType":"bool"}]}],"stateMutability":"view"},{"type":"function","name":"getServiceManager","inputs":[],"outputs":[{"name":"","type":"address","internalType":"address"}],"stateMutability":"view"},{"type":"function","name":"handleSignedEnvelope","inputs":[{"name":"envelope","type":"tuple","internalType":"struct IWavsServiceHandler.Envelope","components":[{"name":"eventId","type":"bytes20","internalType":"bytes20"},{"name":"ordering","type":"bytes12","internalType":"bytes12"},{"name":"payload","type":"bytes","internalType":"bytes"}]},{"name":"signatureData","type":"tuple","internalType":"struct IWavsServiceHandler.SignatureData","components":[{"name":"signers","type":"address[]","internalType":"address[]"},{"name":"signatures","type":"bytes[]","internalType":"bytes[]"},{"name":"referenceBlock","type":"uint32","internalType":"uint32"}]}],"outputs":[],"stateMutability":"nonpayable"},{"type":"function","name":"totalEvents","inputs":[],"outputs":[{"name":"","type":"uint256","internalType":"uint256"}],"stateMutability":"view"},{"type":"function","name":"version","inputs":[],"outputs":[{"name":"","type":"string","internalType":"string"}],"stateMutability":"view"},{"type":"event","name":"EventDeleted","inputs":[{"name":"eventId","type":"bytes32","indexed":true,"internalType":"bytes32"}],"anonymous":false},{"type":"event","name":"EventIndexed","inputs":[{"name":"eventId","type":"bytes32","indexed":true,"internalType":"bytes32"},{"name":"relevantContract","type":"address","indexed":true,"internalType":"address"},{"name":"eventType","type":"string","indexed":true,"internalType":"string"},{"name":"relevantAddresses","type":"address[]","indexed":false,"internalType":"address[]"},{"name":"tags","type":"string[]","indexed":false,"internalType":"string[]"}],"anonymous":false},{"type":"error","name":"CannotCreateDeletedEvent","inputs":[]},{"type":"error","name":"EventAlreadyDeleted","inputs":[]},{"type":"error","name":"EventAlreadyExists","inputs":[]},{"type":"error","name":"EventDoesNotExist","inputs":[]},{"type":"error","name":"ExpectedEventIdZero","inputs":[]},{"type":"error","name":"InvalidOffset","inputs":[]},{"type":"error","name":"InvalidServiceManager","inputs":[]},{"type":"error","name":"NoEvents","inputs":[]},{"type":"error","name":"PayloadDecodingFailed","inputs":[]}],"bytecode":{"object":"0x60e0346100b157601f613c5938819003918201601f19168301916001600160401b038311848410176100b5578084926020946040528339810103126100b157516001600160a01b038116908190036100b15760016080525f60a0525f60c05280156100a257601080546001600160a01b031916919091179055604051613b8f90816100ca82396080518161234e015260a05181612379015260c051816123a40152f35b63c172d20d60e01b5f5260045ffd5b5f80fd5b634e487b7160e01b5f52604160045260245ffdfe6080806040526004361015610012575f80fd5b5f905f3560e01c90816301bc644114612de7575080630c9fdf2814612d555780631060595714612cfe578063118e58bd14612ccf5780631eaf27b114612c495780631fb294da14612b935780632195030214612b165780632410d64114612a615780632a2f991214612a175780632e582028146129d7578063309c2ccc146125e15780633a363314146125b55780633aa19a9f146125155780634dda0b43146124ed57806350f5fa8414612482578063511c20ba1461243157806354fd4d501461232f578063550edfe2146122a957806360742b14146122325780636cf1df2c146121e157806380bec78014612134578063832d2fe6146120f4578063850b9db614611fc45780638835aec114611f7b5780638981482f14611ea55780638a1761e314611e5b5780638a73363014611e1b5780638d6685d214611da4578063928f9df514611d065780639d4e06ac14611c68578063b5a0827c14611b99578063b682a1b614611b49578063ba87068614611b2c578063baf19b2314611a34578063bfdc4a611461190c578063c3014d5814611886578063d428fbe31461182f578063da358da2146117de578063dac1fe551461171c578063e80fb963146116a6578063e8c7936914611666578063ea9f2c86146115cd578063ec880f6f1461158c578063f969ff3314610350578063f99417bf146102b0578063fabbcab31461025e5763fbea4e6d14610223575f80fd5b3461025b57602036600319011261025b576020906040906001600160a01b0361024a6130bc565b168152600483522054604051908152f35b80fd5b503461025b5760209081610271366133b6565b9390604051928184925191829101835e8101600681520301902090815483101561025b5760206102a18484613261565b90549060031b1c604051908152f35b503461025b57608036600319011261025b576004356001600160401b03811161034c576102e19036906004016131fe565b906102ea6130d2565b6102f26130e8565b9060208060643595604051928184925191829101835e810160078152030190209060018060a01b03165f5260205260405f209060018060a01b03165f5260205260405f2090815483101561025b5760206102a18484613261565b5080fd5b503461152a57604036600319011261152a57600435906001600160401b03821161152a57816004019180360390606060031983011261152a57602435936001600160401b03851161152a57846004016060600319873603011261152a576010546001600160a01b031695863b1561152a57604051916366b8ac4f60e11b8352604060048401528335976001600160601b0319891680990361152a5788604485015260248601356001600160601b0360a01b811680910361152a57606485015261043161042060448801809761354a565b6060608488015260a487019161357b565b84810360031901602486015292606084019261044d818061359b565b606087529485905260808601945f5b8181106115665750505061047490602483019061359b565b8585036020870152808552602085019460208260051b82010195835f925b84841061152e575050505050506044013563ffffffff811680910361152a57848093819260405f97015203915afa801561151f5761150a575b506104d461351a565b5035916022190182121561150657016004810135906001600160401b0382116115065760240190803603821361150657604051630c270b3360e21b8152602060048201529183918391829161052e9160248401919061357b565b0381305afa82918161116f575b5061054f57634f64bf9960e11b8252600482fd5b918251511580611162575b611153578251908151610623575b505090602001518051610579575080f35b815b815181101561061e5761058e8183613627565b51808452600160205260ff6040852054161561060f578084528360205260ff600a60408620015416610600579081600192855284602052600a60408620018360ff198254161790557f719d22d3e1041df06461e5bfd381fed6f93905f93013b8526a3e94e2f418868e8580a20161057b565b63890be21360e01b8452600484fd5b634833ae7360e11b8452600484fd5b505080f35b9290825b8151841015611144576040519260208401938685526001600160601b0360a01b8660a01b166034820152602081526106606040826131c2565b519351936020811061112f575b506106788584613627565b5191825161112057848352848152600160205260ff60408220541661111157610140830192835161110257858252816020526040822096815188556001880195602083019687518051906001600160401b0382116110ee576106e4826106de8554613461565b85613ae0565b602090601f831160011461108c576107139291889183610d80575b50508160011b915f199060031b1c19161790565b90555b6002890194604084019560018060a01b038751166001600160601b0360a01b825416179055606084015160038b015560048a016001600160801b036080860151166001600160801b031982541617905560058a019660a085019788518051906001600160401b03821161101657610791826106de8554613461565b602090601f831160011461102a576107bf92918a9183610d805750508160011b915f199060031b1c19161790565b90555b60068b0160c08601518051906001600160401b038211611016576107ea826106de8554613461565b602090601f8311600114610fb45761081892918a9183610d805750508160011b915f199060031b1c19161790565b90555b60078b019a60e086019b8c5190815191600160401b8311610df1578154838355808410610f3a575b50602001908952602089209089905b838210610e51575050505060088101956101008101968751908151916001600160401b038311610e3d57600160401b8311610e3d576020908b835485855585818110610e22575b50505001908a5260208a208a5b838110610e0557505050506101200151805160098301916001600160401b038211610df1576108d9826106de8554613461565b602090601f8311600114610d8b57918061090c92600a9695948d92610d805750508160011b915f199060031b1c19161790565b90555b019051151560ff80198354169116179055888552600160205260408520600160ff19825416179055600f545f198114610d6c57600101600f5561096e896020808b51604051928184925191829101835e81016002815203019020613b25565b6020808951604051928184925191829101835e60039082019081520301902086516001600160a01b03165f908152602091909152604090206109b1908a90613b25565b6109d7896020808a51604051928184925191829101835e81016005815203019020613b25565b6020808951604051928184925191829101835e8101600b81520301902060018060a01b0387511660018060a01b03165f52602052610a2289610a1d60405f208a51613242565b613b25565b845b8a518051821015610b3957610a3a828c92613627565b51816040518083518060208601835e81016006815203602001902090610a5f91613b25565b818a51604051818192516020819201835e810160088152036020019020610a869083613242565b90610a9091613b25565b8a51604051818192516020819201835e600c9082019081520360209081019091208a516001600160a01b03165f9081529152604090208290610ad29083613242565b90610adc91613b25565b8a51604051818192516020819201835e600e9082019081520360209081019091208a516001600160a01b03165f9081529152604090208a51610b1e9190613242565b610b2791613242565b90610b3191613b25565b600101610a24565b505099989690939485995b845180518c1015610c58576001600160a01b0390610b63908d90613627565b5116958688526004602052610b7b8b60408a20613b25565b8688526009602052610b958b610a1d60408b208c51613242565b6020808551604051928184925191829101835e60079082019081520301902083516001600160a01b039081165f90815260209283526040808220928b168252919092529020610be5908c90613b25565b875b8a5151811015610c4a5780610c448d610a1d8e610c288f968f8f986040828b60019c610c3d9552600a602052610c2e8a610a1d858520610c288a8d51613627565b51613242565b8152600d602052209051613242565b9251613627565b01610be7565b506001909b019a9550610b44565b5096939a9950602091509791949796939660018060a01b0390511692519951935199604051918183925191829101835e81018981520390209260405190604082016040835281518091526020606084019201908a905b808210610d4a5750505081810360208301528a5180825260208201906020808260051b8501019d01928b5b828110610d1d575050505050807f277b4e9514cb36d052849f3dc84cee333641d03c0e9afde019ebeff0fcf640489160019798999a9b0390a4019293919093610627565b909192939d8e601f198483030186525190610d3791612f00565b9d60209081019401929190600101610cd9565b82516001600160a01b0316845260209384019390920191600190910190610cae565b634e487b7160e01b86526011600452602486fd5b015190505f806106ff565b838b52818b209190601f1984168c5b818110610dd95750916001939185600a9897969410610dc1575b505050811b01905561090f565b01515f1960f88460031b161c191690555f8080610db4565b92936020600181928786015181550195019301610d9a565b634e487b7160e01b8a52604160045260248afd5b82516001600160a01b0316818301556020909201916001016108a6565b848387610e359552209182019101613aca565b8b5f85610899565b634e487b7160e01b8b52604160045260248bfd5b80518051906001600160401b038211610f2657610e7882610e728754613461565b87613ae0565b6020908d601f8411600114610ebe578360019592946020948796610eaf9492610d805750508160011b915f199060031b1c19161790565b86555b01930191019091610852565b9190601f198416878452828420935b818110610f0e5750936020936001969387969383889510610ef6575b505050811b018655610eb2565b01515f1960f88460031b161c191690555f8080610ee9565b92936020600181928786015181550195019301610ecd565b634e487b7160e01b8d52604160045260248dfd5b828b528360208c2091820191015b818110610f555750610843565b808c610f6360019354613461565b80610f71575b505001610f48565b601f81118414610f885750508c81555b8c5f610f69565b83601f60208486610fa3965220920160051c82019101613aca565b808d528c6020812081835555610f81565b838a52818a209190601f1984168b5b818110610ffe5750908460019594939210610fe6575b505050811b01905561081b565b01515f1960f88460031b161c191690555f8080610fd9565b92936020600181928786015181550195019301610fc3565b634e487b7160e01b89526041600452602489fd5b838a52818a209190601f1984168b5b818110611074575090846001959493921061105c575b505050811b0190556107c2565b01515f1960f88460031b161c191690555f808061104f565b92936020600181928786015181550195019301611039565b8388528188209190601f198416895b8181106110d657509084600195949392106110be575b505050811b019055610716565b01515f1960f88460031b161c191690555f80806110b1565b9293602060018192878601518155019501930161109b565b634e487b7160e01b87526041600452602487fd5b633060486160e21b8252600482fd5b63232cdbe760e11b8152600490fd5b63315d06e960e11b8152600490fd5b5f949194199060200360031b1b16925f61066d565b9350506020915091905f610568565b63773943d760e11b8252600482fd5b506020830151511561055a565b9091503d8084833e61118181836131c2565b810190602081830312611502578051906001600160401b03821161129857019060408282031261150257604051916111b883613177565b80516001600160401b03811161129c57810182601f8201121561129c578051906111e182613533565b916111ef60405193846131c2565b80835260208084019160051b830101918583116114fe5760208101915b8383106112a0575050505083526020810151906001600160401b03821161129c57019080601f8301121561129857815161124581613533565b9261125360405194856131c2565b81845260208085019260051b82010192831161129457602001905b828210611284575050506020820152905f61053b565b815181526020918201910161126e565b8680fd5b8480fd5b8580fd5b82516001600160401b0381116114fa578201610160818903601f1901126114fa57604051906112ce826131a6565b6020810151825260408101516001600160401b0381116114a6578960206112f7928401016135cf565b602083015261130860608201613613565b60408301526080810151606083015260a08101516001600160801b03811681036114a657608083015260c08101516001600160401b0381116114a657896020611353928401016135cf565b60a083015260e08101516001600160401b0381116114a65789602061137a928401016135cf565b60c08301526101008101516001600160401b0381116114a65760209082010189601f820112156114a6578051906113b082613533565b916113be60405193846131c2565b80835260208084019160051b830101918c83116114c25760208101915b8383106114c6575050505060e08301526101208101516001600160401b0381116114a65760209082010189601f820112156114a65780519061141c82613533565b9161142a60405193846131c2565b80835260208084019160051b830101918c83116114c257602001905b8282106114aa575050506101008301526101408101516001600160401b0381116114a6579061147d8a6020610160948401016135cf565b610120840152015180151581036114a25761014082015281526020928301920161120c565b8b80fd5b8c80fd5b602080916114b784613613565b815201910190611446565b8f80fd5b82516001600160401b0381116114f4576020918f6114e9908480948701016135cf565b8152019201916113db565b50508f80fd5b8a80fd5b8880fd5b8380fd5b8280fd5b6115179194505f906131c2565b5f925f6104cb565b6040513d5f823e3d90fd5b5f80fd5b909192939497602080611556600193601f198682030188526115508d8861354a565b9061357b565b9a01940194019294939190610492565b909195602080600192838060a01b0361157e8b6130fe565b16815201970192910161045c565b3461152a576115b861159d3661332d565b929160018060a01b03165f52600960205260405f2090613242565b805482101561152a576020916102a191613261565b3461152a5760206115dd36613373565b949093836040949394519384928337810160058152030190206040519081602082549182815201915f5260205f20905f5b8181106116505761164c6116386116338a8a8a8a61162e818c03826131c2565b61363b565b613702565b604051918291602083526020830190612f24565b0390f35b825484526020909301926001928301920161160e565b3461152a57602080611677366133b6565b9290604051928184925191829101835e81016002815203019020805482101561152a576020916102a191613261565b3461152a57606036600319011261152a576004356001600160401b03811161152a576116d69036906004016131fe565b6024356001600160401b03811161152a576116f86115b89136906004016131fe565b604051835160443594602091839181908401835e8101600881520301902090613242565b3461152a5760a036600319011261152a576117356130bc565b6024356001600160401b03811161152a576117566020913690600401612eb5565b9190611760612ee2565b9360018060a01b03165f526009825260405f208360405194859384378201908152030190206040519081602082549182815201915f5260205f20905f5b8181106117c85761164c61163861163388886117bb818a03826131c2565b606435906044359061363b565b825484526020909301926001928301920161179d565b3461152a57602036600319011261152a576004356001600160401b03811161152a57602061181181923690600401612eb5565b91908260405193849283378101600681520301902054604051908152f35b3461152a576020808061184136613112565b9590938360409493945193849283378101600b8152030190209060018060a01b03165f52825260405f2083604051948593843782019081520301902054604051908152f35b3461152a57606036600319011261152a576004356001600160401b03811161152a576118b6903690600401612eb5565b6118be6130d2565b9060206118c96130e8565b93826040519384928337810160078152030190209060018060a01b03165f5260205260405f209060018060a01b03165f52602052602060405f2054604051908152f35b3461152a57602036600319011261152a576004355f525f602052602060405f20805490611a276040519161194e836119478160018501613499565b03846131c2565b611a1960018060a01b03600283015416611a0b6003840154916001600160801b03600486015416604051906119918261198a8160058b01613499565b03836131c2565b604051946119ad866119a68160068c01613499565b03876131c2565b6119ee60ff600a6040519a6119d08c6119c98160098501613499565b038d6131c2565b0154169a6101206040519e8f9e8f90815201526101208d0190612f00565b9360408c015260608b015260808a015288820360a08a0152612f00565b9086820360c0880152612f00565b9084820360e0860152612f00565b9015156101008301520390f35b3461152a5760c036600319011261152a57611a4d6130bc565b6024356001600160401b03811161152a57611a6c903690600401612eb5565b90604435906001600160401b03821161152a57602092611a9184933690600401612eb5565b949092611a9c612ef1565b9660018060a01b03165f52600d825260405f208360405194859384378201908152030190208360405194859384378201908152030190206040519081602082549182815201915f5260205f20905f5b818110611b165761164c6116386116338888611b09818a03826131c2565b608435906064359061363b565b8254845260209093019260019283019201611aeb565b3461152a575f36600319011261152a576020600f54604051908152f35b3461152a57602036600319011261152a57600435805f52600160205260ff60405f20541680611b80575b6020906040519015158152f35b505f525f602052602060ff600a60405f20015416611b73565b3461152a5760c036600319011261152a576004356001600160401b03811161152a57611bc9903690600401612eb5565b611bd16130d2565b611bd96130e8565b916020611be4612ef1565b94826040519384928337810160078152030190209060018060a01b03165f5260205260405f209060018060a01b03165f5260205260405f206040519081602082549182815201915f5260205f20905f5b818110611c525761164c6116386116338888611b09818a03826131c2565b8254845260209093019260019283019201611c34565b3461152a57602080611c79366133e7565b9894929591968260409992995193849283378101600c8152030190209060018060a01b03165f52825260405f208360405194859384378201908152030190206040519081602082549182815201915f5260205f20905f5b818110611cf05761164c6116386116338a8a8a8a61162e818c03826131c2565b8254845260209093019260019283019201611cd0565b3461152a57602080611d17366133e7565b9894929591968260409992995193849283378101600b8152030190209060018060a01b03165f52825260405f208360405194859384378201908152030190206040519081602082549182815201915f5260205f20905f5b818110611d8e5761164c6116386116338a8a8a8a61162e818c03826131c2565b8254845260209093019260019283019201611d6e565b3461152a576020611db436613373565b949093836040949394519384928337810160068152030190206040519081602082549182815201915f5260205f20905f5b818110611e055761164c6116386116338a8a8a8a61162e818c03826131c2565b8254845260209093019260019283019201611de5565b3461152a57602080611e2c366133b6565b9290604051928184925191829101835e81016005815203019020805482101561152a576020916102a191613261565b3461152a5760206115b881611e6f3661328a565b959192604094919451928184925191829101835e8101600b8152030190209060018060a01b03165f5260205260405f2090613242565b3461152a57608036600319011261152a576004356001600160401b03811161152a57611ed5903690600401612eb5565b611edd6130d2565b906044356001600160401b03811161152a57611efd903690600401612eb5565b6064949194356001600160401b03811161152a5760209586958695611f2787943690600401612eb5565b9890968260405193849283378101600e8152030190209060018060a01b03165f52825260405f2083604051948593843782019081520301902083604051948593843782019081520301902054604051908152f35b3461152a57604036600319011261152a57611f946130bc565b6001600160a01b03165f9081526004602052604090208054602435919082101561152a576020916102a191613261565b3461152a5760e036600319011261152a576004356001600160401b03811161152a57611ff4903690600401612eb5565b90611ffd6130d2565b916044356001600160401b03811161152a5761201d903690600401612eb5565b6064356001600160401b03811161152a5761203c903690600401612eb5565b94909260c43596871515880361152a57856020809794819560405193849283378101600e8152030190209060018060a01b03165f52825260405f208360405194859384378201908152030190208360405194859384378201908152030190206040519081602082549182815201915f5260205f20905f5b8181106120de5761164c61163861163388886120d1818a03826131c2565b60a435906084359061363b565b82548452602090930192600192830192016120b3565b3461152a57602080612105366132ee565b929160018060a01b03165f52600a825260405f2083604051948593843782019081520301902054604051908152f35b3461152a5760a036600319011261152a5761214d6130bc565b6024356001600160401b03811161152a5761216f6121959136906004016131fe565b612177612ee2565b6001600160a01b039093165f908152600a6020526040902090613242565b6040519081602082549182815201915f5260205f20905f5b8181106121cb5761164c61163861163388886117bb818a03826131c2565b82548452602090930192600192830192016121ad565b3461152a57602036600319011261152a576004356001600160401b03811161152a57602061221481923690600401612eb5565b91908260405193849283378101600581520301902054604051908152f35b3461152a57602061224236613373565b949093836040949394519384928337810160028152030190206040519081602082549182815201915f5260205f20905f5b8181106122935761164c6116386116338a8a8a8a61162e818c03826131c2565b8254845260209093019260019283019201612273565b3461152a57608036600319011261152a576122c26130bc565b6024356001600160401b03811161152a576122e19036906004016131fe565b604435906001600160401b03821161152a576123296123076115b89336906004016131fe565b6001600160a01b039094165f908152600d602052604090206064359492613242565b90613242565b3461152a575f36600319011261152a5761164c602061241d60016123727f000000000000000000000000000000000000000000000000000000000000000061395d565b818461239d7f000000000000000000000000000000000000000000000000000000000000000061395d565b81806123c87f000000000000000000000000000000000000000000000000000000000000000061395d565b9260405199878b985191829101848a015e870190601760f91b83830152805192839101602183015e010190601760f91b84830152805192839101600283015e01015f838201520301601f1981018352826131c2565b604051918291602083526020830190612f00565b3461152a57602036600319011261152a576004356001600160401b03811161152a57602061246481923690600401612eb5565b91908260405193849283378101600281520301902054604051908152f35b3461152a57604036600319011261152a576004356001600160401b03811161152a576124b2903690600401612eb5565b60206124bc6130d2565b92826040519384928337810160038152030190209060018060a01b03165f52602052602060405f2054604051908152f35b3461152a575f36600319011261152a576010546040516001600160a01b039091168152602090f35b3461152a57606036600319011261152a5761252e6130bc565b6024356001600160401b03811161152a5761254d903690600401612eb5565b91604435906001600160401b03821161152a576020938461257381943690600401612eb5565b95909360018060a01b03165f52600d825260405f2083604051948593843782019081520301902083604051948593843782019081520301902054604051908152f35b3461152a576115b86125c63661332d565b929160018060a01b03165f52600a60205260405f2090613242565b3461152a57602036600319011261152a576004356001600160401b03811161152a57612611903690600401612eb5565b61261961351a565b5081019060208183031261152a578035906001600160401b03821161152a57019060408282031261152a576040519161265183613177565b80356001600160401b03811161152a57810182601f8201121561152a5780359061267a82613533565b9161268860405193846131c2565b80835260208084019160051b8301019185831161152a5760208101915b83831061278b575050505083526020810135906001600160401b03821161152a57019080601f8301121561152a5781356126de81613533565b926126ec60405194856131c2565b81845260208085019260051b82010192831161152a57602001905b82821061277b576127368585602082019081526040519283926020845251604060208501526060840190612f24565b905190601f19838203016040840152602080835192838152019201905f5b818110612762575050500390f35b8251845285945060209384019390920191600101612754565b8135815260209182019101612707565b82356001600160401b03811161152a57820190610160828903601f19011261152a57604051916127ba836131a6565b6020810135835260408101356001600160401b03811161152a578960206127e3928401016131fe565b60208401526127f4606082016130fe565b60408401526080810135606084015260a08101356001600160801b038116810361152a57608084015260c08101356001600160401b03811161152a5789602061283f928401016131fe565b60a084015260e08101356001600160401b03811161152a57896020612866928401016131fe565b60c08401526101008101356001600160401b03811161152a5760209082010189601f8201121561152a57803561289b81613533565b916128a960405193846131c2565b81835260208084019260051b820101918c831161152a5760208201905b8382106129a9575050505060e08401526101208101356001600160401b03811161152a5760209082010189601f8201121561152a5780359061290782613533565b9161291560405193846131c2565b80835260208084019160051b830101918c831161152a57602001905b82821061299157505050610100840152610140810135906001600160401b03821161152a576129688a6020610160948401016131fe565b610120850152013590811515820361152a578260209392610140859401528152019201916126a5565b6020809161299e846130fe565b815201910190612931565b81356001600160401b03811161152a576020918f6129cc908480948801016131fe565b8152019101906128c6565b3461152a576020806129e8366132ee565b929160018060a01b03165f526009825260405f2083604051948593843782019081520301902054604051908152f35b3461152a5760206115b881612a2b3661328a565b959192604094919451928184925191829101835e8101600c8152030190209060018060a01b03165f5260205260405f2090613242565b3461152a5760a036600319011261152a576004356001600160401b03811161152a57612a91903690600401612eb5565b612a996130d2565b906020612aa4612ee2565b93826040519384928337810160038152030190209060018060a01b03165f5260205260405f206040519081602082549182815201915f5260205f20905f5b818110612b005761164c61163861163388886117bb818a03826131c2565b8254845260209093019260019283019201612ae2565b3461152a57606036600319011261152a576004356001600160401b03811161152a57612b469036906004016131fe565b612b4e6130d2565b604051825160443593602091839181908401835e810160038152030190209060018060a01b03165f5260205260405f20805482101561152a576020916102a191613261565b3461152a5760a036600319011261152a576004356001600160401b03811161152a57612bc39036906004016131fe565b612bcb6130d2565b6044356001600160401b03811161152a57612bea9036906004016131fe565b906064356001600160401b03811161152a576115b892612c116123299236906004016131fe565b9260208060843597604051928184925191829101835e8101600e8152030190209060018060a01b03165f5260205260405f2090613242565b3461152a57604036600319011261152a576004356001600160401b03811161152a57612c79903690600401612eb5565b6024356001600160401b03811161152a576020928392612c9e84933690600401612eb5565b9490928260405193849283378101600881520301902083604051948593843782019081520301902054604051908152f35b3461152a57602036600319011261152a576004355f526001602052602060ff60405f2054166040519015158152f35b3461152a5760208080612d1036613112565b9590938360409493945193849283378101600c8152030190209060018060a01b03165f52825260405f2083604051948593843782019081520301902054604051908152f35b3461152a57608036600319011261152a57612d6e6130bc565b60643590811515820361152a5760018060a01b03165f52600460205260405f206040519081602082549182815201915f5260205f20905f5b818110612dd15761164c6116386116338888612dc4818a03826131c2565b604435906024359061363b565b8254845260209093019260019283019201612da6565b3461152a5760a036600319011261152a576004356001600160401b03811161152a57612e17903690600401612eb5565b602492919235906001600160401b03821161152a57826020612e3e81943690600401612eb5565b95909380612e4a612ee2565b988337810160088152030190208360405194859384378201908152030190206040519081602082549182815201915f5260205f20905f5b818110612e9f5761164c61163861163388886117bb818a03826131c2565b8254845260209093019260019283019201612e81565b9181601f8401121561152a578235916001600160401b03831161152a576020838186019501011161152a57565b60843590811515820361152a57565b60a43590811515820361152a57565b805180835260209291819084018484015e5f828201840152601f01601f1916010190565b9080602083519182815201916020808360051b8301019401925f915b838310612f4f57505050505090565b9091929394601f1982820301835285519081518152612fd8612fc6612f8560208501516101606020860152610160850190612f00565b60018060a01b036040860151166040850152606085015160608501526001600160801b03608086015116608085015260a085015184820360a0860152612f00565b60c084015183820360c0850152612f00565b60e08301519082810360e0840152815180825260208201906020808260051b8501019401925f5b82811061309157505050505061010083015190828103610100840152602080835192838152019201905f905b80821061306f57505050826020926101408061305886956101206001990151858203610120870152612f00565b930151151591015297019301930191939290612f40565b82516001600160a01b031684526020938401939092019160019091019061302b565b90919293946020806130af600193601f198782030189528951612f00565b9701950193929101612fff565b600435906001600160a01b038216820361152a57565b602435906001600160a01b038216820361152a57565b604435906001600160a01b038216820361152a57565b35906001600160a01b038216820361152a57565b90606060031983011261152a576004356001600160401b03811161152a578261313d91600401612eb5565b909290916024356001600160a01b038116810361152a5791604435906001600160401b03821161152a5761317391600401612eb5565b9091565b604081019081106001600160401b0382111761319257604052565b634e487b7160e01b5f52604160045260245ffd5b61016081019081106001600160401b0382111761319257604052565b90601f801991011681019081106001600160401b0382111761319257604052565b6001600160401b03811161319257601f01601f191660200190565b81601f8201121561152a57602081359101613218826131e3565b9261322660405194856131c2565b8284528282011161152a57815f92602092838601378301015290565b6040518151909260209284929081908501845e82019081520301902090565b8054821015613276575f5260205f2001905f90565b634e487b7160e01b5f52603260045260245ffd5b608060031982011261152a576004356001600160401b03811161152a57816132b4916004016131fe565b916024356001600160a01b038116810361152a5791604435906001600160401b03821161152a576132e7916004016131fe565b9060643590565b90604060031983011261152a576004356001600160a01b038116810361152a5791602435906001600160401b03821161152a5761317391600401612eb5565b90606060031983011261152a576004356001600160a01b038116810361152a5791602435906001600160401b03821161152a5761336c916004016131fe565b9060443590565b608060031982011261152a57600435906001600160401b03821161152a5761339d91600401612eb5565b90916024359060443590606435801515810361152a5790565b604060031982011261152a57600435906001600160401b03821161152a576133e0916004016131fe565b9060243590565b9060c060031983011261152a576004356001600160401b03811161152a578261341291600401612eb5565b909290916024356001600160a01b038116810361152a5791604435906001600160401b03821161152a5761344891600401612eb5565b9091606435906084359060a435801515810361152a5790565b90600182811c9216801561348f575b602083101461347b57565b634e487b7160e01b5f52602260045260245ffd5b91607f1691613470565b5f92918154916134a883613461565b80835292600181169081156134fd57506001146134c457505050565b5f9081526020812093945091925b8383106134e3575060209250010190565b6001816020929493945483858701015201910191906134d2565b915050602093945060ff929192191683830152151560051b010190565b6040519061352782613177565b60606020838281520152565b6001600160401b0381116131925760051b60200190565b9035601e198236030181121561152a5701602081359101916001600160401b03821161152a57813603831361152a57565b908060209392818452848401375f828201840152601f01601f1916010190565b9035601e198236030181121561152a5701602081359101916001600160401b03821161152a578160051b3603831361152a57565b81601f8201121561152a576020815191016135e9826131e3565b926135f760405194856131c2565b8284528282011161152a57815f926020928386015e8301015290565b51906001600160a01b038216820361152a57565b80518210156132765760209160051b010190565b90815180156136e557808210156136d75783820181106136cd575b61365f84613533565b9461366d60405196876131c2565b848652601f1961367c86613533565b013660208801375f5b8581106136955750505050505090565b60019082156136c2576136b085820185035f19015b87613627565b516136bb828a613627565b5201613685565b6136b08186016136aa565b8181039350613656565b62ed0ab960e11b5f5260045ffd5b50505050506040516136f86020826131c2565b5f81525f36813790565b90815161370e81613533565b9061371c60405192836131c2565b80825261372b601f1991613533565b015f5b8181106138fb5750505f5b83518110156138f65761374c8185613627565b515f525f60205260405f2060405190613764826131a6565b805482526040516137838161377c8160018601613499565b03826131c2565b602083015260028101546001600160a01b03166040808401919091526003820154606084015260048201546001600160801b03166080840152516137ce8161377c8160058601613499565b60a08301526040516137e78161377c8160068601613499565b60c08301526007810180546137fb81613533565b9161380960405193846131c2565b81835260208301905f5260205f20905f905b8382106138d1575050505060e0830152600881016040519081602082549182815201915f5260205f20905f905b8082106138af5750505060019493928261386860ff94600a9403826131c2565b6101008501526040516138828161377c8160098601613499565b610120850152015416151561014082015261389d8285613627565b526138a88184613627565b5001613739565b82546001600160a01b0316845260209093019260019283019290910190613848565b6001602081926040516138e88161377c818a613499565b81520193019101909161381b565b509150565b60209060405161390a816131a6565b5f81526060838201525f60408201525f60608201525f6080820152606060a0820152606060c0820152606060e0820152606061010082015260606101208201525f6101408201528282860101520161372e565b805f9172184f03e93ff9f4daa797ed6e38ed64bf6a1f0160401b821015613aa7575b806d04ee2d6d415b85acef8100000000600a921015613a8c575b662386f26fc10000811015613a78575b6305f5e100811015613a67575b612710811015613a58575b6064811015613a4a575b1015613a3f575b600a602160018401936139e4856131e3565b946139f260405196876131c2565b808652613a01601f19916131e3565b013660208701378401015b5f1901916f181899199a1a9b1b9c1cb0b131b232b360811b8282061a8353048015613a3a57600a9091613a0c565b505090565b6001909101906139d2565b6064600291049301926139cb565b612710600491049301926139c1565b6305f5e100600891049301926139b6565b662386f26fc10000601091049301926139a9565b6d04ee2d6d415b85acef810000000060209104930192613999565b506040915072184f03e93ff9f4daa797ed6e38ed64bf6a1f0160401b810461397f565b818110613ad5575050565b5f8155600101613aca565b9190601f8111613aef57505050565b613b19925f5260205f20906020601f840160051c83019310613b1b575b601f0160051c0190613aca565b565b9091508190613b0c565b8054600160401b81101561319257613b4291600182018155613261565b819291549060031b91821b915f19901b191617905556fea26469706673582212207a10b624561d158ca94488856fd62f7dd8463ff73fa8aeb42024f45e1d4260e664736f6c634300081b0033","linkReferences":{}},"methodIdentifiers":{"decodeIndexingPayload(bytes)":"309c2ccc","eventExists(bytes32)":"118e58bd","eventExistsAndDeleted(bytes32)":"b682a1b6","events(bytes32)":"bfdc4a61","eventsByAddress(address,uint256)":"8835aec1","eventsByAddressAndTag(address,string,uint256)":"3a363314","eventsByAddressAndType(address,string,uint256)":"ec880f6f","eventsByAddressAndTypeAndTag(address,string,string,uint256)":"550edfe2","eventsByChainId(string,uint256)":"e8c79369","eventsByChainIdAndContract(string,address,uint256)":"21950302","eventsByChainIdAndContractAndAddress(string,address,address,uint256)":"f99417bf","eventsByChainIdAndContractAndTag(string,address,string,uint256)":"2a2f9912","eventsByChainIdAndContractAndType(string,address,string,uint256)":"8a1761e3","eventsByChainIdAndContractAndTypeAndTag(string,address,string,string,uint256)":"1fb294da","eventsByTag(string,uint256)":"fabbcab3","eventsByType(string,uint256)":"8a733630","eventsByTypeAndTag(string,string,uint256)":"e80fb963","getEventCountByAddress(address)":"fbea4e6d","getEventCountByAddressAndTag(address,string)":"832d2fe6","getEventCountByAddressAndType(address,string)":"2e582028","getEventCountByAddressAndTypeAndTag(address,string,string)":"3aa19a9f","getEventCountByChainId(string)":"511c20ba","getEventCountByContract(string,address)":"50f5fa84","getEventCountByContractAndAddress(string,address,address)":"c3014d58","getEventCountByContractAndTag(string,address,string)":"10605957","getEventCountByContractAndType(string,address,string)":"d428fbe3","getEventCountByContractAndTypeAndTag(string,address,string,string)":"8981482f","getEventCountByTag(string)":"da358da2","getEventCountByType(string)":"6cf1df2c","getEventCountByTypeAndTag(string,string)":"1eaf27b1","getEventsByAddress(address,uint256,uint256,bool)":"0c9fdf28","getEventsByAddressAndTag(address,string,uint256,uint256,bool)":"80bec780","getEventsByAddressAndType(address,string,uint256,uint256,bool)":"dac1fe55","getEventsByAddressAndTypeAndTag(address,string,string,uint256,uint256,bool)":"baf19b23","getEventsByChainId(string,uint256,uint256,bool)":"60742b14","getEventsByContract(string,address,uint256,uint256,bool)":"2410d641","getEventsByContractAndAddress(string,address,address,uint256,uint256,bool)":"b5a0827c","getEventsByContractAndTag(string,address,string,uint256,uint256,bool)":"9d4e06ac","getEventsByContractAndType(string,address,string,uint256,uint256,bool)":"928f9df5","getEventsByContractAndTypeAndTag(string,address,string,string,uint256,uint256,bool)":"850b9db6","getEventsByTag(string,uint256,uint256,bool)":"8d6685d2","getEventsByType(string,uint256,uint256,bool)":"ea9f2c86","getEventsByTypeAndTag(string,string,uint256,uint256,bool)":"01bc6441","getServiceManager()":"4dda0b43","handleSignedEnvelope((bytes20,bytes12,bytes),(address[],bytes[],uint32))":"f969ff33","totalEvents()":"ba870686","version()":"54fd4d50"},"id":204}